:06000000020FBC02006BC0
:03000B0002006B85
:0300130002006B7D
:03001B0002006B75
:0300230002006B6D
:03002B0002006B65
:0300330002006B5D
:03003B0002006B55
:0300430002006B4D
:03004B0002006B45
:0300530002006B3D
:03005B0002006B35
:0300630002006B2D
:01006B003262
:0900800002006B0002006B00029B
:08008900006B0002006B000295
:08009100006B0002006B00028D
:08009900006B0002006B000285
:0800A100006B0002006B00027D
:0800A900006B0002006B000275
:0700B100006B0002006B0070
:0901000002006B0002006B00021A
:08010900006B0002006B000214
:08011100006B0002006B00020C
:08011900006B0002006B000204
:08012100006B0002006B0002FC
:08012900006B0002006B0002F4
:08013100006B0002006B0002EC
:08013900006B0002006B0002E4
:08014100006B0002006B0002DC
:08014900006B0002006B0002D4
:08015100006B0002006B0002CC
:08015900006B0002006B0002C4
:08016100006B0002006B0002BC
:08016900006B0002006B0002B4
:08017100006B0002006B0002AC
:07017900006B0002006B00A7
:0CE0000012010002FFFFFF40FEFFFF00C6
:06E00C0000010102040105
:0AE012000A060002FFFFFF400100B4
:0EE01C00090220000101008032090400000208
:0EE02A00FFFFFF030705020200020007058644
:04E0380002000200E0
:0CE03C0012010002FFFFFF40FEFFFF008A
:06E04800000101020001CD
:0AE04E000A060002FFFFFF40010078
:0EE058000902120001010080320904000000DC
:04E06600FFFFFF03B6
:01E06A0005B0
:02E06B0076E05D
:02E06D007CE055
:02E06F00A4E02B
:02E07100C4E009
:02E07300E6E0E5
:06E076000603000009048E
:0EE07C00280346007200650065002000530076
:0EE08A006F0066007400770061007200650090
:0CE09800200046006F006C006B0073005D
:0EE0A4002003510053003100520020004100C3
:0EE0B20042002E003000200052006500760073
:02E0C00020003E
:02E0C2003F001D
:0EE0C400220343006F006D006D0061006E00CE
:0EE0D20064002000260020005300740061004E
:06E0E000740075007300DE
:02E0E600120323
:0EE0E80031002E0037003300320030003500CA
:02E0F6003000F8
:08018000780BE84400600C79E3
:0D01880001902000E4F0A3D8FCD9FAD08348
:0D019500D082F6D8FDC082C08375820022A2
:0201A200AA822F
:0501A40010990280FB30
:0301A9008A99220E
:0801AC00AA82AB83ACF07D00D8
:0E01B4008D060DEE2AFEE43BFF8C008E828F3E
:0D01C2008388F0120FA0FE8E07BE00012200
:0E01CF008F82C002C003C004C0051201A2D07E
:0901DD0005D004D003D00280CE4D
:0301E600020640CE
:0B01E900AA82902000E4F0902001E5C5
:0401F40008F0752B6F
:0301F80000752C63
:0901FB0020752D028A82C0021257
:0B02040003FFE582D0027003F58222A8
:04020F0085092B85AD
:030213000A2C852D
:050216000B2D8A82029D
:02021B00033CA2
:0E021D0053A0C07582281202CB43A0027A00C3
:0E022B00E5A020E4140A758232C0021202CB54
:05023900D002BAFF0035
:06023E0040EB7582002276
:04024400758201229C
:0E024800E5821392A0D2A2C2A21392A0D2A26B
:0E025600C2A21392A0D2A2C2A21392A0D2A260
:0E026400C2A21392A0D2A2C2A21392A0D2A252
:0E027200C2A21392A0D2A2C2A21392A0D2A244
:03028000C2A222F5
:06028300AA82AB0CAC0DD9
:0E0289008A051AED60128B828C83E0FDA3AB18
:0A02970082AC838D8212024880E8D9
:0102A100223A
:0702A20085820C85830D85A8
:0902A9000E82120283758201220B
:0A02B200E5A0FA20E40475820022A2
:0A02BC00530208BA080475820122FB
:0402C600758200221B
:0102CA002211
:0202CB00AA8205
:0602CD001202CADAFB2256
:0302D30090FB504D
:0802D600A3E582458370F922C3
:0402DE00AA82AB83C2
:0802E2001202D31ABAFF011B3E
:0702EA00BA00F5BB00F2228F
:0902F10090E6A0E0FA4401F022BD
:0E02FA00AA8274805AFBC423541FFB740F5A4F
:0E03080090E6834BF090E683E0FA4420F0226A
:0E03160090E680E0FA440AF09000FA1202DE4F
:0E03240090E65D74FFF090E65F74FFF0539179
:0A033200EF90E680E0FA54F7F022A5
:0A033C00AA82E52D700475820122EB
:0E03460090E678E0FB20E6F890E6787480F010
:0A035400EA2AFA90E67974014AF0F3
:0E035E0090E678E0FA30E0F890E678E0FA30C9
:05036C00E2030203F3AF
:0B03710090E678E0FA20E1030203F3BD
:0C037C00E52DB4010890E678E0FA44207A
:01038800F084
:0903890090E679E0F52EAA2BABF9
:030392002CAC2D63
:04039500DC028030D6
:0E03990090E678E0FD30E0F890E678E0FD2098
:0D03A700E24ABC010890E678E0FD4420F039
:0E03B40090E679E0FD8A828B83F0A3AA82ABEB
:0703C200838A2B8B2C80CCF9
:0E03C90090E678E0FA30E0F890E678E0FA206E
:0C03D700E21A90E678E0FA4440F0AA2B0D
:0C03E300AB2C90E679E0FC8A828B83F062
:0403EF0075820122F0
:0C03F30090E678E0FA4440F075820022A9
:0203FF00AA82D0
:0E04010090E678E0FB20E6F890E6787480F054
:07040F00EA2AFA90E679F0F9
:0E04160090E678E0FA30E0F890E678E0FA2020
:0C042400E24890E678E0FA30E140AA2BB4
:04043000AB2CAC2D18
:0E043400EC602B8A828B83E0FDA3AA82AB834F
:0604420090E679EDF01CCC
:0E04480090E678E0FD30E0F890E678E0FD20E8
:0C045600E21690E678E0FD20E1D4800C76
:0C04620090E678E0FA4440F07582012238
:0C046E0090E678E0FA4440F0758200222D
:05047A00AA82BA030094
:07047F004005EA249C500136
:010486002253
:09048700740F5AFBBB030280074D
:07049000740F5AFBBB0B4582
:0A049700A2AF9200C2AFEA2400F504
:0C04A10082E43400F5837402F07B0074E8
:0C04AD00012AFCE43BFDEC2400F582ED8C
:0A04B9003400F583E52CFCF074021A
:0C04C3002AFAE43BFBEA2400F582EB344B
:0A04CF0000F583AA2B7B00EAF0A2DF
:0304D9000092AFDF
:0104DC0022FD
:0804DD00E582FA24835001229C
:0704E50074035AFB600122C1
:0A04EC00A2AF9201C2AFEA2400F5AE
:0C04F60082E43401F5837402F07B007492
:0C050200012AFCE43BFDEC2400F582ED36
:0A050E003401F583E52CFCF07402C3
:0C0518002AFAE43BFBEA2400F582EB34F5
:0A05240001F583AA2B7B00EAF0A288
:04052E000192AF2265
:05053200AA82BA80005E
:070537004005EA244B5001CE
:01053E00229A
:07053F0074035AFB60012266
:0A054600A2AF9202C2AFEA2480F5D2
:0C05500082E43400F5837402F07B007438
:0C055C00012AFCE43BFDEC2480F582ED5C
:0A0568003400F583E52CFCF074026A
:0C0572002AFAE43BFBEA2480F582EB341B
:0A057E0000F583AA2B7B00EAF0A22F
:040588000292AF220A
:08058C00C2E8C2EA752B0075FC
:060594002C0175824312E8
:04059A00047A752B3F
:03059E0080752C39
:0C05A1000075825312047A0090E650E4CA
:0E05AD00F00090E652E4F00090E654E4F00016
:0E05BB0090E656E4F00090E65174FFF00090D8
:0E05C900E65374FFF00090E65574FFF00090CA
:0E05D700E65774FFF00090E658E4F090E65905
:0E05E50074FFF090E65AE4F090E65B74FFF0CD
:0E05F30090E65CE4F090E65D74FFF090E65E4A
:0E060100E4F090E65F74FFF00090E660E4F035
:0D060F000090E66174FFF090E662E4F09068
:0E061C00E66374FFF090E665E4F090E6687423
:0A062A000BF05391AFD2E8D2EA22A0
:08063400E582FA7003F5B12222
:04063C00EA42B122BB
:09064000758200120634C2812209
:0A064900AA827B00EA30E0027B0188
:05065300EA30E1010B9B
:05065800EA30E2010B95
:05065D00EA30E3010B8F
:05066200EA30E4010B89
:05066700EA30E5010B83
:05066C00EA30E6010B7D
:05067100EA30E7010B77
:030676008B822252
:0C067900AA82851082C002120649AB82E2
:0B068500D002EB24FE5004758200221E
:0B069000851082C002120634D002E583
:08069B001130E7047582002212
:0C06A30074605511FB6023BB2002800531
:0506AF00BB40178008AC
:0806B400850F8212074080113E
:0906BC008A82120740850F8212A8
:0406C5000740800466
:0406C9007582002214
:0606CD00E514600C851429
:0506D3001C8512828568
:0506D80013831207FA74
:0A06DD0075820012063475820122B6
:0C06E700AA82851682C002120634D002DE
:0906F300E51730E70475820022CE
:0C06FC0074605517FB6023BB20028005D2
:05070800BB4017800852
:08070D008515821207408011DE
:090715008A821207408515821248
:04071E00074080040C
:0407220075820022BA
:06072600E51A600C851AC3
:05072C001B8518828509
:0507310019831207937B
:0A073600758200120634758201225C
:0E074000E582FA23FA139281D283C283EA2360
:0E074E00FA139281D283C283EA23FA139281B6
:0E075C00D283C283EA23FA139281D283C2832E
:0E076A00EA23FA139281D283C283EA23FA13A0
:0E0778009281D283C283EA23FA139281D28344
:0D078600C283EA23FA139281D283C2832238
:06079300AA82AB83AC1B3F
:070799008C051CBD000122CC
:0E07A0008A828B83E0FDA3AA82AB838D82C088
:0E07AE0002C003C004120740D004D003D002E2
:0207BC0080DBE0
:0E07BE00E4D283A28033C283D283A28033C2EE
:0E07CC0083D283A28033C283D283A28033C241
:0E07DA0083D283A28033C283D283A28033C233
:0E07E80083D283A28033C283D283A28033C225
:0407F60083F58222E3
:0607FA00AA82AB83AC1CD7
:070800008C051CBD00012264
:0E0807001207BEAD828A828B83EDF0A3AA8217
:04081500AB8380E74A
:0A081900AA82AB83C2AD8A2B8B2CA0
:0E08230075822B12047A75CB6375CAC075C836
:0408310004D2AD221E
:060FBC0075210075220002
:0A08350090E680E0FA30E719752321
:03083F000075241D
:03084200E0752539
:0308450012752603
:03084800E0752731
:03084B001C7528F1
:03084E00E0752929
:0308510058752AAD
:02085400E022A0
:0408560075233C7555
:03085A0024E07522
:03085D00254E75B0
:0308600026E0751A
:030863002758759E
:0308660028E07512
:03086900291C75D2
:03086C002AE0225D
:09086F005391EF75A100D2033290
:0E087800C0E0C0F0C082C083C002C003C00454
:0E088600C005C006C007C000C001C0D075D0BC
:0E089400005391EF75A100120835D0D0D001AD
:0E08A200D000D007D006D005D004D003D0027D
:0908B000D083D082D0F0D0E032F8
:0E08B900C0E0C0F0C082C083C002C003C00413
:0E08C700C005C006C007C000C001C0D075D07B
:0E08D500005391EF75A100120835D0D0D0016C
:0E08E300D000D007D006D005D004D003D0023C
:0908F100D083D082D0F0D0E032B7
:0508FA00120835752B0A
:0308FF006F752CE6
:08090200087582001204DD7586
:03090A002B7875D2
:06090D002C087582101297
:0409130004DD752B5F
:03091700B9752C83
:0C091A00087582141204DD90E65C743154
:02092600F022BD
:0D092800E582547FFA24F750047582002206
:07093500BA010475820122E2
:08093C00530201E4BA000104BA
:03094400F5822217
:0E094700AA82BA010C90E6A1E0FB7C008B8234
:030955008C83226E
:0E095800BA810C90E6A2E0FB7C008B828C83BF
:01096600226E
:0E09670053027FEA700C90E6A0E0FB7C008B50
:04097500828C8322CB
:0E09790090E6A3E0FB7C00EAC313FA7D00EADF
:090987002BFBED3C8B82F5832271
:0D09900090E6B8E0FA53021FBA000280059D
:05099D00BA02478012C0
:0A09A20090E6BAE0FABA01028005FF
:0509AC00BA0202800305
:0309B1001202F13E
:0E09B40090E6BAE0FA702C90E6BCE0FAF5820C
:0E09C200120928E582601B90E6BCE0FAF5827F
:0E09D000120947AA82AB83E0FC4304018A822D
:0609DE008B83ECF08003A6
:0309E4001202F10B
:0309E7000202F118
:0D09EA0090E6B8E0FA53021FBA0002800543
:0509F700BA0243800775
:0709FC0090E6BAE00202F1EF
:0E0A030090E6BAE0703190E6BCE0FAF582129F
:0E0A11000928E582602390E6BCE0FAF5821227
:0E0A1F000947AA82AB83E0FC5304FE8A828B57
:0D0A2D0083ECF090E6BCE0FAF5820202FADC
:030A3A000202F1C4
:030A3D000202F1C1
:0D0A400090E6B8E0FA53021FBA0002800AE7
:050A4D00BA0102801B4C
:050A5200BA0261802AD8
:0E0A570090E7407401F090E741E4F090E68AE9
:080A6500F090E68B7402F02210
:0E0A6D0090E740E4F090E741F090E68AF090C8
:060A7B00E68B7402F0227C
:0E0A810090E6BCE0FAF582120928E5826024B6
:0E0A8F0090E6BCE0FAF582120947E0FA530245
:0E0A9D000190E740EAF090E741E4F090E68A2D
:080AAB00F090E68B7402F022CA
:030AB3000202F14B
:030AB6000202F148
:0A0AB90090E6BBE0FABA01028017D4
:050AC300BA02028034BC
:050AC800BA0302805199
:050ACD00BA06028019C9
:050AD200BA07028036A6
:030AD700020B54BB
:0A0ADA00AA23AB2490E6B3EBF07BF7
:070AE4000090E6B4EAF022E5
:0A0AEB00AA25AB2690E6B3EBF07BE2
:070AF5000090E6B4EAF022D4
:0A0AFC00AA27AB2890E6B3EBF07BCD
:070B06000090E6B4EAF022C2
:0A0B0D00AA29AB2A90E6B3EBF07BB7
:070B17000090E6B4EAF022B1
:0E0B1E0090E6BAE0FA90E06AE0FBC3EA9B4082
:040B2C00030202F1CD
:0C0B300090E6BAE0FA75F002A4246BF520
:0C0B3C008274E035F0F583E0FAA3E0FBE2
:0C0B480090E6B3F07B0090E6B4EAF022E7
:030B54000202F1A9
:0C0B570090E6B9E0FA6036BA0602802E83
:050B6300BA0802800544
:050B6800BA0A2C801206
:0C0B6D0090E740E521F090E68AE4F0906B
:060B7900E68B7401F0227E
:0C0B7F0090E740E522F090E68AE4F09058
:060B8B00E68B7401F0226C
:030B9100020AB99C
:030B9400020A4012
:030B97000202F166
:0A0B9A0090E6B9E0FABA01028027E4
:050BA400BA03028025E8
:050BA900BA05028023E3
:050BAE00BA0702801EE1
:050BB300BA09028005F3
:050BB800BA0B168007D6
:070BBD0090E6BAE0F52122E9
:070BC40090E6BAE0F52222E1
:030BCB000209EA32
:030BCE0002099089
:030BD1000202F12C
:0E0BD40090E6B8E0FA530280BA8003020B5795
:030BE200020B9A69
:0C0BE500C20390E6B8E0FA530260BA00C8
:030BF10002801E61
:050BF400BA2002800898
:050BF900BA4002800873
:030BFE00BA6016C4
:050C01001202F1801455
:0C0C0600120F1AE582700D1202F1800836
:050C1200120BD4800369
:030C17001202F1D5
:090C1A0090E6A0E0FA4480F0220B
:0E0C230090E6007412F0758E0090E60174E306
:0E0C3100F00090E6047480F00090E604740277
:0E0C3F00F00090E6047404F00090E6047406E1
:0E0C4D00F00090E6047408F00090E604E4F075
:0E0C5B000075800075B20975A0C075B4E7750C
:0D0C6900B10075B6FF90E61074A0F0009089
:0E0C7600E61174A0F00090E61274A0F0009059
:0D0C8400E61474E0F00090E609E4F0009042
:0E0C9100E6187401F00090E6187411F000905F
:0D0C9F00E6207402F00090E621E4F00090E1
:0E0CAC00E61A7409F00090E6247402F000903D
:0E0CBA00E625E4F00043AF010090E68AE4F086
:0E0CC8000090E68DE4F0007598504389207589
:090CD6008DB2D28ED2990201E622
:030FC500020FC850
:030FC200751D0199
:030FDB00020CDF26
:050CDF00120F7D80FEF4
:050CE40090E68BE4F036
:090CE90090E6A0E0FA20E1F822F7
:0C0CF20090E6B9E0FA24F35003020E066D
:070CFE00EA2A2A900D05739C
:070D0500020E06020D2C0294
:060D0C000D44020E060278
:060D12000E06020E0602AF
:060D18000E06020E0602A9
:060D1E000D6E020D9202B1
:060D24000D38020DC402AF
:020D2A000DE0DA
:0C0D2C0090E6BAE0FA906100F0020E0AB6
:0C0D380090E6BAE0FA906010F0020E0A9B
:0C0D440090E6BCE0FA600ABA01028008E8
:050D5000BA0217801239
:030D550002021D7A
:0C0D5800120CE490E68BE0F50E90E740F2
:030D64000202A2E6
:030D67000202B2D3
:040D6A00758200226C
:0C0D6E00120CE490E6BAE0FA752B407518
:0A0D7A002CE790E68BE0F52D8A824D
:0A0D84001203FFE5826003020E0A6D
:040D8E007582002248
:0D0D9200120CE490E6BBE0FA90E6BAE0F542
:0A0D9F001590E6BDE0F51690E6BCE5
:070DA900E0F5177518407515
:0A0DB00019E790E68BE0F51A8A823D
:0A0DBA001206E7E5827049F5822277
:0E0DC40090E6BAE0FABA010A90E67AE0FA4444
:040DD20001F0803478
:0A0DD60090E67AE0FA54FEF0802A5D
:0E0DE00090E6BAE0700890E6007402F0801C05
:0E0DEE0090E6BAE0FABA010890E600740AF046
:020DFC00800C69
:080DFE0090E6007412F080047D
:040E060075820022CF
:040E0A0075820122CA
:080E0E0090E6B9E0FABA810098
:050E16005003020F1261
:080E1B00EA24785003020F12D3
:0B0E2300EA247FFA25E02A900E2E73CF
:070E2E00020E43020E7102E7
:060E35000EE4020EB00203
:060E3B000ECA020EE602E1
:020E41000EFCA5
:0A0E430090E6BAE0FA752B40752C1A
:0C0E4D00E790E6BEE0F52D8A8212033C1F
:070E5900E5827003F582221F
:0E0E600090E68AE4F090E6BEE0FA90E68BF0B1
:030E6E00020F165A
:0C0E710090E6BBE0FA90E6BAE0F50F90C6
:0A0E7D00E6BDE0F51090E6BCE0F5DC
:050E8700117512407519
:0A0E8C0013E790E6BEE0F5148A8239
:0A0E9600120679E5827003F582224E
:0E0EA00090E68AE4F090E6BEE0FA90E68BF071
:020EAE0080665C
:0E0EB00090E678E0FA53021890E740EAF090DE
:0C0EBE00E68AE4F090E68B7401F0804CB2
:0E0ECA0090E67AE0FA53020190E740EAF090D9
:0C0ED800E68AE4F090E68B7401F08032B2
:020EE40080305C
:0E0EE600906100E0FA90E740F090E68AE4F0B8
:080EF40090E68B7401F0801AF6
:0E0EFC00906010E0FA90E740F090E68AE4F093
:080F0A0090E68B7401F08004F5
:040F120075820022C2
:040F160075820122BD
:0B0F1A0090E6B8E0FABAC003020E0E29
:0B0F250090E6B8E0FABA4003020CF2BC
:040F300075820022A4
:080F3400300305120BE580F803
:080F3C007582201201A280F071
:090F4400C0E0151DE51D700375E8
:020F4D001D3253
:050F4F00C2CFD0E0322A
:040F540075090275A4
:030F58000A2075F7
:090F5B000805750B0175825112A5
:080F640001E9902002E0FA907F
:0D0F6C00E00CF090E048EAF074302AFA90B2
:040F7900E0C2F022C0
:090F7D00120C23C2AF120F541232
:060F8600058C1208FA7A46
:080F8C00447B0F8A828B831263
:0A0F94000819D2EAD2AF12031602C8
:020F9E000F340E
:060FD500E478FFF6D8FDF0
:030FC80075812E02
:0A0FCB00120180E5826003020CDFD2
:0E0FA00020F71430F6148883A88220F507E6A7
:060FAE00A88375830022F8
:030FB400E280F7E1
:030FB700E493229E
:020FBA00E02233
:00000001FF
