:06000000020F0102006B7B
:03000B0002006B85
:0300130002006B7D
:03001B0002006B75
:0300230002006B6D
:03002B0002006B65
:0300330002006B5D
:03003B0002006B55
:0300430002006B4D
:03004B0002006B45
:0300530002006B3D
:03005B0002006B35
:0300630002006B2D
:01006B003262
:0900800002006B0002006B00029B
:08008900006B0002006B000295
:08009100006B0002006B00028D
:08009900006B0002006B000285
:0800A100006B0002006B00027D
:0800A900006B0002006B000275
:0700B100006B0002006B0070
:0901000002006B0002006B00021A
:08010900006B0002006B000214
:08011100006B0002006B00020C
:08011900006B0002006B000204
:08012100006B0002006B0002FC
:08012900006B0002006B0002F4
:08013100006B0002006B0002EC
:08013900006B0002006B0002E4
:08014100006B0002006B0002DC
:08014900006B0002006B0002D4
:08015100006B0002006B0002CC
:08015900006B0002006B0002C4
:08016100006B0002006B0002BC
:08016900006B0002006B0002B4
:08017100006B0002006B0002AC
:07017900006B0002006B00A7
:08018000780AE84400600C79E4
:0D01880001902000E4F0A3D8FCD9FAD08348
:0D019500D082F6D8FDC082C08375820022A2
:0CE0000012010002FFFFFF40FEFF0700BE
:06E00C0000010102060103
:0AE012000A060002FFFFFF400100B4
:0EE01C0009023200030100C0000904000000E8
:0EE02A00FFFFFF030904010001FFFFFF0407D1
:0EE038000502020002000904020001FFFFFFC2
:08E04600050705860200020037
:0CE04E0012010002FFFFFF40FEFF070070
:06E05A00000101020001BB
:0AE060000A060002FFFFFF40010066
:0EE06A0009021200010100C0000904000000BC
:04E07800FFFFFF03A4
:01E07C00079C
:02E07D008CE035
:02E07F0092E02D
:02E08100BAE003
:02E08300D2E0E9
:02E08500F4E0C5
:02E0870010E1A6
:02E089002AE18A
:06E08C0006030000090478
:0EE09200280346007200650065002000530060
:0EE0A0006F006600740077006100720065007A
:0CE0AE00200046006F006C006B00730047
:0EE0BA0018034800500053004400520020009C
:08E0C800520065007600200003
:02E0D0003F000F
:0EE0D200220343006F006D006D0061006E00C0
:0EE0E000640020002600200053007400610040
:06E0EE00740075007300D0
:0EE0F4001C035400720061006E0073006D008A
:0EE10200690074002000500061007400680085
:0EE110001A0352006500630065006900760086
:0CE11E00650020005000610074006800E3
:02E12A001203DE
:0EE12C0033002E003100340031003500390080
:02E13A003300B0
:0301A200020F0A3F
:030F01007508016F
:030F1D000201A529
:0501A50012036880FE5A
:0501AA0090E68BE4F07B
:0801AF0090E6A0E0FA20E1F85F
:0101B7002225
:0A01B80090E6B9E0FABA01028014E3
:0501C200BA02028039C1
:0601C700BA080302022A3F
:0601CD00BA090302024A18
:0301D30002027CA9
:0701D60090E6BCE0FA6005B1
:0501DD00BA011C800DB9
:0D01E20090E6BAE0FAF5821204FB020280FA
:0D01EF0090E6BAE0FAF582120508020280DF
:0401FC0075820022E6
:0702000090E6BCE0FA600A81
:05020700BA01028008AD
:05020C00BA0217801288
:030211000203C61F
:0D0214001201AA90E68BE0F50F90E7400282
:0202210004399E
:0302230002044989
:0402260075820022BB
:0C022A001201AA90E6BAE0FA752B4075AC
:0B0236002CE790E68BE0F52D8A821289
:060241000669E582703938
:03024700F582221B
:0D024A001201AA90E6BBE0FA90E6BAE0F5DA
:0C0257001690E6BDE0F51790E6BCE0F55F
:0502630018751940753B
:0B0268001AE790E68BE0F51B8A82127B
:060273000980E58270071E
:03027900F58222E9
:04027C007582002265
:0302800075820183
:010283002258
:0A02840090E6B9E0FABA81028005A5
:05028E00BA826E802D14
:0C02930090E6BAE0FA752B40752CE7905D
:0D029F00E6BEE0F52D8A82120592E5827020
:0102AC00034E
:0302AD00F58222B5
:0E02B00090E68AE4F090E6BEE0FA90E68BF06D
:0202BE0080437B
:0C02C00090E6BBE0FA90E6BAE0F5109082
:0C02CC00E6BDE0F51190E6BCE0F512750F
:0A02D80013407514E790E6BEE0F550
:0A02E200158A82120912E5827003EA
:0302EC00F5822276
:0E02EF0090E68AE4F090E6BEE0FA90E68BF02E
:0202FD0080047B
:0402FF0075820022E2
:03030300758201FF
:0103060022D4
:0803070090E6B8E0FABAC00369
:03030F0002028463
:0803120090E6B8E0FABA4003DE
:03031A000201B825
:03031D00758200E6
:0103200022BA
:030321003003FDA9
:05032400120EC380F879
:0103290022B1
:08032A00C0E01508E5086002BF
:02033200800643
:0603340075083263A040D1
:02033A00C2CF30
:03033C00D0E032DC
:04033F00750A0075C6
:030343000B207517
:090346000905750C0175825112C4
:08034F000397902000E0FA90F2
:0D035700E00CF090E05AEAF074302AFA90C1
:03036400E0D0F0F6
:010367002273
:0D0368001204657582011204FB75820012FB
:080375000508C2AF12033F129C
:06037D000815120B957A31
:080383002A7B038A828B83129E
:0A038B000AB4D2EAD2AF12056C02E8
:02039500032142
:09039700AA82902009E509F07525
:0303A0002B0975B1
:0303A3002C207596
:0D03A6002D018A82C002120669E582D00294
:0203B3007003D5
:0303B500F58222AC
:0403B800850A2B8502
:0303BC000B2C8582
:0503BF000C2D8A8202F2
:0203C4000592A0
:0C03C60053A0C075822812052143A0023C
:0703D200741055A0FA60F958
:0303D90075820129
:0103DC0022FE
:0E03DD00E5821392A0D2A2C2A21392A0D2A2D5
:0E03EB00C2A21392A0D2A2C2A21392A0D2A2CA
:0E03F900C2A21392A0D2A2C2A21392A0D2A2BC
:0E040700C2A21392A0D2A2C2A21392A0D2A2AD
:03041500C2A2225E
:06041800AA82AB0DAC0E40
:08041E008A051AED24FF5012BB
:0E0426008B828C83E0FDA3AB82AC838D8212AF
:0404340003DD80E67E
:0104380022A1
:0704390085820D85830E850D
:080440000F82120418758201FD
:010448002291
:08044900AAA074105AFB600226
:02045100800425
:04045300758200228C
:06045700530208BA08047C
:04045D007582012281
:03046100758200A1
:010464002275
:0E04650090E6007410F0758E0090E60174F3BE
:0E047300F00075800275B20375A0C075B4E785
:0E04810075B1FF75B6FF90E61074A0F0009004
:0E048F00E61174E0F00090E61274A0F0009008
:0D049D00E613E4F00090E61474E0F0009027
:0D04AA00E615E4F00090E6047480F0009088
:0E04B700E6047402F00090E6047406F0009073
:0D04C500E604E4F00090E6187401F00090E9
:0E04D200E6187411F00090E61A7409F000901C
:0E04E000E68AE4F00090E68DE4F00090E62459
:0D04EE007402F00090E625E4F00002051D08
:0504FB00E582FA700427
:0405000043A04022B2
:0305040053A0BF42
:0105070022D1
:05050800E582FA700419
:04050D0043A0802265
:0305110053A07F75
:0105140022C4
:0305150063A040A0
:0105180022C0
:0305190063A0805C
:01051C0022BC
:03051D000208D9F8
:0105200022B8
:02052100AA82AC
:05052300120520DAFBC7
:0105280022B0
:0305290090FB50F4
:08052C00A3E582458370F9226A
:04053400AA82AB8369
:080538001205291ABAFF011B8C
:06054000BA00F5BB00F259
:010546002292
:0805470090E6A0E0FA4401F087
:01054F002289
:0E055000AA8274805AFBC423541FFB740F5AF6
:0D055E0090E6834BF090E683E0FA4420F035
:01056B00226D
:0E056C0090E680E0FA440AF09000FA1205349E
:0E057A0090E65D74FFF090E65F74FFF0539121
:09058800EF90E680E0FA54F7F070
:010591002247
:06059200AA82E52D6002C3
:020598008004DD
:04059A007582012243
:08059E0090E678E0FB20E6F88E
:0E05A60090E6787480F0EA2AFA90E679740103
:0205B4004AF00B
:0D05B60090E678E0FA530201BA000280F3EB
:0B05C30090E678E0FA30E20302065DEB
:0E05CE0090E678E0FA530202BA000302065DDE
:0505DC00E52DB401084B
:0805E10090E678E0FA4420F0F6
:0905E90090E679E0F52EAA2BAB97
:0305F2002CAC2D01
:0405F500DC0280356F
:0D05F90090E678E0FD530501BD000280F39F
:0806060090E678E0FD20E24FD0
:03060E00BC010824
:0806110090E678E0FD4420F0C2
:0E06190090E679E0FD8A828B83F0A3AA82AB83
:07062700838A2B8B2C80C796
:0D062E0090E678E0FA530201BA000280F372
:08063B0090E678E0FA20E21AD3
:0C06430090E678E0FA4440F0AA2BAB2CC3
:0E064F0090E679E0FC8A828B83F075820122AE
:0B065D0090E678E0FA4440F07582005F
:01066800226F
:02066900AA8263
:08066B0090E678E0FB20E6F8C0
:0D06730090E6787480F0EA2AFA90E679F0BB
:0D06800090E678E0FA530201BA000280F320
:08068D0090E678E0FA20E25744
:0D06950090E678E0FA530202BA0002804AB3
:0506A200AA2BAB2CACFB
:0106A7002D25
:0506A800EC24FF5033BB
:0E06AD008A828B83E0FDA3AA82AB8390E6795C
:0306BB00EDF01C43
:0D06BE0090E678E0FD530501BD000280F3D9
:0806CB0090E678E0FD20E21941
:0B06D30090E678E0FD530502BD00CA70
:0206DE00800C8E
:0C06E00090E678E0FA4440F075820122B8
:0B06EC0090E678E0FA4440F0758200D0
:0106F70022E0
:0506F800AA82BA030014
:0206FD004005B6
:0506FF00EA249C5001FB
:0107040022D2
:09070500740F5AFBBB03028007CC
:07070E00740F5AFBBB0B47FF
:0C071500A2AF9200C2AFEA2400F582E41B
:0D0721003400F5837402F07B0074012AFCA3
:0C072E00E43BFDEC2400F582ED3400F506
:0D073A0083AC2C7D00ECF074022AFAE43B45
:0C074700FBEA2400F582EB3400F583AAE5
:090753002B7B00EAF0A20092AF3A
:01075C00227A
:05075D00AA82BA0000B1
:02076200400550
:05076400EA24835001AE
:01076900226D
:06076A0074035AFB60015C
:010770002266
:0C077100A2AF9201C2AFEA2400F582E4BE
:0D077D003401F5837402F07B0074012AFC46
:0C078A00E43BFDEC2400F582ED3401F5A9
:0D07960083AC2C7D00ECF074022AFAE43BE9
:0C07A300FBEA2400F582EB3401F583AA88
:0907AF002B7B00EAF0A20192AFDD
:0107B800221E
:0507B900AA82BA8000D5
:0207BE004005F4
:0507C000EA244B50018A
:0107C5002211
:0607C60074035AFB600100
:0107CC00220A
:0C07CD00A2AF9202C2AFEA2480F582E4E1
:0D07D9003400F5837402F07B0074012AFCEB
:0C07E600E43BFDEC2480F582ED3400F5CE
:0D07F20083AC2C7D00ECF074022AFAE43B8D
:0C07FF00FBEA2480F582EB3400F583AAAD
:09080B002B7B00EAF0A20292AF7F
:0108140022C1
:08081500C2E8C2EA752B007570
:06081D002C01758243125C
:0408230006F8752B33
:0308270080752CAD
:0D082A00007582531206F80090E650E4F0CD
:0E0837000090E652E4F00090E654E4F00090E9
:0D084500E656E4F00090E65174FFF00090DC
:0E085200E65374FFF00090E65574FFF000903E
:0E086000E65774FFF00090E658E4F090E65979
:0E086E0074FFF090E65AE4F090E65B74FFF041
:0E087C0090E65CE4F090E65D74FFF090E65EBE
:0E088A00E4F090E65F74FFF00090E660E4F0AA
:0D0898000090E66174FFF090E662E4F090DD
:0E08A500E66374FFF090E665E4F090E6687498
:0908B3000BF05391AFD2E8D2EA38
:0108BC002219
:0E08BD00AA8263020143803874075AFBC40309
:0D08CB0054F8FB628043B1F074F05A62B142
:0108D80022FD
:0808D9007582001208BDC28106
:0108E10022F4
:0808E200AA827B00EA30E0026B
:0208EA007B0190
:0408EC00EA30E1010C
:0108F0000BFC
:0408F100EA30E20106
:0108F5000BF7
:0408F600EA30E30100
:0108FA000BF2
:0408FB00EA30E401FA
:0108FF000BED
:04090000EA30E501F3
:010904000BE7
:04090500EA30E601ED
:010909000BE2
:04090A00EA30E701E7
:01090E000BDD
:02090F008B82D9
:0109110022C3
:0D091200AA82851182C0021208E2AB82D0D9
:06091F0002EB24FE50046F
:0409250075820022B5
:0B092900851182C0021208BDD002E55B
:040934001230E70492
:0409380075820022A2
:07093C0074605512FB6023FB
:05094300BB200280054D
:05094800BB4017800810
:08094D008510821209D9801106
:090955008A821209D98510821270
:04095E0009D980042F
:040962007582002278
:04096600E515600C27
:04096A0085151D854D
:06096E00138285148312C0
:020974000A94E3
:090976007582001208BD758201B2
:01097F002255
:0D098000AA82851782C0021208BDD002E5D0
:04098D001830E70433
:040991007582002249
:0709950074605518FB60239C
:05099C00BB20028005F4
:0509A100BB40178008B7
:0809A6008516821209D98011A7
:0909AE008A821209D98516821211
:0409B70009D98004D6
:0409BB00758200221F
:0409BF00E51B600CC8
:0409C300851B1C85EF
:0609C7001982851A83125B
:0209CD000A2CF2
:0909CF007582001208BD75820159
:0109D80022FC
:0E09D900E582FA23FA139281D280C280EA23CB
:0E09E700FA139281D280C280EA23FA13928121
:0E09F500D280C280EA23FA139281D280C2809F
:0E0A0300EA23FA139281D280C280EA23FA130A
:0E0A11009281D280C280EA23FA139281D280B1
:0C0A1F00C280EA23FA139281D280C280C8
:010A2B0022A8
:060A2C00AA82AB83AC1CA2
:070A32008C051CBD00012230
:0E0A39008A828B83E0FDA3AA82AB838D82C0EC
:0E0A470002C003C0041209D9D004D003D002AB
:020A550080DB44
:010A5700227C
:0E0A5800E4D280A28333C280D280A28333C254
:0E0A660080D280A28333C280D280A28333C2AA
:0E0A740080D280A28333C280D280A28333C29C
:0E0A820080D280A28333C280D280A28333C28E
:040A900080F5822249
:060A9400AA82AB83AC1D39
:070A9A008C051CBD000122C8
:0E0AA100120A58AD828A828B83EDF0A3AA82DE
:040AAF00AB8380E7AE
:010AB3002220
:0C0AB400AA82AB83C2AD8A2B8B2C75820A
:0E0AC0002B1206F875CB6375CAC075C804D238
:010ACE00AD7A
:010ACF002204
:060F0400752100752200BA
:080AD00090E680E0FA30E7191E
:040AD800752300750D
:030ADC0024E0759E
:030ADF0025127568
:030AE20026E07596
:030AE500271C7556
:030AE80028E0758E
:030AEB00296A7500
:030AEE002AE022D9
:040AF10075234E75A6
:030AF50024E07585
:030AF80025607501
:030AFB0026E0757D
:030AFE00276A75EF
:030B010028E07574
:030B0400291C7534
:020B07002AE0E2
:010B090022C9
:080B0A005391EF75A100D20325
:010B120032B0
:0E0B1300C0E0C0F0C082C083C002C003C004B6
:0E0B2100C005C006C007C000C001C0D075D01E
:0A0B2F00005391EF75A100120AD0E7
:0E0B3900D0D0D001D000D007D006D005D00417
:0D0B4700D003D002D083D082D0F0D0E032B5
:0E0B5400C0E0C0F0C082C083C002C003C00475
:0E0B6200C005C006C007C000C001C0D075D0DD
:0A0B7000005391EF75A100120AD0A6
:0E0B7A00D0D0D001D000D007D006D005D004D6
:0D0B8800D003D002D083D082D0F0D0E03274
:050B9500120AD0752BCF
:030B9A000A752CAD
:080B9D000B75820012075D7563
:030BA5002B13759A
:060BA8002C0B75821012F7
:040BAE00075D752B3F
:030BB20054752C4B
:0D0BB5000B75821412075D90E65C7431F040
:010BC2002210
:090BC300E582547FFA24F7500486
:040BCC00758200220C
:030BD000BA010463
:040BD3007582012204
:080BD700530201E4BA0001041D
:020BDF00F5829D
:010BE10022F1
:050BE200AA82BA010C1B
:0C0BE70090E6A1E0FB7C008B828C832256
:030BF300BA810CB8
:0C0BF60090E6A2E0FB7C008B828C832246
:060C020053027FBA000C52
:0C0C080090E6A0E0FB7C008B828C832235
:0E0C140090E6A3E0FB7C00EAC313FA7D00EA41
:080C22002BFBED3C8B82F583F6
:010C2A0022A7
:0D0C2B0090E6B8E0FA53021FBA00028005FF
:050C3800BA025B80120E
:0A0C3D0090E6BAE0FABA0102800561
:050C4700BA0202800367
:030C4C0012054747
:070C4F0090E6BAE0FA600232
:020C5600803EDE
:0E0C580090E6BCE0FAF582120BC3E582602D37
:0E0C660090E6BCE0FAF582120BE2AA82AB83A4
:0E0C740090E6BCE0FCF582C002C003120BE269
:0E0C8200D003D002E0FC4304018A828B83EC95
:030C9000F08003EE
:030C930012054700
:030C96000205470D
:0D0C990090E6B8E0FA53021FBA0002800591
:050CA600BA02588007AE
:070CAB0090E6BAE0020547E4
:070CB20090E6BAE0FA6002CF
:020CB900804376
:0E0CBB0090E6BCE0FAF582120BC3E5826035CC
:0E0CC90090E6BCE0FAF582120BE2AA82AB8341
:0E0CD70090E6BCE0FCF582C002C003120BE206
:0E0CE500D003D002E0FC5304FE8A828B83EC25
:0B0CF300F090E6BCE0FAF5820205502C
:030CFE00020547A5
:030D0100020547A1
:010D040022CC
:0D0D050090E6B8E0FA53021FBA0002800A1F
:050D1200BA0102801B84
:050D1700BA0261802A10
:0E0D1C0090E7407401F090E741E4F090E68A21
:080D2A00F090E68B7402F02248
:0E0D320090E740E4F090E741F090E68AF09000
:060D4000E68B7402F022B4
:0E0D460090E6BCE0FAF582120BC3E582602451
:0E0D540090E6BCE0FAF582120BE2E0FA5302E0
:0E0D62000190E740EAF090E741E4F090E68A65
:080D7000F090E68B7402F02202
:030D78000205472A
:030D7B0002054727
:010D7E002252
:0A0D7F0090E6BBE0FABA010280170B
:050D8900BA0202803CEB
:050D8E00BA03028061C0
:050D9300BA0602801DFC
:050D9800BA07028042D1
:030D9D00020E2F14
:0C0DA000AA23AB248B047D0090E6B3EC8A
:090DAC00F07B0090E6B4EAF022AD
:0C0DB500AA25AB268B047D0090E6B3EC71
:090DC100F07B0090E6B4EAF02298
:0C0DCA00AA27AB288B047D0090E6B3EC58
:090DD600F07B0090E6B4EAF02283
:0C0DDF00AA29AB2A8B047D0090E6B3EC3F
:090DEB00F07B0090E6B4EAF0226E
:0E0DF40090E6BAE0FA90E07CE0FBC3EA9B4098
:010E020003EC
:030E03000205479E
:0D0E060090E6BAE0FA75F002A4247DF582B2
:0D0E130074E035F0F583E0FAA3E0FB8B04FA
:0E0E20007D0090E6B3ECF07B0090E6B4EAF0C3
:010E2E0022A1
:030E2F0002054772
:070E320090E6B9E0FA60361A
:050E3900BA0602802E44
:050E3E00BA0802800566
:050E4300BA0A2C801228
:0C0E480090E740E521F090E68AE4F0908D
:060E5400E68B7401F022A0
:0C0E5A0090E740E522F090E68AE4F0907A
:060E6600E68B7401F0228E
:030E6C00020D7FF5
:030E6F00020D056C
:030E72000205472F
:010E7500225A
:0A0E760090E6B9E0FABA0102802705
:050E8000BA0302802509
:050E8500BA0502802304
:050E8A00BA0702801E02
:050E8F00BA0902800514
:050E9400BA0B168007F7
:070E990090E6BAE0F521220A
:070EA00090E6BAE0F5222202
:030EA700020C99A1
:030EAA00020C2B0C
:030EAD00020547F4
:010EB000221F
:0B0EB10090E6B8E0FA530280BA80031C
:030EBC00020E32F1
:030EBF00020E76AA
:010EC200220D
:0D0EC300C20390E6B8E0FA530260BA0002E4
:020ED000801E82
:050ED200BA20028008B7
:050ED700BA4002800892
:030EDC00BA6016E3
:050EDF0012054780141C
:070EE400120307E582700D07
:050EEB0012054780081C
:050EF000120EB18003A9
:030EF5001205479C
:080EF80090E6A0E0FA4480F04E
:010F000022CE
:060F1700E478FFF6D8FDAE
:030F0A0075812EC0
:0A0F0D00120180E58260030201A5D5
:00000001FF
