:06000000020E3E02006B3F
:03000B0002006B85
:0300130002006B7D
:03001B0002006B75
:0300230002006B6D
:03002B0002006B65
:0300330002006B5D
:03003B0002006B55
:0300430002006B4D
:03004B0002006B45
:0300530002006B3D
:03005B0002006B35
:0300630002006B2D
:01006B003262
:0900800002006B0002006B00029B
:08008900006B0002006B000295
:08009100006B0002006B00028D
:08009900006B0002006B000285
:0800A100006B0002006B00027D
:0800A900006B0002006B000275
:0700B100006B0002006B0070
:0901000002006B0002006B00021A
:08010900006B0002006B000214
:08011100006B0002006B00020C
:08011900006B0002006B000204
:08012100006B0002006B0002FC
:08012900006B0002006B0002F4
:08013100006B0002006B0002EC
:08013900006B0002006B0002E4
:08014100006B0002006B0002DC
:08014900006B0002006B0002D4
:08015100006B0002006B0002CC
:08015900006B0002006B0002C4
:08016100006B0002006B0002BC
:08016900006B0002006B0002B4
:08017100006B0002006B0002AC
:07017900006B0002006B00A7
:030E4400020E4754
:030E5A0002018012
:0501800012045D80FE89
:06018500C200E4F508F5DC
:04018B0009F50AD296
:05018F0001750B007575
:060194000C0012065A12D5
:0E019A00065775CB6375CAC0758E0075C80414
:0E01A800D2AFD2B0D2B190E6047480F00090D5
:0E01B600E60B7403F00090E61074A0F00090C9
:0D01C400E61174A0F00090E618E4F0009041
:0E01D100E6047402F00090E61274A2F00090B2
:0D01DF00E619E4F00090E6047404F00090CE
:0D01EC00E61374A0F00090E61AE4F0009015
:0E01F900E6047406F00090E61474E2F0009044
:0D020700E61BE4F00090E6047408F000909F
:0D021400E61574E0F00090E604E4F00090C0
:0E022100E60BE4F0000090E6917480F000908F
:0E022F00E6957480F00090E6917480F00090E7
:06023D00E6957480F0223A
:0B024300AA82850C827583E0EAF005BA
:05024E000C0509E4B5F8
:040253000902050A8D
:010257002284
:04025800200001225F
:0E025C0012065690E6A2E0FA30E1030202F12B
:0A026A00E509450A60697AC07BE7E8
:0E0274008B9D7AC07BE77B008A9E90E67C74AF
:0C02820031F07460F0C3743E9509E495FF
:0A028E000A50107A3EE50924C2F57B
:0602980009E50A34FFF540
:03029E000A8007CC
:0602A100AA09E4F509F5CD
:0102A7000A4C
:0B02A8008A037C007DE08D9A850B9B93
:0E02B3008A041AEC601190E67BE0FC90E67C79
:0902C100F07C007DE08D9A80E9DB
:0C02CA00859B0B0090E68F74022BF0D295
:0302D600CF8018BE
:0E02D90030CF1590E7C07431F090E7C174602B
:0A02E700F00090E68F7402F0C2CF21
:0602F100E5AA30E0012245
:0A02F700C3E50994C1E50A94004034
:020301000122D7
:0E03030090E691E0FA7B007CF08C9A7B007C07
:07031100F07C008B9B7B00D8
:08031800C3EB9A40030203D578
:0A032000E5086065EAC39BFCC3E535
:06032A00089C5002AC0823
:0A033000E508C39CF508EC2BFB3038
:04033A0001208C050D
:0E033E008D061DEE60D490E67BE0FEF582C0D9
:0E034C0002C003C0051206ECD005D003D0029B
:02035A0080E23F
:0E035C008C051CED60B690E67BE0FDF582C0DE
:0E036A0002C003C004120729D004D003D00241
:0E037800C002C003C004120243D004D003D060
:030386000280D31F
:0C03890090E67BE0FC30E6047D00800282
:020395007D01E8
:0C039700ED24FF9201EC30E707743F5C9E
:0403A300F508802AAF
:0C03A70030010F8C82C002C00312067CE3
:0603B300D003D002801807
:0E03B9008C82C002C0031206D9D003D002C04D
:0A03C70002C003120243D003D0026B
:0403D1000B02031800
:0803D5000090E6917480F02213
:0E03DD0090E6B8E0FA20E70C90E6B9E0700276
:0203EB00D2003E
:0403ED0075820122F2
:0E03F10090E6B9E0FABA902C90E6BCE025E068
:0A03FF00547FFA2400F582E434185C
:0C040900F583E0FB90E740F074012A242A
:0A04150000F582E43418F583E0FAE4
:06041F0090E741F0800CA3
:0C04250090E7407436F090E7417483F0DB
:0D04310090E68AE4F090E6BEE0FABA020020
:09043E00500790E6BEE0FA8002CE
:020447007A0237
:0904490090E68BEAF075820122B5
:0604520030020312098DC7
:0504580012025880F5BE
:09045D00C2AF1201851204BA12AB
:080466000D6F1208F7D2AF126E
:05046E00080C0204521D
:02E1000012010A
:06E10200100100000040C6
:06E10800C016AD06040084
:04E10E000102030106
:0AE112000A061001FFFFFF400100A4
:07E11C0009022000010100CF
:0EE12300804B0904000002FFFFFF0207058188
:0BE13100024000000705020240000051
:0EE13C001201100100000040C016AD060400E4
:04E14A0001020301CA
:0AE14E000A061001FFFFFF40010068
:0EE1580009022000010100804B0904000002B2
:0EE16600FFFFFF0207058102400000070502CF
:04E174000240000065
:01E1780004A2
:02E1790082E141
:02E17B0088E139
:02E17D0096E129
:02E17F00AEE10F
:06E1820006030000090481
:0EE188000E03690078006F002E006400650031
:0EE1960018035500530042002D004A005400AB
:0AE1A400410047002D00490046002D
:0EE1AE0012033000300030003000300030002E
:04E1BC0030003000FF
:0A047300AA82E50D54FEFBB50D0250
:02047D00802AD3
:0A047F008A048C05E4FC620EED62B5
:080489000FEB2400F582E434BE
:0A04910018F583E0FB7C00620EEC1E
:06049B00620FE50E33C5FF
:0704A1000F33C50F92E0F5D7
:0104A8000E45
:0604A900AB0D050DEB2474
:0A04AF0000F582E43418F583EAF04A
:0104B9002220
:0704BA00750D00750EAA7517
:0C04C1000FAA75820012047375820012ED
:0404CD0004737A003A
:0C04D100C3EA648094865018EA2408F501
:0C04DD0082E434E1F583E0FBF582C0020C
:0804E900120473D0020A80E046
:0204F1007A008F
:0C04F300C3EA648094825018EA2423F5C8
:0C04FF0082E434E1F583E0FBF582C002EA
:08050B00120473D0020A80E023
:0E05130075821C1204737582001204737A0044
:0C052100C3EA648094825018EA2402F5BA
:0C052D0082E434E1F583E0FBF582C002BB
:08053900120473D0020A80E0F5
:0C0541007486250DFAF582C002120473C6
:0E054D00D00290E188E0FBF582C00212047338
:0E055B00D00290E188E0FB2AFAF582C002127D
:0E0569000473D00290E196E0FBF582C002120E
:0E0577000473D00290E196E0FB2AFAF582129E
:0A058500047390E1AEE0FAF5821273
:04058F0004737A0077
:0E05930090E188E0FBC3EA64808BF063F080A7
:0B05A10095F05018EA2488F582E4343D
:0C05AC00E1F583E0FBF582C0021204734D
:0505B800D0020A80D60C
:0205BD007A00C2
:0E05BF0090E196E0FBC3EA64808BF063F0806D
:0B05CD0095F05018EA2496F582E43403
:0C05D800E1F583E0FBF582C00212047321
:0505E400D0020A80D6E0
:0205E9007A0096
:0E05EB0090E1AEE0FBC3EA64808BF063F08029
:0B05F90095F05018EA24AEF582E434BF
:0C060400E1F583E0FBF582C002120473F4
:05061000D0020A80D6B3
:020615007A0069
:0C061700C3EA648094845018EA240EF5B5
:0C06230082E434E1F583E0FBF582C002C4
:08062F00120473D0020A80E0FE
:0C0637007482250D4008758200120473C7
:0206430080F243
:0A064500AA0E7B0090187EEAF0AACE
:07064F000F90187FEAF02272
:010656002281
:010657002280
:01065800227F
:01065900227E
:0E065A0090E6007412F090E60174E0F075B1C5
:0E0668001F75B61F9001F4120E2BAAB374BDBD
:060676005A44BDF5B32259
:0A067C00E582FA30E0047B01800201
:020686007B00F7
:0D068800EB24FF9292EA30E1047B01800236
:020695007B00E8
:0D069700EB24FF9293EA30E2047B01800225
:0206A4007B00D9
:0D06A600EB24FF92A5EA30E3047B01800203
:0206B3007B00CA
:0D06B500EB24FF92A4EA30E4047B018002F4
:0206C2007B00BB
:0D06C400EB24FF9290EA30E5047A018002F9
:0206D1007A00AD
:0606D300EA24FF92A722B9
:0E06D90012067CE4A2A63325E0FAE4A29133D7
:0506E700FB4AF5822230
:0E06EC00E582139290D29213C2929290D29213
:0E06FA0013C2929290D29213C2929290D29218
:0E07080013C2929290D29213C2929290D29209
:0E07160013C2929290D29213C2929290D292FB
:0507240000C292222238
:0E072900E582A291139290D292C292A29113F5
:0E0737009290D292C292A291139290D292C24C
:0E07450092A291139290D292C292A29113921C
:0E07530090D292C292A291139290D292C29230
:0E076100A291139290D292C292A29113929002
:08076F00D292C292F58222220F
:0E077700E582A2A6139290D292C292A2A6137D
:0E0785009290D292C292A2A6139290D292C2E9
:0E07930092A2A6139290D292C292A2A61392A4
:0E07A10090D292C292A2A6139290D292C292CD
:0E07AF00A2A6139290D292C292A2A61392908A
:0807BD00D292C292F5822222C1
:0807C5007880E84400600C7923
:0C07CD0001901800E4F0A3D8FCD9FAD089
:0E07D90083D082F6D8FDC082C08375820022D4
:0907E70090E6A0E0FA4401F022C2
:0E07F000AA8274805AFBC423541FFB740F5A54
:0E07FE0090E6834BF090E683E0FA4420F02270
:0E080C0090E680E0FA440AF09000FA120E2BFB
:0E081A0090E65D74FFF090E65F74FFF053917E
:0A082800EF90E680E0FA54F7F022AA
:060E5400E478FFF6D8FD72
:060E3E00751000751100A3
:0A08320090E680E0FA30E719751235
:03083C0000751331
:03083F00E175144C
:0308420012751517
:03084500E1751644
:030848001C751705
:03084B00E175183C
:03084E00587519C1
:02085100E122A2
:0408530075123C7569
:0308570013E17535
:03085A00144E75C4
:03085D0015E1752D
:03086000165875B2
:0308630017E17525
:03086600181C75E6
:0308690019E12270
:09086C005391EF75A100D2023294
:0E087500C0E0C0F0C082C083C002C003C00457
:0E088300C005C006C007C000C001C0D075D0BF
:0E089100005391EF75A100120832D0D0D001B3
:0E089F00D000D007D006D005D004D003D00280
:0908AD00D083D082D0F0D0E032FB
:0E08B600C0E0C0F0C082C083C002C003C00416
:0E08C400C005C006C007C000C001C0D075D07E
:0E08D200005391EF75A100120832D0D0D00172
:0E08E000D000D007D006D005D004D003D0023F
:0908EE00D083D082D0F0D0E032BA
:0508F700120832751A21
:0308FC006C751BFD
:0808FF0008758200120CC0759F
:030907001A7575E9
:06090A001B0875821012AB
:040910000CC0751A88
:03091400B6751B9A
:0C09170008758214120CC090E65C74316C
:02092300F022C0
:0D092500E582547FFA24F750047582002209
:07093200BA010475820122E5
:08093900530201E4BA000104BD
:03094100F582221A
:0E094400AA82BA010C90E6A1E0FB7C008B8237
:030952008C832271
:0E095500BA810C90E6A2E0FB7C008B828C83C2
:010963002271
:0E09640053027FEA700C90E6A0E0FB7C008B53
:04097200828C8322CE
:0E09760090E6A3E0FB7C00EAC313FA7D00EAE2
:090984002BFBED3C8B82F5832274
:0C098D00C20290E6B8E0FA530260BA0023
:03099900028028B1
:05099C00BA2002800DED
:0509A100BA4002800EC7
:0509A600BA60028003AD
:0309AB00020C54E7
:0609AE001207E7020C54E1
:0A09B4001203DDE5826003020C541B
:0609BE001207E7020C54D1
:0D09C40090E6B8E0FA530280BA800280038A
:0309D100020B50C6
:0B09D40090E6B9E0FABA0003020AC77F
:0509DF00BA060280359C
:0509E400BA08028008C2
:0509E900BA0A028017AC
:0309EE00020B4AAF
:0C09F10090E740E510F090E68AE4F090FA
:0809FD00E68B7401F0020C54BA
:0C0A050090E740E511F090E68AE4F090E4
:080A1100E68B7401F0020C54A5
:0A0A190090E6BBE0FABA0102801774
:050A2300BA0202803858
:050A2800BA0302805931
:050A2D00BA0602801B67
:050A3200BA0702803C40
:030A3700020AC1EF
:0A0A3A00AA12AB1390E6B3EBF07BB9
:090A44000090E6B4EAF0020C5443
:0A0A4D00AA14AB1590E6B3EBF07BA2
:090A57000090E6B4EAF0020C5430
:0A0A6000AA16AB1790E6B3EBF07B8B
:090A6A000090E6B4EAF0020C541D
:0A0A7300AA18AB1990E6B3EBF07B74
:090A7D000090E6B4EAF0020C540A
:0E0A860090E6BAE0FA90E178E0FBC3EA9B400C
:070A9400061207E7020C54F3
:0C0A9B0090E6BAE0FA75F002A42479F5A8
:0C0AA7008274E135F0F583E0FAA3E0FB77
:0E0AB30090E6B3F07B0090E6B4EAF0020C543B
:060AC1001207E7020C54CD
:0D0AC70090E6B8E0FA53021FBA0002800A60
:050AD400BA0102801BC5
:050AD900BA0268802C48
:0E0ADE0090E740E4F090E741F090E68AF09057
:080AEC00E68B7402F0020C54C9
:0E0AF40090E740E4F090E741F090E68AF09041
:080B0200E68B7402F0020C54B2
:0E0B0A0090E6BCE0FAF582120925E58260262D
:0E0B180090E6BCE0FAF582120944E0FA5302BE
:0E0B26000190E740EAF090E741E4F090E68AA3
:0A0B3400F090E68B7402F0020C54FE
:060B3E001207E7020C544F
:060B44001207E7020C5449
:060B4A001207E7020C5443
:0C0B500090E6B9E0FA24F45003020C51C6
:070B5C00EA2A2A900B6373E3
:070B6300020C51020B990284
:060B6A000C17020BF8025B
:060B70000C51020C5102C1
:060B76000C51020C5102BB
:060B7C000C51020B870280
:050B82000C51020B9074
:090B870090E6BAE0F510020C54EE
:090B900090E6BAE0F511020C54E4
:0D0B990090E6B8E0FA53021FBA0002800592
:050BA600BA024A800ABA
:0A0BAB0090E6BAE01207E7020C54CE
:0E0BB50090E6BAE0703390E6BCE0FAF58212EA
:0E0BC3000925E582602590E6BCE0FAF5821275
:0E0BD1000944AA82AB83E0FC5304FE8A828BA7
:0E0BDF0083ECF090E6BCE0FAF5821207F0809D
:010BED0066A1
:050BEE001207E7806121
:050BF3001207E7805C21
:0E0BF80090E6B8E0FA53021FBA005190E6BA38
:070C0600E0FABA01028005CB
:050C0D00BA0202804262
:050C12001207E7803D20
:0E0C170090E6BAE0FA702E90E6BCE0FAF582A4
:0E0C2500120925E582601B90E6BCE0FAF5821C
:0E0C3300120944AA82AB83E0FC4304018A82CA
:060C41008B83ECF0800D36
:050C47001207E7800820
:050C4C001207E7800320
:030C51001207E7A0
:090C540090E6A0E0FA4480F022D1
:050C5D00AA82BA0300A9
:070C62004005EA249C50014B
:010C69002268
:090C6A00740F5AFBBB0302800762
:070C7300740F5AFBBB0B4597
:0A0C7A00A2AF9203C2AFEA2400F516
:0C0C840082E43400F5837402F07B0074FD
:0C0C9000012AFCE43BFDEC2400F582EDA1
:0A0C9C003400F583E51BFCF0740240
:0C0CA6002AFAE43BFBEA2400F582EB3460
:0A0CB20000F583AA1A7B00EAF0A205
:030CBC000392AFF1
:010CBF002212
:080CC000E582FA2483500122B1
:070CC80074035AFB600122D6
:0A0CCF00A2AF9204C2AFEA2400F5C0
:0C0CD90082E43401F5837402F07B0074A7
:0C0CE500012AFCE43BFDEC2400F582ED4C
:0A0CF1003401F583E51BFCF07402EA
:0C0CFB002AFAE43BFBEA2400F582EB340B
:0A0D070001F583AA1A7B00EAF0A2AE
:040D11000492AF2277
:050D1500AA82BA800073
:070D1A004005EA244B5001E3
:010D210022AF
:070D220074035AFB6001227B
:0A0D2900A2AF9205C2AFEA2480F5E4
:0C0D330082E43400F5837402F07B00744D
:0C0D3F00012AFCE43BFDEC2480F582ED71
:0A0D4B003400F583E51BFCF0740290
:0C0D55002AFAE43BFBEA2480F582EB3430
:0A0D610000F583AA1A7B00EAF0A255
:040D6B000592AF221C
:080D6F00C2E8C2EA751A007522
:060D77001B01758243120E
:040D7D000C5D751A7A
:030D810080751B5F
:0C0D840000758253120C5D0090E650E4F4
:0E0D9000F00090E652E4F00090E654E4F0002B
:0E0D9E0090E656E4F00090E65174FFF00090ED
:0E0DAC00E65374FFF00090E65574FFF00090DF
:0E0DBA00E65774FFF00090E658E4F090E6591A
:0E0DC80074FFF090E65AE4F090E65B74FFF0E2
:0E0DD60090E65CE4F090E65D74FFF090E65E5F
:0E0DE400E4F090E65F74FFF00090E660E4F04B
:0D0DF2000090E66174FFF090E662E4F0907E
:0E0DFF00E66374FFF090E665E4F090E6687439
:0A0E0D000BF05391AFD2E8D2EA22B5
:010E170022B8
:020E1800AA82AC
:060E1A00120E17DAFB22A4
:030E200090FB50F4
:080E2300A3E582458370F9226A
:040E2B00AA82AB8369
:080E2F00120E201ABAFF011B8C
:070E3700BA00F5BB00F22236
:030E470075812092
:0A0E4A001207C5E582600302018073
:00000001FF
