:0300000001fffffe
:0300010001fff507
:0300020001ffd823
:0300030001ffa654
:0300040001ff6198
:0300050001ff08f0
:0300060001fe9c5c
:0300070001fe1cdb
:0300080001fd886f
:0300090001fce017
:03000a0001fc25d1
:03000b0001fb579f
:03000c0001fa7482
:03000d0001f97f77
:03000e0001f87581
:03000f0001f7599d
:0300100001f629cd
:0300110001f4e512
:0300120001f38e69
:0300130001f224d3
:0300140001f0a751
:0300150001ef17e1
:0300160001ed7386
:0300170001ebbd3d
:0300180001e9f308
:0300190001e817e4
:03001a0001e628d4
:03001b0001e426d7
:03001c0001e211ed
:03001d0001dfea16
:03001e0001ddb051
:03001f0001db649e
:0300200001d906fd
:0300210001d69570
:0300220001d412f4
:0300230001d17e8a
:0300240001ced733
:0300250001cc1eed
:0300260001c954b9
:0300270001c67897
:0300280001c38a87
:0300290001c08b88
:03002a0001bd7b9a
:03002b0001ba5abd
:03002c0001b727f2
:03002d0001b3e438
:03002e0001b0908e
:03002f0001ad2bf5
:0300300001a9b66d
:0300310001a630f5
:0300320001a29a8e
:03003300019ef338
:03003400019b3df0
:03003500019777b9
:030036000193a192
:03003700018fbc7a
:03003800018bc772
:030039000187c379
:03003a000183b08f
:03003b00017f8eb4
:03003c00017b5de8
:03003d0001771e2a
:03003e000172d07c
:03003f00016e74db
:03004000016a0949
:03004100016591c5
:0300420001610b4e
:03004300015c77e6
:030044000157d68b
:030045000153273d
:03004600014e6cfc
:030047000149a4c8
:030048000144cfa1
:03004900013fed87
:03004a00013aff79
:03004b0001360576
:03004c000130ff81
:03004d00012bed97
:03004e000126d0b8
:03004f000121a7e5
:03005000011c731d
:0300510001173460
:030052000111ebae
:03005300010c9607
:0300540001073869
:030055000101cfd7
:0300560000fc5d4e
:0300570000f6e0d0
:0300580000f15a5a
:0300590000ebcbee
:03005a0000e6338a
:03005b0000e09230
:03005c0000dae8df
:03005d0000d53695
:03005e0000cf7b55
:03005f0000c9b91c
:0300600000c3efeb
:0300610000be1dc1
:0300620000b8449f
:0300630000b26484
:0300640000ac7c71
:0300650000a68f63
:0300660000a09b5c
:03006700009aa05c
:030068000094a061
:03006900008e9a6c
:03006a0000888e7d
:03006b0000827d93
:03006c00007c68ad
:03006d0000764dcd
:03006e0000702ef1
:03006f00006a0a1a
:030070000063e347
:03007100005db778
:03007200005788ac
:03007300005156e3
:03007400004b201e
:030075000044e85c
:03007600003eac9d
:0300770000386fdf
:0300780000322f24
:03007900002bee6b
:03007a000025aab4
:03007b00001f65fe
:03007c0000191f49
:03007d000012d896
:03007e00000c91e2
:03007f0000064830
:030080000000007d
:0300810003f9b8c8
:0300820003f36f16
:0300830003ed2862
:0300840003e6e1af
:0300850003e09bfa
:0300860003da5644
:0300870003d4128d
:0300880003cdd1d4
:0300890003c79119
:03008a0003c1545b
:03008b0003bb189c
:03008c0003b4e0da
:03008d0003aeaa15
:03008e0003a8784c
:03008f0003a24980
:03009000039c1db1
:030091000395f6de
:03009200038fd207
:030093000389b32b
:030094000383984b
:03009500037d8365
:030096000377727b
:030097000371668c
:03009800036b6097
:030099000365609c
:03009a00035f659c
:03009b0003597195
:03009c0003538487
:03009d00034d9c74
:03009e000347bc59
:03009f000341e337
:0300a000033c110d
:0300a100033647dc
:0300a200033085a3
:0300a300032aca63
:0300a40003251819
:0300a500031f6ec8
:0300a6000319cd6e
:0300a7000314350a
:0300a800030ea69e
:0300a90003092028
:0300aa000303a3aa
:0300ab0002fe3121
:0300ac0002f8c88f
:0300ad0002f36af1
:0300ae0002ee154a
:0300af0002e8cc98
:0300b00002e38ddb
:0300b10002de5913
:0300b20002d93040
:0300b30002d41361
:0300b40002cf0177
:0300b50002c9fb82
:0300b60002c5017f
:0300b70002c01371
:0300b80002bb3157
:0300b90002b65c30
:0300ba0002b194fc
:0300bb0002acd9bb
:0300bc0002a82a6d
:0300bd0002a38912
:0300be00029ef5aa
:0300bf00029a6f33
:0300c0000295f7af
:0300c10002918c1d
:0300c200028d307c
:0300c3000288e2ce
:0300c4000284a310
:0300c50002807244
:0300c600027c5069
:0300c70002783d7f
:0300c80002743986
:0300c9000270447e
:0300ca00026c5f66
:0300cb000268893f
:0300cc000264c308
:0300cd0002610dc0
:0300ce00025d666a
:0300cf000259d003
:0300d00002564a8b
:0300d1000252d503
:0300d200024f706a
:0300d300024c1cc0
:0300d4000248d906
:0300d5000245a63b
:0300d6000242855e
:0300d700023f7570
:0300d800023c7671
:0300d90002398861
:0300da000236ac3f
:0300db000233e20b
:0300dc00023129c5
:0300dd00022e826e
:0300de00022bee04
:0300df0002296b88
:0300e0000226fafb
:0300e10002249c5a
:0300e200022250a7
:0300e300022016e2
:0300e400021def0b
:0300e500021bda21
:0300e6000219d824
:0300e7000217e914
:0300e80002160df0
:0300e900021443bb
:0300ea0002128d72
:0300eb000210e917
:0300ec00020f59a7
:0300ed00020ddc25
:0300ee00020c728f
:0300ef00020b1be6
:0300f0000209d72b
:0300f1000208a75b
:0300f20002078b77
:0300f30002068181
:0300f40002058c76
:0300f5000204a959
:0300f6000203db27
:0300f700020320e1
:0300f80002027889
:0300f9000201e41d
:0300fa000201649c
:0300fb000200f808
:0300fc0002009f60
:0300fd0002005aa4
:0300fe00020028d5
:0300ff0002000bf1
:03010000020001f9
:0301010002000bee
:03010200020028d0
:0301030002005a9d
:0301040002009f57
:030105000200f8fd
:030106000201648f
:030107000201e40e
:0301080002027878
:03010900020320ce
:03010a000203db12
:03010b000204a942
:03010c0002058c5d
:03010d0002068166
:03010e0002078b5a
:03010f000208a73c
:030110000209d70a
:03011100020b1bc3
:03011200020c726a
:03011300020ddcfe
:03011400020f597e
:030115000210e9ec
:0301160002128d45
:030117000214438c
:0301180002160dbf
:030119000217e9e1
:03011a000219d8ef
:03011b00021bdaea
:03011c00021defd2
:03011d00022016a7
:03011e000222506a
:03011f0002249c1b
:030120000226faba
:0301210002296b45
:03012200022beebf
:03012300022e8227
:030124000231297c
:030125000233e2c0
:030126000236acf2
:0301270002398812
:03012800023c7620
:03012900023f751d
:03012a0002428509
:03012b000245a6e4
:03012c000248d9ad
:03012d00024c1c65
:03012e00024f700d
:03012f000252d5a4
:0301300002564a2a
:030131000259d0a0
:03013200025d6605
:0301330002610d59
:030134000264c39f
:03013500026889d4
:03013600026c5ff9
:030137000270440f
:0301380002743915
:0301390002783d0c
:03013a00027c50f4
:03013b00028072cd
:03013c000284a397
:03013d000288e253
:03013e00028d30ff
:03013f0002918c9e
:030140000295f72e
:03014100029a6fb0
:03014200029ef525
:0301430002a3898b
:0301440002a82ae4
:0301450002acd930
:0301460002b1946f
:0301470002b65ca1
:0301480002bb31c6
:0301490002c013de
:03014a0002c501ea
:03014b0002c9fbeb
:03014c0002cf01de
:03014d0002d413c6
:03014e0002d930a3
:03014f0002de5974
:0301500002e38d3a
:0301510002e8ccf5
:0301520002ee15a5
:0301530002f36a4a
:0301540002f8c8e6
:0301550002fe3176
:030156000303a3fd
:0301570003092079
:03015800030ea6ed
:0301590003143557
:03015a000319cdb9
:03015b00031f6e11
:03015c0003251860
:03015d00032acaa8
:03015e00033085e6
:03015f000336471d
:03016000033c114c
:030161000341e374
:030162000347bc94
:03016300034d9cad
:03016400035384be
:03016500035971ca
:03016600035f65cf
:03016700036560cd
:03016800036b60c6
:03016900037166b9
:03016a00037772a6
:03016b00037d838e
:03016c0003839872
:03016d000389b350
:03016e00038fd22a
:03016f000395f6ff
:03017000039c1dd0
:0301710003a2499d
:0301720003a87867
:0301730003aeaa2e
:0301740003b4e0f1
:0301750003bb18b1
:0301760003c1546e
:0301770003c7912a
:0301780003cdd1e3
:0301790003d4129a
:03017a0003da564f
:03017b0003e09b03
:03017c0003e6e1b6
:03017d0003ed2867
:03017e0003f36f19
:03017f0003f9b8c9
:030180000000007c
:030181000006482d
:03018200000c91dd
:030183000012d88f
:0301840000191f40
:03018500001f65f3
:030186000025aaa7
:03018700002bee5c
:0301880000322f13
:0301890000386fcc
:03018a00003eac88
:03018b000044e845
:03018c00004b2005
:03018d00005156c8
:03018e000057888f
:03018f00005db759
:030190000063e326
:03019100006a0af7
:0301920000702ecc
:0301930000764da6
:03019400007c6884
:0301950000827d68
:0301960000888e50
:03019700008e9a3d
:030198000094a030
:03019900009aa029
:03019a0000a09b27
:03019b0000a68f2c
:03019c0000ac7c38
:03019d0000b26449
:03019e0000b84462
:03019f0000be1d82
:0301a00000c3efaa
:0301a10000c9b9d9
:0301a20000cf7b10
:0301a30000d5364e
:0301a40000dae896
:0301a50000e092e5
:0301a60000e6333d
:0301a70000ebcb9f
:0301a80000f15a09
:0301a90000f6e07d
:0301aa0000fc5df9
:0301ab000101cf80
:0301ac0001073810
:0301ad00010c96ac
:0301ae000111eb51
:0301af0001173401
:0301b000011c73bc
:0301b1000121a782
:0301b2000126d053
:0301b300012bed30
:0301b4000130ff18
:0301b5000136050b
:0301b600013aff0c
:0301b700013fed18
:0301b8000144cf30
:0301b9000149a455
:0301ba00014e6c87
:0301bb00015327c6
:0301bc000157d612
:0301bd00015c776b
:0301be0001610bd1
:0301bf0001659146
:0301c000016a09c8
:0301c100016e7458
:0301c2000172d0f7
:0301c30001771ea3
:0301c400017b5d5f
:0301c500017f8e29
:0301c6000183b002
:0301c7000187c3ea
:0301c800018bc7e1
:0301c900018fbce7
:0301ca000193a1fd
:0301cb0001977722
:0301cc00019b3d57
:0301cd00019ef39d
:0301ce0001a29af1
:0301cf0001a63056
:0301d00001a9b6cc
:0301d10001ad2b52
:0301d20001b090e9
:0301d30001b3e491
:0301d40001b72749
:0301d50001ba5a12
:0301d60001bd7bed
:0301d70001c08bd9
:0301d80001c38ad6
:0301d90001c678e4
:0301da0001c95404
:0301db0001cc1e36
:0301dc0001ced77a
:0301dd0001d17ecf
:0301de0001d41237
:0301df0001d695b1
:0301e00001d9063c
:0301e10001db64db
:0301e20001ddb08c
:0301e30001dfea4f
:0301e40001e21124
:0301e50001e4260c
:0301e60001e62807
:0301e70001e81715
:0301e80001e9f337
:0301e90001ebbd6a
:0301ea0001ed73b1
:0301eb0001ef170a
:0301ec0001f0a778
:0301ed0001f224f8
:0301ee0001f38e8c
:0301ef0001f4e533
:0301f00001f629ec
:0301f10001f759ba
:0301f20001f8759c
:0301f30001f97f90
:0301f40001fa7499
:0301f50001fb57b4
:0301f60001fc25e4
:0301f70001fce028
:0301f80001fd887e
:0301f90001fe1ce8
:0301fa0001fe9c67
:0301fb0001ff08f9
:0301fc0001ff619f
:0301fd0001ffa659
:0301fe0001ffd826
:0301ff0001fff508
:00000001FF
