:0302000002092AC6
:030983000202036A
:1002030012081380FE7400F58690FDA57C05A3E516
:1002130082458370F92222AA82AB8390E600E0FC38
:10022300530418BC001174012AFCE43BFD8C02C387
:1002330013CA13CAFB801290E600E0FC530418BCF7
:100243001007EBCA25E0CA33FB8A048B051ABAFFF1
:10025300011BEC4D600DC002C003120208D003D095
:100263000280E622E582FA600A90E680E0FA440A18
:10027300F0800890E680E0FA4408F09005DC120272
:100283001A90E65D74FFF090E65F74FFF05391EF10
:1002930090E680E0FA54F7F02290E600E0FA44108A
:1002A300F000000090E60B7403F000000090E6B548
:1002B3007401F090E6A1E0FA54FEF090E68D7440EC
:1002C300F090E6A2E0FA54FEF090E601E4F0E0FAE2
:1002D30090E60174804AF090E601E0FA4440F0228F
:1002E30090E670E4F090E672F075B20375800375E2
:1002F300B60275B1022243E80190E668E0FA4408C9
:10030300F090E65CE0FA4425F090E65EE0FA4408FB
:10031300F043A880229022087400F0A374E0F090C8
:10032300220A7412F0A374E0F07A1C7BE090220C92
:10033300EAF0A3EBF07C1C7DE090220EECF0A3ED41
:10034300F0902214743CF0A374E0F0902210EAF0D1
:10035300A3EBF0902212ECF0A3EDF02275080075E8
:1003630009407A007B1085088285098374FFF0A316
:10037300F074022508F508E43509F5091ABAFF01F6
:100383001BEA4B70E12290E6A2E0FA30E10302049B
:100393006A90E780E0FABA011490E781E0FABA01C3
:1003A3000675800302046A75800202046A90E7807E
:1003B300E0FABA025D90E781E0FA7B0090E782E021
:1003C300FC8C05E4FC2AFAED3BFB8A088B098508C3
:1003D3000A85090B7A0090E783E0FBC3EA9B50216F
:1003E300EA24C0FBE434E7FC850A82850B83E0FD45
:1003F300050AE4B50A02050B8B828C83EDF00A80B3
:10040300D590E6A2E0FB54FEF090E68F74012AF04B
:10041300805590E780E0FABA034D90E781E0FA7BDC
:100423000090E782E0FC8C05E4FC2AFAED3BFB8AB2
:10043300088B0985080A85090B7A0090E783E0FB9E
:10044300C3EA9B5022AB0AAC0B74042A2480F582C6
:10045300E434E7F583E0FD8B828C83F0050AE4B591
:100463000A02050B0A80D490E6A1E0FA54FEF0904C
:10047300E68D7440F02290E6B9E0FA24F4500302CA
:1004830007E1EA2A2A90048C730205F0020693021C
:1004930007E10207510207E10207E10204B0020784
:1004A300E10205D90205CD0205AA0205C190E6BB0A
:1004B300E0FABA01028017BA02028048BA03028046
:1004C30079BA06028023BA0702805402059F90225C
:1004D30008E0FAA3E0FB8B047D0090E6B3ECF07B2D
:1004E3000090E6B4EAF00207E990220AE0FAA3E0FA
:1004F300FB8B047D0090E6B3ECF07B0090E6B4EA5E
:10050300F00207E9902210E0FAA3E0FB8B047D00E0
:1005130090E6B3ECF07B0090E6B4EAF00207E990D2
:100523002212E0FAA3E0FB8B047D0090E6B3ECF02B
:100533007B0090E6B4EAF00207E97A0090E6BAE0BD
:10054300FB902214E0FCA3E0FD74012CF582E43D52
:10055300F583E0FEBE03348B061BEE70178C068D0D
:10056300078F00F990E6B3E8F07F0090E6B4EEF071
:100573007A0180178C068D078C828D83E0F87900D1
:100583002EFEE93FFF8E048F0580BEEA600302075B
:10059300E990E6A0E0FA4401F00207E990E6A0E062
:1005A300FA4401F00207E9902207E0FA90E740F0ED
:1005B30090E68AE4F090E68B7401F00207E990E696
:1005C300BAE0FA902207F00207E990E6BAE0FA905F
:1005D3002206F00207E9902206E0FA90E740F09045
:1005E300E68AE4F090E68B7401F00207E990E6B83E
:1005F300E0FABA8002800DBA8102802DBA820280AD
:100603003E020688902201E025E0FA902202E0FBF8
:10061300420290E740EAF090E741E4F090E68AF086
:1006230090E68B7402F00207E990E740E4F090E76C
:1006330041F090E68AF090E68B7402F00207E990AD
:10064300E6BCE0FA53027E90E6BCE0FBC374809BF9
:10065300E433FB4A90091C93FA3395E0FB74A12A17
:10066300FA74E63BFB8A828B83E0FA53020190E73C
:1006730040EAF090E741E4F090E68AF090E68B746C
:1006830002F00207E990E6A0E0FA4401F00207E96C
:1006930090E6B8E0FA6008BA0202801E0207E99009
:1006A300E6BAE0FABA0108902201E4F00207E99001
:1006B300E6A0E0FA4401F00207E990E6BAE0FA6046
:1006C3000302074690E6BCE0FA53027E90E6BCE0E4
:1006D300FBC374809BE433FB4A90091C93FA339564
:1006E300E0FB74A12AFA74E63BFB90E6BCE0FC5302
:1006F300047E90E6BCE0FDC374809DE433FD4C9022
:10070300091C93FC3395E0FD74A12CFC74E63DFDBC
:100713008C828D83E0FC5304FE8A828B83ECF09001
:10072300E6BCE05480FAC423541FFA90E6BCE0FB15
:10073300740F5B90E6832AF090E683E0FA4420F09E
:100743000207E990E6A0E0FA4401F00207E990E627
:10075300B8E0FA6008BA020280270207E990E6BA15
:10076300E0FABA01089022017401F0807990E6BAA8
:10077300E0FABA0202806F90E6A0E0FA4401F0804A
:100783006590E6BCE0FA53027E90E6BCE0FBC374DE
:10079300809BE433FB4A90091C93FA3395E0FB7486
:1007A300A12AFA74E63BFB90E6BCE0FC53047E907E
:1007B300E6BCE0FDC374809DE433FD4C90091C93BB
:1007C300FC3395E0FD74A12CFC74E63DFD8C828D19
:1007D30083E0FC4304018A828B83ECF0800890E67B
:1007E300A0E0FA4401F090E6A0E0FA4480F0229001
:1007F3002200E0FA6008120479902200E4F09022CB
:1008030003E0FA60EA120389902203E4F080E02215
:10081300902200E4F0902203F012029C1202E312F1
:1008230003181202F990E680E0FA20E106758201CE
:1008330012026790E680E0FA54F7F0758E00758037
:100843000275B1020207F2C0E0C082C083902200A9
:100853007401F05391EF90E65D7401F0D083D08280
:10086300D0E032C0E0C082C0835391EF90E65D7464
:1008730004F0D083D082D0E032C0E0C082C083C015
:1008830002C00390220EE0FAA3E0FB902210EAF0EC
:10089300A3EBF090220CE0FAA3E0FB902212EAF023
:1008A300A3EBF05391EF90E65D7410F0D003D00208
:1008B300D083D082D0E032C0E0C082C083C002C007
:1008C3000390E680E0FA30E72090220CE0FAA3E000
:1008D300FB902210EAF0A3EBF090220EE0FAA3E0E3
:1008E300FB902212EAF0A3EBF05391EF90E65D74D4
:1008F30020F0D003D002D083D082D0E032C0E0C059
:1009030082C0839022037401F05391EF90E65F74E9
:1009130008F0D083D082D0E0320001020203030446
:03092300040505C3
:10E000001201020000000040B404051001000102EA
:10E0100000010A0602000000004001000902200081
:10E02000010100A0320904000002FF000000070502
:10E0300001024000000705810240000004030200C5
:10E040000C03480050005300440052001C034600DB
:10E050005000470041005F005500530042005F0040
:0AE060005600450052003100000098
:06000000020983020180E9
:03000B000201806F
:0300130002018067
:03001B000201805F
:0300230002018057
:03002B000201804F
:0300330002018047
:03003B000201803F
:03004300020100B7
:03004B000201802F
:0300530002008028
:03005B000201801F
:0300630002018017
:100080000201800002018000020180000201800064
:100090000201800002018000020180000201800054
:1000A0000201800002018000020180000201800044
:0800B000020180000201800042
:1001000002084A0002018000020866000201800025
:1001100002087C000208BA0002018000020180008F
:10012000020180000201800002018000020900003B
:1001300002018000020180000201800002018000B3
:1001400002018000020180000201800002018000A3
:100150000201800002018000020180000201800093
:100160000201800002018000020180000201800083
:100170000201800002018000020180000201800073
:0201800032004B
:06095900E478FFF6D8FD72
:100937007900E94400601B7A00900986781675A053
:1009470022E493F2A308B8000205A0D9F4DAF275FD
:02095700A0FFFF
:10095F007800E84400600A790075A000E4F309D834
:10096F00FC7816E84400600C7901902200E4F0A3B3
:04097F00D8FCD9FACD
:0D092A0075810B120926E5826003020203AD
:0409260075820022B4
:00000001FF
