:0600000002150402006B72
:03000B0002006B85
:0300130002006B7D
:03001B0002006B75
:0300230002006B6D
:03002B0002006B65
:0300330002006B5D
:03003B0002006B55
:0300430002006B4D
:03004B0002006B45
:0300530002006B3D
:03005B0002006B35
:0300630002006B2D
:01006B003262
:0900800002006B0002006B00029B
:08008900006B0002006B000295
:08009100006B0002006B00028D
:08009900006B0002006B000285
:0800A100006B0002006B00027D
:0800A900006B0002006B000275
:0700B100006B0002006B0070
:0901000002006B0002006B00021A
:08010900006B0002006B000214
:08011100006B0002006B00020C
:08011900006B0002006B000204
:08012100006B0002006B0002FC
:08012900006B0002006B0002F4
:08013100006B0002006B0002EC
:08013900006B0002006B0002E4
:08014100006B0002006B0002DC
:08014900006B0002006B0002D4
:08015100006B0002006B0002CC
:08015900006B0002006B0002C4
:08016100006B0002006B0002BC
:08016900006B0002006B0002B4
:08017100006B0002006B0002AC
:07017900006B0002006B00A7
:0CE0000012010002FFFFFF40FEFF0700BE
:06E00C0000010102040105
:0AE012000A060002FFFFFF400100B4
:0EE01C00090227000101008032090400000300
:0EE02A00FFFFFF030705020200020007058644
:0BE03800020002000705840200020045
:0CE0440012010002FFFFFF40FEFF07007A
:06E05000000101020001C5
:0AE056000A060002FFFFFF40010070
:0EE060000902120001010080320904000000D4
:04E06E00FFFFFF03AE
:01E0720005A8
:02E073007EE04D
:02E0750084E045
:02E07700ACE01B
:02E07900CCE0F9
:02E07B00EEE0D5
:06E07E0006030000090486
:0EE0840028034600720065006500200053006E
:0EE092006F0066007400770061007200650088
:0CE0A000200046006F006C006B00730055
:0EE0AC002003480050005300440052002000A2
:0EE0BA004F005A005900200052006500760009
:02E0C800200036
:02E0CA003F0015
:0EE0CC00220343006F006D006D0061006E00C6
:0EE0DA00640020002600200053007400610046
:06E0E800740075007300D6
:02E0EE0012031B
:0EE0F00031002E0034003100340032003100C7
:02E0FE003300ED
:08018000780DE84400600C79E1
:0C0188000190E100E4F0A3D8FCD9FAD00B
:0E01940083D082F6D8FDC082C083758200221F
:03151000021518A9
:0315040075080166
:03152B0002151393
:0515130012047680FEC9
:0501A20090E68BE4F083
:0901A70090E6A0E0FA20E1F82244
:0A01B00090E6B9E0FABA01028026D9
:0501BA00BA02028049B9
:0601BF00BA08030202323F
:0601C500BA090302025614
:0601CB00BA0B0302028CD6
:0601D100BA0C030202D784
:0601D700BA0D030202A8AC
:0301DD000202FD1E
:0C01E00090E6BCE0FA6005BA011A800C41
:0C01EC0090E6BAE0F58212052202030141
:0C01F80090E6BAE0F58212052F02030128
:0402040075820022DD
:0C02080090E6BCE0FA600ABA010280082F
:05021400BA0217801280
:030219000205A03B
:0C021C001201A290E68BE0F50F90E74085
:03022800020625A6
:03022B0002063593
:04022E0075820022B3
:0C0232001201A290E6BAE0FA7540407597
:0A023E0041E790E68BE0F5428A826A
:0A024800120753E582600302030170
:04025200758200228F
:0D0256001201A290E6BBE0FA90E6BAE0F5D6
:0A0263001690E6BDE0F51790E6BC2A
:07026D00E0F518751940755A
:0A0274001AE790E68BE0F51B8A8282
:0A027E00120EB7E5826003020301CF
:040288007582002259
:0E028C0090E6BAE0FABA010A90E67AE0FA4487
:04029A0001F080638C
:0A029E0090E67AE0FA54FEF0805971
:0C02A80090E6BBE0FA90E6BAE0F5299081
:0A02B400E6BDE0F52A90E6BCE0F597
:0502BE002B752C4075BA
:0A02C3002DE790E68BE0F52E8A820D
:0A02CD00120D28E582702DF5822243
:0E02D70090E6BAE0700890E6007402F0801C19
:0E02E50090E6BAE0FABA010890E600740AF05A
:0202F300800C7D
:0802F50090E6007412F0800491
:0402FD0075820022E4
:0403010075820122DE
:0B03050090E6B9E0FABA0D030203977E
:05031000BA8102801417
:05031500BA8202803DE8
:06031A00BA84030203E0B7
:06032000BA85030203FA96
:03032600020414BA
:0A03290090E6BAE0FA754040754115
:0C033300E790E6BEE0F5428A82120693D5
:07033F00E5827003F5822244
:0E03460090E68AE4F090E6BEE0FA90E68BF0D6
:0303540002041888
:0C03570090E6BBE0FA90E6BAE0F51090EA
:0A036300E6BDE0F51190E6BCE0F500
:05036D0012751340753C
:0A03720014E790E6BEE0F5158A825C
:0A037C00120E49E5827003F582229B
:0E03860090E68AE4F090E6BEE0FA90E68BF096
:0303940002041848
:0C03970090E6BBE0FA90E6BAE0F530908A
:0A03A300E6BDE0F53190E6BCE0F5A0
:0503AD003275334075BC
:0A03B20034E790E6BEE0F5358A82DC
:0E03BC00120DD1E582700D90152E75F0801295
:0603CA0004EA7582002226
:0E03D00090E68AE4F090E6BEE0FA90E68BF04C
:0203DE00803865
:0E03E00090E678E0FA53021890E740EAF090B9
:0C03EE00E68AE4F090E68B7401F0801EBB
:0E03FA0090E67AE0FA53020190E740EAF090B4
:0C040800E68AE4F090E68B7401F08004BA
:0404140075820022CB
:0404180075820122C6
:0B041C0090E6B8E0FABAC00302030546
:0B04270090E6B8E0FABA40030201B012
:0404320075820022AD
:080436003003FD12149280F85E
:0A043E00C0E0D5080675083263A07F
:010448004073
:05044900C2CFD0E0323B
:04044E00750A0075B6
:030452000BE17546
:090455000905750C0175825112B4
:08045E00056C90E100E0FA904A
:0C046600E00CF090E050EAF074302A90B6
:04047200E0CAF022CA
:0D047600120FE77582011205227582001237
:08048300052FC2AF12044E1256
:06048B0008D61211BA7A36
:080491003E7B048A828B83127A
:0A04990010D1D2EAD2AF12066F9024
:0904A300154575F0801204EA9081
:0904AC00155C75F0801204EA9061
:0904B500156875F0801204EA904C
:0904BE00156A75F0801204EA9041
:0904C700157375F0801204EA902F
:0904D00015E875F0801204EA023F
:0204D9000436E7
:0E152E00736472316B696E206572726F722089
:09153C006261696C6F75740A00AC
:0E1545000A0A4850534452204F7A79204669D2
:09155300726D776172652E2000B3
:0C155C004A756E203136203230313000EC
:02156800200061
:09156A0031363A34393A333200CB
:0E1573000A436F7079726967687420323030F5
:0E158100332C20323030342C20323030362CD7
:0E158F002032303037205068696C20436F7670
:0E159D00696E67746F6E20284E385642292CF6
:0E15AB002042696C6C205472616365792028BF
:0E15B9004B4435544644292C0A616E6420468A
:0E15C70072656520536F667477617265204609
:0E15D5006F756E64617461696F6E2C20496ED3
:0515E300632E0A0A005E
:0E15E8005468697320636F6465206973206C1A
:0E15F6006963656E73656420756E64657220AE
:0E16040074686520474E552047656E6572611B
:0E1612006C205075626C6963204C6963656ED4
:0E16200073652056657273696F6E20320A0A78
:01162E0000BB
:0704DB00AA82BA0A027A0DA1
:0504E20010990280FBEF
:0304E7008A9922CD
:0804EA00AA82AB83ACF07D0097
:0E04F2008D060DEE2AFEE43BFF8C008E828FFD
:0E0500008388F01214E8FEFF60178F82C0029D
:0E050E00C003C004C0051204DBD005D004D029
:05051C0003D00280D1B4
:0105210022B7
:09052200E582FA700443A04022B6
:04052B0053A0BF22F8
:09052F00E582FA700443A0802269
:0405380053A07F222B
:04053C0063A0402256
:0405400063A0802212
:03054400020E1094
:010547002291
:02054800AA8285
:06054A00120547DAFB2256
:0305500090FB50CD
:08055300A3E582458370F92243
:04055B00AA82AB8342
:08055F001205501ABAFF011B3E
:05056700EA4B70F422D4
:0B056C00AA8290E109E4F090E10AE5AA
:0405770009F07540D2
:03057B00097541BE
:09057E00E17542028A82C00212FA
:0B0587000753E582D0027003F58222CA
:04059200850A408511
:030596000B418591
:050599000C428A820201
:02059E000693C2
:0E05A00053A0C075822812054843A0027A00BD
:0E05AE00E5A020E4140A758232C0021205484E
:0505BC00D002BAFF00AF
:0605C10040EB75820022F0
:0405C7007582012216
:0E05CB00E5821392A0D2A2C2A21392A0D2A2E5
:0E05D900C2A21392A0D2A2C2A21392A0D2A2DA
:0E05E700C2A21392A0D2A2C2A21392A0D2A2CC
:0E05F500C2A21392A0D2A2C2A21392A0D2A2BE
:03060300C2A2226E
:06060600AA82AB0DAC0E50
:0E060C008A051AED60128B828C83E0FDA3AB91
:0A061A0082AC838D821205CB80E8CC
:0106240022B3
:0706250085820D85830E851F
:09062C000F8212060675820122FC
:0A063500E5A0FA20E404758200221B
:0A063F00530208BA08047582012274
:040649007582002294
:08064D0090E6A0E04401F02258
:0E065500AA8274805AC423541FFB740F5A905B
:0C066300E6834BF090E683E04420F02298
:0E066F0090E680E0440AF09000FA12055B90DD
:0E067D00E65D74FFF090E65F74FFF05391EFBE
:08068B0090E680E054F7F02234
:0A069300AA82E5427004758201227C
:0E069D0090E678E0FB20E6F890E6787480F0B6
:0A06AB00EA2AFA90E67974014AF099
:0E06B50090E678E0FA30E0F890E678E0FA306F
:0506C300E203020748FC
:0B06C80090E678E0FA20E1030207480A
:0C06D3007401B5420890E678E0FA44207B
:0106DF00F02A
:0906E00090E679E0F543AA40AB75
:0306E90041AC42DF
:0406EC001CEC603072
:0E06F00090E678E0FD30E0F890E678E0FD203E
:0D06FE00E248BC010890E678E0FD4420F0E1
:0E070B0090E679E0FD8A828B83F0A3AA82AB90
:07071900838A408B4180CC74
:0E07200090E678E0FA30E0F890E678E0FA2013
:0C072E00E21890E678E04440F0AA40ABEE
:0C073A004190E679E08A828B83F07582A2
:0207460001228E
:0B07480090E678E04440F0758200224B
:02075300AA8278
:0E07550090E678E0FB20E6F890E6787480F0FD
:07076300EA2AFA90E679F0A2
:0E076A0090E678E0FA30E0F890E678E0FA20C9
:0C077800E24790E678E0FA30E13FAA404A
:04078400AB41AC4297
:0E078800EC602B8A828B83E0FDA3AA82AB83F8
:0607960090E679EDF01C75
:0E079C0090E678E0FD30E0F890E678E0FD2091
:0C07AA00E21590E678E0FD20E1D4800B21
:0B07B60090E678E04440F075820122DC
:0B07C10090E678E04440F075820022D2
:0507CC00AA82BA03003F
:0707D1004005EA249C5001E1
:0107D80022FE
:0907D900740F5AFBBB03028007F8
:0707E200740F5AFBBB0B452D
:0A07E900A2AF9200C2AFEA2400F5AF
:0C07F30082E43400F5837402F07B007493
:0C07FF00012AFCE43BFDEC2400F582ED37
:0A080B003400F583E541FCF07402AF
:0C0815002AFAE43BFBEA2400F582EB34F5
:0A08210000F583AA407B00EAF0A274
:03082B000092AF89
:01082E0022A7
:08082F00E582FA248350012246
:06083700EA5403600122F7
:0A083D00A2AF9201C2AFEA2400F559
:0C08470082E43401F5837402F07B00743D
:0C085300012AFCE43BFDEC2400F582EDE2
:0A085F003401F583E541F074022A2C
:0B086900FAE43BFBEA2400F582EB34CC
:0808740001F583AA40EAF0A29D
:04087C000192AF2214
:05088000AA82BA80000D
:070885004005EA244B50017D
:01088C002249
:06088D00EA5403600122A1
:0A089300A2AF9202C2AFEA2480F582
:0C089D0082E43400F5837402F07B0074E8
:0C08A900012AFCE43BFDEC2480F582ED0C
:0A08B5003400F583E541F074022AD7
:0B08BF00FAE43BFBEA2480F582EB34F6
:0808CA0000F583AA40EAF0A248
:0408D2000292AF22BD
:0808D600C2E8C2EA754000759A
:0608DE0041017582431286
:0408E40007CC754088
:0308E800807541D7
:0C08EB00007582531207CC0090E650E428
:0E08F700F00090E652E4F00090E654E4F000C9
:0E09050090E656E4F00090E65174FFF000908A
:0E091300E65374FFF00090E65574FFF000907C
:0E092100E65774FFF00090E658E4F090E659B7
:0E092F0074FFF090E65AE4F090E65B74FFF07F
:0E093D0090E65CE4F090E65D74FFF090E65EFC
:0E094B00E4F090E65F74FFF00090E660E4F0E8
:0D0959000090E66174FFF090E662E4F0901B
:0E096600E66374FFF090E665E4F090E66874D6
:0A0974000BF05391AFD2E8D2EA2253
:0315070075250047
:0E097E00E582FAC4540FFB53030F53020FBB64
:02098C000A005F
:07098E004015AC40AD41AE85
:0C0995004274572BFF8C828D838EF01271
:0409A10014CF8013DC
:0509A500AC40AD41AEC5
:0C09AA004274302BFB8C828D838EF01287
:0209B60014CF5C
:0309B800BA0A0078
:0A09BB00401A74012540FBE43541A9
:0C09C500FCAD4274572AFE8B828C838D9F
:0609D100F01214CF8018A3
:0A09D70074012540FBE43541FCAD3E
:0C09E1004274302AFA8B828C838DF01255
:0209ED0014CF25
:0A09EF0074022540FAE43541FBAC28
:0B09F900428A828B838CF0E40214CF52
:0E0A0400AA8290E10BEAF090162F75F080C0E8
:080A1200021204EAD002754053
:050A1A0022754100758A
:080A1F0042408A8212097E9018
:090A2700002275F0401204EA906F
:090A3000164175F0801204EA750C
:060A39001601751780751F
:040A3F0018207519ED
:030A43000B751A16
:080A4600E1751B01758200122D
:0D0A4E000EB7E582700D90164375F0801212
:060A5B0004EA758200228E
:0D0A610090165775F0801204EA758201228C
:010A6E002265
:080A6F00AA82BA0203852625C4
:070A770090E10CE526F0758B
:060A7E00160175178075DA
:040A840018207519A8
:030A88000C751AD0
:0A0A8B00E1751B01758200C0021224
:0E0A95000EB7AB82D002EB701090166B75F0AE
:0B0AA30080C0031204EAD003020B2AFB
:0E0AAE00758202C002120548D00290E10CEAE7
:080ABC00F07516027517807534
:040AC4001820751968
:030AC8000C751A90
:080ACB00E1751B0175820012A8
:0E0AD3000EB7E582FB700F90168775F080C09D
:080AE100031204EAD003804176
:0C0AE90075820212054890E10CE4F075E3
:060AF50016027517807562
:040AFB001820751931
:030AFF000C751A59
:080B0200E1751B017582001270
:0E0B0A000EB7E582FB700F9016A375F080C049
:080B1800031204EAD003800A75
:0A0B2000758202C003120548D003DD
:030B2A008B822299
:0C0B2D00752640758208120A6FE582FAF6
:0E0B3900700F9016BF75F080C0021204EAD053
:030B4700028050D9
:0C0B4A007582021205487526C0758208ED
:0E0B5600120A6FE582FA700F9016D575F080C6
:090B6400C0021204EAD002802D47
:0C0B6D007582021205487526407582084A
:0E0B7900120A6FE582FA700F9016EB75F0808D
:090B8700C0021204EAD002800A47
:0A0B9000758202C002120548D0026F
:030B9A008A82222A
:0A0B9D00AA82852726758204C00293
:0E0BA700120A6FAB82D0027C00EB4C701490EF
:0E0BB500170175F080C003C0041204EAD004DA
:050BC300D003020C71DB
:0E0BC800758202C002120548D00274404AF540
:0C0BD60026758208C002120A6FAD82D0A2
:0E0BE200028D037C00EB4C701390171775F01A
:0E0BF00080C003C0041204EAD004D003807356
:0C0BFE00758202C002120548D0028A264F
:0E0C0A00758208C002120A6FAD82D0028D03FF
:0E0C18007C00EB4C701390172D75F080C0031C
:0B0C2600C0041204EAD004D003804098
:0E0C3100758202C002120548D00274404AF5D6
:0C0C3F0026758208120A6FAA828A037CC4
:0E0C4B0000EB4C701390174375F080C003C08F
:0A0C5900041204EAD004D003800E58
:0E0C6300758202C003C004120548D004D003FD
:030C71008B822251
:0C0C7400AA82AB25430320EA30E40543CC
:040C800003108003DA
:030C84005303EF28
:090C8700EA30E305430308800391
:030C90005303F714
:0C0C93004303045303FDE52860627A0768
:020C9F007C00D7
:0E0CA100EC20E7698AF005F07D017E008006F8
:060CAF00ED2DFDEE33FE09
:0C0CB500D5F0F7AF287800EF5205E852A8
:0A0CC10006ED4E60054303018003B9
:030CCB005303FED2
:0C0CCE008B26758202C002C003C0041215
:0C0CDA000A6FD004D0034303028B267580
:0E0CE6008202C003C004120A6FD004D003D0F3
:090CF400025303FD1ABAFF011CB2
:020CFD0080A2D3
:0B0CFF005303FB8B26758202C003121A
:040D0A000A6FD00399
:0B0D0E005303DF8B26758202C0031226
:0C0D19000A6FD00374204BF5267582028F
:030D2500020A6F50
:090D2800E52924FA4040E52925E3
:040D310029252990B7
:030D35000D387303
:070D3800020D6E020D6802BE
:060D3F000D4A020D5302F3
:050D45000D56020D5FD8
:040D4A00852B26854A
:050D4E002A82020A6F79
:030D5300020B2D63
:040D5600852B27853D
:050D5A002A82020B9D3E
:040D5F00852B288533
:050D63002A82020C745D
:060D6800852B82020A0443
:040D6E007582002268
:070D720085821385831475CF
:060D7900104375118075A6
:040D7F001220852F8A
:070D830015758200020E4904
:0A0D8A00AA82AB8375413275423036
:070D94007543307544397509
:060D9B0045307546357578
:060DA1004732754834756D
:050DA70049007C417DC4
:030DAC00007E4086
:0E0DAF008C828D838EF01214E8FF60128A820F
:0E0DBD008B83EFF0A3AA82AB830CBC00E50D84
:020DCB0080E2C4
:040DCD007582012208
:070DD1007406B53002800733
:070DD8007407B5301A800C0E
:040DDF0085352F85A2
:060DE30033828534830217
:020DE9000D7289
:040DEB008535408585
:060DEF003382853483020B
:020DF5000D8A65
:0D0DF70090175975F0801204EA75820022F1
:0E162F00736574446174615265672076616C66
:04163D003D307800C4
:021641000A009D
:0E164300736574446174615265672062616969
:061651006C6F75740A00C5
:0E1657007365744461746152656720676F6F3C
:06166500642072630A001C
:0E166B006C61746368206261696C206F757435
:0E1679002073706920777269746520310A0051
:0E1687006C61746368206261696C206F757419
:0E1695002073706920777269746520320A0034
:0E16A3006C61746368206261696C206F7574FD
:0E16B1002073706920777269746520330A0017
:0E16BF00444453205265736574206261696C67
:0816CD00206F757420310A0042
:0E16D500444453205265736574206261696C51
:0816E300206F757420320A002B
:0E16EB00444453205265736574206261696C3B
:0816F900206F757420330A0014
:0E170100444453205772697465206261696C1C
:08170F00206F757420310A00FF
:0E171700444453205772697465206261696C06
:08172500206F757420320A00E8
:0E172D00444453205772697465206261696CF0
:08173B00206F757420330A00D1
:0E174300444453205772697465206261696CDA
:08175100206F757420340A00BA
:0E175900536472316B5F436F6E74726F6C4934
:0E1767006E3A206E6F7420696D706C656D6552
:061775006E7464210A00FD
:080E0400E582FA7003F5B1224A
:040E0C00EA42B122E3
:090E1000758200120E04C2812259
:0A0E1900AA827B00EA30E0027B01B0
:050E2300EA30E1010BC3
:050E2800EA30E2010BBD
:050E2D00EA30E3010BB7
:050E3200EA30E4010BB1
:050E3700EA30E5010BAB
:050E3C00EA30E6010BA5
:050E4100EA30E7010B9F
:030E46008B82227A
:0C0E4900AA82851182C002120E19AB8231
:0B0E5500D002EB24FE50047582002246
:0B0E6000851182C002120E04D002E5D2
:080E6B001230E7047582002239
:0C0E730074605512FB6023BB2002800558
:050E7F00BB40178008D4
:080E8400851082120F1080118D
:090E8C008A82120F1085108212F7
:040E95000F108004B6
:040E9900758200223C
:060E9D00E515600C85154F
:050EA3001D851382858E
:050EA8001483120FC8C5
:0A0EAD00758200120E047582012206
:0C0EB700AA82851782C002120E04D0022D
:090EC300E51830E70475820022F5
:0C0ECC0074605518FB6023BB20028005F9
:050ED800BB401780087B
:080EDD00851682120F1080112E
:090EE5008A82120F108516821298
:040EEE000F1080045D
:040EF20075820022E3
:060EF600E51B600C851BEA
:050EFC001C8519828530
:050F01001A83120F61CC
:0A0F0600758200120E0475820122AC
:0E0F1000E58223FA139281D280C280EA23FA8E
:0E0F1E00139281D280C280EA23FA139281D20C
:0E0F2C0080C280EA23FA139281D280C280EA4A
:0E0F3A0023FA139281D280C280EA23FA139226
:0E0F480081D280C280EA23FA139281D280C245
:0B0F560080EA23139281D280C2802227
:060F6100AA82AB83AC1C68
:0E0F67008C051CED601E8A828B83E0FDA3AA20
:0E0F750082AB838D82C002C003C004120F1035
:080F8300D004D003D00280DC91
:010F8B002243
:0E0F8C00E4D280A28333C280D280A28333C21B
:0E0F9A0080D280A28333C280D280A28333C271
:0E0FA80080D280A28333C280D280A28333C263
:0E0FB60080D280A28333C280D280A28333C255
:040FC40080F5822210
:060FC800AA82AB83AC1D00
:0E0FCE008C051CED6012120F8CAD828A828B96
:0A0FDC0083EDF0A3AA82AB8380E846
:010FE60022E8
:0E0FE70090E6007412F0758E0090E60174FB27
:0E0FF500F0000090E6047480F00090E60474B2
:0E10030002F00090E6047404F00090E604741D
:0E10110006F00090E6047408F00090E604E497
:0E101F00F00075800075B20375A0C075B4E7CF
:0D102D0075B10075B6EF90E61074A0F0905C
:0E103A00E61174A0F00090E61274A2F000908F
:0E104800E61374E2F00090E61474E0F000008D
:0D10560090E609E4F090E6187401F00090B7
:0E106300E6187411F00090E6207402F0009080
:0D107100E621E4F00090E6197401F0009013
:0E107E00E6197409F00090E6227402F000906A
:0D108C00E623E4F00090E61A7409F00090ED
:0E109900E6247402F00090E625E4F0000090DA
:0E10A700E60274D8F00090E60374FEF043AF4A
:0E10B5000190E68AE4F00090E68DE4F00090F1
:0E10C300E608E04401F0759850D29902054409
:0A10D100AA82AB83C2AD8A408B41B6
:0E10DB0075822B1207CC75CB6375CAC075C821
:0410E90004D2AD225E
:06150A0075360075370084
:0A10ED0090E680E0FA30E71975384C
:0310F70000753948
:0310FA00E0753A64
:0310FD0012753B2E
:03110000E0753C5B
:031103001C753D1B
:03110600E0753E53
:0311090060753FCF
:02110C00E022DF
:04110E007538447577
:0311120039E0754C
:031115003A5675D2
:031118003BE07544
:03111B003C6075C0
:03111E003DE0753C
:031121003E1C75FC
:031124003FE02287
:091127005391EF75A100D20332CF
:0C113000C021C0E0C0F0C082C083C0023B
:0E113C00C003C004C005C006C007C000C0014B
:0E114A00C0D075D0005391EF75A1001210EDCA
:0E115800D0D0D001D000D007D006D005D004F2
:0D116600D003D002D083D082D0F0D0E0D0F2
:02117300213227
:0C117500C021C0E0C0F0C082C083C002F6
:0E118100C003C004C005C006C007C000C00106
:0E118F00C0D075D0005391EF75A1001210ED85
:0E119D00D0D0D001D000D007D006D005D004AD
:0D11AB00D003D002D083D082D0F0D0E0D0AD
:0211B8002132E2
:0511BA001210ED75406C
:0311BF0027754150
:0811C2001175820012082F755F
:0311CA004030753D
:0611CD00411175821012B1
:0411D300082F75402C
:0311D700757541EA
:0C11DA001175821412082F90E65C74312D
:0211E600F022F5
:0D11E800E582547FFA24F75004758200223E
:0711F500BA0104758201221A
:0811FC00530201E4BA000104F2
:03120400F582224E
:0E120700AA82BA010C90E6A1E0FB7C008B826B
:031215008C8322A5
:0E121800BA810C90E6A2E0FB7C008B828C83F6
:0112260022A5
:0E12270053027FEA700C90E6A0E0FB7C008B87
:04123500828C832202
:0E12390090E6A3E0FB7C00EAC313FA7D00EA16
:091247002BFBED3C8B82F58322A8
:0D12500090E6B8E0FA53021FBA00028005D4
:05125D00BA02458012F9
:0A12620090E6BAE0FABA0102800536
:05126C00BA020280033C
:0312710012064D15
:0E12740090E6BAE0FA702A90E6BCE0F582122D
:0D12820011E8E582601A90E6BCE0F58212EA
:0E128F001207AA82AB83E0FC4304018A828B23
:05129D0083ECF080036A
:0312A20012064DE4
:0312A50002064DF1
:0D12A80090E6B8E0FA53021FBA000280057C
:0512B500BA02408007B1
:0712BA0090E6BAE002064DC8
:0D12C10090E6BAE0702E90E6BCE0F58212D7
:0D12CE0011E8E582602190E6BCE0F5821297
:0E12DB001207AA82AB83E0FC5304FE8A828BCA
:0C12E90083ECF090E6BCE0F582020655B4
:0312F50002064DA1
:0312F80002064D9E
:0D12FB0090E6B8E0FA53021FBA0002800A24
:05130800BA0102801B88
:05130D00BA025F802A16
:0E13120090E7407401F090E741E4F090E68A25
:08132000F090E68B7402F0224C
:0E13280090E740E4F090E741F090E68AF09004
:06133600E68B7402F022B8
:0E133C0090E6BCE0F5821211E8E58260239095
:0E134A00E6BCE0F582121207E0FA53020190B1
:0E135800E740EAF090E741E4F090E68AF0907A
:06136600E68B7402F02288
:03136C0002064D29
:03136F0002064D26
:0A13720090E6BBE0FABA0102801712
:05137C00BA02028030FE
:05138100BA03028049DF
:05138600BA0602801709
:05138B00BA07028030EA
:0313900002140143
:0A139300AA38AB3990E6B3EBF090F6
:05139D00E6B4EAF022B5
:0A13A200AA3AAB3B90E6B3EBF090E3
:0513AC00E6B4EAF022A6
:0A13B100AA3CAB3D90E6B3EBF090D0
:0513BB00E6B4EAF02297
:0A13C000AA3EAB3F90E6B3EBF090BD
:0513CA00E6B4EAF02288
:0E13CF0090E6BAE0FA90E072E0FBC3EA9B40C1
:0413DD000302064DB4
:0C13E10090E6BAE075F002A42473F582D7
:0B13ED0074E035F0F583E0FAA3E09017
:0913F800E6B3F090E6B4EAF0223D
:0314010002064D93
:0C14040090E6B9E0FA6036BA0602802ECD
:05141000BA080280058E
:05141500BA0A2C801250
:0C141A0090E740E536F090E68AE4F090A0
:06142600E68B7401F022C8
:0C142C0090E740E537F090E68AE4F0908D
:06143800E68B7401F022B6
:03143E0002137224
:031441000212FB99
:0314440002064D50
:0A14470090E6B9E0FABA010280272E
:05145100BA0302802532
:05145600BA050280232D
:05145B00BA0702801E2B
:05146000BA090280053D
:05146500BA0B16800720
:07146A0090E6BAE0F536221E
:0714710090E6BAE0F5372216
:031478000212A8B5
:03147B000212500A
:03147E0002064D16
:0E14810090E6B8E0FA530280BA800302140429
:03148F00021447FD
:0C149200C20390E6B8E0FA530260BA0012
:03149E0002801EAB
:0514A100BA20028008E2
:0514A600BA40028008BD
:0314AB00BA60160E
:0514AE0012064D801440
:0C14B30012041CE582700D12064D80082A
:0514BF001214818003FE
:0314C40012064DC0
:0814C70090E6A0E04480F02251
:06152500E478FFF6D8FD9A
:0E14CF0020F71030F6118883A88220F507F66A
:0514DD00A883758300E7
:0114E20022E7
:0314E300F280F79D
:0214E600F022F2
:0315180075814991
:0A151B00120180E58260030215133F
:0E14E80020F71430F6148883A88220F507E65A
:0614F600A88375830022AB
:0314FC00E280F794
:0314FF00E4932251
:02150200E022E5
:00000001FF
