:0600000002104302006B38
:03000B0002006B85
:0300130002006B7D
:03001B0002006B75
:0300230002006B6D
:03002B0002006B65
:0300330002006B5D
:03003B0002006B55
:0300430002006B4D
:03004B0002006B45
:0300530002006B3D
:03005B0002006B35
:0300630002006B2D
:01006B003262
:0900800002006B0002006B00029B
:08008900006B0002006B000295
:08009100006B0002006B00028D
:08009900006B0002006B000285
:0800A100006B0002006B00027D
:0800A900006B0002006B000275
:0700B100006B0002006B0070
:0901000002006B0002006B00021A
:08010900006B0002006B000214
:08011100006B0002006B00020C
:08011900006B0002006B000204
:08012100006B0002006B0002FC
:08012900006B0002006B0002F4
:08013100006B0002006B0002EC
:08013900006B0002006B0002E4
:08014100006B0002006B0002DC
:08014900006B0002006B0002D4
:08015100006B0002006B0002CC
:08015900006B0002006B0002C4
:08016100006B0002006B0002BC
:08016900006B0002006B0002B4
:08017100006B0002006B0002AC
:07017900006B0002006B00A7
:08018000780BE84400600C79E3
:0D01880001902000E4F0A3D8FCD9FAD08348
:0D019500D082F6D8FDC082C08375820022A2
:0CE0000012010002FFFFFF40FEFF0700BE
:06E00C0000010102040105
:0AE012000A060002FFFFFF400100B4
:0EE01C00090220000101008032090400000208
:0EE02A00FFFFFF030705020200020007058644
:04E0380002000200E0
:0CE03C0012010002FFFFFF40FEFF070082
:06E04800000101020001CD
:0AE04E000A060002FFFFFF40010078
:0EE058000902120001010080320904000000DC
:04E06600FFFFFF03B6
:01E06A0005B0
:02E06B0076E05D
:02E06D007CE055
:02E06F00A4E02B
:02E07100C4E009
:02E07300E6E0E5
:06E076000603000009048E
:0EE07C00280346007200650065002000530076
:0EE08A006F0066007400770061007200650090
:0CE09800200046006F006C006B0073005D
:0EE0A4002003480050005300440052002000AA
:0EE0B2004F005A005900200052006500760011
:02E0C00020003E
:02E0C2003F001D
:0EE0C400220343006F006D006D0061006E00CE
:0EE0D20064002000260020005300740061004E
:06E0E000740075007300DE
:02E0E600120323
:0EE0E80031002E0034003100340032003100CF
:02E0F6003300F5
:0301A20002104CFC
:031043007508012C
:03105F000201A5E6
:0501A50012040980FEB8
:0501AA0090E68BE4F07B
:0801AF0090E6A0E0FA20E1F85F
:0101B7002225
:0A01B80090E6B9E0FABA01028020D7
:0501C200BA02028045B5
:0601C700BA080302023633
:0601CD00BA090302025A08
:0601D300BA0B0302028CCE
:0601D900BA0C030202A8AB
:0301DF000202D148
:0701E20090E6BCE0FA6005A5
:0501E900BA011C800DAD
:0D01EE0090E6BAE0FAF5821206240202D56E
:0D01FB0090E6BAE0FAF5821206310202D554
:0402080075820022D9
:07020C0090E6BCE0FA600A75
:05021300BA01028008A1
:05021800BA021780127C
:03021D0002046C6C
:0D0220001201AA90E68BE0F50F90E7400276
:02022D0004F7D4
:03022F00020507BE
:0402320075820022AF
:0C0236001201AA90E6BAE0FA752B4075A0
:0B0242002CE790E68BE0F52D8A82127D
:09024D000792E58260030202D56C
:04025600758200228B
:0D025A001201AA90E6BBE0FA90E6BAE0F5CA
:0C0267001690E6BDE0F51790E6BCE0F54F
:0502730018751940752B
:0B0278001AE790E68BE0F51B8A82126B
:060283000A9AE582704CAE
:03028900F58222D9
:08028C0090E6BAE0FABA010A9B
:0A02940090E67AE0FA4401F08037AA
:0A029E0090E67AE0FA54FEF0802D9D
:0702A80090E6BAE0FA6002E3
:0202AF008008C5
:0802B10090E6007402F0801CCD
:0802B90090E6BAE0FABA010870
:0802C10090E600740AF0800CC5
:0802C90090E6007412F08004BD
:0402D1007582002210
:0302D5007582012E
:0102D8002203
:0A02D90090E6B9E0FABA8102801441
:0502E300BA8202803D1B
:0602E800BA840302036466
:0602EE00BA850302037E45
:0302F4000203986A
:0C02F70090E6BAE0FA752B40752CE790F9
:0D030300E6BEE0F52D8A821206BBE5827091
:0103100003E9
:03031100F5822250
:0E03140090E68AE4F090E6BEE0FA90E68BF008
:0303220002039C37
:0C03250090E6BBE0FA90E6BAE0F510901C
:0C033100E6BDE0F51190E6BCE0F51275A9
:0A033D0013407514E790E6BEE0F5EA
:0A034700158A82120A2CE582700369
:03035100F5822210
:0E03540090E68AE4F090E6BEE0FA90E68BF0C8
:020362008038E1
:0E03640090E678E0FA53021890E740EAF09035
:0C037200E68AE4F090E68B7401F0801E37
:0E037E0090E67AE0FA53020190E740EAF09030
:0C038C00E68AE4F090E68B7401F0800437
:040398007582002248
:03039C0075820166
:01039F00223B
:0803A00090E6B8E0FABAC003D0
:0303A8000202D975
:0803AB0090E6B8E0FABA400345
:0303B3000201B88C
:0303B6007582004D
:0103B9002221
:0303BA0030030508
:0503BD00120FDD80F8C5
:0803C2007582201205DF80F0B6
:0103CA002210
:0803CB00C0E01508E50860021E
:0203D3008006A2
:0603D50075083263A04030
:0203DB00C2CF8F
:0303DD00D0E0323B
:0403E000750A007525
:0303E4000B207576
:0903E7000905750C017582511223
:0803F0000438902000E0FA90AF
:0D03F800E00CF090E048EAF074302AFA9032
:03040500E0C2F062
:0104080022D1
:0D040900120523758201120624758200126F
:080416000631C2AF1203E0122F
:06041E00093E120CAF7A4A
:08042400CB7B038A828B83125B
:0A042C000BCED2EAD2AF1206950201
:0204360003BA07
:0B043800AA82902009E4F090200AE561
:0404430009F0752B1C
:0304470009752C08
:09044A0020752D028A82C0021205
:080453000792E582D00270035C
:03045B00F5822205
:04045E00850A2B855B
:030462000B2C85DB
:050465000C2D8A82024B
:02046A0006BBCF
:0E046C0053A0C075822812064A43A0027A00EF
:07047A00741055A0FB6002A5
:020481008014E5
:0E0483000A758232C00212064AD002BAFF0089
:0204910040E742
:04049300758200224C
:030497007582016A
:01049A00223F
:0E049B00E5821392A0D2A2C2A21392A0D2A216
:0E04A900C2A21392A0D2A2C2A21392A0D2A20B
:0E04B700C2A21392A0D2A2C2A21392A0D2A2FD
:0E04C500C2A21392A0D2A2C2A21392A0D2A2EF
:0304D300C2A222A0
:0604D600AA82AB0DAC0E82
:0804DC008A051AED24FF5012FD
:0E04E4008B828C83E0FDA3AB82AC838D8212F1
:0404F200049B80E601
:0104F60022E3
:0704F70085820D85830E854F
:0804FE000F821204D675820181
:0105060022D2
:08050700AAA074105AFB600267
:02050F00800466
:0405110075820022CD
:06051500530208BA0804BD
:04051B0075820122C2
:03051F00758200E2
:0105220022B6
:0E05230090E6007412F0758E0090E60174E30D
:0E053100F00090E6047480F00090E60474027E
:0E053F00F00090E6047404F00090E6047406E8
:0E054D00F00090E6047408F00090E604E4F07C
:0E055B000075800075B20375A0C075B4E77519
:0D056900B10075B6FF90E61074A0F0009090
:0E057600E61174A0F00090E61274A0F0009060
:0D058400E61474E0F00090E609E4F0009049
:0E059100E6187401F00090E6187411F0009066
:0D059F00E6207402F00090E621E4F00090E8
:0E05AC00E61A7409F00090E6247402F0009044
:0E05BA00E625E4F00043AF010090E68AE4F08D
:0E05C8000090E68DE4F0007598504389207590
:0905D6008DB2D28ED299020646C4
:0205DF00AA82EE
:0505E10010990280FBEF
:0205E6008A99F0
:0105E80022F0
:0805E900AA82AB83ACF07D0097
:0E05F1008D060DEE2AFEE43BFF8C008E828FFD
:0D05FF008388F012101BFE8E07BE00012243
:0E060C008F82C002C003C004C0051205DFD0FB
:09061A0005D004D003D00280CE0B
:0106230022B4
:05062400E582FA7004FC
:0406290043A0402288
:03062D0053A0BF18
:0106300022A7
:05063100E582FA7004EF
:0406360043A080223B
:03063A0053A07F4B
:01063D00229A
:03063E0063A04076
:010641002296
:0306420063A08032
:010645002292
:030646000209F3B3
:01064900228E
:02064A00AA8282
:05064C00120649DAFB73
:010651002286
:0306520090FB50CA
:08065500A3E582458370F92240
:04065D00AA82AB833F
:080661001206521ABAFF011B38
:06066900BA00F5BB00F22F
:01066F002268
:0806700090E6A0E0FA4401F05D
:01067800225F
:0E067900AA8274805AFBC423541FFB740F5ACC
:0D06870090E6834BF090E683E0FA4420F00B
:010694002243
:0E06950090E680E0FA440AF09000FA12065D4A
:0E06A30090E65D74FFF090E65F74FFF05391F7
:0906B100EF90E680E0FA54F7F046
:0106BA00221D
:0606BB00AA82E52D600299
:0206C1008004B3
:0406C3007582012219
:0806C70090E678E0FB20E6F864
:0E06CF0090E6787480F0EA2AFA90E6797401D9
:0206DD004AF0E1
:0D06DF0090E678E0FA530201BA000280F3C1
:0B06EC0090E678E0FA30E20302078697
:0E06F70090E678E0FA530202BA00030207868A
:05070500E52DB4010820
:08070A0090E678E0FA4420F0CB
:0907120090E679E0F52EAA2BAB6C
:03071B002CAC2DD6
:04071E00DC02803544
:0D07220090E678E0FD530501BD000280F374
:08072F0090E678E0FD20E24FA6
:03073700BC0108FA
:08073A0090E678E0FD4420F098
:0E07420090E679E0FD8A828B83F0A3AA82AB59
:07075000838A2B8B2C80C76C
:0D07570090E678E0FA530201BA000280F348
:0807640090E678E0FA20E21AA9
:0C076C0090E678E0FA4440F0AA2BAB2C99
:0E07780090E679E0FC8A828B83F07582012284
:0B07860090E678E0FA4440F075820035
:010791002245
:02079200AA8239
:0807940090E678E0FB20E6F896
:0D079C0090E6787480F0EA2AFA90E679F091
:0D07A90090E678E0FA530201BA000280F3F6
:0807B60090E678E0FA20E2571A
:0D07BE0090E678E0FA530202BA0002804A89
:0507CB00AA2BAB2CACD1
:0107D0002DFB
:0507D100EC24FF503391
:0E07D6008A828B83E0FDA3AA82AB8390E67932
:0307E400EDF01C19
:0D07E70090E678E0FD530501BD000280F3AF
:0807F40090E678E0FD20E21917
:0B07FC0090E678E0FD530502BD00CA46
:02080700800C63
:0C08090090E678E0FA4440F0758201228D
:0B08150090E678E0FA4440F0758200A5
:0108200022B5
:05082100AA82BA0300E9
:0208260040058B
:05082800EA249C5001D0
:01082D0022A8
:09082E00740F5AFBBB03028007A2
:07083700740F5AFBBB0B47D5
:0C083E00A2AF9200C2AFEA2400F582E4F1
:0D084A003400F5837402F07B0074012AFC79
:0C085700E43BFDEC2400F582ED3400F5DC
:0D08630083AC2C7D00ECF074022AFAE43B1B
:0C087000FBEA2400F582EB3400F583AABB
:09087C002B7B00EAF0A20092AF10
:010885002250
:05088600AA82BA000087
:02088B00400526
:05088D00EA2483500184
:010892002243
:0608930074035AFB600132
:01089900223C
:0C089A00A2AF9201C2AFEA2400F582E494
:0D08A6003401F5837402F07B0074012AFC1C
:0C08B300E43BFDEC2400F582ED3401F57F
:0D08BF0083AC2C7D00ECF074022AFAE43BBF
:0C08CC00FBEA2400F582EB3401F583AA5E
:0908D8002B7B00EAF0A20192AFB3
:0108E10022F4
:0508E200AA82BA8000AB
:0208E7004005CA
:0508E900EA244B500160
:0108EE0022E7
:0608EF0074035AFB6001D6
:0108F50022E0
:0C08F600A2AF9202C2AFEA2480F582E4B7
:0D0902003400F5837402F07B0074012AFCC0
:0C090F00E43BFDEC2480F582ED3400F5A3
:0D091B0083AC2C7D00ECF074022AFAE43B62
:0C092800FBEA2480F582EB3400F583AA82
:090934002B7B00EAF0A20292AF55
:01093D002297
:08093E00C2E8C2EA752B007546
:060946002C017582431232
:04094C000821752BDE
:0309500080752C83
:0D095300007582531208210090E650E4F078
:0E0960000090E652E4F00090E654E4F00090BF
:0D096E00E656E4F00090E65174FFF00090B2
:0E097B00E65374FFF00090E65574FFF0009014
:0E098900E65774FFF00090E658E4F090E6594F
:0E09970074FFF090E65AE4F090E65B74FFF017
:0E09A50090E65CE4F090E65D74FFF090E65E94
:0E09B300E4F090E65F74FFF00090E660E4F080
:0D09C1000090E66174FFF090E662E4F090B3
:0E09CE00E66374FFF090E665E4F090E668746E
:0909DC000BF05391AFD2E8D2EA0E
:0109E50022EF
:0509E600AA82BA000422
:0409EB0075B10022C0
:0309EF00EA42B128
:0109F20022E2
:0809F3007582001209E6C281C1
:0109FB0022D9
:0809FC00AA827B00EA30E00250
:020A04007B0174
:040A0600EA30E101F0
:010A0A000BE0
:040A0B00EA30E201EA
:010A0F000BDB
:040A1000EA30E301E4
:010A14000BD6
:040A1500EA30E401DE
:010A19000BD1
:040A1A00EA30E501D8
:010A1E000BCC
:040A1F00EA30E601D2
:010A23000BC7
:040A2400EA30E701CC
:010A28000BC2
:020A29008B82BE
:010A2B0022A8
:0D0A2C00AA82851182C0021209FCAB82D0A3
:060A390002EB24FE500454
:040A3F00758200229A
:0B0A4300851182C0021209E6D002E516
:040A4E001230E70477
:040A52007582002287
:070A560074605512FB6023E0
:050A5D00BB2002800532
:050A6200BB40178008F5
:080A6700851082120AF38011D0
:090A6F008A82120AF3851082123A
:040A78000AF38004F9
:040A7C00758200225D
:040A8000E515600C0C
:040A840085151D8532
:060A8800138285148312A5
:020A8E000BAEAD
:090A90007582001209E67582016D
:010A9900223A
:0D0A9A00AA82851782C0021209E6D002E58B
:040AA7001830E70418
:040AAB00758200222E
:070AAF0074605518FB602381
:050AB600BB20028005D9
:050ABB00BB401780089C
:080AC000851682120AF3801171
:090AC8008A82120AF385168212DB
:040AD1000AF38004A0
:040AD5007582002204
:040AD900E51B600CAD
:040ADD00851B1C85D4
:060AE1001982851A831240
:020AE7000B46BC
:090AE9007582001209E675820114
:010AF20022E1
:0E0AF300E582FA23FA139281D280C280EA23B0
:0E0B0100FA139281D280C280EA23FA13928105
:0E0B0F00D280C280EA23FA139281D280C28083
:0E0B1D00EA23FA139281D280C280EA23FA13EF
:0E0B2B009281D280C280EA23FA139281D28096
:0C0B3900C280EA23FA139281D280C280AD
:010B4500228D
:060B4600AA82AB83AC1C87
:070B4C008C051CBD00012215
:0E0B53008A828B83E0FDA3AA82AB838D82C0D1
:0E0B610002C003C004120AF3D004D003D00275
:020B6F0080DB29
:010B71002261
:0E0B7200E4D280A28333C280D280A28333C239
:0E0B800080D280A28333C280D280A28333C28F
:0E0B8E0080D280A28333C280D280A28333C281
:0E0B9C0080D280A28333C280D280A28333C273
:040BAA0080F582222E
:060BAE00AA82AB83AC1D1E
:070BB4008C051CBD000122AD
:0E0BBB00120B72AD828A828B83EDF0A3AA82A8
:040BC900AB8380E793
:010BCD002205
:0C0BCE00AA82AB83C2AD8A2B8B2C7582EF
:0E0BDA002B12082175CB6375CAC075C804D2F2
:010BE800AD5F
:010BE90022E9
:0610460075210075220077
:080BEA0090E680E0FA30E71903
:040BF20075230075F2
:030BF60024E07583
:030BF9002512754D
:030BFC0026E0757B
:030BFF00271C753B
:030C020028E07572
:030C0500295875F6
:030C08002AE022BD
:040C0B0075233C759C
:030C0F0024E07569
:030C1200254E75F7
:030C150026E07561
:030C1800275875E5
:030C1B0028E07559
:030C1E00291C7519
:020C21002AE0C7
:010C230022AE
:080C24005391EF75A100D2030A
:010C2C003295
:0E0C2D00C0E0C0F0C082C083C002C003C0049B
:0E0C3B00C005C006C007C000C001C0D075D003
:0A0C4900005391EF75A100120BEAB1
:0E0C5300D0D0D001D000D007D006D005D004FC
:0D0C6100D003D002D083D082D0F0D0E0329A
:0E0C6E00C0E0C0F0C082C083C002C003C0045A
:0E0C7C00C005C006C007C000C001C0D075D0C2
:0A0C8A00005391EF75A100120BEA70
:0E0C9400D0D0D001D000D007D006D005D004BB
:0D0CA200D003D002D083D082D0F0D0E03259
:050CAF00120BEA752B99
:030CB40024752C78
:080CB7000C758200120886751D
:030CBF002B2D7565
:060CC2002C0C75821012DB
:040CC8000886752BFA
:030CCC006E752C16
:0D0CCF000C75821412088690E65C7431F0FA
:010CDC0022F5
:090CDD00E582547FFA24F750046B
:040CE60075820022F1
:030CEA00BA010448
:040CED0075820122E9
:080CF100530201E4BA00010402
:020CF900F58282
:010CFB0022D6
:050CFC00AA82BA010C00
:0C0D010090E6A1E0FB7C008B828C83223A
:030D0D00BA810C9C
:0C0D100090E6A2E0FB7C008B828C83222A
:060D1C0053027FBA000C37
:0C0D220090E6A0E0FB7C008B828C83221A
:0E0D2E0090E6A3E0FB7C00EAC313FA7D00EA26
:080D3C002BFBED3C8B82F583DB
:010D4400228C
:0D0D450090E6B8E0FA53021FBA00028005E4
:050D5200BA025B8012F3
:0A0D570090E6BAE0FABA0102800546
:050D6100BA020280034C
:030D660012067002
:070D690090E6BAE0FA600217
:020D7000803EC3
:0E0D720090E6BCE0FAF582120CDDE582602D01
:0E0D800090E6BCE0FAF582120CFCAA82AB836E
:0E0D8E0090E6BCE0FCF582C002C003120CFC33
:0E0D9C00D003D002E0FC4304018A828B83EC7A
:030DAA00F08003D3
:030DAD00120670BB
:030DB000020670C8
:0D0DB30090E6B8E0FA53021FBA0002800576
:050DC000BA0258800793
:070DC50090E6BAE00206709F
:070DCC0090E6BAE0FA6002B4
:020DD30080435B
:0E0DD50090E6BCE0FAF582120CDDE582603596
:0E0DE30090E6BCE0FAF582120CFCAA82AB830B
:0E0DF10090E6BCE0FCF582C002C003120CFCD0
:0E0DFF00D003D002E0FC5304FE8A828B83EC0A
:0B0E0D00F090E6BCE0FAF582020679E6
:030E18000206705F
:030E1B000206705C
:010E1E0022B1
:0D0E1F0090E6B8E0FA53021FBA0002800A04
:050E2C00BA0102801B69
:050E3100BA0261802AF5
:0E0E360090E7407401F090E741E4F090E68A06
:080E4400F090E68B7402F0222D
:0E0E4C0090E740E4F090E741F090E68AF090E5
:060E5A00E68B7402F02299
:0E0E600090E6BCE0FAF582120CDDE58260241B
:0E0E6E0090E6BCE0FAF582120CFCE0FA5302AA
:0E0E7C000190E740EAF090E741E4F090E68A4A
:080E8A00F090E68B7402F022E7
:030E9200020670E5
:030E9500020670E2
:010E98002237
:0A0E990090E6BBE0FABA01028017F0
:050EA300BA0202803CD0
:050EA800BA03028061A5
:050EAD00BA0602801DE1
:050EB200BA07028042B6
:030EB700020F49DE
:0C0EBA00AA23AB248B047D0090E6B3EC6F
:090EC600F07B0090E6B4EAF02292
:0C0ECF00AA25AB268B047D0090E6B3EC56
:090EDB00F07B0090E6B4EAF0227D
:0C0EE400AA27AB288B047D0090E6B3EC3D
:090EF000F07B0090E6B4EAF02268
:0C0EF900AA29AB2A8B047D0090E6B3EC24
:090F0500F07B0090E6B4EAF02252
:0E0F0E0090E6BAE0FA90E06AE0FBC3EA9B408E
:010F1C0003D1
:030F1D0002067059
:0D0F200090E6BAE0FA75F002A4246BF582A9
:0D0F2D0074E035F0F583E0FAA3E0FB8B04DF
:0E0F3A007D0090E6B3ECF07B0090E6B4EAF0A8
:010F48002286
:030F49000206702D
:070F4C0090E6B9E0FA6036FF
:050F5300BA0602802E29
:050F5800BA080280054B
:050F5D00BA0A2C80120D
:0C0F620090E740E521F090E68AE4F09072
:060F6E00E68B7401F02285
:0C0F740090E740E522F090E68AE4F0905F
:060F8000E68B7401F02273
:030F8600020E99BF
:030F8900020E1F36
:030F8C00020670EA
:010F8F00223F
:0A0F900090E6B9E0FABA01028027EA
:050F9A00BA03028025EE
:050F9F00BA05028023E9
:050FA400BA0702801EE7
:050FA900BA09028005F9
:050FAE00BA0B168007DC
:070FB30090E6BAE0F52122EF
:070FBA0090E6BAE0F52222E7
:030FC100020DB36B
:030FC400020D45D6
:030FC700020670AF
:010FCA002204
:0B0FCB0090E6B8E0FA530280BA800301
:030FD600020F4CBB
:030FD900020F9074
:010FDC0022F2
:0D0FDD00C20390E6B8E0FA530260BA0002C9
:020FEA00801E67
:050FEC00BA200280089C
:050FF100BA4002800877
:030FF600BA6016C8
:050FF9001206708014D7
:070FFE001203A0E582700D53
:051005001206708008D6
:05100A00120FCB800372
:03100F0012067056
:0810120090E6A0E0FA4480F032
:01101A0022B3
:06105900E478FFF6D8FD6B
:03104C0075812E7D
:0A104F00120180E58260030201A592
:0E101B00E5F0601014601514601414601314D6
:0610290014600374FF22B5
:08102F00C000A882E6D00022F7
:02103700E022B5
:02103900932200
:08103B00C000A882E2D00022EF
:00000001FF
