:06000000020FE102006B9B
:03000B0002006B85
:0300130002006B7D
:03001B0002006B75
:0300230002006B6D
:03002B0002006B65
:0300330002006B5D
:03003B0002006B55
:0300430002006B4D
:03004B0002006B45
:0300530002006B3D
:03005B0002006B35
:0300630002006B2D
:01006B003262
:0900800002006B0002006B00029B
:08008900006B0002006B000295
:08009100006B0002006B00028D
:08009900006B0002006B000285
:0800A100006B0002006B00027D
:0800A900006B0002006B000275
:0700B100006B0002006B0070
:0901000002006B0002006B00021A
:08010900006B0002006B000214
:08011100006B0002006B00020C
:08011900006B0002006B000204
:08012100006B0002006B0002FC
:08012900006B0002006B0002F4
:08013100006B0002006B0002EC
:08013900006B0002006B0002E4
:08014100006B0002006B0002DC
:08014900006B0002006B0002D4
:08015100006B0002006B0002CC
:08015900006B0002006B0002C4
:08016100006B0002006B0002BC
:08016900006B0002006B0002B4
:08017100006B0002006B0002AC
:07017900006B0002006B00A7
:0CE0000012010002FFFFFF40FEFFFF00C6
:06E00C0000010102040105
:0AE012000A060002FFFFFF400100B4
:0EE01C00090220000101008032090400000208
:0EE02A00FFFFFF030705020200020007058644
:04E0380002000200E0
:0CE03C0012010002FFFFFF40FEFFFF008A
:06E04800000101020001CD
:0AE04E000A060002FFFFFF40010078
:0EE058000902120001010080320904000000DC
:04E06600FFFFFF03B6
:01E06A0005B0
:02E06B0076E05D
:02E06D007CE055
:02E06F00A4E02B
:02E07100C4E009
:02E07300E6E0E5
:06E076000603000009048E
:0EE07C00280346007200650065002000530076
:0EE08A006F0066007400770061007200650090
:0CE09800200046006F006C006B0073005D
:0EE0A4002003510053003100520020004100C3
:0EE0B20042002E003000200052006500760073
:02E0C00020003E
:02E0C2003F001D
:0EE0C400220343006F006D006D0061006E00CE
:0EE0D20064002000260020005300740061004E
:06E0E000740075007300DE
:02E0E600120323
:0EE0E80031002E0037003300320030003500CA
:02E0F6003000F8
:08018000780BE84400600C79E3
:0D01880001902000E4F0A3D8FCD9FAD08348
:0D019500D082F6D8FDC082C08375820022A2
:0201A200AA822F
:0501A40010990280FB30
:0201A9008A9931
:0101AB002231
:0801AC00AA82AB83ACF07D00D8
:0E01B4008D060DEE2AFEE43BFF8C008E828F3E
:0D01C2008388F0120FB9FE8E07BE000122E7
:0E01CF008F82C002C003C004C0051201A2D07E
:0901DD0005D004D003D00280CE4D
:0101E60022F6
:0301E70002067F8E
:0B01EA00AA82902000E4F0902001E5C4
:0401F50008F0752B6E
:0301F90000752C62
:0901FC0020752D028A82C0021256
:08020500041EE582D002700323
:03020D00F5822255
:0402100085092B85AC
:030214000A2C852C
:050217000B2D8A82029C
:02021C00034796
:0E021E0053A0C07582281202D643A0027A00B7
:07022C00741055A0FB6002F5
:02023300801435
:0E0235000A758232C0021202D6D002BAFF0051
:0202430040E792
:04024500758200229C
:03024900758201BA
:01024C00228F
:0E024D00E5821392A0D2A2C2A21392A0D2A266
:0E025B00C2A21392A0D2A2C2A21392A0D2A25B
:0E026900C2A21392A0D2A2C2A21392A0D2A24D
:0E027700C2A21392A0D2A2C2A21392A0D2A23F
:03028500C2A222F0
:06028800AA82AB0CAC0DD4
:08028E008A051AED24FF50124D
:0E0296008B828C83E0FDA3AB82AC838D821241
:0402A400024D80E6A1
:0102A8002233
:0702A90085820C85830D85A1
:0802B0000E8212028875820122
:0102B8002223
:0802B900AAA074105AFB6002B8
:0202C1008004B7
:0402C300758200221E
:0602C700530208BA08040E
:0402CD007582012213
:0302D10075820033
:0102D4002207
:0102D5002206
:0202D600AA82FA
:0502D8001202D5DAFB63
:0102DD0022FE
:0302DE0090FB5042
:0802E100A3E582458370F922B8
:0402E900AA82AB83B7
:0802ED001202DE1ABAFF011B28
:0602F500BA00F5BB00F2A7
:0102FB0022E0
:0802FC0090E6A0E0FA4401F0D5
:0103040022D6
:0E030500AA8274805AFBC423541FFB740F5A43
:0D03130090E6834BF090E683E0FA4420F082
:0103200022BA
:0E03210090E680E0FA440AF09000FA1202E939
:0E032F0090E65D74FFF090E65F74FFF053916E
:09033D00EF90E680E0FA54F7F0BD
:010346002294
:06034700AA82E52D600210
:02034D0080042A
:04034F007582012290
:0803530090E678E0FB20E6F8DB
:0E035B0090E6787480F0EA2AFA90E679740150
:020369004AF058
:0D036B0090E678E0FA530201BA000280F338
:0B03780090E678E0FA30E20302041285
:0E03830090E678E0FA530202BA000302041278
:05039100E52DB4010898
:0803960090E678E0FA4420F043
:09039E0090E679E0F52EAA2BABE4
:0303A7002CAC2D4E
:0403AA00DC028035BC
:0D03AE0090E678E0FD530501BD000280F3EC
:0803BB0090E678E0FD20E24F1E
:0303C300BC010872
:0803C60090E678E0FD4420F010
:0E03CE0090E679E0FD8A828B83F0A3AA82ABD1
:0703DC00838A2B8B2C80C7E4
:0D03E30090E678E0FA530201BA000280F3C0
:0803F00090E678E0FA20E21A21
:0C03F80090E678E0FA4440F0AA2BAB2C11
:0E04040090E679E0FC8A828B83F075820122FB
:0B04120090E678E0FA4440F0758200AC
:01041D0022BC
:02041E00AA82B0
:0804200090E678E0FB20E6F80D
:0D04280090E6787480F0EA2AFA90E679F008
:0D04350090E678E0FA530201BA000280F36D
:0804420090E678E0FA20E25791
:0D044A0090E678E0FA530202BA0002804A00
:05045700AA2BAB2CAC48
:01045C002D72
:05045D00EC24FF503308
:0E0462008A828B83E0FDA3AA82AB8390E679A9
:03047000EDF01C90
:0D04730090E678E0FD530501BD000280F326
:0804800090E678E0FD20E2198E
:0B04880090E678E0FD530502BD00CABD
:02049300800CDB
:0C04950090E678E0FA4440F07582012205
:0B04A10090E678E0FA4440F07582001D
:0104AC00222D
:0504AD00AA82BA030061
:0204B200400503
:0504B400EA249C500148
:0104B9002220
:0904BA00740F5AFBBB030280071A
:0704C300740F5AFBBB0B474D
:0C04CA00A2AF9200C2AFEA2400F582E469
:0D04D6003400F5837402F07B0074012AFCF1
:0C04E300E43BFDEC2400F582ED3400F554
:0D04EF0083AC2C7D00ECF074022AFAE43B93
:0C04FC00FBEA2400F582EB3400F583AA33
:090508002B7B00EAF0A20092AF87
:0105110022C7
:05051200AA82BA0000FE
:0205170040059D
:05051900EA24835001FB
:01051E0022BA
:06051F0074035AFB6001A9
:0105250022B3
:0C052600A2AF9201C2AFEA2400F582E40B
:0D0532003401F5837402F07B0074012AFC93
:0C053F00E43BFDEC2400F582ED3401F5F6
:0D054B0083AC2C7D00ECF074022AFAE43B36
:0C055800FBEA2400F582EB3401F583AAD5
:090564002B7B00EAF0A20192AF2A
:01056D00226B
:05056E00AA82BA800022
:02057300400541
:05057500EA244B5001D7
:01057A00225E
:06057B0074035AFB60014D
:010581002257
:0C058200A2AF9202C2AFEA2480F582E42E
:0D058E003400F5837402F07B0074012AFC38
:0C059B00E43BFDEC2480F582ED3400F51B
:0D05A70083AC2C7D00ECF074022AFAE43BDA
:0C05B400FBEA2480F582EB3400F583AAFA
:0905C0002B7B00EAF0A20292AFCD
:0105C900220F
:0805CA00C2E8C2EA752B0075BE
:0605D2002C0175824312AA
:0405D80004AD752BCE
:0305DC0080752CFB
:0D05DF00007582531204AD0090E650E4F068
:0E05EC000090E652E4F00090E654E4F0009037
:0D05FA00E656E4F00090E65174FFF000902A
:0E060700E65374FFF00090E65574FFF000908B
:0E061500E65774FFF00090E658E4F090E659C6
:0E06230074FFF090E65AE4F090E65B74FFF08E
:0E06310090E65CE4F090E65D74FFF090E65E0B
:0E063F00E4F090E65F74FFF00090E660E4F0F7
:0D064D000090E66174FFF090E662E4F0902A
:0E065A00E66374FFF090E665E4F090E66874E5
:090668000BF05391AFD2E8D2EA85
:010671002266
:05067200AA82BA000499
:0406770075B1002237
:03067B00EA42B19F
:01067E002259
:08067F00758200120672C281AF
:010687002250
:08068800AA827B00EA30E002C7
:020690007B01EC
:04069200EA30E10168
:010696000B58
:04069700EA30E20162
:01069B000B53
:04069C00EA30E3015C
:0106A0000B4E
:0406A100EA30E40156
:0106A5000B49
:0406A600EA30E50150
:0106AA000B44
:0406AB00EA30E6014A
:0106AF000B3F
:0406B000EA30E70144
:0106B4000B3A
:0206B5008B8236
:0106B7002220
:0D06B800AA82851082C002120688AB82D093
:0606C50002EB24FE5004CC
:0406CB007582002212
:0B06CF00851082C002120672D002E506
:0406DA001130E704F0
:0406DE0075820022FF
:0706E20074605511FB602359
:0506E900BB20028005AA
:0506EE00BB401780086D
:0806F300850F8212077F8011C0
:0906FB008A8212077F850F82122A
:04070400077F8004E7
:0407080075820022D4
:04070C00E514600C84
:0407100085141C85AB
:060714001282851383121E
:02071A00083A9B
:09071C007582001206727582015B
:0107250022B1
:0D072600AA82851682C002120672D002E57A
:040733001730E70490
:0407370075820022A5
:07073B0074605517FB6023F9
:05074200BB2002800550
:05074700BB4017800813
:08074C0085158212077F801160
:090754008A8212077F85158212CA
:04075D00077F80048E
:04076100758200227B
:04076500E51A600C25
:04076900851A1B854D
:06076D00188285198312B9
:0207730007D2AB
:0907750075820012067275820102
:01077E002258
:0E077F00E582FA23FA139281D283C283EA2321
:0E078D00FA139281D283C283EA23FA13928177
:0E079B00D283C283EA23FA139281D283C283EF
:0E07A900EA23FA139281D283C283EA23FA1361
:0E07B7009281D283C283EA23FA139281D28305
:0C07C500C283EA23FA139281D283C2831C
:0107D1002205
:0607D200AA82AB83AC1B00
:0707D8008C051CBD0001228D
:0E07DF008A828B83E0FDA3AA82AB838D82C049
:0E07ED0002C003C00412077FD004D003D00264
:0207FB0080DBA1
:0107FD0022D9
:0E07FE00E4D283A28033C283D283A28033C2AE
:0E080C0083D283A28033C283D283A28033C200
:0E081A0083D283A28033C283D283A28033C2F2
:0E08280083D283A28033C283D283A28033C2E4
:0408360083F58222A2
:06083A00AA82AB83AC1C96
:070840008C051CBD00012224
:0E0847001207FEAD828A828B83EDF0A3AA8297
:04085500AB8380E70A
:01085900227C
:0C085A00AA82AB83C2AD8A2B8B2C758266
:0E0866002B1204AD75CB6375CAC075C804D2E1
:01087400ADD6
:010875002260
:060FE100752100752200DD
:0808760090E680E0FA30E7197A
:04087E007523007569
:0308820024E075FA
:03088500251275C4
:0308880026E075F2
:03088B00271C75B2
:03088E0028E075EA
:030891002958756E
:030894002AE02235
:0408970075233C7514
:03089B0024E075E1
:03089E00254E756F
:0308A10026E075D9
:0308A4002758755D
:0308A70028E075D1
:0308AA00291C7591
:0208AD002AE03F
:0108AF002226
:0808B0005391EF75A100D20382
:0108B800320D
:0E08B900C0E0C0F0C082C083C002C003C00413
:0E08C700C005C006C007C000C001C0D075D07B
:0A08D500005391EF75A100120876A0
:0E08DF00D0D0D001D000D007D006D005D00474
:0D08ED00D003D002D083D082D0F0D0E03212
:0E08FA00C0E0C0F0C082C083C002C003C004D2
:0E090800C005C006C007C000C001C0D075D039
:0A091600005391EF75A1001208765E
:0E092000D0D0D001D000D007D006D005D00432
:0D092E00D003D002D083D082D0F0D0E032D0
:05093B00120876752B87
:03094000B0752C63
:0809430008758200120512750F
:03094B002BB97550
:06094E002C087582101256
:040954000512752BE8
:03095800FA752C01
:0D095B000875821412051290E65C7431F0EC
:01096800226C
:09096900E582547FFA24F75004E2
:040972007582002268
:03097600BA0104BF
:040979007582012260
:08097D00530201E4BA00010479
:02098500F582F9
:01098700224D
:05098800AA82BA010C77
:0C098D0090E6A1E0FB7C008B828C8322B2
:03099900BA810C14
:0C099C0090E6A2E0FB7C008B828C8322A2
:0609A80053027FBA000CAF
:0C09AE0090E6A0E0FB7C008B828C832292
:0E09BA0090E6A3E0FB7C00EAC313FA7D00EA9E
:0809C8002BFBED3C8B82F58353
:0109D0002204
:0D09D10090E6B8E0FA53021FBA000280055C
:0509DE00BA025B80126B
:0A09E30090E6BAE0FABA01028005BE
:0509ED00BA02028003C4
:0309F2001202FCF2
:0709F50090E6BAE0FA60028F
:0209FC00803E3B
:0E09FE0090E6BCE0FAF582120969E582602DF0
:0E0A0C0090E6BCE0FAF582120988AA82AB835C
:0E0A1A0090E6BCE0FCF582C002C00312098821
:0E0A2800D003D002E0FC4304018A828B83ECF1
:030A3600F080034A
:030A39001202FCAA
:030A3C000202FCB7
:0D0A3F0090E6B8E0FA53021FBA00028005ED
:050A4C00BA025880070A
:070A510090E6BAE00202FC8E
:070A580090E6BAE0FA60022B
:020A5F008043D2
:0E0A610090E6BCE0FAF582120969E582603584
:0E0A6F0090E6BCE0FAF582120988AA82AB83F9
:0E0A7D0090E6BCE0FCF582C002C003120988BE
:0E0A8B00D003D002E0FC5304FE8A828B83EC81
:0B0A9900F090E6BCE0FAF582020305D5
:030AA4000202FC4F
:030AA7000202FC4C
:010AAA002229
:0D0AAB0090E6B8E0FA53021FBA0002800A7C
:050AB800BA0102801BE1
:050ABD00BA0261802A6D
:0E0AC20090E7407401F090E741E4F090E68A7E
:080AD000F090E68B7402F022A5
:0E0AD80090E740E4F090E741F090E68AF0905D
:060AE600E68B7402F02211
:0E0AEC0090E6BCE0FAF582120969E58260240A
:0E0AFA0090E6BCE0FAF582120988E0FA530299
:0E0B08000190E740EAF090E741E4F090E68AC1
:080B1600F090E68B7402F0225E
:030B1E000202FCD4
:030B21000202FCD1
:010B240022AE
:0A0B250090E6BBE0FABA0102801767
:050B2F00BA0202803C47
:050B3400BA030280611C
:050B3900BA0602801D58
:050B3E00BA070280422D
:030B4300020BD5CD
:0C0B4600AA23AB248B047D0090E6B3ECE6
:090B5200F07B0090E6B4EAF02209
:0C0B5B00AA25AB268B047D0090E6B3ECCD
:090B6700F07B0090E6B4EAF022F4
:0C0B7000AA27AB288B047D0090E6B3ECB4
:090B7C00F07B0090E6B4EAF022DF
:0C0B8500AA29AB2A8B047D0090E6B3EC9B
:090B9100F07B0090E6B4EAF022CA
:0E0B9A0090E6BAE0FA90E06AE0FBC3EA9B4006
:010BA8000349
:030BA9000202FC49
:0D0BAC0090E6BAE0FA75F002A4246BF58221
:0D0BB90074E035F0F583E0FAA3E0FB8B0457
:0E0BC6007D0090E6B3ECF07B0090E6B4EAF020
:010BD40022FE
:030BD5000202FC1D
:070BD80090E6B9E0FA603677
:050BDF00BA0602802EA1
:050BE400BA08028005C3
:050BE900BA0A2C801285
:0C0BEE0090E740E521F090E68AE4F090EA
:060BFA00E68B7401F022FD
:0C0C000090E740E522F090E68AE4F090D6
:060C0C00E68B7401F022EA
:030C1200020B25AD
:030C1500020AAB25
:030C18000202FCD9
:010C1B0022B6
:0A0C1C0090E6B9E0FABA0102802761
:050C2600BA0302802565
:050C2B00BA0502802360
:050C3000BA0702801E5E
:050C3500BA0902800570
:050C3A00BA0B16800753
:070C3F0090E6BAE0F5212266
:070C460090E6BAE0F522225E
:030C4D00020A3F59
:030C50000209D1C5
:030C53000202FC9E
:010C5600227B
:0B0C570090E6B8E0FA530280BA800378
:030C6200020BD8AA
:030C6500020C1C62
:010C68002269
:0D0C6900C20390E6B8E0FA530260BA000240
:020C7600801EDE
:050C7800BA2002800813
:050C7D00BA40028008EE
:030C8200BA60163F
:050C85001202FC8014C6
:070C8A00120F30E582700D2E
:050C91001202FC8008C6
:050C9600120C57800361
:030C9B001202FC46
:080C9E0090E6A0E0FA4480F0AA
:010CA600222B
:0E0CA70090E6007412F0758E0090E60174E382
:0E0CB500F00090E6047480F00090E6047402F3
:0E0CC300F00090E6047404F00090E60474065D
:0E0CD100F00090E6047408F00090E604E4F0F1
:0E0CDF000075800075B20975A0C075B4E77588
:0D0CED00B10075B6FF90E61074A0F0009005
:0E0CFA00E61174A0F00090E61274A0F00090D5
:0D0D0800E61474E0F00090E609E4F00090BD
:0E0D1500E6187401F00090E6187411F00090DA
:0D0D2300E6207402F00090E621E4F000905C
:0E0D3000E61A7409F00090E6247402F00090B8
:0E0D3E00E625E4F00043AF010090E68AE4F001
:0E0D4C000090E68DE4F0007598504389207504
:090D5A008DB2D28ED2990201E79C
:030D6300020FEA92
:030FE700751D0174
:030FFD00020D667C
:050D6600120F9680FE53
:050D6B0090E68BE4F0AE
:080D700090E6A0E0FA20E1F892
:010D78002258
:0A0D790090E6B9E0FABA0202801910
:050D8300BA0802803EE9
:050D8800BA0902805DC4
:060D8D00BA0B03020E1C6C
:060D9300BA0C03020E3849
:030D9900020E61E6
:070D9C0090E6BCE0FA600ADA
:050DA300BA0102800806
:050DA800BA02178012E1
:030DAD0002021E21
:0D0DB000120D6B90E68BE0F50E90E740020F
:020DBD0002A989
:030DBF000202B974
:040DC2007582002214
:0C0DC600120D6B90E6BAE0FA752B407538
:0B0DD2002CE790E68BE0F52D8A8212E2
:090DDD00041EE5826003020E65AC
:040DE60075820022F0
:0D0DEA00120D6B90E6BBE0FA90E6BAE0F562
:0C0DF7001590E6BDE0F51690E6BCE0F5B6
:050E0300177518407591
:0B0E080019E790E68BE0F51A8A8212D1
:060E13000726E582704C89
:030E1900F582223D
:080E1C0090E6BAE0FABA010AFF
:0A0E240090E67AE0FA4401F080370E
:0A0E2E0090E67AE0FA54FEF0802D01
:070E380090E6BAE0FA600247
:020E3F00800829
:080E410090E6007402F0801C31
:080E490090E6BAE0FABA0108D4
:080E510090E600740AF0800C29
:080E590090E6007412F0800421
:040E61007582002274
:030E650075820192
:010E68002267
:0A0E690090E6B9E0FABA81028014A5
:050E7300BA8202803D7F
:060E7800BA8403020EF42F
:060E7E00BA8503020F0E0D
:030E8400020F2832
:0C0E870090E6BAE0FA752B40752CE7905D
:0D0E9300E6BEE0F52D8A82120347E582706D
:010EA000034E
:030EA100F58222B5
:0E0EA40090E68AE4F090E6BEE0FA90E68BF06D
:030EB200020F2C00
:0C0EB50090E6BBE0FA90E6BAE0F50F9082
:0C0EC100E6BDE0F51090E6BCE0F5117510
:0A0ECD0012407513E790E6BEE0F551
:0A0ED700148A821206B8E582700347
:030EE100F5822275
:0E0EE40090E68AE4F090E6BEE0FA90E68BF02D
:020EF200803846
:0E0EF40090E678E0FA53021890E740EAF0909A
:0C0F0200E68AE4F090E68B7401F0801E9B
:0E0F0E0090E67AE0FA53020190E740EAF09094
:0C0F1C00E68AE4F090E68B7401F080049B
:040F280075820022AC
:030F2C00758201CA
:010F2F00229F
:080F300090E6B8E0FABAC00334
:030F3800020E693D
:080F3B0090E6B8E0FABA4003A9
:030F4300020D7923
:030F4600758200B1
:010F49002285
:030F4A003003056C
:050F4D00120C6980F8A0
:080F52007582201201A280F05B
:010F5A002274
:080F5B00C0E0151DE51D600258
:020F6300800309
:030F6500751D32C5
:020F6800C2CFF6
:030F6A00D0E032A2
:040F6D00750902758B
:030F71000A2075DE
:090F74000805750B01758251128C
:080F7D0001EA902002E0FA9065
:0D0F8500E00CF090E048EAF074302AFA9099
:030F9200E0C2F0CA
:010F95002239
:090F9600120CA7C2AF120F6D127C
:060F9F0005CA12093B7AAD
:080FA5005B7B0F8A828B831233
:0A0FAD00085AD2EAD2AF1203210263
:020FB7000F4ADF
:060FF700E478FFF6D8FDCE
:030FEA0075812EE0
:0A0FED00120180E5826003020D6628
:0E0FB900E5F060101460151460141460131439
:060FC70014600374FF2218
:080FCD00C000A882E6D000225A
:020FD500E02218
:020FD700932263
:080FD900C000A882E2D0002252
:00000001FF
