:06000000020FEB02006B91
:03000B0002006B85
:0300130002006B7D
:03001B0002006B75
:0300230002006B6D
:03002B0002006B65
:0300330002006B5D
:03003B0002006B55
:0300430002006B4D
:03004B0002006B45
:0300530002006B3D
:03005B0002006B35
:0300630002006B2D
:01006B003262
:0900800002006B0002006B00029B
:08008900006B0002006B000295
:08009100006B0002006B00028D
:08009900006B0002006B000285
:0800A100006B0002006B00027D
:0800A900006B0002006B000275
:0700B100006B0002006B0070
:0901000002006B0002006B00021A
:08010900006B0002006B000214
:08011100006B0002006B00020C
:08011900006B0002006B000204
:08012100006B0002006B0002FC
:08012900006B0002006B0002F4
:08013100006B0002006B0002EC
:08013900006B0002006B0002E4
:08014100006B0002006B0002DC
:08014900006B0002006B0002D4
:08015100006B0002006B0002CC
:08015900006B0002006B0002C4
:08016100006B0002006B0002BC
:08016900006B0002006B0002B4
:08017100006B0002006B0002AC
:07017900006B0002006B00A7
:08018000780BE84400600C79E3
:0D01880001902000E4F0A3D8FCD9FAD08348
:0D019500D082F6D8FDC082C08375820022A2
:0CE0000012010002FFFFFF40FEFF0700BE
:06E00C0000010102060103
:0AE012000A060002FFFFFF400100B4
:0EE01C0009023200030100C0000904000000E8
:0EE02A00FFFFFF030904010001FFFFFF0407D1
:0EE038000502020002000904020001FFFFFFC2
:08E04600050705860200020037
:0CE04E0012010002FFFFFF40FEFF070070
:06E05A00000101020001BB
:0AE060000A060002FFFFFF40010066
:0EE06A0009021200010100C0000904000000BC
:04E07800FFFFFF03A4
:01E07C00079C
:02E07D008CE035
:02E07F0092E02D
:02E08100BAE003
:02E08300D2E0E9
:02E08500F4E0C5
:02E0870010E1A6
:02E089002AE18A
:06E08C0006030000090478
:0EE09200280346007200650065002000530060
:0EE0A0006F006600740077006100720065007A
:0CE0AE00200046006F006C006B00730047
:0EE0BA0018034800500053004400520020009C
:08E0C800520065007600200003
:02E0D0003F000F
:0EE0D200220343006F006D006D0061006E00C0
:0EE0E000640020002600200053007400610040
:06E0EE00740075007300D0
:0EE0F4001C035400720061006E0073006D008A
:0EE10200690074002000500061007400680085
:0EE110001A0352006500630065006900760086
:0CE11E00650020005000610074006800E3
:02E12A001203DE
:0EE12C0033002E003100340031003500390080
:02E13A003300B0
:0301A200020FF455
:030FEB0075080185
:031007000201A53E
:0501A5001203D680FEEC
:0501AA0090E68BE4F07B
:0801AF0090E6A0E0FA20E1F85F
:0101B7002225
:0A01B80090E6B9E0FABA0102801ADD
:0501C200BA0202803FBB
:0601C700BA080302023039
:0601CD00BA090302025012
:0601D300BA0B03020282D8
:0301D90002029E81
:0701DC0090E6BCE0FA6005AB
:0501E300BA011C800DB3
:0D01E80090E6BAE0FAF5821205D80202A2F4
:0D01F50090E6BAE0FAF5821205E50202A2DA
:0402020075820022DF
:0702060090E6BCE0FA600A7B
:05020D00BA01028008A7
:05021200BA0217801282
:03021700020439A5
:0D021A001201AA90E68BE0F50F90E740027C
:0202270004C40D
:030229000204D4F8
:04022C0075820022B5
:0C0230001201AA90E6BAE0FA752B4075A6
:0B023C002CE790E68BE0F52D8A821283
:060247000746E582705538
:03024D00F5822215
:0D0250001201AA90E6BBE0FA90E6BAE0F5D4
:0C025D001690E6BDE0F51790E6BCE0F559
:05026900187519407535
:0B026E001AE790E68BE0F51B8A821275
:060279000A42E582702339
:03027F00F58222E3
:0802820090E6BAE0FABA010AA5
:0A028A0090E67AE0FA4401F0800EDD
:0A02940090E67AE0FA54FEF08004D0
:04029E007582002243
:0302A20075820161
:0102A5002236
:0A02A60090E6B9E0FABA8102801474
:0502B000BA8202803D4E
:0602B500BA8403020331CC
:0602BB00BA850302034BAB
:0302C100020365D0
:0C02C40090E6BAE0FA752B40752CE7902C
:0D02D000E6BEE0F52D8A8212066FE5827011
:0102DD00031D
:0302DE00F5822284
:0E02E10090E68AE4F090E6BEE0FA90E68BF03C
:0302EF000203699E
:0C02F20090E6BBE0FA90E6BAE0F5109050
:0C02FE00E6BDE0F51190E6BCE0F51275DD
:0A030A0013407514E790E6BEE0F51D
:0A031400158A821209D4E5827003F5
:03031E00F5822243
:0E03210090E68AE4F090E6BEE0FA90E68BF0FB
:02032F00803814
:0E03310090E678E0FA53021890E740EAF09068
:0C033F00E68AE4F090E68B7401F0801E6A
:0E034B0090E67AE0FA53020190E740EAF09063
:0C035900E68AE4F090E68B7401F080046A
:04036500758200227B
:0303690075820199
:01036C00226E
:08036D0090E6B8E0FABAC00303
:030375000202A6DB
:0803780090E6B8E0FABA400378
:030380000201B8BF
:0303830075820080
:010386002254
:030387003003053B
:05038A00120F8580F850
:08038F0075822012059380F035
:010397002243
:08039800C0E01508E508600251
:0203A0008006D5
:0603A20075083263A04063
:0203A800C2CFC2
:0303AA00D0E0326E
:0403AD00750A007558
:0303B1000B2075A9
:0903B4000905750C017582511256
:0803BD000405902000E0FA9015
:0D03C500E00CF090E05AEAF074302AFA9053
:0303D200E0D0F088
:0103D5002205
:0D03D6001204F07582011205D87582001224
:0803E30005E5C2AF1203AD12E3
:0603EB0008F2120C577A23
:0803F100987B038A828B8312C2
:0A03F9000B76D2EAD2AF12064902D9
:0204030003876D
:0B040500AA82902009E4F090200AE594
:0404100009F0752B4F
:0304140009752C3B
:0904170020752D028A82C0021238
:080420000746E582D0027003DB
:03042800F5822238
:04042B00850A2B858E
:03042F000B2C850E
:050432000C2D8A82027E
:02043700066F4E
:0E04390053A0C07582281205FE43A0027A006F
:07044700741055A0FB6002D8
:02044E00801418
:0E0450000A758232C0021205FED002BAFF0009
:02045E0040E775
:04046000758200227F
:030464007582019D
:010467002272
:0E046800E5821392A0D2A2C2A21392A0D2A249
:0E047600C2A21392A0D2A2C2A21392A0D2A23E
:0E048400C2A21392A0D2A2C2A21392A0D2A230
:0E049200C2A21392A0D2A2C2A21392A0D2A222
:0304A000C2A222D3
:0604A300AA82AB0DAC0EB5
:0804A9008A051AED24FF501230
:0E04B1008B828C83E0FDA3AB82AC838D821224
:0404BF00046880E667
:0104C3002216
:0704C40085820D85830E8582
:0804CB000F821204A3758201E7
:0104D3002206
:0804D400AAA074105AFB60029B
:0204DC0080049A
:0404DE007582002201
:0604E200530208BA0804F1
:0404E80075820122F6
:0304EC0075820016
:0104EF0022EA
:0E04F00090E6007412F0758E0090E60174F331
:0E04FE00F00075800275B20375A0C075B4E7FA
:0E050C0075B1FF75B6FF90E61074A0F0009078
:0E051A00E61174E0F00090E61274A0F000907C
:0D052800E613E4F00090E61474E0F000909B
:0D053500E615E4F00090E6047480F00090FC
:0E054200E6047402F00090E6047406F00090E7
:0D055000E604E4F00090E6187401F000905D
:0E055D00E6187411F00090E61A7409F0009090
:0E056B00E68AE4F00090E68DE4F00090E624CD
:0E0579007402F00090E625E4F00075985043FF
:0C0587008920758DB2D28ED2990205FA3F
:02059300AA823A
:0505950010990280FB3B
:02059A008A993C
:01059C00223C
:08059D00AA82AB83ACF07D00E3
:0E05A5008D060DEE2AFEE43BFF8C008E828F49
:0D05B3008388F0120FC3FE8E07BE000122E8
:0E05C0008F82C002C003C004C005120593D094
:0905CE0005D004D003D00280CE58
:0105D7002201
:0505D800E582FA700449
:0405DD0043A04022D5
:0305E10053A0BF65
:0105E40022F4
:0505E500E582FA70043C
:0405EA0043A0802288
:0305EE0053A07F98
:0105F10022E7
:0305F20063A040C3
:0105F50022E3
:0305F60063A0807F
:0105F90022DF
:0305FA0002099B58
:0105FD0022DB
:0205FE00AA82CF
:050600001205FDDAFB0C
:0106050022D2
:0306060090FB5016
:08060900A3E582458370F9228C
:04061100AA82AB838B
:080615001206061ABAFF011BD0
:06061D00BA00F5BB00F27B
:0106230022B4
:0806240090E6A0E0FA4401F0A9
:01062C0022AB
:0E062D00AA8274805AFBC423541FFB740F5A18
:0D063B0090E6834BF090E683E0FA4420F057
:01064800228F
:0E06490090E680E0FA440AF09000FA120611E2
:0E06570090E65D74FFF090E65F74FFF0539143
:09066500EF90E680E0FA54F7F092
:01066E002269
:06066F00AA82E52D6002E5
:020675008004FF
:040677007582012265
:08067B0090E678E0FB20E6F8B0
:0E06830090E6787480F0EA2AFA90E679740125
:020691004AF02D
:0D06930090E678E0FA530201BA000280F30D
:0B06A00090E678E0FA30E20302073A2F
:0E06AB0090E678E0FA530202BA000302073A22
:0506B900E52DB401086D
:0806BE0090E678E0FA4420F018
:0906C60090E679E0F52EAA2BABB9
:0306CF002CAC2D23
:0406D200DC02803591
:0D06D60090E678E0FD530501BD000280F3C1
:0806E30090E678E0FD20E24FF3
:0306EB00BC010847
:0806EE0090E678E0FD4420F0E5
:0E06F60090E679E0FD8A828B83F0A3AA82ABA6
:07070400838A2B8B2C80C7B8
:0D070B0090E678E0FA530201BA000280F394
:0807180090E678E0FA20E21AF5
:0C07200090E678E0FA4440F0AA2BAB2CE5
:0E072C0090E679E0FC8A828B83F075820122D0
:0B073A0090E678E0FA4440F075820081
:010745002291
:02074600AA8285
:0807480090E678E0FB20E6F8E2
:0D07500090E6787480F0EA2AFA90E679F0DD
:0D075D0090E678E0FA530201BA000280F342
:08076A0090E678E0FA20E25766
:0D07720090E678E0FA530202BA0002804AD5
:05077F00AA2BAB2CAC1D
:010784002D47
:05078500EC24FF5033DD
:0E078A008A828B83E0FDA3AA82AB8390E6797E
:03079800EDF01C65
:0D079B0090E678E0FD530501BD000280F3FB
:0807A80090E678E0FD20E21963
:0B07B00090E678E0FD530502BD00CA92
:0207BB00800CB0
:0C07BD0090E678E0FA4440F075820122DA
:0B07C90090E678E0FA4440F0758200F2
:0107D4002202
:0507D500AA82BA030036
:0207DA004005D8
:0507DC00EA249C50011D
:0107E10022F5
:0907E200740F5AFBBB03028007EF
:0707EB00740F5AFBBB0B4722
:0C07F200A2AF9200C2AFEA2400F582E43E
:0D07FE003400F5837402F07B0074012AFCC6
:0C080B00E43BFDEC2400F582ED3400F528
:0D08170083AC2C7D00ECF074022AFAE43B67
:0C082400FBEA2400F582EB3400F583AA07
:090830002B7B00EAF0A20092AF5C
:01083900229C
:05083A00AA82BA0000D3
:02083F00400572
:05084100EA24835001D0
:01084600228F
:0608470074035AFB60017E
:01084D002288
:0C084E00A2AF9201C2AFEA2400F582E4E0
:0D085A003401F5837402F07B0074012AFC68
:0C086700E43BFDEC2400F582ED3401F5CB
:0D08730083AC2C7D00ECF074022AFAE43B0B
:0C088000FBEA2400F582EB3401F583AAAA
:09088C002B7B00EAF0A20192AFFF
:010895002240
:05089600AA82BA8000F7
:02089B00400516
:05089D00EA244B5001AC
:0108A2002233
:0608A30074035AFB600122
:0108A900222C
:0C08AA00A2AF9202C2AFEA2480F582E403
:0D08B6003400F5837402F07B0074012AFC0D
:0C08C300E43BFDEC2480F582ED3400F5F0
:0D08CF0083AC2C7D00ECF074022AFAE43BAF
:0C08DC00FBEA2480F582EB3400F583AACF
:0908E8002B7B00EAF0A20292AFA2
:0108F10022E4
:0808F200C2E8C2EA752B007593
:0608FA002C01758243127F
:0409000007D5752B77
:0309040080752CCF
:0D090700007582531207D50090E650E4F011
:0E0914000090E652E4F00090E654E4F000900B
:0D092200E656E4F00090E65174FFF00090FE
:0E092F00E65374FFF00090E65574FFF0009060
:0E093D00E65774FFF00090E658E4F090E6599B
:0E094B0074FFF090E65AE4F090E65B74FFF063
:0E09590090E65CE4F090E65D74FFF090E65EE0
:0E096700E4F090E65F74FFF00090E660E4F0CC
:0D0975000090E66174FFF090E662E4F090FF
:0E098200E66374FFF090E665E4F090E66874BA
:090990000BF05391AFD2E8D2EA5A
:01099900223B
:01099A00223A
:08099B0075820012099AC28165
:0109A3002231
:0809A400AA827B00EA30E002A8
:0209AC007B01CD
:0409AE00EA30E10149
:0109B2000B39
:0409B300EA30E20143
:0109B7000B34
:0409B800EA30E3013D
:0109BC000B2F
:0409BD00EA30E40137
:0109C1000B2A
:0409C200EA30E50131
:0109C6000B25
:0409C700EA30E6012B
:0109CB000B20
:0409CC00EA30E70125
:0109D0000B1B
:0209D1008B8217
:0109D3002201
:0D09D400AA82851182C0021209A4AB82D054
:0609E10002EB24FE5004AD
:0409E70075820022F3
:0B09EB00851182C00212099AD002E5BB
:0409F6001230E704D0
:0409FA0075820022E0
:0709FE0074605512FB602339
:050A0500BB200280058A
:050A0A00BB401780084D
:080A0F00851082120A9B801180
:090A17008A82120A9B85108212EA
:040A20000A9B8004A9
:040A240075820022B5
:040A2800E515600C64
:040A2C0085151D858A
:060A3000138285148312FD
:020A36000B565D
:090A380075820012099A75820111
:010A41002292
:0D0A4200AA82851782C00212099AD002E52F
:040A4F001830E70470
:040A53007582002286
:070A570074605518FB6023D9
:050A5E00BB2002800531
:050A6300BB40178008F4
:080A6800851682120A9B801121
:090A70008A82120A9B851682128B
:040A79000A9B800450
:040A7D00758200225C
:040A8100E51B600C05
:040A8500851B1C852C
:060A89001982851A831298
:020A8F000AEE6D
:090A910075820012099A758201B8
:010A9A002239
:0E0A9B00E582FA23FA139281D280C280EA2308
:0E0AA900FA139281D280C280EA23FA1392815E
:0E0AB700D280C280EA23FA139281D280C280DC
:0E0AC500EA23FA139281D280C280EA23FA1348
:0E0AD3009281D280C280EA23FA139281D280EF
:0C0AE100C280EA23FA139281D280C28006
:010AED0022E6
:060AEE00AA82AB83AC1CE0
:070AF4008C051CBD0001226E
:0E0AFB008A828B83E0FDA3AA82AB838D82C02A
:0E0B090002C003C004120A9BD004D003D00225
:020B170080DB81
:010B190022B9
:0E0B1A00E4D280A28333C280D280A28333C291
:0E0B280080D280A28333C280D280A28333C2E7
:0E0B360080D280A28333C280D280A28333C2D9
:0E0B440080D280A28333C280D280A28333C2CB
:040B520080F5822286
:060B5600AA82AB83AC1D76
:070B5C008C051CBD00012205
:0E0B6300120B1AAD828A828B83EDF0A3AA8258
:040B7100AB8380E7EB
:010B7500225D
:0C0B7600AA82AB83C2AD8A2B8B2C758247
:0E0B82002B1207D575CB6375CAC075C804D297
:010B9000ADB7
:010B91002241
:060FEE00752100752200D0
:080B920090E680E0FA30E7195B
:040B9A00752300754A
:030B9E0024E075DB
:030BA100251275A5
:030BA40026E075D3
:030BA700271C7593
:030BAA0028E075CB
:030BAD00296A753D
:030BB0002AE02216
:040BB30075234E75E3
:030BB70024E075C2
:030BBA002560753E
:030BBD0026E075BA
:030BC000276A752C
:030BC30028E075B2
:030BC600291C7572
:020BC9002AE020
:010BCB002207
:080BCC005391EF75A100D20363
:010BD40032EE
:0E0BD500C0E0C0F0C082C083C002C003C004F4
:0E0BE300C005C006C007C000C001C0D075D05C
:0A0BF100005391EF75A100120B9262
:0E0BFB00D0D0D001D000D007D006D005D00455
:0D0C0900D003D002D083D082D0F0D0E032F2
:0E0C1600C0E0C0F0C082C083C002C003C004B2
:0E0C2400C005C006C007C000C001C0D075D01A
:0A0C3200005391EF75A100120B9220
:0E0C3C00D0D0D001D000D007D006D005D00413
:0D0C4A00D003D002D083D082D0F0D0E032B1
:050C5700120B92752B49
:030C5C00CC752C28
:080C5F000B75820012083A75C2
:030C67002BD57515
:060C6A002C0B7582101234
:040C7000083A752B9E
:030C740016752CC6
:0D0C77000C75821412083A90E65C7431F09E
:010C8400224D
:090C8500E582547FFA24F75004C3
:040C8E007582002249
:030C9200BA0104A0
:040C95007582012241
:080C9900530201E4BA0001045A
:020CA100F582DA
:010CA300222E
:050CA400AA82BA010C58
:0C0CA90090E6A1E0FB7C008B828C832293
:030CB500BA810CF5
:0C0CB80090E6A2E0FB7C008B828C832283
:060CC40053027FBA000C90
:0C0CCA0090E6A0E0FB7C008B828C832273
:0E0CD60090E6A3E0FB7C00EAC313FA7D00EA7F
:080CE4002BFBED3C8B82F58334
:010CEC0022E5
:0D0CED0090E6B8E0FA53021FBA000280053D
:050CFA00BA025B80124C
:0A0CFF0090E6BAE0FABA010280059F
:050D0900BA02028003A4
:030D0E00120624A6
:070D110090E6BAE0FA60026F
:020D1800803E1B
:0E0D1A0090E6BCE0FAF582120C85E582602DB1
:0E0D280090E6BCE0FAF582120CA4AA82AB831E
:0E0D360090E6BCE0FCF582C002C003120CA4E3
:0E0D4400D003D002E0FC4304018A828B83ECD2
:030D5200F080032B
:030D55001206245F
:030D58000206246C
:0D0D5B0090E6B8E0FA53021FBA00028005CE
:050D6800BA02588007EB
:070D6D0090E6BAE002062443
:070D740090E6BAE0FA60020C
:020D7B008043B3
:0E0D7D0090E6BCE0FAF582120C85E582603546
:0E0D8B0090E6BCE0FAF582120CA4AA82AB83BB
:0E0D990090E6BCE0FCF582C002C003120CA480
:0E0DA700D003D002E0FC5304FE8A828B83EC62
:0B0DB500F090E6BCE0FAF58202062D8B
:030DC00002062404
:030DC30002062401
:010DC600220A
:0D0DC70090E6B8E0FA53021FBA0002800A5D
:050DD400BA0102801BC2
:050DD900BA0261802A4E
:0E0DDE0090E7407401F090E741E4F090E68A5F
:080DEC00F090E68B7402F02286
:0E0DF40090E740E4F090E741F090E68AF0903E
:060E0200E68B7402F022F1
:0E0E080090E6BCE0FAF582120C85E5826024CB
:0E0E160090E6BCE0FAF582120CA4E0FA53025A
:0E0E24000190E740EAF090E741E4F090E68AA2
:080E3200F090E68B7402F0223F
:030E3A0002062489
:030E3D0002062486
:010E4000228F
:0A0E410090E6BBE0FABA0102801748
:050E4B00BA0202803C28
:050E5000BA03028061FD
:050E5500BA0602801D39
:050E5A00BA070280420E
:030E5F00020EF18F
:0C0E6200AA23AB248B047D0090E6B3ECC7
:090E6E00F07B0090E6B4EAF022EA
:0C0E7700AA25AB268B047D0090E6B3ECAE
:090E8300F07B0090E6B4EAF022D5
:0C0E8C00AA27AB288B047D0090E6B3EC95
:090E9800F07B0090E6B4EAF022C0
:0C0EA100AA29AB2A8B047D0090E6B3EC7C
:090EAD00F07B0090E6B4EAF022AB
:0E0EB60090E6BAE0FA90E07CE0FBC3EA9B40D5
:010EC400032A
:030EC500020624FE
:0D0EC80090E6BAE0FA75F002A4247DF582F0
:0D0ED50074E035F0F583E0FAA3E0FB8B0438
:0E0EE2007D0090E6B3ECF07B0090E6B4EAF001
:010EF00022DF
:030EF100020624D2
:070EF40090E6B9E0FA603658
:050EFB00BA0602802E82
:050F0000BA08028005A3
:050F0500BA0A2C801265
:0C0F0A0090E740E521F090E68AE4F090CA
:060F1600E68B7401F022DD
:0C0F1C0090E740E522F090E68AE4F090B7
:060F2800E68B7401F022CB
:030F2E00020E416F
:030F3100020DC7E7
:030F34000206248E
:010F37002297
:0A0F380090E6B9E0FABA0102802742
:050F4200BA0302802546
:050F4700BA0502802341
:050F4C00BA0702801E3F
:050F5100BA0902800551
:050F5600BA0B16800734
:070F5B0090E6BAE0F5212247
:070F620090E6BAE0F522223F
:030F6900020D5B1B
:030F6C00020CED87
:030F6F0002062453
:010F7200225C
:0B0F730090E6B8E0FA530280BA800359
:030F7E00020EF46C
:030F8100020F3824
:010F8400224A
:0D0F8500C20390E6B8E0FA530260BA000221
:020F9200801EBF
:050F9400BA20028008F4
:050F9900BA40028008CF
:030F9E00BA601620
:050FA10012062480147B
:070FA60012036DE582700DDE
:050FAD0012062480087B
:050FB200120F73800323
:030FB700120624FB
:080FBA0090E6A0E0FA4480F08B
:010FC200220C
:06100100E478FFF6D8FDC3
:030FF40075812ED6
:0A0FF700120180E58260030201A5EB
:0E0FC300E5F06010146015146014146013142F
:060FD10014600374FF220E
:080FD700C000A882E6D0002250
:020FDF00E0220E
:020FE100932259
:080FE300C000A882E2D0002248
:00000001FF
