:0600000002105402006B27
:03000B0002006B85
:0300130002006B7D
:03001B0002006B75
:0300230002006B6D
:03002B0002006B65
:0300330002006B5D
:03003B0002006B55
:0300430002006B4D
:03004B0002006B45
:0300530002006B3D
:03005B0002006B35
:0300630002006B2D
:01006B003262
:0900800002006B0002006B00029B
:08008900006B0002006B000295
:08009100006B0002006B00028D
:08009900006B0002006B000285
:0800A100006B0002006B00027D
:0800A900006B0002006B000275
:0700B100006B0002006B0070
:0901000002006B0002006B00021A
:08010900006B0002006B000214
:08011100006B0002006B00020C
:08011900006B0002006B000204
:08012100006B0002006B0002FC
:08012900006B0002006B0002F4
:08013100006B0002006B0002EC
:08013900006B0002006B0002E4
:08014100006B0002006B0002DC
:08014900006B0002006B0002D4
:08015100006B0002006B0002CC
:08015900006B0002006B0002C4
:08016100006B0002006B0002BC
:08016900006B0002006B0002B4
:08017100006B0002006B0002AC
:07017900006B0002006B00A7
:08018000780BE84400600C79E3
:0D01880001902000E4F0A3D8FCD9FAD08348
:0D019500D082F6D8FDC082C08375820022A2
:0CE0000012010002FFFFFF40FEFF0700BE
:06E00C0000010102040105
:0AE012000A060002FFFFFF400100B4
:0EE01C00090220000101008032090400000208
:0EE02A00FFFFFF030705020200020007058644
:04E0380002000200E0
:0CE03C0012010002FFFFFF40FEFF070082
:06E04800000101020001CD
:0AE04E000A060002FFFFFF40010078
:0EE058000902120001010080320904000000DC
:04E06600FFFFFF03B6
:01E06A0005B0
:02E06B0076E05D
:02E06D007CE055
:02E06F00A4E02B
:02E07100C4E009
:02E07300E6E0E5
:06E076000603000009048E
:0EE07C00280346007200650065002000530076
:0EE08A006F0066007400770061007200650090
:0CE09800200046006F006C006B0073005D
:0EE0A4002003480050005300440052002000AA
:0EE0B2004F005A005900200052006500760011
:02E0C00020003E
:02E0C2003F001D
:0EE0C400220343006F006D006D0061006E00CE
:0EE0D20064002000260020005300740061004E
:06E0E000740075007300DE
:02E0E600120323
:0EE0E80031002E0034003100340032003100CF
:02E0F6003300F5
:0301A20002105DEB
:031054007508011B
:031070000201A5D5
:0501A50012040980FEB8
:0501AA0090E68BE4F07B
:0801AF0090E6A0E0FA20E1F85F
:0101B7002225
:0A01B80090E6B9E0FABA01028020D7
:0501C200BA02028045B5
:0601C700BA080302023633
:0601CD00BA090302025A08
:0601D300BA0B0302028CCE
:0601D900BA0C030202A8AB
:0301DF000202D148
:0701E20090E6BCE0FA6005A5
:0501E900BA011C800DAD
:0D01EE0090E6BAE0FAF5821206350202D55D
:0D01FB0090E6BAE0FAF5821206420202D543
:0402080075820022D9
:07020C0090E6BCE0FA600A75
:05021300BA01028008A1
:05021800BA021780127C
:03021D0002046C6C
:0D0220001201AA90E68BE0F50F90E7400276
:02022D0004F7D4
:03022F00020507BE
:0402320075820022AF
:0C0236001201AA90E6BAE0FA752B4075A0
:0B0242002CE790E68BE0F52D8A82127D
:09024D0007A3E58260030202D55B
:04025600758200228B
:0D025A001201AA90E6BBE0FA90E6BAE0F5CA
:0C0267001690E6BDE0F51790E6BCE0F54F
:0502730018751940752B
:0B0278001AE790E68BE0F51B8A82126B
:060283000AABE582704C9D
:03028900F58222D9
:08028C0090E6BAE0FABA010A9B
:0A02940090E67AE0FA4401F08037AA
:0A029E0090E67AE0FA54FEF0802D9D
:0702A80090E6BAE0FA6002E3
:0202AF008008C5
:0802B10090E6007402F0801CCD
:0802B90090E6BAE0FABA010870
:0802C10090E600740AF0800CC5
:0802C90090E6007412F08004BD
:0402D1007582002210
:0302D5007582012E
:0102D8002203
:0A02D90090E6B9E0FABA8102801441
:0502E300BA8202803D1B
:0602E800BA840302036466
:0602EE00BA850302037E45
:0302F4000203986A
:0C02F70090E6BAE0FA752B40752CE790F9
:0D030300E6BEE0F52D8A821206CCE5827080
:0103100003E9
:03031100F5822250
:0E03140090E68AE4F090E6BEE0FA90E68BF008
:0303220002039C37
:0C03250090E6BBE0FA90E6BAE0F510901C
:0C033100E6BDE0F51190E6BCE0F51275A9
:0A033D0013407514E790E6BEE0F5EA
:0A034700158A82120A3DE582700358
:03035100F5822210
:0E03540090E68AE4F090E6BEE0FA90E68BF0C8
:020362008038E1
:0E03640090E678E0FA53021890E740EAF09035
:0C037200E68AE4F090E68B7401F0801E37
:0E037E0090E67AE0FA53020190E740EAF09030
:0C038C00E68AE4F090E68B7401F0800437
:040398007582002248
:03039C0075820166
:01039F00223B
:0803A00090E6B8E0FABAC003D0
:0303A8000202D975
:0803AB0090E6B8E0FABA400345
:0303B3000201B88C
:0303B6007582004D
:0103B9002221
:0303BA0030030508
:0503BD00120FEE80F8B4
:0803C2007582201205F080F0A5
:0103CA002210
:0803CB00C0E01508E50860021E
:0203D3008006A2
:0603D50075083263A04030
:0203DB00C2CF8F
:0303DD00D0E0323B
:0403E000750A007525
:0303E4000B207576
:0903E7000905750C017582511223
:0803F0000438902000E0FA90AF
:0D03F800E00CF090E048EAF074302AFA9032
:03040500E0C2F062
:0104080022D1
:0D040900120523758201120635758200125E
:080416000642C2AF1203E0121E
:06041E00094F120CC07A28
:08042400CB7B038A828B83125B
:0A042C000BDFD2EAD2AF1206A602DF
:0204360003BA07
:0B043800AA82902009E4F090200AE561
:0404430009F0752B1C
:0304470009752C08
:09044A0020752D028A82C0021205
:0804530007A3E582D00270034B
:03045B00F5822205
:04045E00850A2B855B
:030462000B2C85DB
:050465000C2D8A82024B
:02046A0006CCBE
:0E046C0053A0C075822812065B43A0027A00DE
:07047A00741055A0FB6002A5
:020481008014E5
:0E0483000A758232C00212065BD002BAFF0078
:0204910040E742
:04049300758200224C
:030497007582016A
:01049A00223F
:0E049B00E5821392A0D2A2C2A21392A0D2A216
:0E04A900C2A21392A0D2A2C2A21392A0D2A20B
:0E04B700C2A21392A0D2A2C2A21392A0D2A2FD
:0E04C500C2A21392A0D2A2C2A21392A0D2A2EF
:0304D300C2A222A0
:0604D600AA82AB0DAC0E82
:0804DC008A051AED24FF5012FD
:0E04E4008B828C83E0FDA3AB82AC838D8212F1
:0404F200049B80E601
:0104F60022E3
:0704F70085820D85830E854F
:0804FE000F821204D675820181
:0105060022D2
:08050700AAA074105AFB600267
:02050F00800466
:0405110075820022CD
:06051500530208BA0804BD
:04051B0075820122C2
:03051F00758200E2
:0105220022B6
:0E05230090E6007412F0758E0090E60174F3FD
:0E053100F0000090E6047480F00090E6047480
:0E053F0002F00090E6047404F00090E60474EC
:0E054D0006F00090E6047408F00090E604E466
:0E055B00F00075800075B20375A0C075B4E79E
:0E05690075B10075B6FF90E61074A0F000901A
:0E057700E61174A0F00090E61274A0F000905F
:0E058500E61474E0F0000090E609E4F0009047
:0E059300E6187401F00090E6187411F0009064
:0D05A100E6207402F00090E621E4F00090E6
:0E05AE00E61A7409F00090E6247402F0009042
:0E05BC00E625E4F0000090E6027498F000904E
:0E05CA00E60374FEF00043AF010090E68AE401
:0E05D800F00090E68DE4F00075985043892005
:0A05E600758DB2D28ED2990206572D
:0205F000AA82DD
:0505F20010990280FBDE
:0205F7008A99DF
:0105F90022DF
:0805FA00AA82AB83ACF07D0086
:0E0602008D060DEE2AFEE43BFF8C008E828FEB
:0D0610008388F012102CFE8E07BE00012220
:0E061D008F82C002C003C004C0051205F0D0D9
:09062B0005D004D003D00280CEFA
:0106340022A3
:05063500E582FA7004EB
:04063A0043A0402277
:03063E0053A0BF07
:010641002296
:05064200E582FA7004DE
:0406470043A080222A
:03064B0053A07F3A
:01064E002289
:03064F0063A04065
:010652002285
:0306530063A08021
:010656002281
:03065700020A0490
:01065A00227D
:02065B00AA8271
:05065D0012065ADAFB51
:010662002275
:0306630090FB50B9
:08066600A3E582458370F9222F
:04066E00AA82AB832E
:080672001206631ABAFF011B16
:06067A00BA00F5BB00F21E
:010680002257
:0806810090E6A0E0FA4401F04C
:01068900224E
:0E068A00AA8274805AFBC423541FFB740F5ABB
:0D06980090E6834BF090E683E0FA4420F0FA
:0106A5002232
:0E06A60090E680E0FA440AF09000FA12066E28
:0E06B40090E65D74FFF090E65F74FFF05391E6
:0906C200EF90E680E0FA54F7F035
:0106CB00220C
:0606CC00AA82E52D600288
:0206D2008004A2
:0406D4007582012208
:0806D80090E678E0FB20E6F853
:0E06E00090E6787480F0EA2AFA90E6797401C8
:0206EE004AF0D0
:0D06F00090E678E0FA530201BA000280F3B0
:0B06FD0090E678E0FA30E20302079775
:0E07080090E678E0FA530202BA000302079767
:05071600E52DB401080F
:08071B0090E678E0FA4420F0BA
:0907230090E679E0F52EAA2BAB5B
:03072C002CAC2DC5
:04072F00DC02803533
:0D07330090E678E0FD530501BD000280F363
:0807400090E678E0FD20E24F95
:03074800BC0108E9
:08074B0090E678E0FD4420F087
:0E07530090E679E0FD8A828B83F0A3AA82AB48
:07076100838A2B8B2C80C75B
:0D07680090E678E0FA530201BA000280F337
:0807750090E678E0FA20E21A98
:0C077D0090E678E0FA4440F0AA2BAB2C88
:0E07890090E679E0FC8A828B83F07582012273
:0B07970090E678E0FA4440F075820024
:0107A2002234
:0207A300AA8228
:0807A50090E678E0FB20E6F885
:0D07AD0090E6787480F0EA2AFA90E679F080
:0D07BA0090E678E0FA530201BA000280F3E5
:0807C70090E678E0FA20E25709
:0D07CF0090E678E0FA530202BA0002804A78
:0507DC00AA2BAB2CACC0
:0107E1002DEA
:0507E200EC24FF503380
:0E07E7008A828B83E0FDA3AA82AB8390E67921
:0307F500EDF01C08
:0D07F80090E678E0FD530501BD000280F39E
:0808050090E678E0FD20E21905
:0B080D0090E678E0FD530502BD00CA34
:02081800800C52
:0C081A0090E678E0FA4440F0758201227C
:0B08260090E678E0FA4440F075820094
:0108310022A4
:05083200AA82BA0300D8
:0208370040057A
:05083900EA249C5001BF
:01083E002297
:09083F00740F5AFBBB0302800791
:07084800740F5AFBBB0B47C4
:0C084F00A2AF9200C2AFEA2400F582E4E0
:0D085B003400F5837402F07B0074012AFC68
:0C086800E43BFDEC2400F582ED3400F5CB
:0D08740083AC2C7D00ECF074022AFAE43B0A
:0C088100FBEA2400F582EB3400F583AAAA
:09088D002B7B00EAF0A20092AFFF
:01089600223F
:05089700AA82BA000076
:02089C00400515
:05089E00EA2483500173
:0108A3002232
:0608A40074035AFB600121
:0108AA00222B
:0C08AB00A2AF9201C2AFEA2400F582E483
:0D08B7003401F5837402F07B0074012AFC0B
:0C08C400E43BFDEC2400F582ED3401F56E
:0D08D00083AC2C7D00ECF074022AFAE43BAE
:0C08DD00FBEA2400F582EB3401F583AA4D
:0908E9002B7B00EAF0A20192AFA2
:0108F20022E3
:0508F300AA82BA80009A
:0208F8004005B9
:0508FA00EA244B50014F
:0108FF0022D6
:0609000074035AFB6001C4
:0109060022CE
:0C090700A2AF9202C2AFEA2480F582E4A5
:0D0913003400F5837402F07B0074012AFCAF
:0C092000E43BFDEC2480F582ED3400F592
:0D092C0083AC2C7D00ECF074022AFAE43B51
:0C093900FBEA2480F582EB3400F583AA71
:090945002B7B00EAF0A20292AF44
:01094E002286
:08094F00C2E8C2EA752B007535
:060957002C017582431221
:04095D000832752BBC
:0309610080752C72
:0D096400007582531208320090E650E4F056
:0E0971000090E652E4F00090E654E4F00090AE
:0D097F00E656E4F00090E65174FFF00090A1
:0E098C00E65374FFF00090E65574FFF0009003
:0E099A00E65774FFF00090E658E4F090E6593E
:0E09A80074FFF090E65AE4F090E65B74FFF006
:0E09B60090E65CE4F090E65D74FFF090E65E83
:0E09C400E4F090E65F74FFF00090E660E4F06F
:0D09D2000090E66174FFF090E662E4F090A2
:0E09DF00E66374FFF090E665E4F090E668745D
:0909ED000BF05391AFD2E8D2EAFD
:0109F60022DE
:0509F700AA82BA000411
:0409FC0075B10022AF
:030A0000EA42B116
:010A030022D0
:080A04007582001209F7C2819E
:010A0C0022C7
:080A0D00AA827B00EA30E0023E
:020A15007B0163
:040A1700EA30E101DF
:010A1B000BCF
:040A1C00EA30E201D9
:010A20000BCA
:040A2100EA30E301D3
:010A25000BC5
:040A2600EA30E401CD
:010A2A000BC0
:040A2B00EA30E501C7
:010A2F000BBB
:040A3000EA30E601C1
:010A34000BB6
:040A3500EA30E701BB
:010A39000BB1
:020A3A008B82AD
:010A3C002297
:0D0A3D00AA82851182C002120A0DAB82D080
:060A4A0002EB24FE500443
:040A50007582002289
:0B0A5400851182C0021209F7D002E5F4
:040A5F001230E70466
:040A63007582002276
:070A670074605512FB6023CF
:050A6E00BB2002800521
:050A7300BB40178008E4
:080A7800851082120B048011AD
:090A80008A82120B048510821217
:040A89000B048004D6
:040A8D00758200224C
:040A9100E515600CFB
:040A950085151D8521
:060A990013828514831294
:020A9F000BBF8B
:090AA1007582001209F77582014B
:010AAA002229
:0D0AAB00AA82851782C0021209F7D002E569
:040AB8001830E70407
:040ABC00758200221D
:070AC00074605518FB602370
:050AC700BB20028005C8
:050ACC00BB401780088B
:080AD100851682120B0480114E
:090AD9008A82120B0485168212B8
:040AE2000B0480047D
:040AE60075820022F3
:040AEA00E51B600C9C
:040AEE00851B1C85C3
:060AF2001982851A83122F
:020AF8000B579A
:090AFA007582001209F7758201F2
:010B030022CF
:0E0B0400E582FA23FA139281D280C280EA239E
:0E0B1200FA139281D280C280EA23FA139281F4
:0E0B2000D280C280EA23FA139281D280C28072
:0E0B2E00EA23FA139281D280C280EA23FA13DE
:0E0B3C009281D280C280EA23FA139281D28085
:0C0B4A00C280EA23FA139281D280C2809C
:010B5600227C
:060B5700AA82AB83AC1C76
:070B5D008C051CBD00012204
:0E0B64008A828B83E0FDA3AA82AB838D82C0C0
:0E0B720002C003C004120B04D004D003D00252
:020B800080DB18
:010B82002250
:0E0B8300E4D280A28333C280D280A28333C228
:0E0B910080D280A28333C280D280A28333C27E
:0E0B9F0080D280A28333C280D280A28333C270
:0E0BAD0080D280A28333C280D280A28333C262
:040BBB0080F582221D
:060BBF00AA82AB83AC1D0D
:070BC5008C051CBD0001229C
:0E0BCC00120B83AD828A828B83EDF0A3AA8286
:040BDA00AB8380E782
:010BDE0022F4
:0C0BDF00AA82AB83C2AD8A2B8B2C7582DE
:0E0BEB002B12083275CB6375CAC075C804D2D0
:010BF900AD4E
:010BFA0022D8
:0610570075210075220066
:080BFB0090E680E0FA30E719F2
:040C030075230075E0
:030C070024E07571
:030C0A002512753B
:030C0D0026E07569
:030C1000271C7529
:030C130028E07561
:030C1600295875E5
:030C19002AE022AC
:040C1C0075233C758B
:030C200024E07558
:030C2300254E75E6
:030C260026E07550
:030C2900275875D4
:030C2C0028E07548
:030C2F00291C7508
:020C32002AE0B6
:010C3400229D
:080C35005391EF75A100D203F9
:010C3D003284
:0E0C3E00C0E0C0F0C082C083C002C003C0048A
:0E0C4C00C005C006C007C000C001C0D075D0F2
:0A0C5A00005391EF75A100120BFB8F
:0E0C6400D0D0D001D000D007D006D005D004EB
:0D0C7200D003D002D083D082D0F0D0E03289
:0E0C7F00C0E0C0F0C082C083C002C003C00449
:0E0C8D00C005C006C007C000C001C0D075D0B1
:0A0C9B00005391EF75A100120BFB4E
:0E0CA500D0D0D001D000D007D006D005D004AA
:0D0CB300D003D002D083D082D0F0D0E03248
:050CC000120BFB752B77
:030CC50035752C56
:080CC8000C75820012089775FB
:030CD0002B3E7543
:060CD3002C0C75821012CA
:040CD9000897752BD8
:030CDD007F752CF4
:0D0CE0000C75821412089790E65C7431F0D8
:010CED0022E4
:090CEE00E582547FFA24F750045A
:040CF70075820022E0
:030CFB00BA010437
:040CFE0075820122D8
:080D0200530201E4BA000104F0
:020D0A00F58270
:010D0C0022C4
:050D0D00AA82BA010CEE
:0C0D120090E6A1E0FB7C008B828C832229
:030D1E00BA810C8B
:0C0D210090E6A2E0FB7C008B828C832219
:060D2D0053027FBA000C26
:0C0D330090E6A0E0FB7C008B828C832209
:0E0D3F0090E6A3E0FB7C00EAC313FA7D00EA15
:080D4D002BFBED3C8B82F583CA
:010D5500227B
:0D0D560090E6B8E0FA53021FBA00028005D3
:050D6300BA025B8012E2
:0A0D680090E6BAE0FABA0102800535
:050D7200BA020280033B
:030D7700120681E0
:070D7A0090E6BAE0FA600206
:020D8100803EB2
:0E0D830090E6BCE0FAF582120CEEE582602DDF
:0E0D910090E6BCE0FAF582120D0DAA82AB834B
:0E0D9F0090E6BCE0FCF582C002C003120D0D10
:0E0DAD00D003D002E0FC4304018A828B83EC69
:030DBB00F08003C2
:030DBE0012068199
:030DC100020681A6
:0D0DC40090E6B8E0FA53021FBA0002800565
:050DD100BA0258800782
:070DD60090E6BAE00206817D
:070DDD0090E6BAE0FA6002A3
:020DE40080434A
:0E0DE60090E6BCE0FAF582120CEEE582603574
:0E0DF40090E6BCE0FAF582120D0DAA82AB83E8
:0E0E020090E6BCE0FCF582C002C003120D0DAC
:0E0E1000D003D002E0FC5304FE8A828B83ECF8
:0B0E1E00F090E6BCE0FAF58202068AC4
:030E29000206813D
:030E2C000206813A
:010E2F0022A0
:0D0E300090E6B8E0FA53021FBA0002800AF3
:050E3D00BA0102801B58
:050E4200BA0261802AE4
:0E0E470090E7407401F090E741E4F090E68AF5
:080E5500F090E68B7402F0221C
:0E0E5D0090E740E4F090E741F090E68AF090D4
:060E6B00E68B7402F02288
:0E0E710090E6BCE0FAF582120CEEE5826024F9
:0E0E7F0090E6BCE0FAF582120D0DE0FA530287
:0E0E8D000190E740EAF090E741E4F090E68A39
:080E9B00F090E68B7402F022D6
:030EA300020681C3
:030EA600020681C0
:010EA9002226
:0A0EAA0090E6BBE0FABA01028017DF
:050EB400BA0202803CBF
:050EB900BA0302806194
:050EBE00BA0602801DD0
:050EC300BA07028042A5
:030EC800020F5ABC
:0C0ECB00AA23AB248B047D0090E6B3EC5E
:090ED700F07B0090E6B4EAF02281
:0C0EE000AA25AB268B047D0090E6B3EC45
:090EEC00F07B0090E6B4EAF0226C
:0C0EF500AA27AB288B047D0090E6B3EC2C
:090F0100F07B0090E6B4EAF02256
:0C0F0A00AA29AB2A8B047D0090E6B3EC12
:090F1600F07B0090E6B4EAF02241
:0E0F1F0090E6BAE0FA90E06AE0FBC3EA9B407D
:010F2D0003C0
:030F2E0002068137
:0D0F310090E6BAE0FA75F002A4246BF58298
:0D0F3E0074E035F0F583E0FAA3E0FB8B04CE
:0E0F4B007D0090E6B3ECF07B0090E6B4EAF097
:010F59002275
:030F5A000206810B
:070F5D0090E6B9E0FA6036EE
:050F6400BA0602802E18
:050F6900BA080280053A
:050F6E00BA0A2C8012FC
:0C0F730090E740E521F090E68AE4F09061
:060F7F00E68B7401F02274
:0C0F850090E740E522F090E68AE4F0904E
:060F9100E68B7401F02262
:030F9700020EAA9D
:030F9A00020E3014
:030F9D00020681C8
:010FA000222E
:0A0FA10090E6B9E0FABA01028027D9
:050FAB00BA03028025DD
:050FB000BA05028023D8
:050FB500BA0702801ED6
:050FBA00BA09028005E8
:050FBF00BA0B168007CB
:070FC40090E6BAE0F52122DE
:070FCB0090E6BAE0F52222D6
:030FD200020DC449
:030FD500020D56B4
:030FD8000206818D
:010FDB0022F3
:0B0FDC0090E6B8E0FA530280BA8003F0
:030FE700020F5D99
:030FEA00020FA152
:010FED0022E1
:0D0FEE00C20390E6B8E0FA530260BA0002B8
:020FFB00801E56
:050FFD00BA200280088B
:05100200BA4002800865
:03100700BA6016B6
:05100A001206818014B4
:07100F001203A0E582700D41
:051016001206818008B4
:05101B00120FDC800350
:0310200012068134
:0810230090E6A0E0FA4480F021
:01102B0022A2
:06106A00E478FFF6D8FD5A
:03105D0075812E6C
:0A106000120180E58260030201A581
:0E102C00E5F0601014601514601414601314C5
:06103A0014600374FF22A4
:08104000C000A882E6D00022E6
:02104800E022A4
:02104A009322EF
:08104C00C000A882E2D00022DE
:00000001FF
