:0600000002104C02006B2F
:03000B0002006B85
:0300130002006B7D
:03001B0002006B75
:0300230002006B6D
:03002B0002006B65
:0300330002006B5D
:03003B0002006B55
:0300430002006B4D
:03004B0002006B45
:0300530002006B3D
:03005B0002006B35
:0300630002006B2D
:01006B003262
:0900800002006B0002006B00029B
:08008900006B0002006B000295
:08009100006B0002006B00028D
:08009900006B0002006B000285
:0800A100006B0002006B00027D
:0800A900006B0002006B000275
:0700B100006B0002006B0070
:0901000002006B0002006B00021A
:08010900006B0002006B000214
:08011100006B0002006B00020C
:08011900006B0002006B000204
:08012100006B0002006B0002FC
:08012900006B0002006B0002F4
:08013100006B0002006B0002EC
:08013900006B0002006B0002E4
:08014100006B0002006B0002DC
:08014900006B0002006B0002D4
:08015100006B0002006B0002CC
:08015900006B0002006B0002C4
:08016100006B0002006B0002BC
:08016900006B0002006B0002B4
:08017100006B0002006B0002AC
:07017900006B0002006B00A7
:08018000780BE84400600C79E3
:0D01880001902000E4F0A3D8FCD9FAD08348
:0D019500D082F6D8FDC082C08375820022A2
:0CE0000012010002FFFFFF40FEFF0700BE
:06E00C0000010102040105
:0AE012000A060002FFFFFF400100B4
:0EE01C0009022E0001010080320904000004F8
:0EE02A00FFFFFF0307050202000200070504C6
:0EE038000200020007058602000200070588AC
:04E0460002000200D2
:0CE04A0012010002FFFFFF40FEFF070074
:06E05600000101020001BF
:0AE05C000A060002FFFFFF4001006A
:0EE066000902120001010080320904000000CE
:04E07400FFFFFF03A8
:01E0780005A2
:02E0790084E041
:02E07B008AE039
:02E07D00B2E00F
:02E07F00D2E0ED
:02E08100F4E0C9
:06E0840006030000090480
:0EE08A00280346007200650065002000530068
:0EE098006F0066007400770061007200650082
:0CE0A600200046006F006C006B0073004F
:0EE0B20020034800500053004400520020009C
:0EE0C0004F005A005900200052006500760003
:02E0CE00200030
:02E0D0003F000F
:0EE0D200220343006F006D006D0061006E00C0
:0EE0E000640020002600200053007400610040
:06E0EE00740075007300D0
:02E0F400120315
:0EE0F60031002E0034003100340032003100C1
:02E104003300E6
:0301A200021055F3
:03104C0075080123
:031068000201A5DD
:0501A5001203D680FEEC
:0501AA0090E68BE4F07B
:0801AF0090E6A0E0FA20E1F85F
:0101B7002225
:0A01B80090E6B9E0FABA0102801ADD
:0501C200BA0202803FBB
:0601C700BA080302023039
:0601CD00BA090302025012
:0601D300BA0B03020282D8
:0301D90002029E81
:0701DC0090E6BCE0FA6005AB
:0501E300BA011C800DB3
:0D01E80090E6BAE0FAF5821206390202A292
:0D01F50090E6BAE0FAF5821206460202A278
:0402020075820022DF
:0702060090E6BCE0FA600A7B
:05020D00BA01028008A7
:05021200BA0217801282
:03021700020439A5
:0D021A001201AA90E68BE0F50F90E740027C
:0202270004C40D
:030229000204D4F8
:04022C0075820022B5
:0C0230001201AA90E6BAE0FA752B4075A6
:0B023C002CE790E68BE0F52D8A821283
:0602470007A7E5827055D7
:03024D00F5822215
:0D0250001201AA90E6BBE0FA90E6BAE0F5D4
:0C025D001690E6BDE0F51790E6BCE0F559
:05026900187519407535
:0B026E001AE790E68BE0F51B8A821275
:060279000AA3E5827023D8
:03027F00F58222E3
:0802820090E6BAE0FABA010AA5
:0A028A0090E67AE0FA4401F0800EDD
:0A02940090E67AE0FA54FEF08004D0
:04029E007582002243
:0302A20075820161
:0102A5002236
:0A02A60090E6B9E0FABA8102801474
:0502B000BA8202803D4E
:0602B500BA8403020331CC
:0602BB00BA850302034BAB
:0302C100020365D0
:0C02C40090E6BAE0FA752B40752CE7902C
:0D02D000E6BEE0F52D8A821206D0E58270B0
:0102DD00031D
:0302DE00F5822284
:0E02E10090E68AE4F090E6BEE0FA90E68BF03C
:0302EF000203699E
:0C02F20090E6BBE0FA90E6BAE0F5109050
:0C02FE00E6BDE0F51190E6BCE0F51275DD
:0A030A0013407514E790E6BEE0F51D
:0A031400158A82120A35E582700393
:03031E00F5822243
:0E03210090E68AE4F090E6BEE0FA90E68BF0FB
:02032F00803814
:0E03310090E678E0FA53021890E740EAF09068
:0C033F00E68AE4F090E68B7401F0801E6A
:0E034B0090E67AE0FA53020190E740EAF09063
:0C035900E68AE4F090E68B7401F080046A
:04036500758200227B
:0303690075820199
:01036C00226E
:08036D0090E6B8E0FABAC00303
:030375000202A6DB
:0803780090E6B8E0FABA400378
:030380000201B8BF
:0303830075820080
:010386002254
:030387003003053B
:05038A00120FE680F8EF
:08038F007582201205F480F0D4
:010397002243
:08039800C0E01508E508600251
:0203A0008006D5
:0603A20075083263A04063
:0203A800C2CFC2
:0303AA00D0E0326E
:0403AD00750A007558
:0303B1000B2075A9
:0903B4000905750C017582511256
:0803BD000405902000E0FA9015
:0D03C500E00CF090E056EAF074302AFA9057
:0303D200E0D0F088
:0103D5002205
:0D03D6001204F075820112063975820012C2
:0803E3000646C2AF1203AD1281
:0603EB000953120CB87A60
:0803F100987B038A828B8312C2
:0A03F9000BD7D2EAD2AF1206AA0217
:0204030003876D
:0B040500AA82902009E4F090200AE594
:0404100009F0752B4F
:0304140009752C3B
:0904170020752D028A82C0021238
:0804200007A7E582D00270037A
:03042800F5822238
:04042B00850A2B858E
:03042F000B2C850E
:050432000C2D8A82027E
:0204370006D0ED
:0E04390053A0C075822812065F43A0027A000D
:07044700741055A0FB6002D8
:02044E00801418
:0E0450000A758232C00212065FD002BAFF00A7
:02045E0040E775
:04046000758200227F
:030464007582019D
:010467002272
:0E046800E5821392A0D2A2C2A21392A0D2A249
:0E047600C2A21392A0D2A2C2A21392A0D2A23E
:0E048400C2A21392A0D2A2C2A21392A0D2A230
:0E049200C2A21392A0D2A2C2A21392A0D2A222
:0304A000C2A222D3
:0604A300AA82AB0DAC0EB5
:0804A9008A051AED24FF501230
:0E04B1008B828C83E0FDA3AB82AC838D821224
:0404BF00046880E667
:0104C3002216
:0704C40085820D85830E8582
:0804CB000F821204A3758201E7
:0104D3002206
:0804D400AAA074105AFB60029B
:0204DC0080049A
:0404DE007582002201
:0604E200530208BA0804F1
:0404E80075820122F6
:0304EC0075820016
:0104EF0022EA
:0E04F00090E6007412F0758E0090E60174F331
:0E04FE00F0000090E6047480F00090E60474B4
:0E050C0002F00090E6047404F00090E604741F
:0E051A0006F00090E6047408F00090E604E499
:0E052800F00075800275B20375A0C075B4E7CF
:0D05360075B1FF75B6FF90E61074A0F0904F
:0E054300E61174A0F00090E61274A2F0009091
:0E055100E61374A0F00090E61474E2F000903F
:0E055F00E61574E0F00090E609E4F090E6186E
:0E056D007401F00090E6187411F00090E62082
:0E057B007402F00090E621E4F00090E619749E
:0E05890001F00090E6197411F00090E6227463
:0E05970002F00090E623E4F00090E61A7409EA
:0E05A500F00090E6247402F00090E625E4F0E9
:0E05B3000090E61B7409F00090E6267402F03A
:0E05C1000090E627E4F00090E6027498F00047
:0E05CF0090E60374FEF043AF0190E68AE4F07C
:0E05DD000090E68DE4F000759850438920757B
:0905EB008DB2D28ED29902065B9A
:0205F400AA82D9
:0505F60010990280FBDA
:0205FB008A99DB
:0105FD0022DB
:0805FE00AA82AB83ACF07D0082
:0E0606008D060DEE2AFEE43BFF8C008E828FE7
:0D0614008388F0121024FE8E07BE00012224
:0E0621008F82C002C003C004C0051205F4D0D1
:09062F0005D004D003D00280CEF6
:01063800229F
:05063900E582FA7004E7
:04063E0043A0402273
:0306420053A0BF03
:010645002292
:05064600E582FA7004DA
:04064B0043A0802226
:03064F0053A07F36
:010652002285
:0306530063A04061
:010656002281
:0306570063A0801D
:01065A00227D
:03065B000209FC95
:01065E002279
:02065F00AA826D
:0506610012065EDAFB49
:010666002271
:0306670090FB50B5
:08066A00A3E582458370F9222B
:04067200AA82AB832A
:080676001206671ABAFF011B0E
:06067E00BA00F5BB00F21A
:010684002253
:0806850090E6A0E0FA4401F048
:01068D00224A
:0E068E00AA8274805AFBC423541FFB740F5AB7
:0D069C0090E6834BF090E683E0FA4420F0F6
:0106A900222E
:0E06AA0090E680E0FA440AF09000FA12067220
:0E06B80090E65D74FFF090E65F74FFF05391E2
:0906C600EF90E680E0FA54F7F031
:0106CF002208
:0606D000AA82E52D600284
:0206D60080049E
:0406D8007582012204
:0806DC0090E678E0FB20E6F84F
:0E06E40090E6787480F0EA2AFA90E6797401C4
:0206F2004AF0CC
:0D06F40090E678E0FA530201BA000280F3AC
:0B07010090E678E0FA30E20302079B6C
:0E070C0090E678E0FA530202BA000302079B5F
:05071A00E52DB401080B
:08071F0090E678E0FA4420F0B6
:0907270090E679E0F52EAA2BAB57
:030730002CAC2DC1
:04073300DC0280352F
:0D07370090E678E0FD530501BD000280F35F
:0807440090E678E0FD20E24F91
:03074C00BC0108E5
:08074F0090E678E0FD4420F083
:0E07570090E679E0FD8A828B83F0A3AA82AB44
:07076500838A2B8B2C80C757
:0D076C0090E678E0FA530201BA000280F333
:0807790090E678E0FA20E21A94
:0C07810090E678E0FA4440F0AA2BAB2C84
:0E078D0090E679E0FC8A828B83F0758201226F
:0B079B0090E678E0FA4440F075820020
:0107A6002230
:0207A700AA8224
:0807A90090E678E0FB20E6F881
:0D07B10090E6787480F0EA2AFA90E679F07C
:0D07BE0090E678E0FA530201BA000280F3E1
:0807CB0090E678E0FA20E25705
:0D07D30090E678E0FA530202BA0002804A74
:0507E000AA2BAB2CACBC
:0107E5002DE6
:0507E600EC24FF50337C
:0E07EB008A828B83E0FDA3AA82AB8390E6791D
:0307F900EDF01C04
:0D07FC0090E678E0FD530501BD000280F39A
:0808090090E678E0FD20E21901
:0B08110090E678E0FD530502BD00CA30
:02081C00800C4E
:0C081E0090E678E0FA4440F07582012278
:0B082A0090E678E0FA4440F075820090
:0108350022A0
:05083600AA82BA0300D4
:02083B00400576
:05083D00EA249C5001BB
:010842002293
:09084300740F5AFBBB030280078D
:07084C00740F5AFBBB0B47C0
:0C085300A2AF9200C2AFEA2400F582E4DC
:0D085F003400F5837402F07B0074012AFC64
:0C086C00E43BFDEC2400F582ED3400F5C7
:0D08780083AC2C7D00ECF074022AFAE43B06
:0C088500FBEA2400F582EB3400F583AAA6
:090891002B7B00EAF0A20092AFFB
:01089A00223B
:05089B00AA82BA000072
:0208A000400511
:0508A200EA248350016F
:0108A700222E
:0608A80074035AFB60011D
:0108AE002227
:0C08AF00A2AF9201C2AFEA2400F582E47F
:0D08BB003401F5837402F07B0074012AFC07
:0C08C800E43BFDEC2400F582ED3401F56A
:0D08D40083AC2C7D00ECF074022AFAE43BAA
:0C08E100FBEA2400F582EB3401F583AA49
:0908ED002B7B00EAF0A20192AF9E
:0108F60022DF
:0508F700AA82BA800096
:0208FC004005B5
:0508FE00EA244B50014B
:0109030022D1
:0609040074035AFB6001C0
:01090A0022CA
:0C090B00A2AF9202C2AFEA2480F582E4A1
:0D0917003400F5837402F07B0074012AFCAB
:0C092400E43BFDEC2480F582ED3400F58E
:0D09300083AC2C7D00ECF074022AFAE43B4D
:0C093D00FBEA2480F582EB3400F583AA6D
:090949002B7B00EAF0A20292AF40
:010952002282
:08095300C2E8C2EA752B007531
:06095B002C01758243121D
:040961000836752BB4
:0309650080752C6E
:0D096800007582531208360090E650E4F04E
:0E0975000090E652E4F00090E654E4F00090AA
:0D098300E656E4F00090E65174FFF000909D
:0E099000E65374FFF00090E65574FFF00090FF
:0E099E00E65774FFF00090E658E4F090E6593A
:0E09AC0074FFF090E65AE4F090E65B74FFF002
:0E09BA0090E65CE4F090E65D74FFF090E65E7F
:0E09C800E4F090E65F74FFF00090E660E4F06B
:0D09D6000090E66174FFF090E662E4F0909E
:0E09E300E66374FFF090E665E4F090E6687459
:0909F1000BF05391AFD2E8D2EAF9
:0109FA0022DA
:0109FB0022D9
:0809FC007582001209FBC281A3
:010A040022CF
:080A0500AA827B00EA30E00246
:020A0D007B016B
:040A0F00EA30E101E7
:010A13000BD7
:040A1400EA30E201E1
:010A18000BD2
:040A1900EA30E301DB
:010A1D000BCD
:040A1E00EA30E401D5
:010A22000BC8
:040A2300EA30E501CF
:010A27000BC3
:040A2800EA30E601C9
:010A2C000BBE
:040A2D00EA30E701C3
:010A31000BB9
:020A32008B82B5
:010A3400229F
:0D0A3500AA82851182C002120A05AB82D090
:060A420002EB24FE50044B
:040A48007582002291
:0B0A4C00851182C0021209FBD002E5F8
:040A57001230E7046E
:040A5B00758200227E
:070A5F0074605512FB6023D7
:050A6600BB2002800529
:050A6B00BB40178008EC
:080A7000851082120AFC8011BE
:090A78008A82120AFC8510821228
:040A81000AFC8004E7
:040A85007582002254
:040A8900E515600C03
:040A8D0085151D8529
:060A91001382851483129C
:020A97000BB79B
:090A99007582001209FB7582014F
:010AA2002231
:0D0AA300AA82851782C0021209FBD002E56D
:040AB0001830E7040F
:040AB4007582002225
:070AB80074605518FB602378
:050ABF00BB20028005D0
:050AC400BB4017800893
:080AC900851682120AFC80115F
:090AD1008A82120AFC85168212C9
:040ADA000AFC80048E
:040ADE0075820022FB
:040AE200E51B600CA4
:040AE600851B1C85CB
:060AEA001982851A831237
:020AF0000B4FAA
:090AF2007582001209FB758201F6
:010AFB0022D8
:0E0AFC00E582FA23FA139281D280C280EA23A7
:0E0B0A00FA139281D280C280EA23FA139281FC
:0E0B1800D280C280EA23FA139281D280C2807A
:0E0B2600EA23FA139281D280C280EA23FA13E6
:0E0B34009281D280C280EA23FA139281D2808D
:0C0B4200C280EA23FA139281D280C280A4
:010B4E002284
:060B4F00AA82AB83AC1C7E
:070B55008C051CBD0001220C
:0E0B5C008A828B83E0FDA3AA82AB838D82C0C8
:0E0B6A0002C003C004120AFCD004D003D00263
:020B780080DB20
:010B7A002258
:0E0B7B00E4D280A28333C280D280A28333C230
:0E0B890080D280A28333C280D280A28333C286
:0E0B970080D280A28333C280D280A28333C278
:0E0BA50080D280A28333C280D280A28333C26A
:040BB30080F5822225
:060BB700AA82AB83AC1D15
:070BBD008C051CBD000122A4
:0E0BC400120B7BAD828A828B83EDF0A3AA8296
:040BD200AB8380E78A
:010BD60022FC
:0C0BD700AA82AB83C2AD8A2B8B2C7582E6
:0E0BE3002B12083675CB6375CAC075C804D2D4
:010BF100AD56
:010BF20022E0
:06104F007521007522006E
:080BF30090E680E0FA30E719FA
:040BFB0075230075E9
:030BFF0024E0757A
:030C020025127543
:030C050026E07571
:030C0800271C7531
:030C0B0028E07569
:030C0E00296675DF
:030C11002AE022B4
:040C140075234A7585
:030C180024E07560
:030C1B00255C75E0
:030C1E0026E07558
:030C2100276675CE
:030C240028E07550
:030C2700291C7510
:020C2A002AE0BE
:010C2C0022A5
:080C2D005391EF75A100D20301
:010C3500328C
:0E0C3600C0E0C0F0C082C083C002C003C00492
:0E0C4400C005C006C007C000C001C0D075D0FA
:0A0C5200005391EF75A100120BF39F
:0E0C5C00D0D0D001D000D007D006D005D004F3
:0D0C6A00D003D002D083D082D0F0D0E03291
:0E0C7700C0E0C0F0C082C083C002C003C00451
:0E0C8500C005C006C007C000C001C0D075D0B9
:0A0C9300005391EF75A100120BF35E
:0E0C9D00D0D0D001D000D007D006D005D004B2
:0D0CAB00D003D002D083D082D0F0D0E03250
:050CB800120BF3752B87
:030CBD002D752C66
:080CC0000C75820012089B75FF
:030CC8002B367553
:060CCB002C0C75821012D2
:040CD100089B752BDC
:030CD50077752C04
:0D0CD8000C75821412089B90E65C7431F0DC
:010CE50022EC
:090CE600E582547FFA24F7500462
:040CEF0075820022E8
:030CF300BA01043F
:040CF60075820122E0
:080CFA00530201E4BA000104F9
:020D0200F58278
:010D040022CC
:050D0500AA82BA010CF6
:0C0D0A0090E6A1E0FB7C008B828C832231
:030D1600BA810C93
:0C0D190090E6A2E0FB7C008B828C832221
:060D250053027FBA000C2E
:0C0D2B0090E6A0E0FB7C008B828C832211
:0E0D370090E6A3E0FB7C00EAC313FA7D00EA1D
:080D45002BFBED3C8B82F583D2
:010D4D002283
:0D0D4E0090E6B8E0FA53021FBA00028005DB
:050D5B00BA025B8012EA
:0A0D600090E6BAE0FABA010280053D
:050D6A00BA0202800343
:030D6F00120685E4
:070D720090E6BAE0FA60020E
:020D7900803EBA
:0E0D7B0090E6BCE0FAF582120CE6E582602DEF
:0E0D890090E6BCE0FAF582120D05AA82AB835B
:0E0D970090E6BCE0FCF582C002C003120D0520
:0E0DA500D003D002E0FC4304018A828B83EC71
:030DB300F08003CA
:030DB6001206859D
:030DB900020685AA
:0D0DBC0090E6B8E0FA53021FBA000280056D
:050DC900BA025880078A
:070DCE0090E6BAE002068581
:070DD50090E6BAE0FA6002AB
:020DDC00804352
:0E0DDE0090E6BCE0FAF582120CE6E582603584
:0E0DEC0090E6BCE0FAF582120D05AA82AB83F8
:0E0DFA0090E6BCE0FCF582C002C003120D05BD
:0E0E0800D003D002E0FC5304FE8A828B83EC00
:0B0E1600F090E6BCE0FAF58202068EC8
:030E210002068541
:030E24000206853E
:010E270022A8
:0D0E280090E6B8E0FA53021FBA0002800AFB
:050E3500BA0102801B60
:050E3A00BA0261802AEC
:0E0E3F0090E7407401F090E741E4F090E68AFD
:080E4D00F090E68B7402F02224
:0E0E550090E740E4F090E741F090E68AF090DC
:060E6300E68B7402F02290
:0E0E690090E6BCE0FAF582120CE6E582602409
:0E0E770090E6BCE0FAF582120D05E0FA530297
:0E0E85000190E740EAF090E741E4F090E68A41
:080E9300F090E68B7402F022DE
:030E9B00020685C7
:030E9E00020685C4
:010EA100222E
:0A0EA20090E6BBE0FABA01028017E7
:050EAC00BA0202803CC7
:050EB100BA030280619C
:050EB600BA0602801DD8
:050EBB00BA07028042AD
:030EC000020F52CC
:0C0EC300AA23AB248B047D0090E6B3EC66
:090ECF00F07B0090E6B4EAF02289
:0C0ED800AA25AB268B047D0090E6B3EC4D
:090EE400F07B0090E6B4EAF02274
:0C0EED00AA27AB288B047D0090E6B3EC34
:090EF900F07B0090E6B4EAF0225F
:0C0F0200AA29AB2A8B047D0090E6B3EC1A
:090F0E00F07B0090E6B4EAF02249
:0E0F170090E6BAE0FA90E078E0FBC3EA9B4077
:010F250003C8
:030F26000206853B
:0D0F290090E6BAE0FA75F002A42479F58292
:0D0F360074E035F0F583E0FAA3E0FB8B04D6
:0E0F43007D0090E6B3ECF07B0090E6B4EAF09F
:010F5100227D
:030F52000206850F
:070F550090E6B9E0FA6036F6
:050F5C00BA0602802E20
:050F6100BA0802800542
:050F6600BA0A2C801204
:0C0F6B0090E740E521F090E68AE4F09069
:060F7700E68B7401F0227C
:0C0F7D0090E740E522F090E68AE4F09056
:060F8900E68B7401F0226A
:030F8F00020EA2AD
:030F9200020E2824
:030F9500020685CC
:010F98002236
:0A0F990090E6B9E0FABA01028027E1
:050FA300BA03028025E5
:050FA800BA05028023E0
:050FAD00BA0702801EDE
:050FB200BA09028005F0
:050FB700BA0B168007D3
:070FBC0090E6BAE0F52122E6
:070FC30090E6BAE0F52222DE
:030FCA00020DBC59
:030FCD00020D4EC4
:030FD00002068591
:010FD30022FB
:0B0FD40090E6B8E0FA530280BA8003F8
:030FDF00020F55A9
:030FE200020F9962
:010FE50022E9
:0D0FE600C20390E6B8E0FA530260BA0002C0
:020FF300801E5E
:050FF500BA2002800893
:050FFA00BA400280086E
:030FFF00BA6016BF
:051002001206858014B8
:0710070012036DE582700D7C
:05100E001206858008B8
:05101300120FD4800360
:0310180012068538
:08101B0090E6A0E0FA4480F029
:0110230022AA
:06106200E478FFF6D8FD62
:0310550075812E74
:0A105800120180E58260030201A589
:0E102400E5F0601014601514601414601314CD
:0610320014600374FF22AC
:08103800C000A882E6D00022EE
:02104000E022AC
:021042009322F7
:08104400C000A882E2D00022E6
:00000001FF
