:0600000002200502006B66
:03000B0002006B85
:0300130002006B7D
:03001B0002006B75
:0300230002006B6D
:03002B0002006B65
:0300330002006B5D
:03003B0002006B55
:0300430002006B4D
:03004B0002006B45
:0300530002006B3D
:03005B0002006B35
:0300630002006B2D
:01006B003262
:0900800002006B0002006B00029B
:08008900006B0002006B000295
:08009100006B0002006B00028D
:08009900006B0002006B000285
:0800A100006B0002006B00027D
:0800A900006B0002006B000275
:0700B100006B0002006B0070
:0901000002006B0002006B00021A
:08010900006B0002006B000214
:08011100006B0002006B00020C
:08011900006B0002006B000204
:08012100006B0002006B0002FC
:08012900006B0002006B0002F4
:08013100006B0002006B0002EC
:08013900006B0002006B0002E4
:08014100006B0002006B0002DC
:08014900006B0002006B0002D4
:08015100006B0002006B0002CC
:08015900006B0002006B0002C4
:08016100006B0002006B0002BC
:08016900006B0002006B0002B4
:08017100006B0002006B0002AC
:07017900006B0002006B00A7
:0CE0000012010002FFFFFF40FEFFFF00C6
:06E00C0000010102040105
:0AE012000A060002FFFFFF400100B4
:0EE01C00090220000101008032090400000208
:0EE02A00FFFFFF030705020200020007058644
:04E0380002000200E0
:0CE03C0012010002FFFFFF40FEFFFF008A
:06E04800000101020001CD
:0AE04E000A060002FFFFFF40010078
:0EE058000902120001010080320904000000DC
:04E06600FFFFFF03B6
:01E06A0005B0
:02E06B0076E05D
:02E06D007CE055
:02E06F00A4E02B
:02E07100C4E009
:02E07300E6E0E5
:06E076000603000009048E
:0EE07C00280346007200650065002000530076
:0EE08A006F0066007400770061007200650090
:0CE09800200046006F006C006B0073005D
:0EE0A4002003510053003100520020004100C3
:0EE0B20042002E003000200052006500760073
:02E0C00020003E
:02E0C2003F001D
:0EE0C400220343006F006D006D0061006E00CE
:0EE0D20064002000260020005300740061004E
:06E0E000740075007300DE
:02E0E600120323
:0EE0E80031002E0037003300320030003500CA
:02E0F6003000F8
:08018000780BE84400600C79E3
:0D01880001904000E4F0A3D8FCD9FAD08328
:0D019500D082F6D8FDC082C08375820022A2
:0201A200AA822F
:0501A40010990280FB30
:0201A9008A9931
:0101AB002231
:0801AC00AA82AB83ACF07D00D8
:0E01B4008D060DEE2AFEE43BFF8C008E828F3E
:0D01C2008388F0121FDDFE8E07BE000122B3
:0E01CF008F82C002C003C004C0051201A2D07E
:0901DD0005D004D003D00280CE4D
:0101E60022F6
:0301E7000206828B
:0B01EA00AA82904000E4F0904001E584
:0401F50008F0752B6E
:0301F90000752C62
:0901FC0040752D028A82C0021236
:08020500041EE582D002700323
:03020D00F5822255
:0402100085092B85AC
:030214000A2C852C
:050217000B2D8A82029C
:02021C00034796
:0E021E0053A0C07582281202D643A0027A00B7
:07022C00741055A0FB6002F5
:02023300801435
:0E0235000A758232C0021202D6D002BAFF0051
:0202430040E792
:04024500758200229C
:03024900758201BA
:01024C00228F
:0E024D00E5821392A0D2A2C2A21392A0D2A266
:0E025B00C2A21392A0D2A2C2A21392A0D2A25B
:0E026900C2A21392A0D2A2C2A21392A0D2A24D
:0E027700C2A21392A0D2A2C2A21392A0D2A23F
:03028500C2A222F0
:06028800AA82AB0CAC0DD4
:08028E008A051AED24FF50124D
:0E0296008B828C83E0FDA3AB82AC838D821241
:0402A400024D80E6A1
:0102A8002233
:0702A90085820C85830D85A1
:0802B0000E8212028875820122
:0102B8002223
:0802B900AAA074105AFB6002B8
:0202C1008004B7
:0402C300758200221E
:0602C700530208BA08040E
:0402CD007582012213
:0302D10075820033
:0102D4002207
:0102D5002206
:0202D600AA82FA
:0502D8001202D5DAFB63
:0102DD0022FE
:0302DE0090FB5042
:0802E100A3E582458370F922B8
:0402E900AA82AB83B7
:0802ED001202DE1ABAFF011B28
:0602F500BA00F5BB00F2A7
:0102FB0022E0
:0802FC0090E6A0E0FA4401F0D5
:0103040022D6
:0E030500AA8274805AFBC423541FFB740F5A43
:0D03130090E6834BF090E683E0FA4420F082
:0103200022BA
:0E03210090E680E0FA440AF09000FA1202E939
:0E032F0090E65D74FFF090E65F74FFF053916E
:09033D00EF90E680E0FA54F7F0BD
:010346002294
:06034700AA82E52D600210
:02034D0080042A
:04034F007582012290
:0803530090E678E0FB20E6F8DB
:0E035B0090E6787480F0EA2AFA90E679740150
:020369004AF058
:0D036B0090E678E0FA530201BA000280F338
:0B03780090E678E0FA30E20302041285
:0E03830090E678E0FA530202BA000302041278
:05039100E52DB4010898
:0803960090E678E0FA4420F043
:09039E0090E679E0F52EAA2BABE4
:0303A7002CAC2D4E
:0403AA00DC028035BC
:0D03AE0090E678E0FD530501BD000280F3EC
:0803BB0090E678E0FD20E24F1E
:0303C300BC010872
:0803C60090E678E0FD4420F010
:0E03CE0090E679E0FD8A828B83F0A3AA82ABD1
:0703DC00838A2B8B2C80C7E4
:0D03E30090E678E0FA530201BA000280F3C0
:0803F00090E678E0FA20E21A21
:0C03F80090E678E0FA4440F0AA2BAB2C11
:0E04040090E679E0FC8A828B83F075820122FB
:0B04120090E678E0FA4440F0758200AC
:01041D0022BC
:02041E00AA82B0
:0804200090E678E0FB20E6F80D
:0D04280090E6787480F0EA2AFA90E679F008
:0D04350090E678E0FA530201BA000280F36D
:0804420090E678E0FA20E25791
:0D044A0090E678E0FA530202BA0002804A00
:05045700AA2BAB2CAC48
:01045C002D72
:05045D00EC24FF503308
:0E0462008A828B83E0FDA3AA82AB8390E679A9
:03047000EDF01C90
:0D04730090E678E0FD530501BD000280F326
:0804800090E678E0FD20E2198E
:0B04880090E678E0FD530502BD00CABD
:02049300800CDB
:0C04950090E678E0FA4440F07582012205
:0B04A10090E678E0FA4440F07582001D
:0104AC00222D
:0504AD00AA82BA030061
:0204B200400503
:0504B400EA249C500148
:0104B9002220
:0904BA00740F5AFBBB030280071A
:0704C300740F5AFBBB0B474D
:0C04CA00A2AF9200C2AFEA2400F582E469
:0D04D6003400F5837402F07B0074012AFCF1
:0C04E300E43BFDEC2400F582ED3400F554
:0D04EF0083AC2C7D00ECF074022AFAE43B93
:0C04FC00FBEA2400F582EB3400F583AA33
:090508002B7B00EAF0A20092AF87
:0105110022C7
:05051200AA82BA0000FE
:0205170040059D
:05051900EA24835001FB
:01051E0022BA
:06051F0074035AFB6001A9
:0105250022B3
:0C052600A2AF9201C2AFEA2400F582E40B
:0D0532003401F5837402F07B0074012AFC93
:0C053F00E43BFDEC2400F582ED3401F5F6
:0D054B0083AC2C7D00ECF074022AFAE43B36
:0C055800FBEA2400F582EB3401F583AAD5
:090564002B7B00EAF0A20192AF2A
:01056D00226B
:05056E00AA82BA800022
:02057300400541
:05057500EA244B5001D7
:01057A00225E
:06057B0074035AFB60014D
:010581002257
:0C058200A2AF9202C2AFEA2480F582E42E
:0D058E003400F5837402F07B0074012AFC38
:0C059B00E43BFDEC2480F582ED3400F51B
:0D05A70083AC2C7D00ECF074022AFAE43BDA
:0C05B400FBEA2480F582EB3400F583AAFA
:0905C0002B7B00EAF0A20292AFCD
:0105C900220F
:0805CA00C2E8C2EA752B0075BE
:0605D2002C0175824312AA
:0405D80004AD752BCE
:0305DC0080752CFB
:0D05DF00007582531204AD0090E650E4F068
:0E05EC000090E652E4F00090E654E4F0009037
:0D05FA00E656E4F00090E65174FFF000902A
:0E060700E65374FFF00090E65574FFF000908B
:0E061500E65774FFF00090E658E4F090E659C6
:0E06230074FFF090E65AE4F090E65B74FFF08E
:0E06310090E65CE4F090E65D74FFF090E65E0B
:0E063F00E4F090E65F74FFF00090E660E4F0F7
:0D064D000090E66174FFF090E662E4F0902A
:0E065A00E66374FFF090E665E4F090E66874E5
:090668000BF05391AFD2E8D2EA85
:010671002266
:05067200AA82BA000598
:05067700C2A6C2A7228B
:03067C00BA80023F
:02067F00D2A601
:010681002256
:08068200758200120672C280AD
:01068A00224D
:08068B00AA827B00EA30E002C4
:020693007B01E9
:04069500EA30E10165
:010699000B55
:04069A00EA30E2015F
:01069E000B50
:04069F00EA30E30159
:0106A3000B4B
:0406A400EA30E40153
:0106A8000B46
:0406A900EA30E5014D
:0106AD000B41
:0406AE00EA30E60147
:0106B2000B3C
:0406B300EA30E70141
:0106B7000B37
:0206B8008B8233
:0106BA00221D
:0D06BB00AA82851082C00212068BAB82D08D
:0606C80002EB24FE5004C9
:0406CE00758200220F
:0B06D200851082C002120672D002E503
:0406DD001130E704ED
:0406E10075820022FC
:0706E50074605511FB602356
:0506EC00BB20028005A7
:0506F100BB401780086A
:0806F600850F821207828011BA
:0906FE008A82120782850F821224
:0407070007828004E1
:04070B0075820022D1
:04070F00E514600C81
:0407130085141C85A8
:060717001282851383121B
:02071D00083D95
:09071F0075820012067275820158
:0107280022AE
:0D072900AA82851682C002120672D002E577
:040736001730E7048D
:04073A0075820022A2
:07073E0074605517FB6023F6
:05074500BB200280054D
:05074A00BB4017800810
:08074F0085158212078280115A
:090757008A8212078285158212C4
:040760000782800488
:040764007582002278
:04076800E51A600C22
:04076C00851A1B854A
:06077000188285198312B6
:0207760007D5A5
:09077800758200120672758201FF
:010781002255
:0E078200E582FA23FA139280D283C283EA231F
:0E079000FA139280D283C283EA23FA13928076
:0E079E00D283C283EA23FA139280D283C283ED
:0E07AC00EA23FA139280D283C283EA23FA135F
:0E07BA009280D283C283EA23FA139280D28304
:0C07C800C283EA23FA139280D283C2831A
:0107D4002202
:0607D500AA82AB83AC1BFD
:0707DB008C051CBD0001228A
:0E07E2008A828B83E0FDA3AA82AB838D82C046
:0E07F00002C003C004120782D004D003D0025E
:0207FE0080DB9E
:0108000022D5
:0E080100E4D283A28133C283D283A28133C2A8
:0E080F0083D283A28133C283D283A28133C2FB
:0E081D0083D283A28133C283D283A28133C2ED
:0E082B0083D283A28133C283D283A28133C2DF
:0408390083F582229F
:06083D00AA82AB83AC1C93
:070843008C051CBD00012221
:0E084A00120801AD828A828B83EDF0A3AA8290
:04085800AB8380E707
:01085C002279
:0C085D00AA82AB83C2AD8A2B8B2C758263
:0E0869002B1204AD75CB6375CAC075C804D2DE
:01087700ADD3
:01087800225D
:06200500752100752200A8
:0808790090E680E0FA30E71977
:040881007523007566
:0308850024E075F7
:03088800251275C1
:03088B0026E075EF
:03088E00271C75AF
:0308910028E075E7
:030894002958756B
:030897002AE02232
:04089A0075233C7511
:03089E0024E075DE
:0308A100254E756C
:0308A40026E075D6
:0308A7002758755A
:0308AA0028E075CE
:0308AD00291C758E
:0208B0002AE03C
:0108B2002223
:0808B3005391EF75A100D2037F
:0108BB00320A
:0E08BC00C0E0C0F0C082C083C002C003C00410
:0E08CA00C005C006C007C000C001C0D075D078
:0A08D800005391EF75A1001208799A
:0E08E200D0D0D001D000D007D006D005D00471
:0D08F000D003D002D083D082D0F0D0E0320F
:0E08FD00C0E0C0F0C082C083C002C003C004CF
:0E090B00C005C006C007C000C001C0D075D036
:0A091900005391EF75A10012087958
:0E092300D0D0D001D000D007D006D005D0042F
:0D093100D003D002D083D082D0F0D0E032CD
:05093E00120879752B81
:03094300B3752C5D
:0809460008758200120512750C
:03094E002BBC754A
:060951002C087582101253
:040957000512752BE5
:03095B00FD752CFB
:0D095E000875821412051290E65C7431F0E9
:01096B002269
:09096C00E582547FFA24F75004DF
:040975007582002265
:03097900BA0104BC
:04097C00758201225D
:08098000530201E4BA00010476
:02098800F582F6
:01098A00224A
:05098B00AA82BA010C74
:0C09900090E6A1E0FB7C008B828C8322AF
:03099C00BA810C11
:0C099F0090E6A2E0FB7C008B828C83229F
:0609AB0053027FBA000CAC
:0C09B10090E6A0E0FB7C008B828C83228F
:0E09BD0090E6A3E0FB7C00EAC313FA7D00EA9B
:0809CB002BFBED3C8B82F58350
:0109D3002201
:0D09D40090E6B8E0FA53021FBA0002800559
:0509E100BA025B801268
:0A09E60090E6BAE0FABA01028005BB
:0509F000BA02028003C1
:0309F5001202FCEF
:0709F80090E6BAE0FA60028C
:0209FF00803E38
:0E0A010090E6BCE0FAF58212096CE582602DE9
:0E0A0F0090E6BCE0FAF58212098BAA82AB8356
:0E0A1D0090E6BCE0FCF582C002C00312098B1B
:0E0A2B00D003D002E0FC4304018A828B83ECEE
:030A3900F0800347
:030A3C001202FCA7
:030A3F000202FCB4
:0D0A420090E6B8E0FA53021FBA00028005EA
:050A4F00BA0258800707
:070A540090E6BAE00202FC8B
:070A5B0090E6BAE0FA600228
:020A62008043CF
:0E0A640090E6BCE0FAF58212096CE58260357E
:0E0A720090E6BCE0FAF58212098BAA82AB83F3
:0E0A800090E6BCE0FCF582C002C00312098BB8
:0E0A8E00D003D002E0FC5304FE8A828B83EC7E
:0B0A9C00F090E6BCE0FAF582020305D2
:030AA7000202FC4C
:030AAA000202FC49
:010AAD002226
:0D0AAE0090E6B8E0FA53021FBA0002800A79
:050ABB00BA0102801BDE
:050AC000BA0261802A6A
:0E0AC50090E7407401F090E741E4F090E68A7B
:080AD300F090E68B7402F022A2
:0E0ADB0090E740E4F090E741F090E68AF0905A
:060AE900E68B7402F0220E
:0E0AEF0090E6BCE0FAF58212096CE582602404
:0E0AFD0090E6BCE0FAF58212098BE0FA530293
:0E0B0B000190E740EAF090E741E4F090E68ABE
:080B1900F090E68B7402F0225B
:030B21000202FCD1
:030B24000202FCCE
:010B270022AB
:0A0B280090E6BBE0FABA0102801764
:050B3200BA0202803C44
:050B3700BA0302806119
:050B3C00BA0602801D55
:050B4100BA070280422A
:030B4600020BD8C7
:0C0B4900AA23AB248B047D0090E6B3ECE3
:090B5500F07B0090E6B4EAF02206
:0C0B5E00AA25AB268B047D0090E6B3ECCA
:090B6A00F07B0090E6B4EAF022F1
:0C0B7300AA27AB288B047D0090E6B3ECB1
:090B7F00F07B0090E6B4EAF022DC
:0C0B8800AA29AB2A8B047D0090E6B3EC98
:090B9400F07B0090E6B4EAF022C7
:0E0B9D0090E6BAE0FA90E06AE0FBC3EA9B4003
:010BAB000346
:030BAC000202FC46
:0D0BAF0090E6BAE0FA75F002A4246BF5821E
:0D0BBC0074E035F0F583E0FAA3E0FB8B0454
:0E0BC9007D0090E6B3ECF07B0090E6B4EAF01D
:010BD70022FB
:030BD8000202FC1A
:070BDB0090E6B9E0FA603674
:050BE200BA0602802E9E
:050BE700BA08028005C0
:050BEC00BA0A2C801282
:0C0BF10090E740E521F090E68AE4F090E7
:060BFD00E68B7401F022FA
:0C0C030090E740E522F090E68AE4F090D3
:060C0F00E68B7401F022E7
:030C1500020B28A7
:030C1800020AAE1F
:030C1B000202FCD6
:010C1E0022B3
:0A0C1F0090E6B9E0FABA010280275E
:050C2900BA0302802562
:050C2E00BA050280235D
:050C3300BA0702801E5B
:050C3800BA090280056D
:050C3D00BA0B16800750
:070C420090E6BAE0F5212263
:070C490090E6BAE0F522225B
:030C5000020A4253
:030C53000209D4BF
:030C56000202FC9B
:010C59002278
:0B0C5A0090E6B8E0FA530280BA800375
:030C6500020BDBA4
:030C6800020C1F5C
:010C6B002266
:0D0C6C00C20390E6B8E0FA530260BA00023D
:020C7900801EDB
:050C7B00BA2002800810
:050C8000BA40028008EB
:030C8500BA60163C
:050C88001202FC8014C3
:070C8D00121F54E582700DF7
:050C94001202FC8008C3
:050C9900120C5A80035B
:030C9E001202FC43
:080CA10090E6A0E0FA4480F0A7
:010CA9002228
:0E0CAA0090E6007412F0758E0490E60174E37B
:0E0CB800F00090E6047480F00090E6047402F0
:0E0CC600F00090E6047404F00090E60474065A
:0E0CD400F00090E6047408F00090E604E4F0EE
:0E0CE2000075800075B20975A00075B4E77545
:0D0CF000B10075B6FF90E61074A0F0009002
:0E0CFD00E61174A0F00090E61274A0F00090D2
:0D0D0B00E61474E0F00090E609E4F00090BA
:0E0D1800E6187401F00090E6187411F00090D7
:0D0D2600E6207402F00090E621E4F0009059
:0E0D3300E61A7409F00090E6247402F00090B5
:0E0D4100E625E4F00043AF010090E68AE4F0FE
:0E0D4F000090E68DE4F0007598504389207501
:090D5D008DB2D28ED2990201E799
:030D660002200E5A
:03200B00751E013E
:03202100020D6944
:050D6900121FBA80FE1C
:050D6E0090E68BE4F0AB
:080D730090E6A0E0FA20E1F88F
:010D7B002255
:0C0D7C0090E6B9E0FA24D05003021650B3
:0D0D8800EA240983C0E0EA243383C0E0229E
:020D950050F517
:020D9700E55025
:020D99005050B8
:020D9B005050B6
:020D9D000F3312
:020D9F000169E8
:020DA100870DBC
:020DA300192510
:020DA500313DDE
:020DA7004955AC
:020DA900616D7A
:020DAB00798548
:020DAD00919D16
:020DAF00A9B5E4
:020DB100C1CDB2
:020DB300D9B3B2
:020DB500F94102
:020DB700BF3D3E
:020DB90097DFC2
:020DBB00276FA0
:020DBD00B7FF7E
:020DBF00478F5C
:020DC100D7B5A4
:020DC3001B1FF4
:020DC500160D09
:020DC7000E1606
:020DC9001616FC
:020DCB001616FA
:020DCD000F0F06
:020DCF000E0F05
:020DD1000F0E03
:020DD3000E0E02
:020DD5000E0E00
:020DD7000E0EFE
:020DD9000E0EFC
:020DDB000E0EFA
:020DDD000E0EF8
:020DDF000E0EF6
:020DE1000E0EF4
:020DE3000E0FF1
:020DE5000F10ED
:020DE7001011E9
:020DE9001111E6
:020DEB001212E2
:020DED001212E0
:020DEF001313DC
:020DF1001315D8
:020DF3001514D5
:0C0DF50090E6BAE0FA906022F00216547A
:0C0E010090E6BAE0FA906021F00216546E
:0C0E0D0090E6BAE0FA906023F002165460
:0C0E190090E6BAE0FA906024F002165453
:0C0E250090E6BAE0FA906020F00216544B
:0C0E310090E6BAE0FA906025F00216543A
:0C0E3D0090E6BAE0FA906000F002165453
:0C0E490090E6BAE0FA906001F002165446
:0C0E550090E6BAE0FA906002F002165439
:0C0E610090E6BAE0FA906003F00216542C
:0C0E6D0090E6BAE0FA906004F00216541F
:0C0E790090E6BAE0FA906006F002165411
:0C0E850090E6BAE0FA906007F002165404
:0C0E910090E6BAE0FA906010F0021654EF
:0C0E9D0090E6BAE0FA906011F0021654E2
:0C0EA90090E6BAE0FA906012F0021654D5
:0C0EB50090E6BAE0FA906013F0021654C8
:0C0EC10090E6BAE0FA906014F0021654BB
:0C0ECD0090E6BAE0FA906016F0021654AD
:0C0ED90090E6BAE0FA906017F0021654A0
:070EE50090E6BCE0FA600A90
:050EEC00BA01028008BC
:050EF100BA0217801297
:030EF60002021ED7
:0D0EF900120D6E90E68BE0F50E90E74002C2
:020F060002A93E
:030F08000202B929
:040F0B0075820022C9
:0C0F0F00120D6E90E6BAE0FA752B4075EA
:0B0F1B002CE790E68BE0F52D8A821297
:090F2600041EE58260030216546A
:040F2F0075820022A5
:0D0F3300120D6E90E6BBE0FA90E6BAE0F514
:0C0F40001590E6BDE0F51690E6BCE0F56B
:050F4C00177518407547
:0B0F510019E790E68BE0F51A8A821287
:090F5C000729E582600302165426
:040F6500758200226F
:080F690090E6BAE0FABA010BB0
:0B0F710090E67AE0FA4401F00216540A
:0B0F7C0090E67AE0FA54FEF0021654F2
:070F870090E6BAE0FA6002F7
:020F8E008009D8
:090F900090E6007402F002165410
:080F990090E6BAE0FABA010982
:090FA10090E600740AF0021654F7
:090FAA0090E6007412F0021654E6
:0A0FB300120D6E90E6BCE0FA600239
:020FBD0080179B
:0E0FBF009060077403F0906006E4F090E74045
:090FCD00E0FA906000F0021654F5
:080FD60090E6BCE0FABA011735
:0E0FDE009060177403F0906016E4F090E74006
:090FEC00E0FA906010F0021654C6
:040FF50075820022DF
:0A0FF900120D6E90E6BCE0FA6002F3
:02100300801853
:0D1005009060077403F09060067401F09095
:0B101200E740E0FA906000F002165486
:08101D0090E6BCE0FABA0118EC
:0D1025009060177403F09060167401F09055
:0B103200E740E0FA906010F002165456
:04103D007582002296
:0A104100120D6E90E6BCE0FA6002AA
:02104B008033F0
:0D104D009060077403F09060067402F0904C
:0E105A00E743E0FA906003F090E742E0FA907E
:0D1068006002F090E741E0FA906001F09026
:0B107500E740E0FA906000F002165423
:0810800090E6BCE0FABA01336E
:0D1088009060177403F09060167402F090F1
:0E109500E743E0FA906013F090E742E0FA9033
:0D10A3006012F090E741E0FA906011F090CB
:0B10B000E740E0FA906010F0021654D8
:0410BB007582002218
:0A10BF00120D6E90E6BCE0FA60022C
:0210C900803372
:0D10CB009060077403F09060067403F090CD
:0E10D800E743E0FA906003F090E742E0FA9000
:0D10E6006002F090E741E0FA906001F090A8
:0B10F300E740E0FA906000F0021654A5
:0810FE0090E6BCE0FABA0133F0
:0D1106009060177403F09060167403F09071
:0E111300E743E0FA906013F090E742E0FA90B4
:0D1121006012F090E741E0FA906011F0904C
:0B112E00E740E0FA906010F002165459
:041139007582002299
:0A113D00120D6E90E6BCE0FA6002AD
:02114700802105
:0D1149009060077403F09060067404F0904D
:0E115600E741E0FA906001F090E740E0FA9087
:061164006000F0021654C9
:08116A0090E6BCE0FABA012195
:0D1172009060177403F09060167404F09004
:0E117F00E741E0FA906011F090E740E0FA904E
:06118D006010F002165490
:04119300758200223F
:0A119700120D6E90E6BCE0FA600253
:0211A1008018B4
:0D11A3009060077403F09060067405F090F2
:0B11B000E740E0FA906000F0021654E7
:0811BB0090E6BCE0FABA01184D
:0D11C3009060177403F09060167405F090B2
:0B11D000E740E0FA906010F0021654B7
:0411DB0075820022F7
:0A11DF00120D6E90E6BCE0FA60020B
:0211E90080186C
:0D11EB009060077403F09060067406F090A9
:0B11F800E740E0FA906000F00216549F
:0812030090E6BCE0FABA011804
:0D120B009060177403F09060167406F09068
:0B121800E740E0FA906010F00216546E
:0412230075820022AE
:0A122700120D6E90E6BCE0FA6002C2
:02123100801823
:0D1233009060077403F09060067407F0905F
:0B124000E740E0FA906000F002165456
:08124B0090E6BCE0FABA0118BC
:0D1253009060177403F09060167407F0901F
:0B126000E740E0FA906010F002165426
:04126B007582002266
:0A126F00120D6E90E6BCE0FA60027A
:021279008018DB
:0D127B009060077403F09060067408F09016
:0B128800E740E0FA906000F00216540E
:0812930090E6BCE0FABA011874
:0D129B009060177403F09060167408F090D6
:0B12A800E740E0FA906010F0021654DE
:0412B300758200221E
:0A12B700120D6E90E6BCE0FA600232
:0212C100801893
:0D12C3009060077403F09060067409F090CD
:0B12D000E740E0FA906000F0021654C6
:0812DB0090E6BCE0FABA01182C
:0D12E3009060177403F09060167409F0908D
:0B12F000E740E0FA906010F002165496
:0412FB0075820022D6
:0A12FF00120D6E90E6BCE0FA6002EA
:0213090080184A
:0D130B009060077403F0906006740AF09083
:0B131800E740E0FA906000F00216547D
:0813230090E6BCE0FABA0118E3
:0D132B009060177403F0906016740AF09043
:0B133800E740E0FA906010F00216544D
:04134300758200228D
:0A134700120D6E90E6BCE0FA6002A1
:02135100801802
:0D1353009060077403F0906006740BF0903A
:0B136000E740E0FA906000F002165435
:08136B0090E6BCE0FABA01189B
:0D1373009060177403F0906016740BF090FA
:0B138000E740E0FA906010F002165405
:04138B007582002245
:0A138F00120D6E90E6BCE0FA600259
:021399008018BA
:0D139B009060077403F0906006740CF090F1
:0B13A800E740E0FA906000F0021654ED
:0813B30090E6BCE0FABA011853
:0D13BB009060177403F0906016740CF090B1
:0B13C800E740E0FA906010F0021654BD
:0413D30075820022FD
:0A13D700120D6E90E6BCE0FA600211
:0213E100801872
:0D13E3009060077403F0906006740DF090A8
:0B13F000E740E0FA906000F0021654A5
:0813FB0090E6BCE0FABA01180B
:0D1403009060177403F0906016740DF09067
:0B141000E740E0FA906010F002165474
:04141B0075820022B4
:0C141F00120D6E90E6BAE0FA24F05004C2
:04142B0075820022A4
:0E142F0090E6BAE0FAC454F0FA90E6BCE0FB96
:02143D0060024B
:02143F008067C4
:081441007B007C007D007E00B1
:0E144900C3EB9410EC648094804003021654B0
:0E145700906007E4F08B07906006EA2FF08D9E
:0E1465000774022F2440F582E434E7F583E09B
:0E147300F8906002F074012F2440F582E434FA
:0E148100E7F583E0FF906001F0ED2440F58276
:0E148F00EE34E7F583E0FF906000F00BBB0049
:02149D00010C40
:09149F0074032DFDE43EFE80A162
:0814A80090E6BCE0FBBB01670C
:0814B0007B007C007D007E0042
:0E14B800C3EB9410EC64809480400302165441
:0E14C600906017E4F08B07906016EA2FF08D0F
:0E14D4000774022F2440F582E434E7F583E02C
:0E14E200F8906012F074012F2440F582E4347B
:0E14F000E7F583E0FF906011F0ED2440F582F7
:0E14FE00EE34E7F583E0FF906010F00BBB00CA
:02150C00010CD0
:09150E0074032DFDE43EFE80A1F2
:0415170075820022B7
:0A151B00120D6E90E6BCE0FA6002CB
:02152500804103
:041527007A007B00CB
:0E152B00C3EA9400EB648094814003021654DE
:0E1539007C008B058D047D00906007ECF09027
:0E1547006006EAF0906004E4F0906003F0901B
:0E1555006002F0906001F0906000E4F00ABACD
:0315630000C60BB4
:0215660080C340
:0815680090E6BCE0FABA014173
:041570007A007B0082
:0E157400C3EA9400EB64809481400302165495
:0E1582007C008B058D047D00906017ECF090CE
:0E1590006016EAF0906014E4F0906013F090A2
:0E159E006012F0906011F0906010E4F00ABA54
:0315AC0000C60B6B
:0215AF0080C3F7
:0415B100758200221D
:0A15B500120D6E90E6BCE0FA600231
:0215BF00804367
:0415C1007A007B0031
:0E15C500C3EA9400EB64809481400302165444
:0E15D3008A0474012BFD8D047D00906007ECEE
:0E15E100F0906006EAF0906004E4F090600381
:0E15EF00F0906002F0906001F0906000E4F077
:0515FD000ABA00C40B56
:0216020080C1A5
:0816040090E6BCE0FABA0140D7
:04160C007A007B00E5
:0B161000C3EA9400EB64809481503921
:0E161B008A0474012BFD8D047D00906017EC95
:0E162900F0906016EAF0906014E4F090601308
:0E163700F0906012F0906011F0906010E4F0FE
:051645000ABA00C70B0A
:02164A0080C45A
:04164C007582002281
:04165000758200227D
:031654007582019B
:011657002270
:0816580090E6B9E0FABA810046
:051660005003021F4CC5
:08166500EA24575003021F4C58
:0E166D00EA247FFA240983C0E0EA242B83C01C
:02167B00E0226B
:02167D00CDFBA3
:02167F00713BBD
:0216810056749D
:021683008BA238
:02168500B9D0DA
:02168700E7FE7C
:02168900152C1E
:02168B00435AC0
:02168D00718862
:02168F009FB604
:02169100CDE4A6
:02169300FB1248
:021695002940EA
:021697008FE0E2
:0216990067EEFA
:02169B0051A25A
:02169D00FB4C04
:02169F009DEEBE
:0216A1003F9078
:0216A300E13232
:0216A500161617
:0216A700171713
:0216A900171711
:0216AB0017170F
:0216AD0017170D
:0216AF0017170B
:0216B100181807
:0216B300181805
:0216B500181803
:0216B700181801
:0216B9001818FF
:0216BB001819FC
:0216BD001919F9
:0216BF001919F7
:0216C1001A1AF3
:0216C3001B1BEF
:0216C5001B1CEC
:0216C7001C1CE9
:0216C9001D1DE5
:0216CB001D1EE2
:0C16CD0090E6BAE0FA752B40752CE7900F
:0D16D900E6BEE0F52D8A82120347E582701F
:0116E6000300
:0316E700F5822267
:0E16EA0090E68AE4F090E6BEE0FA90E68BF01F
:0316F800021F507E
:0C16FB0090E6BBE0FA90E6BAE0F50F9034
:0C170700E6BDE0F51090E6BCE0F51175C1
:0A17130012407513E790E6BEE0F502
:0A171D00148A821206BBE5827003F5
:03172700F5822226
:0E172A0090E68AE4F090E6BEE0FA90E68BF0DE
:03173800021F503D
:0E173B0090E678E0FA53021890E740EAF0904A
:0D174900E68AE4F090E68B7401F0021F5078
:0E17560090E67AE0FA53020190E740EAF09044
:0D176400E68AE4F090E68B7401F0021F505D
:03177100021F5004
:0E177400906022E0FA90E740F090E68AE4F000
:0917820090E68B7401F0021F5087
:0E178B00906021E0FA90E740F090E68AE4F0EA
:0917990090E68B7401F0021F5070
:0E17A200906023E0FA90E740F090E68AE4F0D1
:0917B00090E68B7401F0021F5059
:0E17B900906024E0FA90E740F090E68AE4F0B9
:0917C70090E68B7401F0021F5042
:0E17D000906020E0FA90E740F090E68AE4F0A6
:0917DE0090E68B7401F0021F502B
:0E17E700906025E0FA90E740F090E68AE4F08A
:0917F50090E68B7401F0021F5014
:0E17FE00906000E0FA90E740F090E68AE4F098
:09180C0090E68B7401F0021F50FC
:0E181500906001E0FA90E740F090E68AE4F07F
:0918230090E68B7401F0021F50E5
:0E182C00906002E0FA90E740F090E68AE4F067
:09183A0090E68B7401F0021F50CE
:0E184300906003E0FA90E740F090E68AE4F04F
:0918510090E68B7401F0021F50B7
:0E185A00906004E0FA90E740F090E68AE4F037
:0918680090E68B7401F0021F50A0
:0E187100906006E0FA90E740F090E68AE4F01E
:09187F0090E68B7401F0021F5089
:0E188800906007E0FA90E740F090E68AE4F006
:0918960090E68B7401F0021F5072
:0E189F00906010E0FA90E740F090E68AE4F0E6
:0918AD0090E68B7401F0021F505B
:0E18B600906011E0FA90E740F090E68AE4F0CE
:0918C40090E68B7401F0021F5044
:0E18CD00906012E0FA90E740F090E68AE4F0B6
:0918DB0090E68B7401F0021F502D
:0E18E400906013E0FA90E740F090E68AE4F09E
:0918F20090E68B7401F0021F5016
:0E18FB00906014E0FA90E740F090E68AE4F086
:0919090090E68B7401F0021F50FE
:0E191200906016E0FA90E740F090E68AE4F06C
:0919200090E68B7401F0021F50E7
:0E192900906017E0FA90E740F090E68AE4F054
:0919370090E68B7401F0021F50D0
:0719400090E6BCE0FA600232
:02194700801608
:0E1949009060077403F0906006E4F090600078
:08195700E0FA90E740F0802265
:08195F0090E6BCE0FABA0116A3
:0E1967009060177403F0906016E4F09060102A
:08197500E0FA90E740F0800465
:04197D00758200224D
:0E19810090E68AE4F090E68B7401F0021F50AD
:07198F0090E6BCE0FA6002E3
:021996008017B8
:0D1998009060077403F09060067401F090F9
:0A19A5006000E0FA90E740F08023B4
:0819AF0090E6BCE0FABA011752
:0D19B7009060177403F09060167401F090BA
:0A19C4006010E0FA90E740F08004A4
:0419CE0075820022FC
:0E19D20090E68AE4F090E68B7401F0021F505C
:0719E00090E6BCE0FA600292
:0219E70080324C
:0D19E9009060077403F09060067402F090A7
:0E19F6006000E0FA90E740F0906001E0FA90A7
:0D1A0400E741F0906002E0FA90E742F090B8
:0A1A11006003E0FA90E743F0803E26
:081A1B0090E6BCE0FABA0132CA
:0D1A23009060177403F09060167402F0904C
:0E1A30006010E0FA90E740F0906011E0FA904C
:0D1A3E00E741F0906012E0FA90E742F0906E
:0A1A4B006013E0FA90E743F0800416
:041A55007582002274
:0E1A590090E68AE4F090E68B7404F0021F50D1
:071A670090E6BCE0FA60020A
:021A6E008032C4
:0D1A70009060077403F09060067403F0901E
:0E1A7D006000E0FA90E740F0906001E0FA901F
:0D1A8B00E741F0906002E0FA90E742F09031
:0A1A98006003E0FA90E743F0803E9F
:081AA20090E6BCE0FABA013243
:0D1AAA009060177403F09060167403F090C4
:0E1AB7006010E0FA90E740F0906011E0FA90C5
:0D1AC500E741F0906012E0FA90E742F090E7
:0A1AD2006013E0FA90E743F080048F
:041ADC0075820022ED
:0E1AE00090E68AE4F090E68B7404F0021F504A
:071AEE0090E6BCE0FA600283
:021AF50080204F
:0D1AF7009060077403F09060067404F09096
:0E1B04006000E0FA90E740F0906001E0FA9097
:051B1200E741F0802C0A
:081B170090E6BCE0FABA0120DF
:0D1B1F009060177403F09060167404F0904D
:0E1B2C006010E0FA90E740F0906011E0FA904F
:051B3A00E741F080040A
:041B3F007582002289
:0E1B430090E68AE4F090E68B7402F0021F50E8
:071B510090E6BCE0FA60021F
:021B58008017F4
:0D1B5A009060077403F09060067405F09031
:0A1B67006000E0FA90E740F08023F0
:081B710090E6BCE0FABA01178E
:0D1B79009060177403F09060167405F090F2
:0A1B86006010E0FA90E740F08004E0
:041B90007582002238
:0E1B940090E68AE4F090E68B7401F0021F5098
:071BA20090E6BCE0FA6002CE
:021BA900801B9F
:0D1BAB009060077403F09060067406F090DF
:0E1BB8006001E0906000E0FA90E740F08027C6
:081BC60090E6BCE0FABA011B35
:0D1BCE009060177403F09060167406F0909C
:0E1BDB006011E0906010E0FA90E740F08004A6
:041BE90075820022DF
:0E1BED0090E68AE4F090E68B7401F0021F503F
:071BFB0090E6BCE0FA600275
:021C0200801749
:0D1C04009060077403F09060067407F09084
:0A1C11006000E0FA90E740F0802345
:081C1B0090E6BCE0FABA0117E3
:0D1C23009060177403F09060167407F09045
:0A1C30006010E0FA90E740F0800435
:041C3A00758200228D
:0E1C3E0090E68AE4F090E68B7401F0021F50ED
:071C4C0090E6BCE0FA600223
:021C53008017F8
:0D1C55009060077403F09060067408F09032
:0A1C62006000E0FA90E740F08023F4
:081C6C0090E6BCE0FABA011792
:0D1C74009060177403F09060167408F090F3
:0A1C81006010E0FA90E740F08004E4
:041C8B00758200223C
:0E1C8F0090E68AE4F090E68B7401F0021F509C
:071C9D0090E6BCE0FA6002D2
:021CA4008017A7
:0D1CA6009060077403F09060067409F090E0
:0A1CB3006000E0FA90E740F08023A3
:081CBD0090E6BCE0FABA011741
:0D1CC5009060177403F09060167409F090A1
:0A1CD2006010E0FA90E740F0800493
:041CDC0075820022EB
:0E1CE00090E68AE4F090E68B7401F0021F504B
:071CEE0090E6BCE0FA600281
:021CF500801756
:0D1CF7009060077403F0906006740AF0908E
:0A1D04006000E0FA90E740F0802351
:081D0E0090E6BCE0FABA0117EF
:0D1D16009060177403F0906016740AF0904E
:0A1D23006010E0FA90E740F0800441
:041D2D007582002299
:0E1D310090E68AE4F090E68B7401F0021F50F9
:071D3F0090E6BCE0FA60022F
:021D4600801704
:0D1D48009060077403F0906006740BF0903B
:0A1D55006000E0FA90E740F0802300
:081D5F0090E6BCE0FABA01179E
:0D1D67009060177403F0906016740BF090FC
:0A1D74006010E0FA90E740F08004F0
:041D7E007582002248
:0E1D820090E68AE4F090E68B7401F0021F50A8
:071D900090E6BCE0FA6002DE
:021D97008017B3
:0D1D99009060077403F0906006740CF090E9
:0A1DA6006000E0FA90E740F08023AF
:081DB00090E6BCE0FABA01174D
:0D1DB8009060177403F0906016740CF090AA
:0A1DC5006010E0FA90E740F080049F
:041DCF0075820022F7
:0E1DD30090E68AE4F090E68B7401F0021F5057
:071DE10090E6BCE0FA60028D
:021DE800801762
:0D1DEA009060077403F0906006740DF09097
:0A1DF7006000E0FA90E740F080235E
:081E010090E6BCE0FABA0117FB
:0D1E09009060177403F0906016740DF09057
:0A1E16006010E0FA90E740F080044D
:041E200075820022A5
:0E1E240090E68AE4F090E68B7401F0021F5005
:091E320090E6BAE0FA24F0500435
:041E3B00758200228A
:0D1E3F0090E6BAE0FAC454F0F51D90E6BC40
:041E4C00E0FB600255
:021E500080729E
:081E52007B007C007D007E0096
:0E1E5A00C3EB9410EC648094804003021F3FA1
:0D1E6800906007E4F08B07906006E51D2FE9
:0E1E7500F0ED2440FFEE34E7F8906000E0F955
:0E1E83008F828883F08D0774012F2440F8E4CD
:0E1E910034E7F9906001E0FA88828983F074EA
:0E1E9F00022F2440FAE434E7FF906002E0F8DE
:0E1EAD0053000F8A828F83E8F00BBB00010CFC
:091EBB0074032DFDE43EFE809647
:081EC40090E6BCE0FABA016FE0
:081ECC007A007B007C007D0020
:0B1ED400C3EA9410EB6480948050601F
:0D1EDF00906017E4F08A06906016E51D2E55
:0E1EEC00F0EC2440FEED34E7FF906010E0F8CB
:0E1EFA008E828F83F08C0674012E2440FFE44C
:0E1F080034E7F8906011E0F98F828883F0745E
:0E1F1600022E2440FEE434E7FF906012E0F853
:0E1F240053000F8E828F83E8F00ABA00010B83
:091F320074032CFCE43DFD8099D0
:041F3B007582002289
:0D1F3F0090E68AE4F090E68B7430F08004A8
:041F4C007582002278
:031F500075820196
:011F5300226B
:081F540090E6B8E0FABAC00300
:031F5C0002165812
:081F5F0090E6B8E0FABA400375
:031F6700020D7CEC
:031F6A007582007D
:011F6D002251
:031F6E0030030538
:051F7100120C6C80F869
:081F76007582201201A280F027
:011F7E002240
:081F7F00C0E0151EE51E600222
:021F87008003D5
:031F8900751E3290
:021F8C00C2CFC2
:031F8E00D0E0326E
:041F91007509027557
:031F95000A40758A
:091F98000805750B017582511258
:081FA10001EA904002E0FA9011
:0D1FA900E00CF090E048EAF074302AFA9065
:031FB600E0C2F096
:011FB9002205
:091FBA00120CAAC2AF121F911211
:061FC30005CA12093E7A76
:081FC9007F7B1F8A828B8312CB
:0A1FD100085DD2EAD2AF120321022C
:021FDB001F6E77
:06201B00E478FFF6D8FD99
:03200E0075812EAB
:0A201100120180E5826003020D69F0
:0E1FDD00E5F060101460151460141460131405
:061FEB0014600374FF22E4
:081FF100C000A882E6D0002226
:021FF900E022E4
:021FFB0093222F
:081FFD00C000A882E2D000221E
:00000001FF
