:0100000000ff
:0100010000fe
:0100020000fd
:0100030000fc
:0100040000fb
:0100050000fa
:0100060000f9
:0100070000f8
:0100080000f7
:0100090000f6
:01000a0000f5
:01000b0000f4
:01000c0000f3
:01000d0000f2
:01000e0000f1
:01000f0000f0
:0100100000ef
:0100110000ee
:0100120000ed
:0100130000ec
:0100140000eb
:0100150000ea
:0100160000e9
:0100170000e8
:0100180000e7
:0100190000e6
:01001a0000e5
:01001b0000e4
:01001c0000e3
:01001d0000e2
:01001e0000e1
:01001f0000e0
:0100200000df
:0100210000de
:0100220000dd
:0100230000dc
:0100240000db
:0100250000da
:0100260000d9
:0100270000d8
:0100280000d7
:0100290000d6
:01002a0000d5
:01002b0000d4
:01002c0000d3
:01002d0000d2
:01002e0000d1
:01002f0000d0
:0100300000cf
:0100310000ce
:0100320000cd
:0100330000cc
:0100340000cb
:0100350000ca
:0100360000c9
:0100370000c8
:0100380000c7
:0100390000c6
:01003a0000c5
:01003b0000c4
:01003c0000c3
:01003d0000c2
:01003e0000c1
:01003f0000c0
:0100400000bf
:0100410000be
:0100420000bd
:0100430000bc
:0100440000bb
:0100450000ba
:0100460000b9
:0100470000b8
:0100480000b7
:0100490000b6
:01004a0000b5
:01004b0000b4
:01004c0000b3
:01004d0000b2
:01004e0000b1
:01004f0000b0
:0100500000af
:0100510000ae
:0100520000ad
:0100530000ac
:0100540000ab
:0100550000aa
:0100560000a9
:0100570000a8
:0100580000a7
:0100590000a6
:01005a0000a5
:01005b0000a4
:01005c0000a3
:01005d0000a2
:01005e0000a1
:01005f0000a0
:01006000009f
:01006100009e
:01006200009d
:01006300009c
:01006400009b
:01006500009a
:010066000099
:010067000098
:010068000097
:010069000096
:01006a000095
:01006b000094
:01006c000093
:01006d000092
:01006e000091
:01006f000090
:01007000008f
:01007100008e
:01007200008d
:01007300008c
:01007400008b
:01007500008a
:010076000089
:010077000088
:010078000087
:010079000086
:01007a000085
:01007b000084
:01007c000083
:01007d000082
:01007e000081
:01007f000080
:01008000007f
:01008100007e
:01008200007d
:01008300007c
:01008400007b
:01008500007a
:010086000079
:010087000078
:010088000077
:010089000076
:01008a000075
:01008b000074
:01008c000073
:01008d000072
:01008e000071
:01008f000070
:01009000016e
:01009100016d
:01009200006d
:01009300006c
:01009400006b
:01009500006a
:010096000069
:010097000068
:010098000067
:010099000066
:01009a000065
:01009b000064
:01009c000063
:01009d000062
:01009e000061
:01009f000060
:0100a000015e
:0100a100015d
:0100a200015c
:0100a300015b
:0100a400005b
:0100a500005a
:0100a6000059
:0100a7000058
:0100a8000057
:0100a9000056
:0100aa000055
:0100ab000054
:0100ac000053
:0100ad000052
:0100ae000051
:0100af000050
:0100b000014e
:0100b100014d
:0100b200014c
:0100b300014b
:0100b400014a
:0100b5000149
:0100b6000049
:0100b7000048
:0100b8000047
:0100b9000046
:0100ba000045
:0100bb000044
:0100bc000043
:0100bd000042
:0100be000041
:0100bf000040
:0100c000013e
:0100c100013d
:0100c200013c
:0100c300013b
:0100c400013a
:0100c5000139
:0100c6000138
:0100c7000137
:0100c8000037
:0100c9000036
:0100ca000035
:0100cb000034
:0100cc000033
:0100cd000032
:0100ce000031
:0100cf000030
:0100d000012e
:0100d100012d
:0100d200012c
:0100d300012b
:0100d400012a
:0100d5000129
:0100d6000128
:0100d7000127
:0100d8000126
:0100d9000125
:0100da000025
:0100db000024
:0100dc000023
:0100dd000022
:0100de000021
:0100df000020
:0100e000011e
:0100e100011d
:0100e200011c
:0100e300011b
:0100e400011a
:0100e5000119
:0100e6000118
:0100e7000117
:0100e8000116
:0100e9000115
:0100ea000114
:0100eb000113
:0100ec000013
:0100ed000012
:0100ee000011
:0100ef000010
:0100f000010e
:0100f100010d
:0100f200010c
:0100f300010b
:0100f400010a
:0100f5000109
:0100f6000108
:0100f7000107
:0100f8000106
:0100f9000105
:0100fa000104
:0100fb000103
:0100fc000102
:0100fd000101
:0100fe000001
:0100ff000000
:0101000001fd
:0101010001fc
:0101020001fb
:0101030001fa
:0101040001f9
:0101050001f8
:0101060001f7
:0101070001f6
:0101080001f5
:0101090001f4
:01010a0001f3
:01010b0001f2
:01010c0001f1
:01010d0001f0
:01010e0001ef
:01010f0001ee
:0101100001ed
:0101110001ec
:0101120001eb
:0101130001ea
:0101140001e9
:0101150001e8
:0101160001e7
:0101170001e6
:0101180001e5
:0101190001e4
:01011a0001e3
:01011b0001e2
:01011c0001e1
:01011d0001e0
:01011e0001df
:01011f0001de
:0101200001dd
:0101210001dc
:0101220001db
:0101230001da
:0101240001d9
:0101250001d8
:0101260001d7
:0101270001d6
:0101280001d5
:0101290001d4
:01012a0001d3
:01012b0001d2
:01012c0001d1
:01012d0001d0
:01012e0001cf
:01012f0001ce
:0101300001cd
:0101310001cc
:0101320001cb
:0101330001ca
:0101340001c9
:0101350001c8
:0101360001c7
:0101370001c6
:0101380001c5
:0101390001c4
:01013a0001c3
:01013b0001c2
:01013c0001c1
:01013d0001c0
:01013e0001bf
:01013f0001be
:0101400001bd
:0101410001bc
:0101420001bb
:0101430001ba
:0101440001b9
:0101450001b8
:0101460001b7
:0101470001b6
:0101480001b5
:0101490001b4
:01014a0001b3
:01014b0001b2
:01014c0001b1
:01014d0001b0
:01014e0001af
:01014f0001ae
:0101500001ad
:0101510001ac
:0101520001ab
:0101530001aa
:0101540001a9
:0101550001a8
:0101560001a7
:0101570001a6
:0101580001a5
:0101590001a4
:01015a0001a3
:01015b0001a2
:01015c0001a1
:01015d0001a0
:01015e00019f
:01015f00019e
:01016000019d
:01016100019c
:01016200019b
:01016300019a
:010164000199
:010165000198
:010166000197
:010167000196
:010168000195
:010169000194
:01016a000193
:01016b000192
:01016c000191
:01016d000190
:01016e00018f
:01016f00018e
:01017000018d
:01017100018c
:01017200018b
:01017300018a
:010174000189
:010175000188
:010176000187
:010177000186
:010178000185
:010179000184
:01017a000183
:01017b000182
:01017c000181
:01017d000180
:01017e00017f
:01017f00017e
:01018000017d
:01018100017c
:01018200017b
:01018300017a
:010184000179
:010185000178
:010186000177
:010187000176
:010188000175
:010189000174
:01018a000173
:01018b000172
:01018c000171
:01018d000170
:01018e00016f
:01018f00016e
:01019000026c
:01019100016c
:01019200016b
:01019300016a
:010194000169
:010195000168
:010196000167
:010197000166
:010198000165
:010199000164
:01019a000163
:01019b000162
:01019c000161
:01019d000160
:01019e00015f
:01019f00015e
:0101a000025c
:0101a100025b
:0101a200015b
:0101a300015a
:0101a4000159
:0101a5000158
:0101a6000157
:0101a7000156
:0101a8000155
:0101a9000154
:0101aa000153
:0101ab000152
:0101ac000151
:0101ad000150
:0101ae00014f
:0101af00014e
:0101b000024c
:0101b100024b
:0101b200014b
:0101b300014a
:0101b4000149
:0101b5000148
:0101b6000147
:0101b7000146
:0101b8000145
:0101b9000144
:0101ba000143
:0101bb000142
:0101bc000141
:0101bd000140
:0101be00013f
:0101bf00013e
:0101c000023c
:0101c100023b
:0101c200023a
:0101c300013a
:0101c4000139
:0101c5000138
:0101c6000137
:0101c7000136
:0101c8000135
:0101c9000134
:0101ca000133
:0101cb000132
:0101cc000131
:0101cd000130
:0101ce00012f
:0101cf00012e
:0101d000022c
:0101d100022b
:0101d200022a
:0101d3000229
:0101d4000129
:0101d5000128
:0101d6000127
:0101d7000126
:0101d8000125
:0101d9000124
:0101da000123
:0101db000122
:0101dc000121
:0101dd000120
:0101de00011f
:0101df00011e
:0101e000021c
:0101e100021b
:0101e200021a
:0101e3000219
:0101e4000119
:0101e5000118
:0101e6000117
:0101e7000116
:0101e8000115
:0101e9000114
:0101ea000113
:0101eb000112
:0101ec000111
:0101ed000110
:0101ee00010f
:0101ef00010e
:0101f000020c
:0101f100020b
:0101f200020a
:0101f3000209
:0101f4000208
:0101f5000108
:0101f6000107
:0101f7000106
:0101f8000105
:0101f9000104
:0101fa000103
:0101fb000102
:0101fc000101
:0101fd000100
:0101fe0001ff
:0101ff0001fe
:0102000002fb
:0102010002fa
:0102020002f9
:0102030002f8
:0102040002f7
:0102050002f6
:0102060001f6
:0102070001f5
:0102080001f4
:0102090001f3
:01020a0001f2
:01020b0001f1
:01020c0001f0
:01020d0001ef
:01020e0001ee
:01020f0001ed
:0102100002eb
:0102110002ea
:0102120002e9
:0102130002e8
:0102140002e7
:0102150002e6
:0102160001e6
:0102170001e5
:0102180001e4
:0102190001e3
:01021a0001e2
:01021b0001e1
:01021c0001e0
:01021d0001df
:01021e0001de
:01021f0001dd
:0102200002db
:0102210002da
:0102220002d9
:0102230002d8
:0102240002d7
:0102250002d6
:0102260002d5
:0102270001d5
:0102280001d4
:0102290001d3
:01022a0001d2
:01022b0001d1
:01022c0001d0
:01022d0001cf
:01022e0001ce
:01022f0001cd
:0102300002cb
:0102310002ca
:0102320002c9
:0102330002c8
:0102340002c7
:0102350002c6
:0102360002c5
:0102370002c4
:0102380001c4
:0102390001c3
:01023a0001c2
:01023b0001c1
:01023c0001c0
:01023d0001bf
:01023e0001be
:01023f0001bd
:0102400002bb
:0102410002ba
:0102420002b9
:0102430002b8
:0102440002b7
:0102450002b6
:0102460002b5
:0102470002b4
:0102480001b4
:0102490001b3
:01024a0001b2
:01024b0001b1
:01024c0001b0
:01024d0001af
:01024e0001ae
:01024f0001ad
:0102500002ab
:0102510002aa
:0102520002a9
:0102530002a8
:0102540002a7
:0102550002a6
:0102560002a5
:0102570002a4
:0102580002a3
:0102590001a3
:01025a0001a2
:01025b0001a1
:01025c0001a0
:01025d00019f
:01025e00019e
:01025f00019d
:01026000029b
:01026100029a
:010262000299
:010263000298
:010264000297
:010265000296
:010266000295
:010267000294
:010268000293
:010269000292
:01026a000192
:01026b000191
:01026c000190
:01026d00018f
:01026e00018e
:01026f00018d
:01027000028b
:01027100028a
:010272000289
:010273000288
:010274000287
:010275000286
:010276000285
:010277000284
:010278000283
:010279000282
:01027a000182
:01027b000181
:01027c000180
:01027d00017f
:01027e00017e
:01027f00017d
:01028000027b
:01028100027a
:010282000279
:010283000278
:010284000277
:010285000276
:010286000275
:010287000274
:010288000273
:010289000272
:01028a000271
:01028b000171
:01028c000170
:01028d00016f
:01028e00016e
:01028f00016d
:01029000026b
:01029100026a
:010292000269
:010293000268
:010294000267
:010295000266
:010296000265
:010297000264
:010298000263
:010299000262
:01029a000261
:01029b000260
:01029c000160
:01029d00015f
:01029e00015e
:01029f00015d
:0102a000025b
:0102a100025a
:0102a2000259
:0102a3000258
:0102a4000257
:0102a5000256
:0102a6000255
:0102a7000254
:0102a8000253
:0102a9000252
:0102aa000251
:0102ab000250
:0102ac000150
:0102ad00014f
:0102ae00014e
:0102af00014d
:0102b000004d
:0102b100024a
:0102b2000249
:0102b3000248
:0102b4000247
:0102b5000246
:0102b6000245
:0102b7000244
:0102b8000243
:0102b9000242
:0102ba000241
:0102bb000240
:0102bc00023f
:0102bd00013f
:0102be00013e
:0102bf00013d
:0102c000003d
:0102c100023a
:0102c2000239
:0102c3000238
:0102c4000237
:0102c5000236
:0102c6000235
:0102c7000234
:0102c8000233
:0102c9000232
:0102ca000231
:0102cb000230
:0102cc00022f
:0102cd00022e
:0102ce00012e
:0102cf00012d
:0102d000002d
:0102d100022a
:0102d2000229
:0102d3000228
:0102d4000227
:0102d5000226
:0102d6000225
:0102d7000224
:0102d8000223
:0102d9000222
:0102da000221
:0102db000220
:0102dc00021f
:0102dd00021e
:0102de00011e
:0102df00011d
:0102e000001d
:0102e100001c
:0102e2000219
:0102e3000218
:0102e4000217
:0102e5000216
:0102e6000215
:0102e7000214
:0102e8000213
:0102e9000212
:0102ea000211
:0102eb000210
:0102ec00020f
:0102ed00020e
:0102ee00020d
:0102ef00010d
:0102f000000d
:0102f100000c
:0102f2000209
:0102f3000208
:0102f4000207
:0102f5000206
:0102f6000205
:0102f7000204
:0102f8000203
:0102f9000202
:0102fa000201
:0102fb000200
:0102fc0002ff
:0102fd0002fe
:0102fe0002fd
:0102ff0002fc
:0103000000fc
:0103010000fb
:0103020002f8
:0103030002f7
:0103040002f6
:0103050002f5
:0103060002f4
:0103070002f3
:0103080002f2
:0103090002f1
:01030a0002f0
:01030b0002ef
:01030c0002ee
:01030d0002ed
:01030e0002ec
:01030f0002eb
:0103100000ec
:0103110000eb
:0103120000ea
:0103130002e7
:0103140002e6
:0103150002e5
:0103160002e4
:0103170002e3
:0103180002e2
:0103190002e1
:01031a0002e0
:01031b0002df
:01031c0002de
:01031d0002dd
:01031e0002dc
:01031f0002db
:0103200000dc
:0103210000db
:0103220000da
:0103230002d7
:0103240002d6
:0103250002d5
:0103260002d4
:0103270002d3
:0103280002d2
:0103290002d1
:01032a0002d0
:01032b0002cf
:01032c0002ce
:01032d0002cd
:01032e0002cc
:01032f0002cb
:0103300000cc
:0103310000cb
:0103320000ca
:0103330000c9
:0103340002c6
:0103350002c5
:0103360002c4
:0103370002c3
:0103380002c2
:0103390002c1
:01033a0002c0
:01033b0002bf
:01033c0002be
:01033d0002bd
:01033e0002bc
:01033f0002bb
:0103400000bc
:0103410000bb
:0103420000ba
:0103430000b9
:0103440002b6
:0103450002b5
:0103460002b4
:0103470002b3
:0103480002b2
:0103490002b1
:01034a0002b0
:01034b0002af
:01034c0002ae
:01034d0002ad
:01034e0002ac
:01034f0002ab
:0103500000ac
:0103510000ab
:0103520000aa
:0103530000a9
:0103540002a6
:0103550002a5
:0103560002a4
:0103570002a3
:0103580002a2
:0103590002a1
:01035a0002a0
:01035b00029f
:01035c00029e
:01035d00029d
:01035e00029c
:01035f00029b
:01036000009c
:01036100009b
:01036200009a
:010363000099
:010364000098
:010365000295
:010366000294
:010367000293
:010368000292
:010369000291
:01036a000290
:01036b00028f
:01036c00028e
:01036d00028d
:01036e00028c
:01036f00028b
:01037000008c
:01037100008b
:01037200008a
:010373000089
:010374000088
:010375000285
:010376000284
:010377000283
:010378000282
:010379000281
:01037a000280
:01037b00027f
:01037c00027e
:01037d00027d
:01037e00027c
:01037f00027b
:01038000007c
:01038100007b
:01038200007a
:010383000079
:010384000078
:010385000275
:010386000274
:010387000273
:010388000272
:010389000271
:01038a000270
:01038b00026f
:01038c00026e
:01038d00026d
:01038e00026c
:01038f00026b
:01039000006c
:01039100006b
:01039200006a
:010393000069
:010394000068
:010395000067
:010396000264
:010397000263
:010398000262
:010399000261
:01039a000260
:01039b00025f
:01039c00025e
:01039d00025d
:01039e00025c
:01039f00025b
:0103a000005c
:0103a100005b
:0103a200005a
:0103a3000059
:0103a4000058
:0103a5000057
:0103a6000254
:0103a7000253
:0103a8000252
:0103a9000251
:0103aa000250
:0103ab00024f
:0103ac00024e
:0103ad00024d
:0103ae00024c
:0103af00024b
:0103b000004c
:0103b100004b
:0103b200004a
:0103b3000049
:0103b4000048
:0103b5000047
:0103b6000046
:0103b7000243
:0103b8000242
:0103b9000241
:0103ba000240
:0103bb00023f
:0103bc00023e
:0103bd00023d
:0103be00023c
:0103bf00023b
:0103c000003c
:0103c100003b
:0103c200003a
:0103c3000039
:0103c4000038
:0103c5000037
:0103c6000036
:0103c7000233
:0103c8000232
:0103c9000231
:0103ca000230
:0103cb00022f
:0103cc00022e
:0103cd00022d
:0103ce00022c
:0103cf00022b
:0103d000002c
:0103d100002b
:0103d200002a
:0103d3000029
:0103d4000028
:0103d5000027
:0103d6000026
:0103d7000223
:0103d8000222
:0103d9000221
:0103da000220
:0103db00021f
:0103dc00021e
:0103dd00021d
:0103de00021c
:0103df00021b
:0103e000001c
:0103e100001b
:0103e200001a
:0103e3000019
:0103e4000018
:0103e5000017
:0103e6000016
:0103e7000015
:0103e8000212
:0103e9000211
:0103ea000210
:0103eb00020f
:0103ec00020e
:0103ed00020d
:0103ee00020c
:0103ef00020b
:0103f000000c
:0103f100000b
:0103f200000a
:0103f3000009
:0103f4000008
:0103f5000007
:0103f6000006
:0103f7000005
:0103f8000202
:0103f9000201
:0103fa000200
:0103fb0002ff
:0103fc0002fe
:0103fd0002fd
:0103fe0002fc
:0103ff0002fb
:0104000000fb
:0104010000fa
:0104020000f9
:0104030000f8
:0104040000f7
:0104050000f6
:0104060000f5
:0104070000f4
:0104080002f1
:0104090002f0
:01040a0002ef
:01040b0002ee
:01040c0002ed
:01040d0002ec
:01040e0002eb
:01040f0002ea
:0104100000eb
:0104110000ea
:0104120000e9
:0104130000e8
:0104140000e7
:0104150000e6
:0104160000e5
:0104170000e4
:0104180000e3
:0104190002e0
:01041a0002df
:01041b0002de
:01041c0002dd
:01041d0002dc
:01041e0002db
:01041f0002da
:0104200000db
:0104210000da
:0104220000d9
:0104230000d8
:0104240000d7
:0104250000d6
:0104260000d5
:0104270000d4
:0104280000d3
:0104290002d0
:01042a0002cf
:01042b0002ce
:01042c0002cd
:01042d0002cc
:01042e0002cb
:01042f0002ca
:0104300000cb
:0104310000ca
:0104320000c9
:0104330000c8
:0104340000c7
:0104350000c6
:0104360000c5
:0104370000c4
:0104380000c3
:0104390000c2
:01043a0002bf
:01043b0002be
:01043c0002bd
:01043d0002bc
:01043e0002bb
:01043f0002ba
:0104400000bb
:0104410000ba
:0104420000b9
:0104430000b8
:0104440000b7
:0104450000b6
:0104460000b5
:0104470000b4
:0104480000b3
:0104490000b2
:01044a0002af
:01044b0002ae
:01044c0002ad
:01044d0002ac
:01044e0002ab
:01044f0002aa
:0104500000ab
:0104510000aa
:0104520000a9
:0104530000a8
:0104540000a7
:0104550000a6
:0104560000a5
:0104570000a4
:0104580000a3
:0104590000a2
:01045a00029f
:01045b00029e
:01045c00029d
:01045d00029c
:01045e00029b
:01045f00029a
:01046000009b
:01046100009a
:010462000099
:010463000098
:010464000097
:010465000096
:010466000095
:010467000094
:010468000093
:010469000092
:01046a000091
:01046b00028e
:01046c00028d
:01046d00028c
:01046e00028b
:01046f00028a
:01047000008b
:01047100008a
:010472000089
:010473000088
:010474000087
:010475000086
:010476000085
:010477000084
:010478000083
:010479000082
:01047a000081
:01047b00027e
:01047c00027d
:01047d00027c
:01047e00027b
:01047f00027a
:01048000007b
:01048100007a
:010482000079
:010483000078
:010484000077
:010485000076
:010486000075
:010487000074
:010488000073
:010489000072
:01048a000071
:01048b00026e
:01048c00026d
:01048d00026c
:01048e00026b
:01048f00026a
:01049000006b
:01049100006a
:010492000069
:010493000068
:010494000067
:010495000066
:010496000065
:010497000064
:010498000063
:010499000062
:01049a000061
:01049b000060
:01049c00025d
:01049d00025c
:01049e00025b
:01049f00025a
:0104a000005b
:0104a100005a
:0104a2000059
:0104a3000058
:0104a4000057
:0104a5000056
:0104a6000055
:0104a7000054
:0104a8000053
:0104a9000052
:0104aa000051
:0104ab000050
:0104ac00024d
:0104ad00024c
:0104ae00024b
:0104af00024a
:0104b000004b
:0104b100004a
:0104b2000049
:0104b3000048
:0104b4000047
:0104b5000046
:0104b6000045
:0104b7000044
:0104b8000043
:0104b9000042
:0104ba000041
:0104bb000040
:0104bc00003f
:0104bd00023c
:0104be00023b
:0104bf00023a
:0104c000003b
:0104c100003a
:0104c2000039
:0104c3000038
:0104c4000037
:0104c5000036
:0104c6000035
:0104c7000034
:0104c8000033
:0104c9000032
:0104ca000031
:0104cb000030
:0104cc00002f
:0104cd00022c
:0104ce00022b
:0104cf00022a
:0104d000002b
:0104d100002a
:0104d2000029
:0104d3000028
:0104d4000027
:0104d5000026
:0104d6000025
:0104d7000024
:0104d8000023
:0104d9000022
:0104da000021
:0104db000020
:0104dc00001f
:0104dd00021c
:0104de00021b
:0104df00021a
:0104e000001b
:0104e100001a
:0104e2000019
:0104e3000018
:0104e4000017
:0104e5000016
:0104e6000015
:0104e7000014
:0104e8000013
:0104e9000012
:0104ea000011
:0104eb000010
:0104ec00000f
:0104ed00000e
:0104ee00020b
:0104ef00020a
:0104f000000b
:0104f100000a
:0104f2000009
:0104f3000008
:0104f4000007
:0104f5000006
:0104f6000005
:0104f7000004
:0104f8000003
:0104f9000002
:0104fa000001
:0104fb000000
:0104fc0000ff
:0104fd0000fe
:0104fe0002fb
:0104ff0002fa
:0105000000fa
:0105010000f9
:0105020000f8
:0105030000f7
:0105040000f6
:0105050000f5
:0105060000f4
:0105070000f3
:0105080000f2
:0105090000f1
:01050a0000f0
:01050b0000ef
:01050c0000ee
:01050d0000ed
:01050e0002ea
:01050f0002e9
:0105100000ea
:0105110000e9
:0105120000e8
:0105130000e7
:0105140000e6
:0105150000e5
:0105160000e4
:0105170000e3
:0105180000e2
:0105190000e1
:01051a0000e0
:01051b0000df
:01051c0000de
:01051d0000dd
:01051e0000dc
:01051f0002d9
:0105200000da
:0105210000d9
:0105220000d8
:0105230000d7
:0105240000d6
:0105250000d5
:0105260000d4
:0105270000d3
:0105280000d2
:0105290000d1
:01052a0000d0
:01052b0000cf
:01052c0000ce
:01052d0000cd
:01052e0000cc
:01052f0002c9
:0105300000ca
:0105310000c9
:0105320000c8
:0105330000c7
:0105340000c6
:0105350000c5
:0105360000c4
:0105370000c3
:0105380000c2
:0105390000c1
:01053a0000c0
:01053b0000bf
:01053c0000be
:01053d0000bd
:01053e0000bc
:01053f0000bb
:0105400000ba
:0105410000b9
:0105420000b8
:0105430000b7
:0105440000b6
:0105450000b5
:0105460000b4
:0105470000b3
:0105480000b2
:0105490000b1
:01054a0000b0
:01054b0000af
:01054c0000ae
:01054d0000ad
:01054e0000ac
:01054f0000ab
:0105500000aa
:0105510000a9
:0105520000a8
:0105530000a7
:0105540000a6
:0105550000a5
:0105560000a4
:0105570000a3
:0105580000a2
:0105590000a1
:01055a0000a0
:01055b00009f
:01055c00009e
:01055d00009d
:01055e00009c
:01055f00009b
:01056000009a
:010561000099
:010562000098
:010563000097
:010564000096
:010565000095
:010566000094
:010567000093
:010568000092
:010569000091
:01056a000090
:01056b00008f
:01056c00008e
:01056d00008d
:01056e00008c
:01056f00008b
:01057000008a
:010571000089
:010572000088
:010573000087
:010574000086
:010575000085
:010576000084
:010577000083
:010578000082
:010579000081
:01057a000080
:01057b00007f
:01057c00007e
:01057d00007d
:01057e00007c
:01057f00007b
:01058000007a
:010581000079
:010582000078
:010583000077
:010584000076
:010585000075
:010586000074
:010587000073
:010588000072
:010589000071
:01058a000070
:01058b00006f
:01058c00006e
:01058d00006d
:01058e00006c
:01058f00006b
:01059000006a
:010591000069
:010592000068
:010593000067
:010594000066
:010595000065
:010596000064
:010597000063
:010598000062
:010599000061
:01059a000060
:01059b00005f
:01059c00005e
:01059d00005d
:01059e00005c
:01059f00005b
:0105a000005a
:0105a1000059
:0105a2000058
:0105a3000057
:0105a4000056
:0105a5000055
:0105a6000054
:0105a7000053
:0105a8000052
:0105a9000051
:0105aa000050
:0105ab00004f
:0105ac00004e
:0105ad00004d
:0105ae00004c
:0105af00004b
:0105b000004a
:0105b1000049
:0105b2000048
:0105b3000047
:0105b4000046
:0105b5000045
:0105b6000044
:0105b7000043
:0105b8000042
:0105b9000041
:0105ba000040
:0105bb00003f
:0105bc00003e
:0105bd00003d
:0105be00003c
:0105bf00003b
:0105c000003a
:0105c1000039
:0105c2000038
:0105c3000037
:0105c4000036
:0105c5000035
:0105c6000034
:0105c7000033
:0105c8000032
:0105c9000031
:0105ca000030
:0105cb00002f
:0105cc00002e
:0105cd00002d
:0105ce00002c
:0105cf00002b
:0105d000002a
:0105d1000029
:0105d2000028
:0105d3000027
:0105d4000026
:0105d5000025
:0105d6000024
:0105d7000023
:0105d8000022
:0105d9000021
:0105da000020
:0105db00001f
:0105dc00001e
:0105dd00001d
:0105de00001c
:0105df00001b
:0105e000001a
:0105e1000019
:0105e2000018
:0105e3000017
:0105e4000016
:0105e5000015
:0105e6000014
:0105e7000013
:0105e8000012
:0105e9000011
:0105ea000010
:0105eb00000f
:0105ec00000e
:0105ed00000d
:0105ee00000c
:0105ef00000b
:0105f000000a
:0105f1000009
:0105f2000008
:0105f3000007
:0105f4000006
:0105f5000005
:0105f6000004
:0105f7000003
:0105f8000002
:0105f9000001
:0105fa000000
:0105fb0000ff
:0105fc0000fe
:0105fd0000fd
:0105fe0000fc
:0105ff0000fb
:0106000000f9
:0106010000f8
:0106020000f7
:0106030000f6
:0106040000f5
:0106050000f4
:0106060000f3
:0106070000f2
:0106080000f1
:0106090000f0
:01060a0000ef
:01060b0000ee
:01060c0000ed
:01060d0000ec
:01060e0000eb
:01060f0000ea
:0106100000e9
:0106110000e8
:0106120000e7
:0106130000e6
:0106140000e5
:0106150000e4
:0106160000e3
:0106170000e2
:0106180000e1
:0106190000e0
:01061a0000df
:01061b0000de
:01061c0000dd
:01061d0000dc
:01061e0000db
:01061f0000da
:0106200000d9
:0106210000d8
:0106220000d7
:0106230000d6
:0106240000d5
:0106250000d4
:0106260000d3
:0106270000d2
:0106280000d1
:0106290000d0
:01062a0000cf
:01062b0000ce
:01062c0000cd
:01062d0000cc
:01062e0000cb
:01062f0000ca
:0106300000c9
:0106310000c8
:0106320000c7
:0106330000c6
:0106340000c5
:0106350000c4
:0106360000c3
:0106370000c2
:0106380000c1
:0106390000c0
:01063a0000bf
:01063b0000be
:01063c0000bd
:01063d0000bc
:01063e0000bb
:01063f0000ba
:0106400000b9
:0106410000b8
:0106420000b7
:0106430000b6
:0106440000b5
:0106450000b4
:0106460000b3
:0106470000b2
:0106480000b1
:0106490000b0
:01064a0000af
:01064b0000ae
:01064c0000ad
:01064d0000ac
:01064e0000ab
:01064f0000aa
:0106500000a9
:0106510000a8
:0106520000a7
:0106530000a6
:0106540000a5
:0106550000a4
:0106560000a3
:0106570000a2
:0106580000a1
:0106590000a0
:01065a00009f
:01065b00009e
:01065c00009d
:01065d00009c
:01065e00009b
:01065f00009a
:010660000099
:010661000098
:010662000097
:010663000096
:010664000095
:010665000094
:010666000093
:010667000092
:010668000091
:010669000090
:01066a00008f
:01066b00008e
:01066c00008d
:01066d00008c
:01066e00008b
:01066f00008a
:010670000089
:010671000088
:010672000087
:010673000086
:010674000085
:010675000084
:010676000083
:010677000082
:010678000081
:010679000080
:01067a00007f
:01067b00007e
:01067c00007d
:01067d00007c
:01067e00007b
:01067f00007a
:010680000079
:010681000078
:010682000077
:010683000076
:010684000075
:010685000074
:010686000073
:010687000072
:010688000071
:010689000070
:01068a00006f
:01068b00006e
:01068c00006d
:01068d00006c
:01068e00006b
:01068f00006a
:010690000069
:010691000068
:010692000067
:010693000066
:010694000065
:010695000064
:010696000063
:010697000062
:010698000061
:010699000060
:01069a00005f
:01069b00005e
:01069c00005d
:01069d00005c
:01069e00005b
:01069f00005a
:0106a0000059
:0106a1000058
:0106a2000057
:0106a3000056
:0106a4000055
:0106a5000054
:0106a6000053
:0106a7000052
:0106a8000051
:0106a9000050
:0106aa00004f
:0106ab00004e
:0106ac00004d
:0106ad00004c
:0106ae00004b
:0106af00004a
:0106b0000049
:0106b1000048
:0106b2000047
:0106b3000046
:0106b4000045
:0106b5000044
:0106b6000043
:0106b7000042
:0106b8000041
:0106b9000040
:0106ba00003f
:0106bb00003e
:0106bc00003d
:0106bd00003c
:0106be00003b
:0106bf00003a
:0106c0000039
:0106c1000038
:0106c2000037
:0106c3000036
:0106c4000035
:0106c5000034
:0106c6000033
:0106c7000032
:0106c8000031
:0106c9000030
:0106ca00002f
:0106cb00002e
:0106cc00002d
:0106cd00002c
:0106ce00002b
:0106cf00002a
:0106d0000029
:0106d1000028
:0106d2000027
:0106d3000026
:0106d4000025
:0106d5000024
:0106d6000023
:0106d7000022
:0106d8000021
:0106d9000020
:0106da00001f
:0106db00001e
:0106dc00001d
:0106dd00001c
:0106de00001b
:0106df00001a
:0106e0000019
:0106e1000018
:0106e2000017
:0106e3000016
:0106e4000015
:0106e5000014
:0106e6000013
:0106e7000012
:0106e8000011
:0106e9000010
:0106ea00000f
:0106eb00000e
:0106ec00000d
:0106ed00000c
:0106ee00000b
:0106ef00000a
:0106f0000009
:0106f1000008
:0106f2000007
:0106f3000006
:0106f4000005
:0106f5000004
:0106f6000003
:0106f7000002
:0106f8000001
:0106f9000000
:0106fa0000ff
:0106fb0000fe
:0106fc0000fd
:0106fd0000fc
:0106fe0000fb
:0106ff0000fa
:0107000000f8
:0107010000f7
:0107020000f6
:0107030000f5
:0107040000f4
:0107050000f3
:0107060000f2
:0107070000f1
:0107080000f0
:0107090000ef
:01070a0000ee
:01070b0000ed
:01070c0000ec
:01070d0000eb
:01070e0000ea
:01070f0000e9
:0107100000e8
:0107110000e7
:0107120000e6
:0107130000e5
:0107140000e4
:0107150000e3
:0107160000e2
:0107170000e1
:0107180000e0
:0107190000df
:01071a0000de
:01071b0000dd
:01071c0000dc
:01071d0000db
:01071e0000da
:01071f0000d9
:0107200000d8
:0107210000d7
:0107220000d6
:0107230000d5
:0107240000d4
:0107250000d3
:0107260000d2
:0107270000d1
:0107280000d0
:0107290000cf
:01072a0000ce
:01072b0000cd
:01072c0000cc
:01072d0000cb
:01072e0000ca
:01072f0000c9
:0107300000c8
:0107310000c7
:0107320000c6
:0107330000c5
:0107340000c4
:0107350000c3
:0107360000c2
:0107370000c1
:0107380000c0
:0107390000bf
:01073a0000be
:01073b0000bd
:01073c0000bc
:01073d0000bb
:01073e0000ba
:01073f0000b9
:0107400000b8
:0107410000b7
:0107420000b6
:0107430000b5
:0107440000b4
:0107450000b3
:0107460000b2
:0107470000b1
:0107480000b0
:0107490000af
:01074a0000ae
:01074b0000ad
:01074c0000ac
:01074d0000ab
:01074e0000aa
:01074f0000a9
:0107500000a8
:0107510000a7
:0107520000a6
:0107530000a5
:0107540000a4
:0107550000a3
:0107560000a2
:0107570000a1
:0107580000a0
:01075900009f
:01075a00009e
:01075b00009d
:01075c00009c
:01075d00009b
:01075e00009a
:01075f000099
:010760000098
:010761000097
:010762000096
:010763000095
:010764000094
:010765000093
:010766000092
:010767000091
:010768000090
:01076900008f
:01076a00008e
:01076b00008d
:01076c00008c
:01076d00008b
:01076e00008a
:01076f000089
:010770000088
:010771000087
:010772000086
:010773000085
:010774000084
:010775000083
:010776000082
:010777000081
:010778000080
:01077900007f
:01077a00007e
:01077b00007d
:01077c00007c
:01077d00007b
:01077e00007a
:01077f000079
:010780000078
:010781000077
:010782000076
:010783000075
:010784000074
:010785000073
:010786000072
:010787000071
:010788000070
:01078900006f
:01078a00006e
:01078b00006d
:01078c00006c
:01078d00006b
:01078e00006a
:01078f000069
:010790000068
:010791000067
:010792000066
:010793000065
:010794000064
:010795000063
:010796000062
:010797000061
:010798000060
:01079900005f
:01079a00005e
:01079b00005d
:01079c00005c
:01079d00005b
:01079e00005a
:01079f000059
:0107a0000058
:0107a1000057
:0107a2000056
:0107a3000055
:0107a4000054
:0107a5000053
:0107a6000052
:0107a7000051
:0107a8000050
:0107a900004f
:0107aa00004e
:0107ab00004d
:0107ac00004c
:0107ad00004b
:0107ae00004a
:0107af000049
:0107b0000048
:0107b1000047
:0107b2000046
:0107b3000045
:0107b4000044
:0107b5000043
:0107b6000042
:0107b7000041
:0107b8000040
:0107b900003f
:0107ba00003e
:0107bb00003d
:0107bc00003c
:0107bd00003b
:0107be00003a
:0107bf000039
:0107c0000038
:0107c1000037
:0107c2000036
:0107c3000035
:0107c4000034
:0107c5000033
:0107c6000032
:0107c7000031
:0107c8000030
:0107c900002f
:0107ca00002e
:0107cb00002d
:0107cc00002c
:0107cd00002b
:0107ce00002a
:0107cf000029
:0107d0000028
:0107d1000027
:0107d2000026
:0107d3000025
:0107d4000024
:0107d5000023
:0107d6000022
:0107d7000021
:0107d8000020
:0107d900001f
:0107da00001e
:0107db00001d
:0107dc00001c
:0107dd00001b
:0107de00001a
:0107df000019
:0107e0000018
:0107e1000017
:0107e2000016
:0107e3000015
:0107e4000014
:0107e5000013
:0107e6000012
:0107e7000011
:0107e8000010
:0107e900000f
:0107ea00000e
:0107eb00000d
:0107ec00000c
:0107ed00000b
:0107ee00000a
:0107ef000009
:0107f0000008
:0107f1000007
:0107f2000006
:0107f3000005
:0107f4000004
:0107f5000003
:0107f6000002
:0107f7000001
:0107f8000000
:0107f90000ff
:0107fa0000fe
:0107fb0000fd
:0107fc0000fc
:0107fd0000fb
:0107fe0000fa
:0107ff0000f9
:0108000000f7
:0108010000f6
:0108020000f5
:0108030000f4
:0108040000f3
:0108050000f2
:0108060000f1
:0108070000f0
:0108080000ef
:0108090000ee
:01080a0000ed
:01080b0000ec
:01080c0000eb
:01080d0000ea
:01080e0000e9
:01080f0000e8
:0108100000e7
:0108110000e6
:0108120000e5
:0108130000e4
:0108140000e3
:0108150000e2
:0108160000e1
:0108170000e0
:0108180000df
:0108190000de
:01081a0000dd
:01081b0000dc
:01081c0000db
:01081d0000da
:01081e0000d9
:01081f0000d8
:0108200000d7
:0108210000d6
:0108220000d5
:0108230000d4
:0108240000d3
:0108250000d2
:0108260000d1
:0108270000d0
:0108280000cf
:0108290000ce
:01082a0000cd
:01082b0000cc
:01082c0000cb
:01082d0000ca
:01082e0000c9
:01082f0000c8
:0108300000c7
:0108310000c6
:0108320000c5
:0108330000c4
:0108340000c3
:0108350000c2
:0108360000c1
:0108370000c0
:0108380000bf
:0108390000be
:01083a0000bd
:01083b0000bc
:01083c0000bb
:01083d0000ba
:01083e0000b9
:01083f0000b8
:0108400000b7
:0108410000b6
:0108420000b5
:0108430000b4
:0108440000b3
:0108450000b2
:0108460000b1
:0108470000b0
:0108480000af
:0108490000ae
:01084a0000ad
:01084b0000ac
:01084c0000ab
:01084d0000aa
:01084e0000a9
:01084f0000a8
:0108500000a7
:0108510000a6
:0108520000a5
:0108530000a4
:0108540000a3
:0108550000a2
:0108560000a1
:0108570000a0
:01085800009f
:01085900009e
:01085a00009d
:01085b00009c
:01085c00009b
:01085d00009a
:01085e000099
:01085f000098
:010860000097
:010861000096
:010862000095
:010863000094
:010864000093
:010865000092
:010866000091
:010867000090
:01086800008f
:01086900008e
:01086a00008d
:01086b00008c
:01086c00008b
:01086d00008a
:01086e000089
:01086f000088
:010870000087
:010871000086
:010872000085
:010873000084
:010874000083
:010875000082
:010876000081
:010877000080
:01087800007f
:01087900007e
:01087a00007d
:01087b00007c
:01087c00007b
:01087d00007a
:01087e000079
:01087f000078
:010880000077
:010881000076
:010882000075
:010883000074
:010884000073
:010885000072
:010886000071
:010887000070
:01088800006f
:01088900006e
:01088a00006d
:01088b00006c
:01088c00006b
:01088d00006a
:01088e000069
:01088f000068
:010890000067
:010891000066
:010892000065
:010893000064
:010894000063
:010895000062
:010896000061
:010897000060
:01089800005f
:01089900005e
:01089a00005d
:01089b00005c
:01089c00005b
:01089d00005a
:01089e000059
:01089f000058
:0108a0000057
:0108a1000056
:0108a2000055
:0108a3000054
:0108a4000053
:0108a5000052
:0108a6000051
:0108a7000050
:0108a800004f
:0108a900004e
:0108aa00004d
:0108ab00004c
:0108ac00004b
:0108ad00004a
:0108ae000049
:0108af000048
:0108b0000047
:0108b1000046
:0108b2000045
:0108b3000044
:0108b4000043
:0108b5000042
:0108b6000041
:0108b7000040
:0108b800003f
:0108b900003e
:0108ba00003d
:0108bb00003c
:0108bc00003b
:0108bd00003a
:0108be000039
:0108bf000038
:0108c0000037
:0108c1000036
:0108c2000035
:0108c3000034
:0108c4000033
:0108c5000032
:0108c6000031
:0108c7000030
:0108c800002f
:0108c900002e
:0108ca00002d
:0108cb00002c
:0108cc00002b
:0108cd00002a
:0108ce000029
:0108cf000028
:0108d0000027
:0108d1000026
:0108d2000025
:0108d3000024
:0108d4000023
:0108d5000022
:0108d6000021
:0108d7000020
:0108d800001f
:0108d900001e
:0108da00001d
:0108db00001c
:0108dc00001b
:0108dd00001a
:0108de000019
:0108df000018
:0108e0000017
:0108e1000016
:0108e2000015
:0108e3000014
:0108e4000013
:0108e5000012
:0108e6000011
:0108e7000010
:0108e800000f
:0108e900000e
:0108ea00000d
:0108eb00000c
:0108ec00000b
:0108ed00000a
:0108ee000009
:0108ef000008
:0108f0000007
:0108f1000006
:0108f2000005
:0108f3000004
:0108f4000003
:0108f5000002
:0108f6000001
:0108f7000000
:0108f80000ff
:0108f90000fe
:0108fa0000fd
:0108fb0000fc
:0108fc0000fb
:0108fd0000fa
:0108fe0000f9
:0108ff0000f8
:0109000000f6
:0109010000f5
:0109020000f4
:0109030000f3
:0109040000f2
:0109050000f1
:0109060000f0
:0109070000ef
:0109080000ee
:0109090000ed
:01090a0000ec
:01090b0000eb
:01090c0000ea
:01090d0000e9
:01090e0000e8
:01090f0000e7
:0109100000e6
:0109110000e5
:0109120000e4
:0109130000e3
:0109140000e2
:0109150000e1
:0109160000e0
:0109170000df
:0109180000de
:0109190000dd
:01091a0000dc
:01091b0000db
:01091c0000da
:01091d0000d9
:01091e0000d8
:01091f0000d7
:0109200000d6
:0109210000d5
:0109220000d4
:0109230000d3
:0109240000d2
:0109250000d1
:0109260000d0
:0109270000cf
:0109280000ce
:0109290000cd
:01092a0000cc
:01092b0000cb
:01092c0000ca
:01092d0000c9
:01092e0000c8
:01092f0000c7
:0109300000c6
:0109310000c5
:0109320000c4
:0109330000c3
:0109340000c2
:0109350000c1
:0109360000c0
:0109370000bf
:0109380000be
:0109390000bd
:01093a0000bc
:01093b0000bb
:01093c0000ba
:01093d0000b9
:01093e0000b8
:01093f0000b7
:0109400000b6
:0109410000b5
:0109420000b4
:0109430000b3
:0109440000b2
:0109450000b1
:0109460000b0
:0109470000af
:0109480000ae
:0109490000ad
:01094a0000ac
:01094b0000ab
:01094c0000aa
:01094d0000a9
:01094e0000a8
:01094f0000a7
:0109500000a6
:0109510000a5
:0109520000a4
:0109530000a3
:0109540000a2
:0109550000a1
:0109560000a0
:01095700009f
:01095800009e
:01095900009d
:01095a00009c
:01095b00009b
:01095c00009a
:01095d000099
:01095e000098
:01095f000097
:010960000096
:010961000095
:010962000094
:010963000093
:010964000092
:010965000091
:010966000090
:01096700008f
:01096800008e
:01096900008d
:01096a00008c
:01096b00008b
:01096c00008a
:01096d000089
:01096e000088
:01096f000087
:010970000086
:010971000085
:010972000084
:010973000083
:010974000082
:010975000081
:010976000080
:01097700007f
:01097800007e
:01097900007d
:01097a00007c
:01097b00007b
:01097c00007a
:01097d000079
:01097e000078
:01097f000077
:010980000076
:010981000075
:010982000074
:010983000073
:010984000072
:010985000071
:010986000070
:01098700006f
:01098800006e
:01098900006d
:01098a00006c
:01098b00006b
:01098c00006a
:01098d000069
:01098e000068
:01098f000067
:010990000066
:010991000065
:010992000064
:010993000063
:010994000062
:010995000061
:010996000060
:01099700005f
:01099800005e
:01099900005d
:01099a00005c
:01099b00005b
:01099c00005a
:01099d000059
:01099e000058
:01099f000057
:0109a0000056
:0109a1000055
:0109a2000054
:0109a3000053
:0109a4000052
:0109a5000051
:0109a6000050
:0109a700004f
:0109a800004e
:0109a900004d
:0109aa00004c
:0109ab00004b
:0109ac00004a
:0109ad000049
:0109ae000048
:0109af000047
:0109b0000046
:0109b1000045
:0109b2000044
:0109b3000043
:0109b4000042
:0109b5000041
:0109b6000040
:0109b700003f
:0109b800003e
:0109b900003d
:0109ba00003c
:0109bb00003b
:0109bc00003a
:0109bd000039
:0109be000038
:0109bf000037
:0109c0000036
:0109c1000035
:0109c2000034
:0109c3000033
:0109c4000032
:0109c5000031
:0109c6000030
:0109c700002f
:0109c800002e
:0109c900002d
:0109ca00002c
:0109cb00002b
:0109cc00002a
:0109cd000029
:0109ce000028
:0109cf000027
:0109d0000026
:0109d1000025
:0109d2000024
:0109d3000023
:0109d4000022
:0109d5000021
:0109d6000020
:0109d700001f
:0109d800001e
:0109d900001d
:0109da00001c
:0109db00001b
:0109dc00001a
:0109dd000019
:0109de000018
:0109df000017
:0109e0000016
:0109e1000015
:0109e2000014
:0109e3000013
:0109e4000012
:0109e5000011
:0109e6000010
:0109e700000f
:0109e800000e
:0109e900000d
:0109ea00000c
:0109eb00000b
:0109ec00000a
:0109ed000009
:0109ee000008
:0109ef000007
:0109f0000006
:0109f1000005
:0109f2000004
:0109f3000003
:0109f4000002
:0109f5000001
:0109f6000000
:0109f70000ff
:0109f80000fe
:0109f90000fd
:0109fa0000fc
:0109fb0000fb
:0109fc0000fa
:0109fd0000f9
:0109fe0000f8
:0109ff0000f7
:010a000000f5
:010a010000f4
:010a020000f3
:010a030000f2
:010a040000f1
:010a050000f0
:010a060000ef
:010a070000ee
:010a080000ed
:010a090000ec
:010a0a0000eb
:010a0b0000ea
:010a0c0000e9
:010a0d0000e8
:010a0e0000e7
:010a0f0000e6
:010a100000e5
:010a110000e4
:010a120000e3
:010a130000e2
:010a140000e1
:010a150000e0
:010a160000df
:010a170000de
:010a180000dd
:010a190000dc
:010a1a0000db
:010a1b0000da
:010a1c0000d9
:010a1d0000d8
:010a1e0000d7
:010a1f0000d6
:010a200000d5
:010a210000d4
:010a220000d3
:010a230000d2
:010a240000d1
:010a250000d0
:010a260000cf
:010a270000ce
:010a280000cd
:010a290000cc
:010a2a0000cb
:010a2b0000ca
:010a2c0000c9
:010a2d0000c8
:010a2e0000c7
:010a2f0000c6
:010a300000c5
:010a310000c4
:010a320000c3
:010a330000c2
:010a340000c1
:010a350000c0
:010a360000bf
:010a370000be
:010a380000bd
:010a390000bc
:010a3a0000bb
:010a3b0000ba
:010a3c0000b9
:010a3d0000b8
:010a3e0000b7
:010a3f0000b6
:010a400000b5
:010a410000b4
:010a420000b3
:010a430000b2
:010a440000b1
:010a450000b0
:010a460000af
:010a470000ae
:010a480000ad
:010a490000ac
:010a4a0000ab
:010a4b0000aa
:010a4c0000a9
:010a4d0000a8
:010a4e0000a7
:010a4f0000a6
:010a500000a5
:010a510000a4
:010a520000a3
:010a530000a2
:010a540000a1
:010a550000a0
:010a5600009f
:010a5700009e
:010a5800009d
:010a5900009c
:010a5a00009b
:010a5b00009a
:010a5c000099
:010a5d000098
:010a5e000097
:010a5f000096
:010a60000095
:010a61000094
:010a62000093
:010a63000092
:010a64000091
:010a65000090
:010a6600008f
:010a6700008e
:010a6800008d
:010a6900008c
:010a6a00008b
:010a6b00008a
:010a6c000089
:010a6d000088
:010a6e000087
:010a6f000086
:010a70000085
:010a71000084
:010a72000083
:010a73000082
:010a74000081
:010a75000080
:010a7600007f
:010a7700007e
:010a7800007d
:010a7900007c
:010a7a00007b
:010a7b00007a
:010a7c000079
:010a7d000078
:010a7e000077
:010a7f000076
:010a80000075
:010a81000074
:010a82000073
:010a83000072
:010a84000071
:010a85000070
:010a8600006f
:010a8700006e
:010a8800006d
:010a8900006c
:010a8a00006b
:010a8b00006a
:010a8c000069
:010a8d000068
:010a8e000067
:010a8f000066
:010a90000065
:010a91000064
:010a92000063
:010a93000062
:010a94000061
:010a95000060
:010a9600005f
:010a9700005e
:010a9800005d
:010a9900005c
:010a9a00005b
:010a9b00005a
:010a9c000059
:010a9d000058
:010a9e000057
:010a9f000056
:010aa0000055
:010aa1000054
:010aa2000053
:010aa3000052
:010aa4000051
:010aa5000050
:010aa600004f
:010aa700004e
:010aa800004d
:010aa900004c
:010aaa00004b
:010aab00004a
:010aac000049
:010aad000048
:010aae000047
:010aaf000046
:010ab0000045
:010ab1000044
:010ab2000043
:010ab3000042
:010ab4000041
:010ab5000040
:010ab600003f
:010ab700003e
:010ab800003d
:010ab900003c
:010aba00003b
:010abb00003a
:010abc000039
:010abd000038
:010abe000037
:010abf000036
:010ac0000035
:010ac1000034
:010ac2000033
:010ac3000032
:010ac4000031
:010ac5000030
:010ac600002f
:010ac700002e
:010ac800002d
:010ac900002c
:010aca00002b
:010acb00002a
:010acc000029
:010acd000028
:010ace000027
:010acf000026
:010ad0000025
:010ad1000024
:010ad2000023
:010ad3000022
:010ad4000021
:010ad5000020
:010ad600001f
:010ad700001e
:010ad800001d
:010ad900001c
:010ada00001b
:010adb00001a
:010adc000019
:010add000018
:010ade000017
:010adf000016
:010ae0000015
:010ae1000014
:010ae2000013
:010ae3000012
:010ae4000011
:010ae5000010
:010ae600000f
:010ae700000e
:010ae800000d
:010ae900000c
:010aea00000b
:010aeb00000a
:010aec000009
:010aed000008
:010aee000007
:010aef000600
:010af0000005
:010af1000004
:010af2000003
:010af3000002
:010af4000001
:010af5000000
:010af60000ff
:010af70000fe
:010af80000fd
:010af90000fc
:010afa0000fb
:010afb0000fa
:010afc0000f9
:010afd0000f8
:010afe0000f7
:010aff0006f0
:010b000000f4
:010b010000f3
:010b020000f2
:010b030000f1
:010b040000f0
:010b050000ef
:010b060000ee
:010b070000ed
:010b080000ec
:010b090000eb
:010b0a0000ea
:010b0b0000e9
:010b0c0000e8
:010b0d0000e7
:010b0e0006e0
:010b0f0006df
:010b100000e4
:010b110000e3
:010b120000e2
:010b130000e1
:010b140000e0
:010b150000df
:010b160000de
:010b170000dd
:010b180000dc
:010b190000db
:010b1a0000da
:010b1b0000d9
:010b1c0000d8
:010b1d0000d7
:010b1e0006d0
:010b1f0006cf
:010b200000d4
:010b210000d3
:010b220000d2
:010b230000d1
:010b240000d0
:010b250000cf
:010b260000ce
:010b270000cd
:010b280000cc
:010b290000cb
:010b2a0000ca
:010b2b0000c9
:010b2c0000c8
:010b2d0000c7
:010b2e0006c0
:010b2f0006bf
:010b300000c4
:010b310000c3
:010b320000c2
:010b330000c1
:010b340000c0
:010b350000bf
:010b360000be
:010b370000bd
:010b380000bc
:010b390000bb
:010b3a0000ba
:010b3b0000b9
:010b3c0000b8
:010b3d0006b1
:010b3e0006b0
:010b3f0006af
:010b400000b4
:010b410000b3
:010b420000b2
:010b430000b1
:010b440000b0
:010b450000af
:010b460000ae
:010b470000ad
:010b480000ac
:010b490000ab
:010b4a0000aa
:010b4b0000a9
:010b4c0000a8
:010b4d0006a1
:010b4e0006a0
:010b4f00069f
:010b500000a4
:010b510000a3
:010b520000a2
:010b530000a1
:010b540000a0
:010b5500009f
:010b5600009e
:010b5700009d
:010b5800009c
:010b5900009b
:010b5a00009a
:010b5b000099
:010b5c000098
:010b5d000691
:010b5e000690
:010b5f00068f
:010b60000094
:010b61000093
:010b62000092
:010b63000091
:010b64000090
:010b6500008f
:010b6600008e
:010b6700008d
:010b6800008c
:010b6900008b
:010b6a00008a
:010b6b000089
:010b6c000682
:010b6d000681
:010b6e000680
:010b6f00067f
:010b70000084
:010b71000083
:010b72000082
:010b73000081
:010b74000080
:010b7500007f
:010b7600007e
:010b7700007d
:010b7800007c
:010b7900007b
:010b7a00007a
:010b7b000079
:010b7c000672
:010b7d000671
:010b7e000670
:010b7f00066f
:010b80000074
:010b81000073
:010b82000072
:010b83000071
:010b84000070
:010b8500006f
:010b8600006e
:010b8700006d
:010b8800006c
:010b8900006b
:010b8a00006a
:010b8b000663
:010b8c000662
:010b8d000661
:010b8e000660
:010b8f00065f
:010b90000064
:010b91000063
:010b92000062
:010b93000061
:010b94000060
:010b9500005f
:010b9600005e
:010b9700005d
:010b9800005c
:010b9900005b
:010b9a00005a
:010b9b000653
:010b9c000652
:010b9d000651
:010b9e000650
:010b9f00064f
:010ba0000054
:010ba1000053
:010ba2000052
:010ba3000051
:010ba4000050
:010ba500004f
:010ba600004e
:010ba700004d
:010ba800004c
:010ba900004b
:010baa00004a
:010bab000643
:010bac000642
:010bad000641
:010bae000640
:010baf00063f
:010bb0000044
:010bb1000043
:010bb2000042
:010bb3000041
:010bb4000040
:010bb500003f
:010bb600003e
:010bb700003d
:010bb800003c
:010bb900003b
:010bba000634
:010bbb000633
:010bbc000632
:010bbd000631
:010bbe000630
:010bbf00062f
:010bc0000034
:010bc1000033
:010bc2000032
:010bc3000031
:010bc4000030
:010bc500002f
:010bc600002e
:010bc700002d
:010bc800002c
:010bc900002b
:010bca000624
:010bcb000623
:010bcc000622
:010bcd000621
:010bce000620
:010bcf00061f
:010bd0000024
:010bd1000023
:010bd2000022
:010bd3000021
:010bd4000020
:010bd500001f
:010bd600001e
:010bd700001d
:010bd800001c
:010bd900001b
:010bda000614
:010bdb000613
:010bdc000612
:010bdd000611
:010bde000610
:010bdf00060f
:010be0000014
:010be1000013
:010be2000012
:010be3000011
:010be4000010
:010be500000f
:010be600000e
:010be700000d
:010be800000c
:010be9000605
:010bea000604
:010beb000603
:010bec000602
:010bed000601
:010bee000600
:010bef0006ff
:010bf0000004
:010bf1000003
:010bf2000002
:010bf3000001
:010bf4000000
:010bf50000ff
:010bf60000fe
:010bf70000fd
:010bf80000fc
:010bf90006f5
:010bfa0006f4
:010bfb0006f3
:010bfc0006f2
:010bfd0006f1
:010bfe0006f0
:010bff0006ef
:010c000000f3
:010c010000f2
:010c020000f1
:010c030000f0
:010c040000ef
:010c050000ee
:010c060000ed
:010c070000ec
:010c080006e5
:010c090006e4
:010c0a0006e3
:010c0b0006e2
:010c0c0006e1
:010c0d0006e0
:010c0e0006df
:010c0f0006de
:010c100000e3
:010c110000e2
:010c120000e1
:010c130000e0
:010c140000df
:010c150000de
:010c160000dd
:010c170000dc
:010c180006d5
:010c190006d4
:010c1a0006d3
:010c1b0006d2
:010c1c0006d1
:010c1d0006d0
:010c1e0006cf
:010c1f0006ce
:010c200000d3
:010c210000d2
:010c220000d1
:010c230000d0
:010c240000cf
:010c250000ce
:010c260000cd
:010c270000cc
:010c280006c5
:010c290006c4
:010c2a0006c3
:010c2b0006c2
:010c2c0006c1
:010c2d0006c0
:010c2e0006bf
:010c2f0006be
:010c300000c3
:010c310000c2
:010c320000c1
:010c330000c0
:010c340000bf
:010c350000be
:010c360000bd
:010c370006b6
:010c380006b5
:010c390006b4
:010c3a0006b3
:010c3b0006b2
:010c3c0006b1
:010c3d0006b0
:010c3e0006af
:010c3f0006ae
:010c400000b3
:010c410000b2
:010c420000b1
:010c430000b0
:010c440000af
:010c450000ae
:010c460000ad
:010c470006a6
:010c480006a5
:010c490006a4
:010c4a0006a3
:010c4b0006a2
:010c4c0006a1
:010c4d0006a0
:010c4e00069f
:010c4f00069e
:010c500000a3
:010c510000a2
:010c520000a1
:010c530000a0
:010c5400009f
:010c5500009e
:010c5600009d
:010c57000696
:010c58000695
:010c59000694
:010c5a000693
:010c5b000692
:010c5c000691
:010c5d000690
:010c5e00068f
:010c5f00068e
:010c60000093
:010c61000092
:010c62000091
:010c63000090
:010c6400008f
:010c6500008e
:010c66000687
:010c67000686
:010c68000685
:010c69000684
:010c6a000683
:010c6b000682
:010c6c000681
:010c6d000680
:010c6e00067f
:010c6f00067e
:010c70000083
:010c71000082
:010c72000081
:010c73000080
:010c7400007f
:010c7500007e
:010c76000677
:010c77000676
:010c78000675
:010c79000674
:010c7a000673
:010c7b000672
:010c7c000671
:010c7d000670
:010c7e00066f
:010c7f00066e
:010c80000073
:010c81000072
:010c82000071
:010c83000070
:010c8400006f
:010c85000668
:010c86000667
:010c87000666
:010c88000665
:010c89000664
:010c8a000663
:010c8b000662
:010c8c000661
:010c8d000660
:010c8e00065f
:010c8f00065e
:010c90000063
:010c91000062
:010c92000061
:010c93000060
:010c9400005f
:010c95000658
:010c96000657
:010c97000656
:010c98000655
:010c99000654
:010c9a000653
:010c9b000652
:010c9c000651
:010c9d000650
:010c9e00064f
:010c9f00064e
:010ca0000053
:010ca1000052
:010ca2000051
:010ca3000050
:010ca400004f
:010ca5000648
:010ca6000647
:010ca7000646
:010ca8000645
:010ca9000644
:010caa000643
:010cab000642
:010cac000641
:010cad000640
:010cae00063f
:010caf00063e
:010cb0000043
:010cb1000042
:010cb2000041
:010cb3000040
:010cb4000639
:010cb5000638
:010cb6000637
:010cb7000636
:010cb8000635
:010cb9000634
:010cba000633
:010cbb000632
:010cbc000631
:010cbd000630
:010cbe00062f
:010cbf00062e
:010cc0000033
:010cc1000032
:010cc2000031
:010cc3000030
:010cc4000629
:010cc5000628
:010cc6000627
:010cc7000626
:010cc8000625
:010cc9000624
:010cca000623
:010ccb000622
:010ccc000621
:010ccd000620
:010cce00061f
:010ccf00061e
:010cd0000023
:010cd1000022
:010cd2000021
:010cd3000020
:010cd4000619
:010cd5000618
:010cd6000617
:010cd7000616
:010cd8000615
:010cd9000614
:010cda000613
:010cdb000612
:010cdc000611
:010cdd000610
:010cde00060f
:010cdf00060e
:010ce0000013
:010ce1000012
:010ce2000011
:010ce300060a
:010ce4000609
:010ce5000608
:010ce6000607
:010ce7000606
:010ce8000605
:010ce9000604
:010cea000603
:010ceb000602
:010cec000601
:010ced000600
:010cee0006ff
:010cef0006fe
:010cf0000003
:010cf1000002
:010cf2000001
:010cf30006fa
:010cf40006f9
:010cf50006f8
:010cf60006f7
:010cf70006f6
:010cf80006f5
:010cf90006f4
:010cfa0006f3
:010cfb0006f2
:010cfc0006f1
:010cfd0006f0
:010cfe0006ef
:010cff0006ee
:010d000000f2
:010d010000f1
:010d020006ea
:010d030006e9
:010d040006e8
:010d050006e7
:010d060006e6
:010d070006e5
:010d080006e4
:010d090006e3
:010d0a0006e2
:010d0b0006e1
:010d0c0006e0
:010d0d0006df
:010d0e0006de
:010d0f0006dd
:010d100000e2
:010d110000e1
:010d120006da
:010d130006d9
:010d140006d8
:010d150006d7
:010d160006d6
:010d170006d5
:010d180006d4
:010d190006d3
:010d1a0006d2
:010d1b0006d1
:010d1c0006d0
:010d1d0006cf
:010d1e0006ce
:010d1f0006cd
:010d200000d2
:010d210000d1
:010d220006ca
:010d230006c9
:010d240006c8
:010d250006c7
:010d260006c6
:010d270006c5
:010d280006c4
:010d290006c3
:010d2a0006c2
:010d2b0006c1
:010d2c0006c0
:010d2d0006bf
:010d2e0006be
:010d2f0005be
:010d300000c2
:010d310006bb
:010d320006ba
:010d330006b9
:010d340006b8
:010d350006b7
:010d360006b6
:010d370006b5
:010d380006b4
:010d390006b3
:010d3a0006b2
:010d3b0006b1
:010d3c0006b0
:010d3d0006af
:010d3e0005af
:010d3f0005ae
:010d400000b2
:010d410006ab
:010d420006aa
:010d430006a9
:010d440006a8
:010d450006a7
:010d460006a6
:010d470006a5
:010d480006a4
:010d490006a3
:010d4a0006a2
:010d4b0006a1
:010d4c0006a0
:010d4d00069f
:010d4e00059f
:010d4f00059e
:010d500000a2
:010d5100069b
:010d5200069a
:010d53000699
:010d54000698
:010d55000697
:010d56000696
:010d57000695
:010d58000694
:010d59000693
:010d5a000692
:010d5b000691
:010d5c000690
:010d5d000590
:010d5e00058f
:010d5f00058e
:010d6000068c
:010d6100068b
:010d6200068a
:010d63000689
:010d64000688
:010d65000687
:010d66000686
:010d67000685
:010d68000684
:010d69000683
:010d6a000682
:010d6b000681
:010d6c000581
:010d6d000580
:010d6e00057f
:010d6f00057e
:010d7000067c
:010d7100067b
:010d7200067a
:010d73000679
:010d74000678
:010d75000677
:010d76000676
:010d77000675
:010d78000674
:010d79000673
:010d7a000672
:010d7b000671
:010d7c000571
:010d7d000570
:010d7e00056f
:010d7f00056e
:010d8000066c
:010d8100066b
:010d8200066a
:010d83000669
:010d84000668
:010d85000667
:010d86000666
:010d87000665
:010d88000664
:010d89000663
:010d8a000662
:010d8b000562
:010d8c000561
:010d8d000560
:010d8e00055f
:010d8f00055e
:010d9000065c
:010d9100065b
:010d9200065a
:010d93000659
:010d94000658
:010d95000657
:010d96000656
:010d97000655
:010d98000654
:010d99000653
:010d9a000553
:010d9b000552
:010d9c000551
:010d9d000550
:010d9e00054f
:010d9f00054e
:010da000064c
:010da100064b
:010da200064a
:010da3000649
:010da4000648
:010da5000647
:010da6000646
:010da7000645
:010da8000644
:010da9000643
:010daa000543
:010dab000542
:010dac000541
:010dad000540
:010dae00053f
:010daf00053e
:010db000063c
:010db100063b
:010db200063a
:010db3000639
:010db4000638
:010db5000637
:010db6000636
:010db7000635
:010db8000634
:010db9000534
:010dba000533
:010dbb000532
:010dbc000531
:010dbd000530
:010dbe00052f
:010dbf00052e
:010dc000062c
:010dc100062b
:010dc200062a
:010dc3000629
:010dc4000628
:010dc5000627
:010dc6000626
:010dc7000625
:010dc8000525
:010dc9000524
:010dca000523
:010dcb000522
:010dcc000521
:010dcd000520
:010dce00051f
:010dcf00051e
:010dd000061c
:010dd100061b
:010dd200061a
:010dd3000619
:010dd4000618
:010dd5000617
:010dd6000616
:010dd7000615
:010dd8000515
:010dd9000514
:010dda000513
:010ddb000512
:010ddc000511
:010ddd000510
:010dde00050f
:010ddf00050e
:010de000060c
:010de100060b
:010de200060a
:010de3000609
:010de4000608
:010de5000607
:010de6000606
:010de7000506
:010de8000505
:010de9000504
:010dea000503
:010deb000502
:010dec000501
:010ded000500
:010dee0005ff
:010def0005fe
:010df00006fc
:010df10006fb
:010df20006fa
:010df30006f9
:010df40006f8
:010df50006f7
:010df60005f7
:010df70005f6
:010df80005f5
:010df90005f4
:010dfa0005f3
:010dfb0005f2
:010dfc0005f1
:010dfd0005f0
:010dfe0005ef
:010dff0005ee
:010e000006eb
:010e010006ea
:010e020006e9
:010e030006e8
:010e040006e7
:010e050006e6
:010e060005e6
:010e070005e5
:010e080005e4
:010e090005e3
:010e0a0005e2
:010e0b0005e1
:010e0c0005e0
:010e0d0005df
:010e0e0005de
:010e0f0005dd
:010e100006db
:010e110006da
:010e120006d9
:010e130006d8
:010e140006d7
:010e150005d7
:010e160005d6
:010e170005d5
:010e180005d4
:010e190005d3
:010e1a0005d2
:010e1b0005d1
:010e1c0005d0
:010e1d0005cf
:010e1e0005ce
:010e1f0005cd
:010e200006cb
:010e210006ca
:010e220006c9
:010e230006c8
:010e240005c8
:010e250005c7
:010e260005c6
:010e270005c5
:010e280005c4
:010e290005c3
:010e2a0005c2
:010e2b0005c1
:010e2c0005c0
:010e2d0005bf
:010e2e0005be
:010e2f0005bd
:010e300006bb
:010e310006ba
:010e320006b9
:010e330006b8
:010e340005b8
:010e350005b7
:010e360005b6
:010e370005b5
:010e380005b4
:010e390005b3
:010e3a0005b2
:010e3b0005b1
:010e3c0005b0
:010e3d0005af
:010e3e0005ae
:010e3f0005ad
:010e400006ab
:010e410006aa
:010e420006a9
:010e430005a9
:010e440005a8
:010e450005a7
:010e460005a6
:010e470005a5
:010e480005a4
:010e490005a3
:010e4a0005a2
:010e4b0005a1
:010e4c0005a0
:010e4d00059f
:010e4e00059e
:010e4f00059d
:010e5000069b
:010e5100069a
:010e5200059a
:010e53000599
:010e54000598
:010e55000597
:010e56000596
:010e57000595
:010e58000594
:010e59000593
:010e5a000592
:010e5b000591
:010e5c000590
:010e5d00058f
:010e5e00058e
:010e5f00058d
:010e6000068b
:010e6100068a
:010e6200058a
:010e63000589
:010e64000588
:010e65000587
:010e66000586
:010e67000585
:010e68000584
:010e69000583
:010e6a000582
:010e6b000581
:010e6c000580
:010e6d00057f
:010e6e00057e
:010e6f00057d
:010e7000067b
:010e7100057b
:010e7200057a
:010e73000579
:010e74000578
:010e75000577
:010e76000576
:010e77000575
:010e78000574
:010e79000573
:010e7a000572
:010e7b000571
:010e7c000570
:010e7d00056f
:010e7e00056e
:010e7f00056d
:010e8000056c
:010e8100056b
:010e8200056a
:010e83000569
:010e84000568
:010e85000567
:010e86000566
:010e87000565
:010e88000564
:010e89000563
:010e8a000562
:010e8b000561
:010e8c000560
:010e8d00055f
:010e8e00055e
:010e8f00055d
:010e9000055c
:010e9100055b
:010e9200055a
:010e93000559
:010e94000558
:010e95000557
:010e96000556
:010e97000555
:010e98000554
:010e99000553
:010e9a000552
:010e9b000551
:010e9c000550
:010e9d00054f
:010e9e00054e
:010e9f00054d
:010ea000054c
:010ea100054b
:010ea200054a
:010ea3000549
:010ea4000548
:010ea5000547
:010ea6000546
:010ea7000545
:010ea8000544
:010ea9000543
:010eaa000542
:010eab000541
:010eac000540
:010ead00053f
:010eae00053e
:010eaf00053d
:010eb000053c
:010eb100053b
:010eb200053a
:010eb3000539
:010eb4000538
:010eb5000537
:010eb6000536
:010eb7000535
:010eb8000534
:010eb9000533
:010eba000532
:010ebb000531
:010ebc000530
:010ebd00052f
:010ebe00052e
:010ebf00052d
:010ec000052c
:010ec100052b
:010ec200052a
:010ec3000529
:010ec4000528
:010ec5000527
:010ec6000526
:010ec7000525
:010ec8000524
:010ec9000523
:010eca000522
:010ecb000521
:010ecc000520
:010ecd00051f
:010ece00051e
:010ecf00051d
:010ed000051c
:010ed100051b
:010ed200051a
:010ed3000519
:010ed4000518
:010ed5000517
:010ed6000516
:010ed7000515
:010ed8000514
:010ed9000513
:010eda000512
:010edb000511
:010edc000510
:010edd00050f
:010ede00050e
:010edf00050d
:010ee000050c
:010ee100050b
:010ee200050a
:010ee3000509
:010ee4000508
:010ee5000507
:010ee6000506
:010ee7000505
:010ee8000504
:010ee9000503
:010eea000502
:010eeb000501
:010eec000500
:010eed0005ff
:010eee0005fe
:010eef0005fd
:010ef00005fc
:010ef10005fb
:010ef20005fa
:010ef30005f9
:010ef40005f8
:010ef50005f7
:010ef60005f6
:010ef70005f5
:010ef80005f4
:010ef90005f3
:010efa0005f2
:010efb0005f1
:010efc0005f0
:010efd0005ef
:010efe0005ee
:010eff0005ed
:010f000005eb
:010f010005ea
:010f020005e9
:010f030005e8
:010f040005e7
:010f050005e6
:010f060005e5
:010f070005e4
:010f080005e3
:010f090005e2
:010f0a0005e1
:010f0b0005e0
:010f0c0005df
:010f0d0005de
:010f0e0005dd
:010f0f0005dc
:010f100005db
:010f110005da
:010f120005d9
:010f130005d8
:010f140005d7
:010f150005d6
:010f160005d5
:010f170005d4
:010f180005d3
:010f190005d2
:010f1a0005d1
:010f1b0005d0
:010f1c0005cf
:010f1d0005ce
:010f1e0000d2
:010f1f0000d1
:010f200005cb
:010f210005ca
:010f220005c9
:010f230005c8
:010f240005c7
:010f250005c6
:010f260005c5
:010f270005c4
:010f280005c3
:010f290005c2
:010f2a0005c1
:010f2b0005c0
:010f2c0000c4
:010f2d0000c3
:010f2e0000c2
:010f2f0000c1
:010f300005bb
:010f310005ba
:010f320005b9
:010f330005b8
:010f340005b7
:010f350005b6
:010f360005b5
:010f370005b4
:010f380005b3
:010f390005b2
:010f3a0000b6
:010f3b0000b5
:010f3c0000b4
:010f3d0000b3
:010f3e0000b2
:010f3f0000b1
:010f400005ab
:010f410005aa
:010f420005a9
:010f430005a8
:010f440005a7
:010f450005a6
:010f460005a5
:010f470005a4
:010f480000a8
:010f490000a7
:010f4a0000a6
:010f4b0000a5
:010f4c0000a4
:010f4d0000a3
:010f4e0000a2
:010f4f0000a1
:010f5000059b
:010f5100059a
:010f52000599
:010f53000598
:010f54000597
:010f55000596
:010f5600009a
:010f57000099
:010f58000098
:010f59000097
:010f5a000096
:010f5b000095
:010f5c000094
:010f5d000093
:010f5e000092
:010f5f000091
:010f6000058b
:010f6100058a
:010f62000589
:010f63000588
:010f6400008c
:010f6500008b
:010f6600008a
:010f67000089
:010f68000088
:010f69000087
:010f6a000086
:010f6b000085
:010f6c000084
:010f6d000083
:010f6e000082
:010f6f000081
:010f7000057b
:010f7100057a
:010f7200007e
:010f7300007d
:010f7400007c
:010f7500007b
:010f7600007a
:010f77000079
:010f78000078
:010f79000077
:010f7a000076
:010f7b000075
:010f7c000074
:010f7d000073
:010f7e000072
:010f7f000071
:010f80000070
:010f8100006f
:010f8200006e
:010f8300006d
:010f8400006c
:010f8500006b
:010f8600006a
:010f87000069
:010f88000068
:010f89000067
:010f8a000066
:010f8b000065
:010f8c000064
:010f8d000063
:010f8e000062
:010f8f000061
:010f90000060
:010f9100005f
:010f9200005e
:010f9300005d
:010f9400005c
:010f9500005b
:010f9600005a
:010f97000059
:010f98000058
:010f99000057
:010f9a000056
:010f9b000055
:010f9c000054
:010f9d000053
:010f9e000052
:010f9f000051
:010fa0000050
:010fa100004f
:010fa200004e
:010fa300004d
:010fa400004c
:010fa500004b
:010fa600004a
:010fa7000049
:010fa8000048
:010fa9000047
:010faa000046
:010fab000045
:010fac000044
:010fad000043
:010fae000042
:010faf000041
:010fb0000040
:010fb100003f
:010fb200003e
:010fb300003d
:010fb400003c
:010fb500003b
:010fb600003a
:010fb7000039
:010fb8000038
:010fb9000037
:010fba000036
:010fbb000035
:010fbc000034
:010fbd000033
:010fbe000032
:010fbf000031
:010fc0000030
:010fc100002f
:010fc200002e
:010fc300002d
:010fc400002c
:010fc500002b
:010fc600002a
:010fc7000029
:010fc8000028
:010fc9000027
:010fca000026
:010fcb000025
:010fcc000024
:010fcd000023
:010fce000022
:010fcf000021
:010fd0000020
:010fd100001f
:010fd200001e
:010fd300001d
:010fd400001c
:010fd500001b
:010fd600001a
:010fd7000019
:010fd8000018
:010fd9000017
:010fda000016
:010fdb000015
:010fdc000014
:010fdd000013
:010fde000012
:010fdf000011
:010fe0000010
:010fe100000f
:010fe200000e
:010fe300000d
:010fe400000c
:010fe500000b
:010fe600000a
:010fe7000009
:010fe8000008
:010fe9000007
:010fea000006
:010feb000005
:010fec000004
:010fed000003
:010fee000002
:010fef000001
:010ff0000000
:010ff10000ff
:010ff20000fe
:010ff30000fd
:010ff40000fc
:010ff50000fb
:010ff60000fa
:010ff70000f9
:010ff80000f8
:010ff90000f7
:010ffa0000f6
:010ffb0000f5
:010ffc0000f4
:010ffd0000f3
:010ffe0000f2
:010fff0000f1
:00000001ff
