:020000040000FA
:06200000000002EF1DF0DC
:0820080058EF1EF0F153000037
:1020100001E11200F90E00000000000000000000C5
:102020000000000000000000000000000000FF0FA2
:10203000D8A4F1D70000000000000000000000005C
:102040000000000000000000000000000000F12F70
:10205000E1D71200040104BF12000201126B01015A
:1020600082510201126125D001016C51705D02E1C3
:102070006B516F5D1EE26E51705D02E16D516F5DDF
:1020800018E27251EA6E7151E96EEF500201136F5E
:1020900001017451EA6E735102011225E96E135168
:1020A000EF6E0101714B722B6F4B702B0201122BE3
:1020B000D6D7010182510201126110D001016D5188
:1020C0006F6304D06E51706301D006D06B516F63A3
:1020D00005D06C51706302D0050E816F0201125160
:1020E0000401056F050E0201136F080E0401066F4F
:1020F000020113510401076F400E041B049B049955
:102100000487049504930491048F1200040104854C
:10211000048F0085008F1200080E0101826F6F6B23
:10212000706B010E6B6F6C6B6D6B6E6B02011151FE
:102130000101846F010E0201126F840E0101716FA3
:10214000020112510101726F040E0201126F040E9E
:102150000101756F020112510101766F050E020136
:10216000126F080E0101736F020112510101746FA9
:102170000401049D2AEC10F01200080E0101826F88
:10218000040E0201116F040E0101756F020111515D
:102190000101766F050E0201116F080E0101736FC8
:1021A000020111510101746F6F6B706B6B6B6C6B83
:1021B0006D6B6E6B716B726B0401049D2AEC10F0F9
:1021C00012000101010EEA6E320EE96E02010D519C
:1021D000176FD8901735E926EE50156FEF50166F30
:1021E0000101010EEA6E220EE96E02010D51176F18
:1021F000D8901735E926EE50136FEF50146F145135
:10220000EA6E1351E96EEFBE1200126B10511261AB
:1022100013D00F51EA6E0E51E96E1251176F17511C
:10222000E926EF50186F1651EA6E15511225E96E26
:102230001851EF6E122BEAD71451EA6E1329E96E8A
:102240001251EF6EE906020EE926E92A1551176FC1
:102250001651EF6EE9061751EF6E11A105D014511A
:10226000EA6E1351E96EEF9C1451EA6E1351E96E58
:10227000400EEF1AEF9AEF98EF86EF94EF92EF90FF
:10228000EF8E1200176B186B11050CE0020E116334
:1022900001D012D0030E116301D018D0060E1163C5
:1022A0003AD039D0000E1B6FE00E176F1B51186F1C
:1022B000120E196F1A6B2FD0000E1B6F050E176FC1
:1022C0001B51186F430E196F1A6B25D0125306E07D
:1022D00012050EE0020E12631ED014D0040E196F08
:1022E0001A6B000E1B6F5C0E176F1B51186F13D00B
:1022F000140E196F1A6B000E1B6F480E176F1B51CF
:10230000186F09D0120E196F1A6B010E1B6F000E99
:10231000176F1B51186F1451EA6E1351E96EE92AB9
:1023200017511B6F1851EF6EE9061B51EF6E1651D6
:10233000EA6E1551E96EE92A19511B6F1A51EF6EB9
:10234000E9061B51EF6E1200010E01018E6F1200A3
:1023500072887294728272860401148D149B14998F
:102360001497149514931491149F73887384738233
:1023700073861C8D1C9B1C991C971C951C931C918F
:102380001C9F080E196F180E1A6F050E1B6F189DF3
:10239000189B18991897189518931891188F120070
:1023A000010128510201106F010129510201116F31
:1023B0001151EA6E1051E96EEFBE12000101485151
:1023C00002010C6F0101495102010D6F01013851E9
:1023D00002010E6F0101395102010F6F01018A5193
:1023E0008B6301D0120002011291F2BE1281F29EA3
:1023F000F2BEFDD70B6B01018A518B638A632DD02E
:10240000010E02010C5D136F0C5901080D5D146F74
:1024100013510B61145121E001018A2902010A6F55
:10242000400E0A6301D00A6B0001000EEA6E600ED6
:10243000E96E01018A510201156F1551E926EF502D
:10244000166F0F51EA6E0E510B25E96E1651EF6EA5
:102450000B2B0A5101018A6FCED7000E02010B65CA
:102460001CD01151EA6E1029E96E0B51EF6EE9068E
:10247000020EE926E92A0E51156F0F51EF6EE9069B
:102480001551EF6E1051E96E400EEF1AEF9AEF986A
:10249000EF86EF94EF92EF90EF8E12B1F28E12A1D1
:1024A000F29E12000B51106F0C51116F0D51126FF3
:1024B0000E51136F000E0F6512D01351EA6E1251B8
:1024C000E96E124B132BEF50146F1151EA6E10513D
:1024D000E96E104B112B1451EF6E0F07EBD70B5118
:1024E000146F0C51156F1200080E0401016F026B7E
:1024F000050E036F008D009B0099008700950093E7
:102500000091008F1200060E086301D00FD0050E57
:10251000086301D04AD0090E086301D051D00A0ED9
:10252000086301D05AD0085360E012000A510F6FBF
:102530000951106F0F51116F1051126F010E176F6B
:10254000710E136F1751146F010E176F6B0E156F0D
:102550001751166F42EC11F00101715302E17253F1
:1025600021E0030E816F02010D5101016D6F020127
:102570000E5101016E6F6F6B706B080E826F040E4F
:102580000201116F040E0101756F02011151010169
:10259000766F080E736F050E746F0401049D2AECAC
:1025A00010F0120086EC10F0120009510101806F4A
:1025B000010E836FBDEC10F0060E0101816F120059
:1025C000060E0101816FBDEC10F0030E01017F6F5B
:1025D000A8EC11F0A4EC11F01200030E0101816FC0
:1025E000010E0201116F8CEC10F00201116B8CECEA
:1025F00010F01200200E0001F3631200010E020120
:10260000106F520E0B6F10510C6F05510D6F06516C
:102610000E6F07510F6F52EC12F0060E0101816F21
:10262000BDEC10F0010E02010D6F520E0B6F0D513B
:102630000C6F0B51096F0C510A6F1200210E000133
:10264000F3631200050E0101816F1200200E066374
:1026500001D008D0210E066301D008D0220E0663F7
:10266000120018D0020E0101816F1200040E010148
:10267000816F02010D6B010E126F520E0E6F12511F
:102680000F6F070E106F1181E1EC10F0050E0101C4
:10269000816F1200060E0101816FBDEC10F0120077
:1026A000030E07631200D0EC11F01200030E076353
:1026B00012000D6B0A510D610B51D8B412000101CB
:1026C0008D2902010C6F400E0C6301D00C6B0101CF
:1026D0008C5102010C6301D002D001018C6319D02E
:1026E00002010951EA6E0851E96E0D510E6F0E514B
:1026F000E926EF500F6F0001000EEA6EA00EE96EA2
:1027000001018D51E92602010F51EF6E0C510101BB
:102710008D6F02010D2BCED712000101806B816BF2
:10272000836B6896689668966896080E0401016F38
:10273000026B050E036F009D009B009900970095AA
:1027400000930091008F080E056F066F050E076F4E
:10275000049D049B0499049504930491049F120022
:102760006C300201056F053305331F0E0515036F2D
:102770006CA40BD0040104310201056F05333F0E38
:1027800005170F0E0515046F0AD004010031020170
:10279000056F05333F0E05170F0E0515046F035324
:1027A000D8A4D0D00D0E046372D0000E066FF20EC6
:1027B0000B6F06510C6F050E066F000E0D6F065164
:1027C0000E6F080E0F6F52EC12F074EC12F0000155
:1027D000F2BD36D0F2BB34D01F0EF2150EE01F0E44
:1027E000F2150201056F050508E01F0E0001F21544
:1027F0000201066F030E066300D00001F9510201C9
:102800000E6F0001F85102010D6F0001F751020136
:102810000C6F0001F65102010B6F0001F55102012E
:102820000A6F0001F4510201096F0001F351020126
:10283000086F0001F2510201076F83EC12F025D0FE
:10284000F2BD23D0F2AB21D0F95102010C6F00018F
:10285000F85102010B6F0001F75102010A6F0001EC
:10286000F6510201096F0001F5510201086F0001E4
:10287000F4510201076F0001F3510201066F0001DC
:10288000F2510201056F26EC13F06D981200090E4B
:10289000046321D0030E0101816303D02AEC10F000
:1028A0001200060E81630AD0816B8305D8A4120042
:1028B000020E7F6F80516E6E836B1200050E816376
:1028C00002D000001200040E816303D01EEC13F04E
:1028D000120000001200020E046312D0030E010168
:1028E000816303D02AEC10F01200040E816303D040
:1028F0001EEC13F01200060E81631200816B1200B1
:102900000405D8A41200050E0101816302D0816B79
:1029100016D0020E81630FD0050E0201096F000E62
:10292000056F0951066F040101510201076F086B21
:10293000FAEC12F004D0030E816301D0816B74ECC9
:1029400012F012006CA41BD00101010EEA6E220EDF
:10295000E96E02010351076FD8900735E926EE5062
:10296000056FEF50066F0351076F0651EA6E055170
:10297000E96EEC50086F096B50EC13F01200010186
:10298000010EEA6E2A0EE96E02010351076FD8901C
:102990000735E926EE50056FEF50066F0351076FBC
:1029A0000101010EEA6E3A0EE96E020103510C6F4D
:1029B000D8900C35E926EE50086FEF50096F06519C
:1029C000EA6E0551E96EEC500A6F0B6B56EC13F092
:1029D0000101010EEA6E4A0EE96E02010351086F11
:1029E000D8900835076F0751E926EE50096FEF5070
:1029F0000A6F0651EA6E0529E96E0951EF6EE90684
:102A0000EF9CEF9AEF98EF96EF94EF92EF90EF8EA6
:102A10001200D0EC11F012000101674B682B12007C
:102A2000A1AA1200A19A68A603D0B0EC13F0689690
:102A300068A003D08DEC13F0689068AA03D08CECEA
:102A400013F0689A68AC120066500201036F046BC1
:102A500009EC15F0689C12000CEC15F012008B29A3
:102A6000BB6F400EBB6301D0BB6BF2BE04D08A517A
:102A7000BB6301D012008A51BB6301D0FCD7BC916B
:102A8000F2BEBC81F29EF2BEFDD70001000EEA6EDE
:102A9000600EE96E01018B51E926BA51EF6EBB5110
:102AA0008B6FBCB1F28EBCA1F29E1200000EF71526
:102AB000FF6F000EF8150201006F1F0E0101F915DE
:102AC0000201016F000E0101FA150201026F0151AE
:102AD000F86E000E0101F715FF6FF8510201006F4B
:102AE000000E0101F9150201016F000E0101FA1536
:102AF0000201026F0051F76E0101F751F66EFE6B95
:102B0000200EFE610AD0FC51EA6EFB51FE25E96EF3
:102B1000EF50F56E0D00FE2BF3D70A00A68EA69C93
:102B2000A684FD6BF2BEFD2BF29E550EA76EAA0E7B
:102B3000A76EA682A198FDB1F28EFDA1F29E1200B1
:102B4000C00EF715FC6FF851FD6FF951FE6FFA5189
:102B5000FF6FFC51F76FFD51F86FFE51F96FFF5198
:102B6000FA6F000EF715FC6F000EF815FD6F1F0EC3
:102B7000F915FE6F000EFA15FF6FFE51F86E000E8C
:102B8000F715FC6FF851FD6F000EF915FE6F000E82
:102B9000FA15FF6FFD51F76EF751F66EA68EA69CE3
:102BA000A684A688FB6BF2BEFB2BF29E550EA76E89
:102BB000AA0EA76EA682A198FBB1F28EFBA1F29E8F
:102BC0001200B96BB851B9611200B251EA6EB1513D
:102BD000B925E96EEF50BA6F2FEC15F0B92BF2D78B
:102BE000C00EF115F76FF251F86FF351F96FF45110
:102BF000FA6FF751F16FF851F26FF951F36FFA5123
:102C0000F46FF151F76FF251F86FF351F96FF4511E
:102C1000FA6FA0EC15F0F151F76FF251F86FF35124
:102C2000F96FF451FA6FF551FB6FF651FC6F56ECEA
:102C300015F0200EFD6FF151FD27000EFE6FF251D1
:102C4000FE23000EFF6FF351FF23000E0201006F01
:102C50000101F451020100230101FD51F76FFE5102
:102C6000F86FFF51F96F020100510101FA6F200E58
:102C7000FD6FFF6BF551FD25FE6FF651FF23FE51F1
:102C8000FB6FFF51FC6F56EC15F01200000EF115B2
:102C9000F86F000EF215F96F1F0EF315FA6F000EA4
:102CA000F415FB6FFA51F86E000EF115F86FF25142
:102CB000F96F000EF315FA6F000EF415FB6FF95162
:102CC000F76EF151F66EF76B400EF76112000900D6
:102CD000F651EA6EF551F725E96EF550EF6EF72BD8
:102CE000F3D70101B06B050EB06112D0FA0EF16F8F
:102CF00006EC10F0FA0EF16F06EC10F0FA0EF16F20
:102D000006EC10F0FA0EF16F06EC10F0B02BEBD7DA
:102D1000F16BF26BF36BF46B010EF76FB10EF56FA5
:102D2000F751F66F46EC16F0080EB16FEF0EB26F6A
:102D3000B36BF00EB46F0C0EB96FEF0EBA6FBB6BC6
:102D4000F00EBC6FF29EF16BF26BF36BF46B010E45
:102D5000F76FB10EF56FF751F66FF0EC15F0A1A813
:102D6000FED7A198FF0012000F0EB1170A0EB16135
:102D700004D0B151300FB26F04D00A0EB15D410FD3
:102D8000B26FB251B36F1200410EB16101D004D0E5
:102D9000370EB15DB26F03D0300EB15DB26FB2517C
:102DA000B36F1200AC510001FA6F3B0EFB6F000EC7
:102DB0000101AD6FFA0EB16FAD51B26F020EB86F77
:102DC000E1EC15F01200F80E8114B26F070EB01589
:102DD000B211B16FF80E8114B26F070EB015B211B7
:102DE000816E1200070E81140101B06F1200825033
:102DF0000101AA6FAAA303D0010EAC6F01D0AC6B86
:102E0000AC51AB6FAAA103D0010EAE6F01D0AE6B77
:102E1000AE51AD6FAD51AF6FD890AF37AB51AF1171
:102E2000B06F1200A69CA6B2FED7B151A96EB251E6
:102E3000A86EA69EA684F29E550EA76EAA0EA76E39
:102E4000A682A694F28E1200A6B2FED7A951A96E50
:102E5000A69EA69CA680A850AA6F120001017F6BB7
:102E60006F966F846F886F926F9070887084708295
:102E70007096040EA96F000E2A6FA9512B6F040ED5
:102E8000A96F080E2C6FA9512D6F040EA96F100E9B
:102E90002E6FA9512F6F040EA96F180E306FA95114
:102EA000316F040EA96F040E226FA951236F040E17
:102EB000A96F0C0E246FA951256F040EA96F140E73
:102EC000266FA951276F040EA96F1C0E286FA951F8
:102ED000296F1200010E0101AD6F520EAB6FAD51A3
:102EE000AC6FAB51A96FAC51AA6FAA51EA6EA95150
:102EF000E96E030EE926000EAB6FAC6F250EAD6FC9
:102F0000800EEF6EE906AD51EF6EE906AC51EF6E43
:102F1000E906AB51EF6EA951E96E040EE926000EE9
:102F2000EF6EA951E96E060EE926080EEF6EA95163
:102F3000E96E050EE926000EEF6E120001018C51BC
:102F40008D6301D0FBD7AB91F2BEAB81F29EF2BE96
:102F5000FDD70001000EEA6EA00EE96E01018C5152
:102F6000E926EF50AA6F8C2B400E8C6301D08C6B3E
:102F7000ABB1F28EABA1F29EAA51AC6F1200698A7E
:102F800069866980A08A698C1200610EAB6101D0EC
:102F900007D0AB517A0804E3DF0EAB15AC6F12001B
:102FA000AB51AC6F1200010EAA6522D0F00EAA152B
:102FB000AB6FAB390F0BB16FB4EC16F0B35100012E
:102FC000FB6F0F0E0101AA15B16FB4EC16F0B351EF
:102FD0000001FC6F3B0EFD6F000E0101AB6FFA0E9E
:102FE000B16FAB51B26F040EB86FE1EC15F0120087
:102FF0003B0E0001FB6F000E0101AB6FFA0EB16FCB
:10300000AB51B26F020EB86FE1EC15F01200010186
:10301000936BA96B24EC17F0540EAA630DD0010E2C
:10302000A96F24EC17F04B0EAA6306D0010EA96F0E
:1030300024EC17F0AA5329E0B16B540EB26F12ECD6
:1030400017F0010EB16F4B0EB26F12EC17F0020EBB
:10305000B16F040EB26F12EC17F0030EB16F280EB1
:10306000B26F12EC17F0040EB16F640EB26F12EC77
:1030700017F0050EB16F0A0EB26F12EC17F0060EC4
:10308000B16F010EB26F12EC17F0030EA96F24ECB2
:1030900017F0AA518F6F040EA96F24EC17F0AA51F4
:1030A000906F050EA96F24EC17F0AA51916F060ED0
:1030B000A96F24EC17F0AA51926F1200AB51EA6E7F
:1030C000AA51E96EAE6BAE51E926EF50AF6F550EC7
:1030D000AF6301D01200440EAF6301D01200530E53
:1030E000AF6301D01200430EAF6301D012004C0E4B
:1030F000AF6301D01200510EAF6301D014D0490E5E
:10310000AF6301D050D0460EAF6301D081D05A0ECC
:10311000AF6301D0BAD0520EAF6301D01200420E9D
:10312000AF631200A3D1F2EC16F0B051AD6FADA1B8
:1031300003D0310EB06F02D0300EB06FAB51EA6EDB
:10314000AA51E96E010EE926B051EF6EADA303D08E
:10315000310EB06F02D0300EB06FAB51EA6EAA5193
:10316000E96E020EE926B051EF6EADA503D0310E27
:10317000B06F02D0300EB06FAB51EA6EAA51E96E5B
:10318000030EE926B051EF6EAA51E96E040EE9264E
:103190003B0EEF6EAA51B16FAB51B26F050EB86F17
:1031A000E1EC15F01200050EAC631200AB51EA6EB3
:1031B000AA51E96E010EE926310EEF6203D0010E2D
:1031C000B06F01D0B06BB051AD6FAB51EA6EAA5188
:1031D000E96E020EE926310EEF6203D0020EB06FE7
:1031E00001D0B06BB051AD13AB51EA6EAA51E96E8C
:1031F000030EE926310EEF6203D0040EB06F01D04A
:10320000B06BB051AD13AD51B06FE3EC16F01200DE
:10321000B16BB4EC16F0AB51EA6EAA51E96E010E37
:10322000E926B351EF6E010EB16FB4EC16F0AB515D
:10323000EA6EAA51E96E020EE926B351EF6EB16B48
:10324000B4EC16F0AB51EA6EAA51E96E030EE92612
:10325000B351EF6E040EB16FB4EC16F0AB51EA6EE1
:10326000AA51E96E040EE926B351EF6EAA51E96E38
:10327000050EE9263B0EEF6EAA51B16FAB51B26F4E
:10328000060EB86FE1EC15F01200030EAC6351D0DE
:10329000AB51EA6EAA51E96E010EE926EF50B06F0C
:1032A000430EB06301D00CD04C0EB06301D00BD0F4
:1032B000520EB06301D00AD0450EB0630DD009D0D4
:1032C0008F51AD6F0AD09051AD6F07D09151AD6F56
:1032D00004D09251AD6F01D0AD69F00EAD15B26F53
:1032E000B2390F0BB16FB4EC16F0AB51EA6EAA51C4
:1032F000E96E020EE926B351EF6E0F0EAD15B16FF8
:10330000B4EC16F0AB51EA6EAA51E96E030EE92651
:10331000B351EF6EAA51E96E040EE9263B0EEF6E33
:10332000AA51B16FAB51B26F050EB86FE1EC15F059
:103330001200050EAC631200AB51EA6EAA51E96EA1
:10334000010EE926EF50B06F430EB06301D00CD0F0
:103350004C0EB06301D028D0520EB06301D044D0DF
:10336000450EB06381D060D0AB51EA6EAA51E96ED0
:10337000020EE926EF50B16FC4EC16F0B339F00B32
:103380008F6FAB51EA6EAA51E96E030EE926EF503A
:10339000B16FC4EC16F0B3518F27030EB16F8F518C
:1033A000B26F12EC17F01200AB51EA6EAA51E96E3F
:1033B000020EE926EF50B16FC4EC16F0B339F00BF2
:1033C000906FAB51EA6EAA51E96E030EE926EF50F9
:1033D000B16FC4EC16F0B3519027040EB16F905149
:1033E000B26F12EC17F01200AB51EA6EAA51E96EFF
:1033F000020EE926EF50B16FC4EC16F0B339F00BB2
:10340000916FAB51EA6EAA51E96E030EE926EF50B7
:10341000B16FC4EC16F0B3519127050EB16F915105
:10342000B26F12EC17F01200AB51EA6EAA51E96EBE
:10343000020EE926EF50B16FC4EC16F0B339F00B71
:10344000926FAB51EA6EAA51E96E030EE926EF5076
:10345000B16FC4EC16F0B3519227060EB16F9251C2
:10346000B26F12EC17F01200AD691200AB51EA6EA8
:10347000AA51E96E010EE9264C0EEF621200AB5123
:10348000EA6EAA51E96E020EE926210EEF621200E1
:10349000420EB36F4C0EB46F210EB56F3B0EB66F7C
:1034A000B76B010EB06FB30EB16FB051B26F040EB7
:1034B000B86FE1EC15F071EC16F01200AB0508E006
:1034C000020EAB6301D00FD0030EAB6321D016D038
:1034D000AA5305E1530EAC6FD2EC16F01200530E56
:1034E0000001FC6F15D0AA5305E1430EAC6FD2EC7E
:1034F00016F01200430E0001FC6F0AD0AA5305E13A
:103500004C0EAC6FD2EC16F012004C0E0001FC6FAA
:10351000580E0001FA6F0101AA51300F0001FB6F34
:103520003B0EFD6F000E0101AC6FFA0EB16FAC5196
:10353000B26F040EB86FE1EC15F01200D59EA9A190
:1035400002D0D58C01D0D59CD59AAA2902E1D58686
:1035500005D0D596F80ED516AA51D512AB51696F84
:10356000AC516A6FF28A1200939093929394948272
:1035700094809484928092829284F7EC16F0B051F9
:10358000956F9551966F976B946B1200040E821491
:103590000101AB6F040EAB6301D002D0AC6B120023
:1035A000070E8014AA6F070EAA6302D0AC6912003E
:1035B000030EAA6303D0010EAC6F1200050EAA63BE
:1035C00003D0020EAC6F1200030EAC6F1200610E3E
:1035D000AB6101D006D0AB517A0803E3010EAC6FAA
:1035E0001200AC6B1200610EAB6101D003D0AB5185
:1035F0007A0807E2410EAB6101D006D0AB515A0800
:1036000003E3010EAC6F1200AC6B1200686A6D86AA
:10361000010E01017F6F12000101A96B8D518C63B6
:10362000A981A951AA6F12009EEC17F0AC51A96FA5
:10363000A951AB6FF3EC1AF0AC530DE0A951AB6F8D
:10364000E7EC1AF0AC5307E0A951AB6FC5EC17F0EB
:10365000AC51AA6F02D0A951AA6FAA51A96F080E46
:10366000936118D0010EEA6E5A0EE96E9351932BB6
:10367000E926A951EF6E3B0EA9631200010EAD6F52
:103680005A0EAA6FAD51AB6F9351AC6F5EEC18F050
:10369000936B12003B0EA9631200936B1200550E40
:1036A0000001FA6F0101A951AA6FD3EC17F01200C3
:1036B000440E0001FA6F0101A951AA6FD3EC17F073
:1036C000120001016A51D76E6951D66ED58E120073
:1036D0000101A991F2BEA981F29EF2BEFDD7675108
:1036E000AA6F6851AB6FA9B1F28EA9A1F29EAA513F
:1036F000AC6FAB51AD6F1200A951AB5DAA51AC6379
:10370000AC5D0BE3A951AB5DAD6FAA51AC59AE6F87
:10371000AD51AF6FAE51B06F1200A951FF08AD6F40
:10372000FF0EAA55AE6FAB51AD25B16FAC51B26F64
:10373000AE51B223B151B36FB251B46FB32BD8B401
:10374000B42BB351AF6FB451B06F12000101945359
:1037500002E0A96B12009651956FF7EC16F0B0518C
:10376000966F95519663956357D0010EF16F06ECF5
:1037700010F0F7EC16F0B051966F9851996F010E5A
:10378000EA6E120EE96E9551AA6FAA37AA37FC0E9F
:10379000AA179651AA11E926EF50986F030E986365
:1037A00001D00AD0040E986301D006D098050EE02F
:1037B000020E986312001DD0F7EC16F0B051956F11
:1037C0009551966F9951986FA96B12009851996312
:1037D000986304D0976B010EA96F1200972B975135
:1037E000926501D004D0976B010EA96F1200A96BEE
:1037F000120098519963986304D0976B020EA96FD9
:103800001200972B9751926501D004D0976B020E4E
:10381000A96F1200A96B1200A96B1200C6EC1AF076
:10382000AC51A96FA92910E09E5306E1010E9E6FCD
:10383000946FA9519A6F9D2B9C51906501D002D035
:103840009C6912009C2B12009E6B010EF16F06EC1E
:1038500010F09C290CE19D6B9C6B9B6B946B9A51B7
:10386000AA6F030EAB6F5EEC1AF09A691200000E9D
:103870009D6512009B2B9B518F6501D012009B6BA5
:103880009C6B946B9D0507E19A51AA6F010EAB6F7B
:103890005EEC1AF006D09A51AA6F020EAB6F5EEC86
:1038A0001AF09A699D6B1200F29EF2BEFDD70F0EC0
:1038B000C16E0101A991AA695F0EAB6FF00EAC6FEA
:1038C0009EEC1AF06AEC17F02EEC17F0BFEC17F034
:1038D000F28CF28EB4EC1AF007EC18F01200010131
:1038E0009F6BA06BA16BA26B010EA56FA66FA76B60
:1038F00054EC1CF0640EF16F06EC10F0070EB06F84
:10390000E3EC16F0FA0EF16F06EC10F0FA0EF16F20
:1039100006EC10F0FA0EF16F06EC10F0FA0EF16FF3
:1039200006EC10F006EC1BF08E5311E1FA0EF16F6D
:1039300006EC10F0FA0EF16F06EC10F0FA0EF16FD3
:1039400006EC10F0FA0EF16F06EC10F0EDD7B06B4C
:10395000E3EC16F061EC1BF00CEC1BF0AA53D8A4BE
:1039600014EC1BF0A6EC1BF0A951A86FA8530EE0B5
:10397000A551A66FA851A56FA551A66303D0A7298D
:10398000A96F02D0010EA96FA951A76F68EC1BF0B7
:10399000AC51A36FAD51A46F9F51A96FA051AA6FF5
:1039A000A351AB6FA451AC6F7CEC1BF0050EAF655F
:1039B000B06701D006D00EEC1CF0A3519F6FA4514C
:1039C000A06FA151A96FA251AA6FA351AB6FA451CF
:1039D000AC6F7CEC1BF0AF519161B051BDE0A753CF
:1039E000BBE0A50505E1A751A96F4FEC1BF004D082
:1039F000A751A96F58EC1BF0A76BA351A16FA4515D
:103A0000A26FAAD701017B6B7C6B7D6B7E6B676BB2
:103A1000686B696B6A6B7F6B050E856F080E326F82
:103A20008551336F346B356B050E866F100E366F14
:103A30008651376F050E876F200E386F8751396FAB
:103A4000050E886F000E3A6F88513B6F3C6B3D6BE3
:103A50003E6B3F6B050E896F180E406F8951416FA9
:103A6000080E426F436B446B456B080E466F476B05
:103A7000080E486F496B080E4A6F4B6B4C6B4D6BD1
:103A80004E6B4F6B080E506F516B626B636B646BC8
:103A9000656B666B8A6B8B6B8C6B8D6B120E00018A
:103AA000E06F010EE16F100EE26F010EE36F020E88
:103AB000E46FE56BE66B080EE76F920EE86F210E80
:103AC000E96F100EEA6FEB6BEC6B020EED6F010EFF
:103AD000EE6F020EEF6FF06B010EF16F090E056EC7
:103AE000020E066E430E076E086A020E096E010E84
:103AF0000A6E0B6A800E0C6E640E0D6E090E0E6E51
:103B0000040E0F6E106A116A010E126E020E136E11
:103B1000020E146E010E156E166A050E176E240E37
:103B2000186E196A100E1A6E010E1B6E040E1C6EB2
:103B3000240E1D6E020E1E6E020E1F6E050E206EEE
:103B4000240E216E060E226E236A010E246E050ECF
:103B5000256E240E266E010E276E286A010E296E30
:103B6000070E2A6E050E2B6E820E2C6E030E2D6E26
:103B7000080E2E6E2F6A020E306E090E316E040E84
:103B8000326E010E336E346A020E356E0A0E366ED8
:103B9000376A386A396A070E3A6E050E3B6E030EB5
:103BA0003C6E020E3D6E080E3E6E3F6A406A070E86
:103BB000416E050E426E830E436E020E446E080E79
:103BC000456E466A476A040E5C6E030E5D6E090E12
:103BD0005E6E040E5F6E180E486E030E496E460E42
:103BE0004A6E4B6A6C0E4C6E4D6A650E4E6E4F6A95
:103BF000780E506E516A520E526E536A610E546EB8
:103C0000556A640E566E576A690E586E596A6F0E81
:103C10005A6E5B6A140E0101006F030E016F550EA0
:103C2000026F036B530E046F056B420E066F076B3A
:103C3000200E086F096B4B0E0A6F0B6B6E0E0C6F2C
:103C40000D6B6F0E0E6F0F6B620E106F116B776B3B
:103C5000786B8E6B796B7A6B030E126F010E136F9C
:103C6000020E146F040E156F020E166F030E176FFF
:103C7000040E186F010E196F010E1A6F040E1B6FE0
:103C8000030E1C6F020E1D6F040E1E6F020E1F6FBF
:103C9000010E206F030E216F010E986F010E996FB8
:103CA0009A699B6B9C6B9D6B9E6B946B6FEF1CF08A
:103CB000EACF01F0E9CF02F0F4CF03F0F3CF04F044
:103CC00010EC15F0F2A41DD00201066B0101695140
:103CD000D6240201056F01016A5102010623055134
:103CE000076F0651086F072BD8B4082B0751036FD5
:103CF0000851046F0451D76E0351D66EF2942CEC28
:103D000015F004C0F3FF03C0F4FF02C0E9FF01C0D7
:043D1000EAFF1100B5
:020000040030CA
:0E000000FC3EF9EEFFF89BFFFFFFFFFFFFFF46
:00000001FF
