:0EE000001201020000000040B40405100100EF
:04E00E00010200010A
:0AE012000A060200000000400100B1
:0EE01C0009020020010100A0320904000002E8
:0EE02A00FF000000070501024000000705810D
:04E0380002400000A2
:04E03C0004030200D7
:0CE040000C034800500053004400520044
:0EE04C001C0346005000470041005F005500D5
:0EE05A00530042005F005600450052003100A6
:02E068000000B6
:06000000020B0202018068
:03000B000201806F
:0300130002018067
:03001B000201805F
:0300230002018057
:03002B000201804F
:0300330002018047
:03003B000201803F
:03004300020100B7
:03004B000201802F
:0300530002008028
:03005B000201801F
:0300630002018017
:090080000201800002018000026F
:08008900018000020180000269
:08009100018000020180000261
:08009900018000020180000259
:0800A100018000020180000251
:0800A900018000020180000249
:0700B1000180000201800044
:09010000020A0500020A340002A3
:080109000A1E00020180000241
:080111000A4A00020A9B0002E9
:080119000180000201800002D8
:080121000180000201800002D0
:080129000180000201800002C8
:080131000180000201800002C0
:080139000180000201800002B8
:080141000180000201800002B0
:080149000180000201800002A8
:080151000180000201800002A0
:08015900018000020180000298
:08016100018000020180000290
:08016900018000020180000288
:08017100018000020180000280
:07017900018000020180007B
:01018000324C
:01018100007D
:0302000002018276
:0301DB000202031A
:0502030012032180FE42
:090208007400F58690FDA57C054B
:07021100A3E582458370F9AB
:0102180022C3
:0102190022C2
:0E021A00AA82AB8390E600E0FC530418BC00FF
:0102280011C4
:0E02290074012AFCE43BFD8C02C313CA13CA05
:03023700FB801237
:0B023A0090E600E0FC530418BC100725
:07024500EBCA25E0CA33FB00
:09024C008A048B051ABAFF011B9C
:04025500EC4D600DFF
:0D025900C002C003120208D003D00280E6EC
:010266002275
:06026700AA82AB21AC22CB
:0E026D0074012BF582E43CF583E0FDBD032314
:06027B008A051AED700572
:050281008B828C83223A
:0E0286008B058C068B828C83E0FF7800EF2DB9
:0A029400FDE83EFE8D038E0480CFCE
:03029E00900000CD
:0102A100223A
:0502A200E582FA600A8C
:0A02A70090E680E0FA440AF08008B7
:0802B10090E680E0FA4408F039
:0D02B9009005DC12021A90E65D74FFF090D3
:0E02C600E65F74FFF05391EF90E680E0FA548B
:0202D400F7F041
:0102D6002205
:0E02D70090E6007410F000000090E60B740337
:0E02E500F000000090E6B57401F090E6A1E094
:0E02F300FA54FEF090E68D7440F090E6A2E022
:0E030100FA54FEF090E60174C0F090E670E44D
:0E030F00F090E672F075B20375800175B602CB
:03031D0075B102B5
:0103200022BA
:0E03210090E071E4F090E070F090E077F090E2
:0C032F00E078F090E079E4F07508FA75D1
:06033B000900750AFA75C5
:060341000B00750C0075B5
:060347000D00750E0075AB
:06034D000F001202D7753B
:030353001500751D
:0303560016E07539
:0303590017127503
:03035C0018E07531
:03035F00191C75F1
:030362001AE07529
:030365001B1C75E9
:030368001CE07521
:03036B00213C75BD
:03036E0022E07515
:0D037100100043E80190E668E0FA4408F04F
:0E037E0090E65CE0FA4425F043A88000000001
:0E038C0090E680E0FA4402F0000000538EF884
:04039A00E510600CFE
:0C039E0090E6B57401F0120639751000ED
:0B03AA0090E6A1E0FA30E1030205FF3D
:0B03B50090E6A2E0FA30E1030205E050
:0A03C00090E780E0FABA0102800322
:0303CA000204909A
:0E03CD0090E781E0FAF582120267AA82AB8304
:0E03DB007C018A058B068C07EA4B4C700302EE
:0203E90004739B
:0E03EB008D028E038B047F0090E7C0ECF07B48
:0E03F9000090E7C1EAF08D828E83E0FAA3AD9A
:0E04070082AE8390E7C2EAF08D828E83E0FA27
:0E041500A3AD82AE8390E7C3EAF08D828E83A2
:0E042300E0FAA3AD82AE8390E7C4EAF08D82CA
:0E0431008E83E0FAA3AD82AE8390E7C5EAF0B9
:0E043F008D828E83E0FAA3AD82AE8390E7C675
:0D044D00EAF08D828E83E0FD90E7C7F0900D
:0E045A00E071E0FA90E7C8F090E6A2E0FA54F4
:0B046800FEF090E68F7409F00205F131
:0D04730090E7C074FFF090E7C174FFF090B7
:0E048000E6A2E0FA54FEF090E68F7402F0025D
:02048E0005F176
:0804900090E780E0FABA0223B4
:0C049800AA167B0090E7C0EAF0AA157BD2
:0E04A4000090E7C1EAF090E6A2E0FA54FEF004
:0904B20090E68F7402F00205F1DE
:0804BB0090E780E0FABA032388
:0C04C300AA187B0090E7C0EAF0AA177BA3
:0E04CF000090E7C1EAF090E6A2E0FA54FEF0D9
:0904DD0090E68F7402F00205F1B3
:0804E60090E780E0FABA04235C
:0C04EE00AA1A7B0090E7C0EAF0AA197B74
:0E04FA000090E7C1EAF090E6A2E0FA54FEF0AE
:0905080090E68F7402F00205F187
:0805110090E780E0FABA050C46
:0C05190090E781E0FA90E071F00205F13B
:0805250090E780E0FABA063EFF
:0E052D0090E071E0FA90E7C0F090E070E0FA24
:0E053B0090E7C1F090E077E0FA90E7C2F09010
:0E054900E078E0FA90E7C3F090E079E0FA90F5
:0E055700E7C4F090E6A2E0FA54FEF090E68FC2
:060565007405F00205F12F
:08056B0090E780E0FABA073DB9
:0E05730090E072E0FA90E7C0F090E073E0FADA
:0E05810090E7C1F090E074E0FA90E7C2F090CD
:0E058F00E075E0FA90E7C3F090E076E0FA90B5
:0E059D00E7C4F090E6A2E0FA54FEF090E68F7C
:0505AB007405F0804121
:0805B00090E780E0FABA083977
:0C05B80090E7C0E508F090E7C1E509F00D
:0C05C40090E7C2E50AF090E7C3E50BF0F9
:0E05D00090E6A2E0FA54FEF090E68F7404F07C
:0205DE0080118A
:0805E00090E780E0FABA05097A
:0905E80090E781E0FA90E071F067
:0E05F10090E6A1E0FA54FEF090E68D7440F022
:0C05FF0075800175B102AA087B00AC09F0
:0D060B008C057C00EC2AF582ED3BF5831296
:0D061800021A75800075B100AA0A7B00ACC3
:0D0625000B8C057C00EC2AF582ED3BF58383
:0606320012021A02039AF5
:01063800229F
:0E06390090E0717401F090E6B8E0FA90E07283
:0E064700F090E6B9E0FA90E073F090E6BAE0C9
:0E065500FA90E074F090E6BBE0FA90E075F0E9
:0E06630090E6BCE0FA90E076F090E6B9E0FA9E
:0706710024F4500302099577
:07067800EA2A2A90067F73B5
:07067F0002078E020836029B
:0606860009950208FC02C8
:06068C0009950209950228
:0606920006A30209950217
:0606980007880207820240
:05069E00077602077C55
:0A06A3001209ADE58270030209A4FC
:0A06AD0090E6BBE0FABA01028017E4
:0506B700BA0202803CC4
:0506BC00BA0302806199
:0506C100BA0602801DD5
:0506C600BA07028042AA
:0306CB0002076BB8
:0C06CE00AA167B0090E6B3EAF0AA157BA8
:0906DA000090E6B4EAF00209A464
:0C06E300AA187B0090E6B3EAF0AA177B8F
:0906EF000090E6B4EAF00209A44F
:0C06F800AA1E7B0090E6B3EAF0AA1D7B6E
:090704000090E6B4EAF00209A439
:0C070D00AA207B0090E6B3EAF0AA1F7B54
:090719000090E6B4EAF00209A424
:0E07220090E6BAE0FAF582120267AA82AB8373
:0D0730007C018A058B068C07EA4B4C602388
:0E073D0090E0777401F08E027B0090E078EA85
:0E074B00F07E0090E079EDF090E6B3EAF090D9
:07075900E6B4EDF00209A473
:0B07600090E6A0E0FA4401F00209A4BA
:0B076B0090E6A0E0FA4401F00209A4AF
:060776001209DA0209A4D9
:06077C001209D00209A4DD
:060782001209B10209A4F6
:060788001209BB0209A4E6
:0A078E001209EFE58270030209A4CE
:0A07980090E6B8E0FABA8002800D86
:0507A200BA810280286D
:0507A700BA8202803956
:0307AC0002082B15
:0607AF00E5112511FAE539
:0D07B50012420290E740EAF090E741E4F0C4
:0D07C20090E68AF090E68B7402F00209A424
:0E07CF0090E740E4F090E741F090E68AF09069
:0807DD00E68B7402F00209A48E
:0E07E50090E6BCE0FA53027E90E6BCE0FBC357
:0E07F30074809BE433FB4A900AF493FA33952A
:0E080100E0FB74A12AFA74E63BFB8A828B832B
:0E080F00E0FA53020190E740EAF090E741E47E
:0E081D00F090E68AF090E68B7402F00209A4D7
:0B082B0090E6A0E0FA4401F00209A4EE
:0A0836001209F3E58270030209A421
:0708400090E6B8E0FA600841
:05084700BA0202801C52
:03084C000209A4FA
:08084F0090E6BAE0FABA0106D6
:060857007511000209A466
:0B085D0090E6A0E0FA4401F00209A4BC
:0708680090E6BAE0FA60031C
:03086F000208F18B
:0E08720090E6BCE0FA53027E90E6BCE0FBC3C9
:0E08800074809BE433FB4A900AF493FA33959C
:0E088E00E0FB74A12AFA74E63BFB90E6BCE0A6
:0E089C00FC53047E90E6BCE0FDC374809DE436
:0E08AA0033FD4C900AF493FC3395E0FD74A1ED
:0E08B8002CFC74E63DFD8C828D83E0FC530425
:0E08C600FE8A828B83ECF090E6BCE05480FA50
:0E08D400C423541FFA90E6BCE0FB740F5B9047
:0D08E200E6832AF090E683E0FA4420F0025D
:0208EF0009A45A
:0B08F10090E6A0E0FA4401F00209A428
:0A08FC001209F7E58270030209A457
:0709060090E6B8E0FA60087A
:05090D00BA0202802681
:030912000209A433
:0809150090E6BAE0FABA01060F
:06091D007511010209A49E
:0B09230090E6BAE0FABA02030209A451
:0A092E0090E6A0E0FA4401F0806CAE
:0E09380090E6BCE0FA53027E90E6BCE0FBC302
:0E09460074809BE433FB4A900AF493FA3395D5
:0E095400E0FB74A12AFA74E63BFB90E6BCE0DF
:0E096200FC53047E90E6BCE0FDC374809DE46F
:0E09700033FD4C900AF493FC3395E0FD74A126
:0E097E002CFC74E63DFD8C828D83E0FC43046E
:09098C00018A828B83ECF0800FDC
:070995001209FBE582600876
:08099C0090E6A0E0FA4401F02E
:0809A40090E6A0E0FA4480F0A7
:0109AC002228
:0309AD007582014F
:0109B0002224
:0909B10090E6BAE0F5137582012D
:0109BA00221A
:0C09BB0090E740E513F090E68AE4F0902D
:0809C700E68B7401F07582015A
:0109CF002205
:0909D00090E6BAE0F5147582010D
:0109D90022FB
:0C09DA0090E740E514F090E68AE4F0900D
:0809E600E68B7401F07582013B
:0109EE0022E6
:0309EF007582010D
:0109F20022E2
:0309F30075820109
:0109F60022DE
:0309F70075820105
:0109FA0022DA
:0909FB0090E0707401F0758201B6
:010A040022CF
:0D0A0500C0E0C082C0837510015391EF90D6
:050A1200E65D7401F037
:070A1700D083D082D0E03251
:0E0A1E00C0E0C082C0835391EF90E65D740487
:010A2C00F0D9
:070A2D00D083D082D0E0323B
:0E0A3400C0E0C082C0835391EF90E65D740273
:010A4200F0C3
:070A4300D083D082D0E03225
:0E0A4A00C0E0C082C083C002C003C0D075D01F
:050A580000851B1D8557
:030A5D001C1EAAB2
:0C0A60001DAB1E74012AF582E43BF583F7
:070A6C007402F085191F85DB
:030A73001A20AA9C
:0C0A76001FAB2074012AF582E43BF583DD
:0C0A82007407F05391EF90E65D7410F0E3
:0D0A8E00D0D0D003D002D083D082D0E0328F
:0E0A9B00C0E0C082C083C002C003C0D075D0CE
:090AA9000090E680E0FA30E72C31
:040AB20085191D8500
:030AB6001A1EAA5B
:0C0AB9001DAB1E74012AF582E43BF5839E
:070AC5007402F0851B1F8580
:030ACC001C20AA41
:0C0ACF001FAB2074012AF582E43BF58384
:030ADB007407F0AD
:090ADE005391EF90E65D7420F0E5
:0D0AE700D0D0D003D002D083D082D0E03236
:0A0AF40000010202030304040505DB
:0601B100E478FFF6D8FD22
:08018F007900E94400601B7ACD
:05019700009001DE787C
:03019C006A75A0E1
:0C019F00E0E493F2A308B8000205A0D928
:0601AB00F4DAF275A0FF7A
:0801B7007800E84400600A79B9
:0301BF006A75A0BE
:0601C200E0E4F309D8FCA3
:0801C8007800E84400600C79A6
:0B01D0000090E06AE4F0A3D8FCD9FA2C
:0301820075812262
:0A018500120AFEE582600302020385
:030AFE00758200FE
:010B010022D1
:00000001FF
