:06000000021BAF02006BC1
:03000B0002006B85
:0300130002006B7D
:03001B0002006B75
:0300230002006B6D
:03002B0002006B65
:0300330002006B5D
:03003B0002006B55
:0300430002006B4D
:03004B0002006B45
:0300530002006B3D
:03005B0002006B35
:0300630002006B2D
:01006B003262
:0900800002006B0002006B00029B
:08008900006B0002006B000295
:08009100006B0002006B00028D
:08009900006B0002006B000285
:0800A100006B0002006B00027D
:0800A900006B0002006B000275
:0700B100006B0002006B0070
:0901000002006B0002006B00021A
:08010900006B0002006B000214
:08011100006B0002006B00020C
:08011900006B0002006B000204
:08012100006B0002006B0002FC
:08012900006B0002006B0002F4
:08013100006B0002006B0002EC
:08013900006B0002006B0002E4
:08014100006B0002006B0002DC
:08014900006B0002006B0002D4
:08015100006B0002006B0002CC
:08015900006B0002006B0002C4
:08016100006B0002006B0002BC
:08016900006B0002006B0002B4
:08017100006B0002006B0002AC
:07017900006B0002006B00A7
:08018000780DE84400600C79E1
:0C01880001902000E4F0A3D8FCD9FAD0CC
:0E01940083D082F6D8FDC082C083758200221F
:0CE0000012010002FFFFFF40FEFF0700BE
:06E00C0000010102040105
:0AE012000A060002FFFFFF400100B4
:0EE01C00090220000101008032090400000208
:0EE02A00FFFFFF030705020200020007058644
:04E0380002000200E0
:0CE03C0012010002FFFFFF40FEFF070082
:06E04800000101020001CD
:0AE04E000A060002FFFFFF40010078
:0EE058000902120001010080320904000000DC
:04E06600FFFFFF03B6
:01E06A0005B0
:02E06B0076E05D
:02E06D007CE055
:02E06F00A4E02B
:02E07100C4E009
:02E07300E6E0E5
:06E076000603000009048E
:0EE07C00280346007200650065002000530076
:0EE08A006F0066007400770061007200650090
:0CE09800200046006F006C006B0073005D
:0EE0A4002003480050005300440052002000AA
:0EE0B2004F005A005900200052006500760011
:02E0C00020003E
:02E0C2003F001D
:0EE0C400220343006F006D006D0061006E00CE
:0EE0D20064002000260020005300740061004E
:06E0E000740075007300DE
:02E0E600120323
:0EE0E80031002E0034003100340032003100CF
:02E0F6003300F5
:0101A200223A
:0201A300AA822E
:0601A5001201A2DAFB22A8
:0301AB0090FB5076
:0801AE00A3E582458370F922EC
:0401B600AA82AB83EB
:0801BA001201AB1ABAFF011B90
:0501C200EA4B70F4227D
:0801C70090E6A0E04401F022E3
:0E01CF00AA8274805AC423541FFB740F5A90E6
:0C01DD00E6834BF090E683E04420F02223
:0E01E90090E680E0440AF09000FA1201B69011
:0E01F700E65D74FFF090E65F74FFF05391EF49
:0802050090E680E054F7F022BE
:0A020D00AA82E55E700475820122EA
:0E02170090E678E0FB20E6F890E6787480F040
:0A022500EA2AFA90E67974014AF023
:0E022F0090E678E0FA30E0F890E678E0FA30F9
:05023D00E2030202C211
:0B02420090E678E0FA20E1030202C21F
:0C024D007401B55E0890E678E0FA4420E9
:01025900F0B4
:09025A0090E679E0F55FAA5CABC7
:030263005DAC5E31
:040266001CEC6030FC
:0E026A0090E678E0FD30E0F890E678E0FD20C8
:0D027800E248BC010890E678E0FD4420F06B
:0E02850090E679E0FD8A828B83F0A3AA82AB1B
:07029300838A5C8B5D80CCC7
:0E029A0090E678E0FA30E0F890E678E0FA209E
:0C02A800E21890E678E04440F0AA5CAB5D
:0C02B4005D90E679E08A828B83F0758211
:0202C000012219
:0B02C20090E678E04440F075820022D6
:0202CD00AA8203
:0E02CF0090E678E0FB20E6F890E6787480F088
:0702DD00EA2AFA90E679F02D
:0E02E40090E678E0FA30E0F890E678E0FA2054
:0C02F200E24790E678E0FA30E13FAA5CB9
:0402FE00AB5DAC5EEA
:0E030200EC602B8A828B83E0FDA3AA82AB8382
:0603100090E679EDF01CFF
:0E03160090E678E0FD30E0F890E678E0FD201B
:0C032400E21590E678E0FD20E1D4800BAB
:0B03300090E678E04440F07582012266
:0B033B0090E678E04440F0758200225C
:05034600AA82BA0300C9
:07034B004005EA249C50016B
:010352002288
:09035300740F5AFBBB0302800782
:07035C00740F5AFBBB0B45B7
:0A036300A2AF9200C2AFEA2400F539
:0C036D0082E43400F5837402F07B00741D
:0C037900012AFCE43BFDEC2400F582EDC1
:0A0385003400F583E55DFCF074021E
:0C038F002AFAE43BFBEA2400F582EB3480
:0A039B0000F583AA5C7B00EAF0A2E3
:0303A5000092AF14
:0103A8002232
:0803A900E582FA2483500122D1
:0603B100EA540360012282
:0A03B700A2AF9201C2AFEA2400F5E4
:0C03C10082E43401F5837402F07B0074C8
:0C03CD00012AFCE43BFDEC2400F582ED6D
:0A03D9003401F583E55DF074022A9B
:0B03E300FAE43BFBEA2400F582EB3457
:0803EE0001F583AA5CEAF0A20C
:0403F6000192AF229F
:0503FA00AA82BA800098
:0703FF004005EA244B500108
:0104060022D3
:06040700EA54036001222B
:0A040D00A2AF9202C2AFEA2480F50C
:0C04170082E43400F5837402F07B007472
:0C042300012AFCE43BFDEC2480F582ED96
:0A042F003400F583E55DF074022A45
:0B043900FAE43BFBEA2480F582EB3480
:0804440000F583AA5CEAF0A2B6
:04044C000292AF2247
:08045000C2E8C2EA755C007508
:060458005D0175824312F4
:04045E000346755C80
:0304620080755D45
:0C046500007582531203460090E650E43C
:0E047100F00090E652E4F00090E654E4F00053
:0E047F0090E656E4F00090E65174FFF0009015
:0E048D00E65374FFF00090E65574FFF0009007
:0E049B00E65774FFF00090E658E4F090E65942
:0E04A90074FFF090E65AE4F090E65B74FFF00A
:0E04B70090E65CE4F090E65D74FFF090E65E87
:0E04C500E4F090E65F74FFF00090E660E4F073
:0D04D3000090E66174FFF090E662E4F090A6
:0E04E000E66374FFF090E665E4F090E6687461
:0A04EE000BF05391AFD2E8D2EA22DE
:0804F800E582FA7003F5B12260
:04050000EA42B122F8
:090504007582001204F8C2812284
:0A050D00AA827B00EA30E0027B01C5
:05051700EA30E1010BD8
:05051C00EA30E2010BD2
:05052100EA30E3010BCC
:05052600EA30E4010BC6
:05052B00EA30E5010BC0
:05053000EA30E6010BBA
:05053500EA30E7010BB4
:03053A008B82228F
:0C053D00AA82850982C00212050DAB8263
:0B054900D002EB24FE5004758200225B
:0B055400850982C0021204F8D002E505
:08055F000A30E7047582002256
:0C0567007460550AFB6023BB2002800575
:05057300BB40178008E9
:080578008508821206048011BF
:090580008A821206048508821229
:0405890006048004E0
:04058D007582002251
:06059100E50D600C850D74
:0505970015850B8285B3
:05059C000C831206BCF7
:0A05A1007582001204F87582012231
:0C05AB00AA82850F82C0021204F8D00260
:0905B700E51030E7047582002212
:0C05C00074605510FB6023BB2002800516
:0505CC00BB4017800890
:0805D100850E82120604801160
:0905D9008A82120604850E8212CA
:0405E2000604800487
:0405E60075820022F8
:0605EA00E513600C85130F
:0505F000148511828555
:0505F5001283120655FF
:0A05FA007582001204F875820122D8
:0E060400E58223FA139281D280C280EA23FAA3
:0E061200139281D280C280EA23FA139281D221
:0E06200080C280EA23FA139281D280C280EA5F
:0E062E0023FA139281D280C280EA23FA13923B
:0E063C0081D280C280EA23FA139281D280C25A
:0B064A0080EA23139281D280C280223C
:06065500AA82AB83AC1485
:0E065B008C051CED601E8A828B83E0FDA3AA35
:0E06690082AB838D82C002C003C0041206045F
:08067700D004D003D00280DCA6
:01067F002258
:0E068000E4D280A28333C280D280A28333C230
:0E068E0080D280A28333C280D280A28333C286
:0E069C0080D280A28333C280D280A28333C278
:0E06AA0080D280A28333C280D280A28333C26A
:0406B80080F5822225
:0606BC00AA82AB83AC151D
:0E06C2008C051CED6012120680AD828A828BC0
:0A06D00083EDF0A3AA82AB8380E85B
:0106DA0022FD
:0A06DB00AA82AB83C2AD8A5C8B5D7E
:0E06E50075822B12034675CB6375CAC075C8AB
:0406F30004D2AD225E
:061BAF0075160075170019
:0A06F70090E680E0FA30E71975186C
:0307010000751967
:03070400E0751A83
:0307070012751B4D
:03070A00E0751C7B
:03070D001C751D3B
:03071000E0751E73
:0307130058751FF7
:02071600E022DF
:0407180075183C759F
:03071C0019E0756C
:03071F001A4E75FA
:030722001BE07564
:030725001C5875E8
:030728001DE0755C
:03072B001E1C751C
:03072E001FE022A7
:090731005391EF75A100D20332CF
:0C073A00C021C0E0C0F0C082C083C0023B
:0E074600C003C004C005C006C007C000C0014B
:0E075400C0D075D0005391EF75A1001206F7CA
:0E076200D0D0D001D000D007D006D005D004F2
:0D077000D003D002D083D082D0F0D0E0D0F2
:02077D00213227
:0C077F00C021C0E0C0F0C082C083C002F6
:0E078B00C003C004C005C006C007C000C00106
:0E079900C0D075D0005391EF75A1001206F785
:0E07A700D0D0D001D000D007D006D005D004AD
:0D07B500D003D002D083D082D0F0D0E0D0AD
:0207C2002132E2
:0507C4001206F7755C50
:0307C90031755D2A
:0807CC00077582001203A975F4
:0307D4005C3A7517
:0607D7005D07758210129F
:0407DD0003A9755C9B
:0307E1007F755DC4
:0C07E400077582141203A990E65C7431C2
:0207F000F022F5
:0D07F200E582547FFA24F75004758200223E
:0707FF00BA0104758201221A
:08080600530201E4BA000104F1
:03080E00F582224E
:0E081100AA82BA010C90E6A1E0FB7C008B826B
:03081F008C8322A5
:0E082200BA810C90E6A2E0FB7C008B828C83F6
:0108300022A5
:0E08310053027FEA700C90E6A0E0FB7C008B87
:04083F00828C832202
:0E08430090E6A3E0FB7C00EAC313FA7D00EA16
:090851002BFBED3C8B82F58322A8
:0D085A0090E6B8E0FA53021FBA00028005D4
:05086700BA02458012F9
:0A086C0090E6BAE0FABA0102800536
:05087600BA020280033C
:03087B001201C7A0
:0E087E0090E6BAE0FA702A90E6BCE0F582122D
:0D088C0007F2E582601A90E6BCE0F58212EA
:0E0899000811AA82AB83E0FC4304018A828B23
:0508A70083ECF080036A
:0308AC001201C76F
:0308AF000201C77C
:0D08B20090E6B8E0FA53021FBA000280057C
:0508BF00BA02408007B1
:0708C40090E6BAE00201C753
:0D08CB0090E6BAE0702E90E6BCE0F58212D7
:0D08D80007F2E582602190E6BCE0F5821297
:0E08E5000811AA82AB83E0FC5304FE8A828BCA
:0C08F30083ECF090E6BCE0F5820201CF3F
:0308FF000201C72C
:030902000201C728
:0D09050090E6B8E0FA53021FBA0002800A23
:05091200BA0102801B88
:05091700BA025F802A16
:0E091C0090E7407401F090E741E4F090E68A25
:08092A00F090E68B7402F0224C
:0E09320090E740E4F090E741F090E68AF09004
:06094000E68B7402F022B8
:0E09460090E6BCE0F5821207F2E58260239095
:0E095400E6BCE0F582120811E0FA53020190B1
:0E096200E740EAF090E741E4F090E68AF0907A
:06097000E68B7402F02288
:030976000201C7B4
:030979000201C7B1
:0A097C0090E6BBE0FABA0102801712
:05098600BA02028030FE
:05098B00BA03028049DF
:05099000BA0602801709
:05099500BA07028030EA
:03099A00020A0B43
:0A099D00AA18AB1990E6B3EBF09036
:0509A700E6B4EAF022B5
:0A09AC00AA1AAB1B90E6B3EBF09023
:0509B600E6B4EAF022A6
:0A09BB00AA1CAB1D90E6B3EBF09010
:0509C500E6B4EAF02297
:0A09CA00AA1EAB1F90E6B3EBF090FD
:0509D400E6B4EAF02288
:0E09D90090E6BAE0FA90E06AE0FBC3EA9B40C9
:0409E700030201C73F
:0C09EB0090E6BAE075F002A4246BF582DF
:0B09F70074E035F0F583E0FAA3E09017
:090A0200E6B3F090E6B4EAF0223C
:030A0B000201C71E
:0C0A0E0090E6B9E0FA6036BA0602802ECD
:050A1A00BA080280058E
:050A1F00BA0A2C801250
:0C0A240090E740E516F090E68AE4F090C0
:060A3000E68B7401F022C8
:0C0A360090E740E517F090E68AE4F090AD
:060A4200E68B7401F022B6
:030A480002097C24
:030A4B0002090598
:030A4E000201C7DB
:0A0A510090E6B9E0FABA010280272E
:050A5B00BA0302802532
:050A6000BA050280232D
:050A6500BA0702801E2B
:050A6A00BA090280053D
:050A6F00BA0B16800720
:070A740090E6BAE0F516223E
:070A7B0090E6BAE0F5172236
:030A82000208B2B5
:030A850002085A0A
:030A88000201C7A1
:0E0A8B0090E6B8E0FA530280BA8003020A0E29
:030A9900020A51FD
:0C0A9C00C20390E6B8E0FA530260BA0012
:030AA80002801EAB
:050AAB00BA20028008E2
:050AB000BA40028008BD
:030AB500BA60160E
:050AB8001201C78014CB
:0C0ABD00120FCEE582700D1201C78008F8
:050AC900120A8B8003FE
:030ACE001201C74B
:080AD10090E6A0E04480F02251
:070AD900AA82BA0A027A0D9D
:050AE00010990280FBEB
:030AE5008A9922C9
:080AE800AA82AB83ACF07D0093
:0E0AF0008D060DEE2AFEE43BFF8C008E828FF9
:0E0AFE008388F0121B93FEFF60178F82C002E8
:0E0B0C00C003C004C005120AD9D005D004D021
:050B1A0003D00280D1B0
:010B1F0022B3
:090B2000E582FA700443A04022B2
:040B290053A0BF22F4
:090B2D00E582FA700443A0802265
:040B360053A07F2227
:040B3A0063A0402252
:040B3E0063A080220E
:030B4200020504A5
:0B0B4500AA82902000E4F0902001E55F
:040B500022F0755CBE
:030B540000755DCC
:090B570020755E028A82C00212C0
:0B0B600002CDE582D0027003F5822276
:040B6B0085235C85FD
:030B6F00245D857D
:050B7200255E8A8202ED
:020B7700020D6D
:0E0B790053A0C07582281201A343A0027A0087
:0E0B8700E5A020E4140A758232C0021201A318
:050B9500D002BAFF00D0
:060B9A0040EB7582002211
:040BA0007582012237
:0E0BA400E5821392A0D2A2C2A21392A0D2A206
:0E0BB200C2A21392A0D2A2C2A21392A0D2A2FB
:0E0BC000C2A21392A0D2A2C2A21392A0D2A2ED
:0E0BCE00C2A21392A0D2A2C2A21392A0D2A2DF
:030BDC00C2A22290
:060BDF00AA82AB26AC2740
:0E0BE5008A051AED60128B828C83E0FDA3ABB3
:0A0BF30082AC838D82120BA480E80F
:010BFD0022D5
:070BFE00858226858327850F
:090C05002882120BDF7582012226
:0A0C0E00E5A0FA20E404758200223C
:0A0C1800530208BA08047582012295
:040C220075820022B5
:0E0C260090E6007412F0758E0090E60174F3F3
:0E0C3400F0000090E6047480F00090E6047476
:0E0C420002F00090E6047404F00090E60474E2
:0E0C500006F00090E6047408F00090E604E45C
:0E0C5E00F00075800075B20375A0C075B4E794
:0D0C6C0075B10075B6ED90E61074A0F09023
:0E0C7900E61174A0F00090E61274A0F0009056
:0D0C8700E61474E2F0000090E609E4F0903D
:0E0C9400E6187401F00090E6187411F000905C
:0D0CA200E6207402F00090E621E4F00090DE
:0E0CAF00E61A7409F00090E6247402F000903A
:0E0CBD00E625E4F0000090E6027498F0009046
:0E0CCB00E60374FEF043AF0190E68AE4F00009
:0E0CD90090E68DE4F00090E608E04401F0752E
:070CE7009850D299020B4264
:031BC500021BCD33
:031BB5007529018E
:031C2600021BC8D6
:051BC80012103580FE43
:050CEE0090E68BE4F02C
:090CF30090E6A0E0FA20E1F822ED
:0C0CFC0090E6B9E0FA24F05003020E93D9
:070D0800EA2A2A900D0F7387
:070D0F00020E93020D3F02EA
:060D16000D67020E9302BE
:060D1C000E93020E93028B
:060D22000E93020E930285
:060D28000D91020DB50261
:060D2E000E93020DEB0222
:060D34000E38020E090258
:050D3A000E93020E5EA5
:0C0D3F0090E6BCE0FA6005BA011A800CD6
:0C0D4B0090E6BAE0F582120B20020E9731
:0C0D570090E6BAE0F582120B2D020E9718
:040D63007582002273
:0C0D670090E6BCE0FA600ABA01028008C5
:050D7300BA0217801216
:030D7800020B79F2
:0C0D7B00120CEE90E68BE0F52890E740AB
:030D8700020BFE5E
:030D8A00020C0E4A
:040D8D007582002249
:0C0D9100120CEE90E6BAE0FA755C4075BA
:0A0D9D005DE790E68BE0F55E8A82C8
:0A0DA7001202CDE5826003020E97F0
:040DB1007582002225
:0D0DB500120CEE90E6BBE0FA90E6BAE0F515
:0A0DC2000E90E6BDE0F50F90E6BCD0
:070DCC00E0F5107511407500
:0A0DD30012E790E68BE0F5138A8228
:0A0DDD001205ABE5826003020E97D9
:040DE70075820022EF
:0E0DEB0090E6BAE0FABA010B90E67AE0FA441C
:050DF90001F0020E975D
:0B0DFE0090E67AE0FA54FEF0020E9737
:0C0E090090E6BBE0FA90E6BAE0F531900C
:0A0E1500E6BDE0F53290E6BCE0F522
:050E1F0033753440753D
:0A0E240035E790E68BE0F5368A8290
:0A0E2E00121444E5827062F582227E
:0E0E380090E6BAE0700890E6007402F0805177
:0E0E460090E6BAE0FABA010890E600740AF0ED
:020E54008041DB
:080E560090E6007412F08039EF
:0C0E5E0090E6BCE0FA600FBA02028013BC
:050E6A00BA030280172D
:050E6F00BA041D80180B
:090E740090E6BAE0F582021915BE
:090E7D0090E6BAE0F5820219D7F3
:060E8600120CEE021A88B6
:030E8C00021AF84F
:040E8F007582002246
:040E93007582002242
:040E9700758201223D
:0B0E9B0090E6B9E0FABA0D03020F3335
:060EA600BA0F03020FB0B9
:050EAC00BA8102801470
:050EB100BA8202803D41
:060EB600BA8403020F7C68
:060EBC00BA8503020F9647
:030EC200020FC656
:0A0EC50090E6BAE0FA755C40755D36
:0C0ECF00E790E6BEE0F55E8A8212020D9C
:070EDB00E5827003F582229D
:0E0EE20090E68AE4F090E6BEE0FA90E68BF02F
:030EF000020FCA24
:0C0EF30090E6BBE0FA90E6BAE0F508904B
:0A0EFF00E6BDE0F50990E6BCE0F561
:050F09000A750B4075A4
:0A0F0E000CE790E6BEE0F50D8A82C4
:0A0F180012053DE5827003F5822208
:0E0F220090E68AE4F090E6BEE0FA90E68BF0EE
:030F3000020FCAE3
:0C0F330090E6BBE0FA90E6BAE0F53B90D7
:0A0F3F00E6BDE0F53C90E6BCE0F5ED
:050F49003D753E4075FE
:0A0F4E003FE790E6BEE0F5408A821E
:0E0F58001214EDE582700D901C2975F08012C8
:060F66000AE8758200227A
:0E0F6C0090E68AE4F090E6BEE0FA90E68BF0A4
:020F7A00804EA7
:0E0F7C0090E678E0FA53021890E740EAF09011
:0C0F8A00E68AE4F090E68B7401F08034FD
:0E0F960090E67AE0FA53020190E740EAF0900C
:0C0FA400E68AE4F090E68B7401F0801AFD
:0C0FB00090E6BCE0FA6005BA010880037E
:030FBC0002190017
:030FBF00021926EE
:040FC2007582002212
:040FC600758200220E
:040FCA007582012209
:0B0FCE0090E6B8E0FABAC003020E9BE8
:0B0FD90090E6B8E0FABA4003020CFCFE
:040FE40075820022F0
:080FE8003003FD120A9C80F8A1
:0A0FF000C0E0D5291375293263A073
:0B0FFA0040E5A030E60553A07F800317
:0310050043A08085
:05100800C2CFD0E03270
:04100D0075230275D0
:0310110024207523
:09101400220575250175825112B7
:08101D000B45902002E0FA905F
:0C102500E00CF090E048EAF074302A90F3
:04103100E0C2F02207
:0D103500120C26758201120B20758200122C
:081042000B2DC2AF12100D12BC
:06104A0004501207C47AF5
:08105000F07B0F8A828B8312F2
:0A10580006DBD2EAD2AF1201E990E4
:091062001C4075F080120AE890B0
:09106B001C5775F080120AE89090
:091074001C6375F080120AE8907B
:09107D001C6575F080120AE89070
:091086001C6E75F080120AE8905E
:09108F001CE375F080120AE8026E
:021098000FE85F
:0E1C2900736472316B696E206572726F722087
:091C37006261696C6F75740A00AA
:0E1C40000A0A4850534452204F7A79204669D0
:091C4E00726D776172652E2000B1
:0C1C570044656320323420323030380005
:021C630020005F
:091C650031323A30363A323400D3
:0E1C6E000A436F7079726967687420323030F3
:0E1C7C00332C20323030342C20323030362CD5
:0E1C8A002032303037205068696C20436F766E
:0E1C9800696E67746F6E20284E385642292CF4
:0E1CA6002042696C6C205472616365792028BD
:0E1CB4004B4435544644292C0A616E64204688
:0E1CC20072656520536F667477617265204607
:0E1CD0006F756E64617461696F6E2C20496ED1
:051CDE00632E0A0A005C
:0E1CE3005468697320636F6465206973206C18
:0E1CF1006963656E73656420756E64657220AC
:0E1CFF0074686520474E552047656E6572611A
:0E1D0D006C205075626C6963204C6963656ED2
:0E1D1B0073652056657273696F6E20320A0A76
:011D290000B9
:031BB800752D0088
:0E109A00E582FAC4540FFB53030F53020FBB41
:0210A8000A003C
:0710AA004015AC5CAD5DAE2A
:0C10B1005E74572BFF8C828D838EF01232
:0410BD001B7A801307
:0510C100AC5CAD5DAE6A
:0C10C6005E74302BFB8C828D838EF01248
:0210D2001B7A87
:0310D400BA0A0055
:0A10D700401A7401255CFBE4355D4E
:0C10E100FCAD5E74572AFE8B828C838D60
:0610ED00F0121B7A8018CE
:0A10F3007401255CFBE4355DFCADE3
:0C10FD005E74302AFA8B828C838DF01216
:021109001B7A4F
:0A110B007402255CFAE4355DFBACCC
:0B1115005E8A828B838CF0E4021B7A60
:0E112000AA8290200BEAF0901D2A75F080C084
:08112E0002120AE8D002755C10
:051136002A755D007543
:08113B005E408A8212109A90B6
:09114300002A75F040120AE89040
:09114C001D3C75F080120AE875E3
:061155000E01750F80750C
:04115B0010207511DA
:03115F000B7512FB
:081162002075130175820012D3
:0D116A0005ABE582700D901D3E75F0801202
:061177000AE87582002267
:0D117D00901D5275F080120AE87582012263
:01118A002242
:08118B00AA82BA0203852E2D91
:0711930090200CE52EF07521
:06119A000E01750F8075C7
:0411A0001020751195
:0311A4000C7512B5
:0A11A70020751301758200C00212CA
:0E11B10005ABAB82D002EB7010901D6675F09E
:0B11BF0080C003120AE8D003021246B1
:0E11CA00758202C0021201A3D00290200CEA2E
:0811D800F0750E02750F807521
:0411E0001020751155
:0311E4000C751275
:0811E70020751301758200124E
:0E11EF0005ABE582FB700F901D8275F080C08D
:0811FD0003120AE8D00380414F
:0C1205007582021201A390200CE4F07529
:061211000E02750F80754E
:04121700102075111D
:03121B000C75123D
:08121E00207513017582001216
:0E12260005ABE582FB700F901D9E75F080C039
:0812340003120AE8D003800A4E
:0A123C00758202C0031201A3D00363
:031246008B822276
:0C124900752E4075820812118BE582FAA8
:0E125500700F901DBA75F080C002120AE8D02A
:03126300028050B6
:0C1266007582021201A3752EC07582086B
:0E12720012118BE582FA700F901DD075F0807E
:09128000C002120AE8D002802D20
:0C1289007582021201A3752E40758208C8
:0E12950012118BE582FA700F901DE675F08045
:0912A300C002120AE8D002800A20
:0A12AC00758202C0021201A3D002F5
:0312B6008A822207
:0A12B900AA82852F2E758204C00260
:0E12C30012118BAB82D0027C00EB4C701490A9
:0E12D1001DFC75F080C003C004120AE8D004B2
:0512DF00D00302138D95
:0E12E400758202C0021201A3D00274404AF5C6
:0C12F2002E758208C00212118BAD82D054
:0E12FE00028D037C00EB4C7013901E1275F0F5
:0E130C0080C003C004120AE8D004D00380732E
:0C131A00758202C0021201A3D0028A2ECC
:0E132600758208C00212118BAD82D0028D03B9
:0E1334007C00EB4C7013901E2875F080C003F7
:0B134200C004120AE8D004D003804071
:0E134D00758202C0021201A3D00274404AF55C
:0C135B002E75820812118BAA828A037C76
:0E13670000EB4C7013901E3E75F080C003C06A
:0A13750004120AE8D004D003800E31
:0E137F00758202C003C0041201A3D004D00383
:03138D008B82222E
:0C139000AA82AB2D430320EA30E40543A1
:04139C0003108003B7
:0313A0005303EF05
:0913A300EA30E30543030880036E
:0313AC005303F7F1
:0C13AF004303045303FDE53060627A073D
:0213BB007C00B4
:0E13BD00EC20E7698AF005F07D017E008006D5
:0613CB00ED2DFDEE33FEE6
:0C13D100D5F0F7AF307800EF5205E8527D
:0A13DD0006ED4E6005430301800396
:0313E7005303FEAF
:0C13EA008B2E758202C002C003C00412EA
:0C13F600118BD004D0034303028B2E7532
:0E1402008202C003C00412118BD004D003D0AC
:09141000025303FD1ABAFF011C8E
:0214190080A2AF
:0B141B005303FB8B2E758202C00312EE
:04142600118BD00353
:0B142A005303DF8B2E758202C00312FB
:0C143500118BD00374204BF52E75820241
:0314410002118B0A
:09144400E53124FA4040E53125B0
:04144D003125319084
:03145100145473BD
:0714540002148A0214840255
:06145B00146602146F028A
:05146100147202147B6F
:0414660085332E8517
:05146A00328202118B2B
:03146F000212491D
:0414720085332F850A
:0514760032820212B9F0
:04147B008533308500
:05147F0032820213900F
:06148400853382021120F5
:04148A007582002245
:07148E0085820B85830C75BC
:0614950008437509807593
:04149B000A20853767
:07149F000D75820002053DFE
:0A14A600AA82AB83756032756130D5
:0714B00075623075633775AA
:0614B70064307565377515
:0614BD006632756732750E
:0514C30068007C607D63
:0314C800007E4063
:0E14CB008C828D838EF0121B93FF60128A823A
:0E14D9008B83EFF0A3AA82AB830CBC00E50D61
:0214E70080E2A1
:0414E90075820122E5
:0714ED007406B53B02800705
:0714F4007407B53B1A800CE0
:0414FB00854037856C
:0614FF003E82853F8302DE
:02150500148E42
:0415070085405C853A
:06150B003E82853F8302D1
:0215110014A61E
:0D151300901E5475F080120AE875820022C7
:0E1D2A00736574446174615265672076616C64
:041D38003D307800C2
:021D3C000A009B
:0E1D3E00736574446174615265672062616967
:061D4C006C6F75740A00C3
:0E1D52007365744461746152656720676F6F3A
:061D6000642072630A001A
:0E1D66006C61746368206261696C206F757433
:0E1D74002073706920777269746520310A004F
:0E1D82006C61746368206261696C206F757417
:0E1D90002073706920777269746520320A0032
:0E1D9E006C61746368206261696C206F7574FB
:0E1DAC002073706920777269746520330A0015
:0E1DBA00444453205265736574206261696C65
:081DC800206F757420310A0040
:0E1DD000444453205265736574206261696C4F
:081DDE00206F757420320A0029
:0E1DE600444453205265736574206261696C39
:081DF400206F757420330A0012
:0E1DFC00444453205772697465206261696C1B
:081E0A00206F757420310A00FD
:0E1E1200444453205772697465206261696C04
:081E2000206F757420320A00E6
:0E1E2800444453205772697465206261696CEE
:081E3600206F757420330A00CF
:0E1E3E00444453205772697465206261696CD8
:081E4C00206F757420340A00B8
:0E1E5400536472316B5F436F6E74726F6C4932
:0E1E62006E3A206E6F7420696D706C656D6550
:061E70006E7464210A00FB
:071BBB00E4F541F542E4F5F9
:031BC20043F544A4
:0E152000AA8274F055B142028AB174044AF5F1
:02152E00B122E8
:0C153000121520E5B130E10475820122A3
:04153C007582002292
:06154000AA82AB837C00CF
:0C154600C3EC64808550F063F08095F0E9
:0C15520050538CF005F0AD02AE03800792
:07155E00C3EE13FEED13FDC7
:0B156500D5F0F6ED30E0047D018002BF
:021570007D00FC
:0A157200E551601DE550FE3395E0E1
:06157C00FF1EBEFF011F6F
:0E158200ECF83395E0F9E8B50607E9B5070384
:0315900043050808
:0E1593008D82C002C003C004121520D004D007
:0615A10003D0020C809F44
:0115A7002221
:0A15A800AA82AB837C007D007E0068
:0C15B200C3EE64808552F063F08095F079
:0C15BE0050538EF005F0AF02A803800728
:0715CA00C3E813F8EF13FF63
:0B15D100D5F0F6EF30E0047F0180024F
:0215DC007F008E
:0D15DE008F82C002C003C004C005C0061209
:0E15EB001530AF82D006D005D004D003D00258
:0815F90078008EF005F0800679
:06160100EF2FFFE833F8B3
:0C160700D5F0F7EF4204E842050E809F8A
:051613008C828D832292
:0E1618007A017B04AC82EC5AF5B14BF5B1ECD3
:0E16260003FC5AF5B14BF5B1EC03FC5AF5B1DB
:0E1634004BF5B1EC03FC5AF5B14BF5B1EC03EC
:0E164200FC5AF5B14BF5B1EC03FC5AF5B14B77
:0E165000F5B1EC03FC5AF5B14BF5B1EC03FC1F
:07165E005AF5B14BF5B12272
:0E1665007582081215207582081215207582F4
:0E1673000812152075820812152075820802D3
:02168100152032
:09168300121665758200021520A3
:0D168C00121683758208121520758208124F
:0C169900152075820012152075820002D9
:0216A50015200E
:0D16A700121683758208121520758200123C
:0816B4001520758200021520CB
:0716BC00AA82AB83AC411CC4
:0C16C300EC20E72EECB553068A058B06E0
:0216CF00800495
:0416D1007DFF7E0318
:0516D500E4BC0001046B
:0A16DA00F55175500A8D828E83C011
:0E16E40002C003C004121540D004D003D0028F
:0316F2001C80CE8B
:0616F500758208021520B9
:0716FB00754105E4F5421200
:09170200168C7553009003FF12D0
:0C170B0016BC75820812152075820012B1
:0C17170015207582001215207AA07B00BE
:0E172300758200C002C003121520D003D00250
:051731001ABAFF011BC4
:09173600EA4B70E9F54DF54E7522
:0A173F0052109000731215A8858265
:051749004D85834E7583
:0A174E0041FF7542FF7A007B007C2A
:03175800007D0011
:0E175B00C3EC9405ED6480948050308CF00552
:07176900F07E017F00800605
:06177000EE2EFEEF33FF38
:0A177600D5F0F7E54D5206E54E529E
:0A17800007EE4F60068A418B42809D
:01178A000B53
:05178B000CBC00010D83
:061790008C028D0380C5F0
:09179600E54230E7049000002256
:08179F008541F005F0AA4DABF5
:0317A7004E80076A
:0717AA00C3EB13FBEA13FA85
:0B17B100D5F0F6BA7305BB00028006FD
:0617BC007541FE7542FFBD
:0917C200E54220E7049000012239
:0417CB009000002268
:0C17CF00AA82C0021216A7D002AB411B78
:0E17DB00C3EB64808AF063F08095F040337CAD
:0117E90000FF
:0C17EA00C3EC648094845026EC2454F876
:0C17F600755208900000C002C003C0043F
:0E180200C0001215A8AD82AE83D000D004D075
:0818100003D002A6050C80D2F2
:031818001B80C072
:04181B00855749752F
:06181F004A00754B007544
:041825004C00854BA3
:031829005B854A92
:03182C005A854991
:05182F0059755800AEE0
:0918340056E4FFFAFBEE4558F5FD
:05183D0049EF4559F5DB
:051842004AEA455AF5D9
:051847004BEB455BF5D1
:03184C004C854B7D
:03184F005B854A6C
:031852005A85496B
:0518550059755800AEBA
:09185A0055E4FFFAFBEE4558F5D8
:0518630049EF4559F5B5
:051868004AEA455AF5B3
:05186D004BEB455BF5AB
:031872004C854B57
:031875005B854A46
:031878005A854945
:05187B0059755800AE94
:0918800054E4FFFAFBEE4558F5B3
:0518890049EF4559F58F
:05188E004AEA455AF58D
:051893004BEB455BF585
:021898004C22E0
:05189A00AA49AB4AACB5
:0A189F004BAD4C53030F5304F0BA95
:0D18A900DD0BBB0008BC0005BD0202800481
:0418B6007582002215
:0A18BA00AA4AE54BC4CAC4540F6AE1
:0C18C400CA540FCA6ACAFBE54CC454F0B9
:0C18D0004BFBE54CC4540F30E30244F025
:0D18DC00FC3395E0FD5302F0BAB002800528
:0518E900BAF00C8005BF
:0518EE00754F008009A8
:0518F300754F018004A7
:0418F80075820022D3
:0418FC0075820122CE
:0E19000090E740E5B1F090E68AE4F090E68BC7
:07190E007401F090000122BA
:0E191500AA8274F055B1FB740F5A4BF5B190D5
:031923000001229E
:0D1926001216FBE5828583F045F07026AABD
:0A19330041C3E49A90E740F0AA4D8A
:0C193D0090E741EAF0AA4E90E742EAF081
:0E19490090E68AE4F090E68B7403F0900001C3
:01195700226D
:051958001216A77A0041
:0C195D00EAFB3395E0FCC3EB9541EC6421
:0C196900808542F063F08095F050457BD3
:011975000071
:0C197600C3EB648094845038E541C39AB0
:0E19820025E025E024FE2B2440FCE434E7FDA4
:0C199000755208900000C002C003C004A3
:0E199C00C0051215A8AE82AF83D005D004D0CE
:0C19AA0003D0028C828D83EEF00B80C015
:0319B6000A80A400
:0C19B90090E740E4F0AA4190E741EAF01A
:0C19C500E54125E025E0FA90E68B740275
:0619D1002AF09000012243
:0E19D700AA82C0021216FBE5828583F0D002C0
:0819E50045F07004900000229F
:0C19ED00EAFB3395E0FCC3EB9541EC6491
:0C19F900808542F063F08095F04004907F
:031A0500000022BC
:0E1A08008A82C0021217CF12189AE582D0020D
:061A1600700490000022A4
:0C1A1C00C00212168CD0028A5390000207
:0D1A28001216BC758209121520758201127C
:091A35001520758201121520E54F
:091A3E004F60067A6D7B0C8004F8
:041A47007A2C7B0179
:041A4B007C007D009E
:0E1A4F00C3EC9AED64808BF063F08095F0504C
:0D1A5D001D758201C002C003C004C0051247
:0E1A6A001520D005D004D003D0020CBC00D74C
:031A78000D80D40A
:061A7B00E4F545F546F517
:071A810047F5489000012227
:0B1A880090E68BE0FAE54F7015C3E517
:081A930045942CE5469400E5A2
:0A1A9B00479400E548648094804001
:011AA500043C
:041AA6007B0080073A
:071AAA00AC45742CC39CFB4A
:0E1AB100C3EB64808AF063F08095F0501BEB6D
:0E1ABF002440F582E434E7F583E0F582C002AE
:0C1ACD00C003121618D003D0020B80D802
:0B1AD900EA3395E0FBFCFDEA2545F533
:051AE40045EB3546F55D
:051AE90046EC3547F555
:051AEE0047ED3548F54D
:051AF3004890000122F3
:041AF8007A107B00E5
:0A1AFC007550087551009000FFC0FE
:0E1B060002C003121540D003D0021ABAFF012C
:011B14001BB5
:0E1B1500EA4B70E375820912152075820812E2
:0C1B23001520758200121520758200123A
:0C1B2F001520758208121520758208121E
:0C1B3B0015207582001215207582001222
:041B4700152085439D
:0B1B4B00539000031216BC75820012BC
:061B560015207AC87B0097
:0E1B5C00758201C002C003121520D003D00212
:051B6A001ABAFF011B87
:0B1B6F00EA4B70E9121665900001229D
:061BFC00E478FFF6D8FDBD
:081BDA007900E94400601B7A68
:051BE20000901E767862
:031BE7000075A0E6
:0A1BEA0020E493F2A308B8000205FE
:081BF400A0D9F4DAF275A0FF9C
:0E1B7A0020F71030F6118883A88220F507F6B8
:051B8800A88375830035
:011B8D002235
:031B8E00F280F7EB
:021B9100F02240
:081C02007800E84400600A7953
:031C0A000075A0C2
:061C0D0020E4F309D8FCFD
:081C1300780DE84400600C7933
:0B1C1B0001902000E4F0A3D8FCD9FAEF
:031BCD00758168B7
:0A1BD000120180E5826003021BC8C9
:0E1B930020F71430F6148883A88220F507E6A8
:061BA100A88375830022F9
:031BA700E280F7E2
:031BAA00E493229F
:021BAD00E02234
:00000001FF
