:06000000020E4D02006B30
:03000B0002006B85
:0300130002006B7D
:03001B0002006B75
:0300230002006B6D
:03002B0002006B65
:0300330002006B5D
:03003B0002006B55
:0300430002006B4D
:03004B0002006B45
:0300530002006B3D
:03005B0002006B35
:0300630002006B2D
:01006B003262
:0900800002006B0002006B00029B
:08008900006B0002006B000295
:08009100006B0002006B00028D
:08009900006B0002006B000285
:0800A100006B0002006B00027D
:0800A900006B0002006B000275
:0700B100006B0002006B0070
:0901000002006B0002006B00021A
:08010900006B0002006B000214
:08011100006B0002006B00020C
:08011900006B0002006B000204
:08012100006B0002006B0002FC
:08012900006B0002006B0002F4
:08013100006B0002006B0002EC
:08013900006B0002006B0002E4
:08014100006B0002006B0002DC
:08014900006B0002006B0002D4
:08015100006B0002006B0002CC
:08015900006B0002006B0002C4
:08016100006B0002006B0002BC
:08016900006B0002006B0002B4
:08017100006B0002006B0002AC
:07017900006B0002006B00A7
:030E5300020E5636
:030E690002018003
:0501800012045D80FE89
:06018500C200E4F508F5DC
:04018B0009F50AD296
:05018F0001750B007575
:060194000C0012065A12D5
:0E019A00065775CB6375CAC0758E0075C80414
:0E01A800D2AFD2B0D2B190E6047480F00090D5
:0E01B600E60B7403F00090E61074A0F00090C9
:0D01C400E61174A0F00090E618E4F0009041
:0E01D100E6047402F00090E61274A2F00090B2
:0D01DF00E619E4F00090E6047404F00090CE
:0D01EC00E61374A0F00090E61AE4F0009015
:0E01F900E6047406F00090E61474E2F0009044
:0D020700E61BE4F00090E6047408F000909F
:0D021400E61574E0F00090E604E4F00090C0
:0E022100E60BE4F0000090E6917480F000908F
:0E022F00E6957480F00090E6917480F00090E7
:06023D00E6957480F0223A
:0B024300AA82850C827583E0EAF005BA
:05024E000C0509E4B5F8
:040253000902050A8D
:010257002284
:04025800200001225F
:0E025C0012065690E6A2E0FA30E1030202F12B
:0A026A00E509450A60697AC07BE7E8
:0E0274008B9D7AC07BE77B008A9E90E67C74AF
:0C02820031F07460F0C3743E9509E495FF
:0A028E000A50107A3EE50924C2F57B
:0602980009E50A34FFF540
:03029E000A8007CC
:0602A100AA09E4F509F5CD
:0102A7000A4C
:0B02A8008A037C007DE08D9A850B9B93
:0E02B3008A041AEC601190E67BE0FC90E67C79
:0902C100F07C007DE08D9A80E9DB
:0C02CA00859B0B0090E68F74022BF0D295
:0302D600CF8018BE
:0E02D90030CF1590E7C07431F090E7C174602B
:0A02E700F00090E68F7402F0C2CF21
:0602F100E5AA30E0012245
:0A02F700C3E50994C1E50A94004034
:020301000122D7
:0E03030090E691E0FA7B007CF08C9A7B007C07
:07031100F07C008B9B7B00D8
:08031800C3EB9A40030203D578
:0A032000E5086065EAC39BFCC3E535
:06032A00089C5002AC0823
:0A033000E508C39CF508EC2BFB3038
:04033A0001208C050D
:0E033E008D061DEE60D490E67BE0FEF582C0D9
:0E034C0002C003C0051206ECD005D003D0029B
:02035A0080E23F
:0E035C008C051CED60B690E67BE0FDF582C0DE
:0E036A0002C003C004120729D004D003D00241
:0E037800C002C003C004120243D004D003D060
:030386000280D31F
:0C03890090E67BE0FC30E6047D00800282
:020395007D01E8
:0C039700ED24FF9201EC30E707743F5C9E
:0403A300F508802AAF
:0C03A70030010F8C82C002C00312067CE3
:0603B300D003D002801807
:0E03B9008C82C002C0031206D9D003D002C04D
:0A03C70002C003120243D003D0026B
:0403D1000B02031800
:0803D5000090E6917480F02213
:0E03DD0090E6B8E0FA20E70C90E6B9E0700276
:0203EB00D2003E
:0403ED0075820122F2
:0E03F10090E6B9E0FABA902C90E6BCE025E068
:0A03FF00547FFA2400F582E434185C
:0C040900F583E0FB90E740F074012A242A
:0A04150000F582E43418F583E0FAE4
:06041F0090E741F0800CA3
:0C04250090E7407436F090E7417483F0DB
:0D04310090E68AE4F090E6BEE0FABA020020
:09043E00500790E6BEE0FA8002CE
:020447007A0237
:0904490090E68BEAF075820122B5
:0604520030020312099CB8
:0504580012025880F5BE
:09045D00C2AF1201851204BA12AB
:080466000D7E120906D2AF124F
:05046E00081B0204520E
:02E1000012010A
:06E10200100100000040C6
:06E10800C016AD06040084
:04E10E000102030106
:0AE112000A061001FFFFFF400100A4
:07E11C0009022000010100CF
:0EE12300804B0904000002FFFFFF0207058188
:0BE13100024000000705020240000051
:0EE13C001201100100000040C016AD060400E4
:04E14A0001020301CA
:0AE14E000A061001FFFFFF40010068
:0EE1580009022000010100804B0904000002B2
:0EE16600FFFFFF0207058102400000070502CF
:04E174000240000065
:01E1780004A2
:02E1790082E141
:02E17B0088E139
:02E17D0096E129
:02E17F00AEE10F
:06E1820006030000090481
:0EE188000E03690078006F002E006400650031
:0EE1960018035500530042002D004A005400AB
:0AE1A400410047002D00490046002D
:0EE1AE0012033000300030003000300030002E
:04E1BC0030003000FF
:0A047300AA82E50D54FEFBB50D0250
:02047D00802AD3
:0A047F008A048C05E4FC620EED62B5
:080489000FEB2400F582E434BE
:0A04910018F583E0FB7C00620EEC1E
:06049B00620FE50E33C5FF
:0704A1000F33C50F92E0F5D7
:0104A8000E45
:0604A900AB0D050DEB2474
:0A04AF0000F582E43418F583EAF04A
:0104B9002220
:0704BA00750D00750EAA7517
:0C04C1000FAA75820012047375820012ED
:0404CD0004737A003A
:0C04D100C3EA648094865018EA2408F501
:0C04DD0082E434E1F583E0FBF582C0020C
:0804E900120473D0020A80E046
:0204F1007A008F
:0C04F300C3EA648094825018EA2423F5C8
:0C04FF0082E434E1F583E0FBF582C002EA
:08050B00120473D0020A80E023
:0E05130075821C1204737582001204737A0044
:0C052100C3EA648094825018EA2402F5BA
:0C052D0082E434E1F583E0FBF582C002BB
:08053900120473D0020A80E0F5
:0C0541007486250DFAF582C002120473C6
:0E054D00D00290E188E0FBF582C00212047338
:0E055B00D00290E188E0FB2AFAF582C002127D
:0E0569000473D00290E196E0FBF582C002120E
:0E0577000473D00290E196E0FB2AFAF582129E
:0A058500047390E1AEE0FAF5821273
:04058F0004737A0077
:0E05930090E188E0FBC3EA64808BF063F080A7
:0B05A10095F05018EA2488F582E4343D
:0C05AC00E1F583E0FBF582C0021204734D
:0505B800D0020A80D60C
:0205BD007A00C2
:0E05BF0090E196E0FBC3EA64808BF063F0806D
:0B05CD0095F05018EA2496F582E43403
:0C05D800E1F583E0FBF582C00212047321
:0505E400D0020A80D6E0
:0205E9007A0096
:0E05EB0090E1AEE0FBC3EA64808BF063F08029
:0B05F90095F05018EA24AEF582E434BF
:0C060400E1F583E0FBF582C002120473F4
:05061000D0020A80D6B3
:020615007A0069
:0C061700C3EA648094845018EA240EF5B5
:0C06230082E434E1F583E0FBF582C002C4
:08062F00120473D0020A80E0FE
:0C0637007482250D4008758200120473C7
:0206430080F243
:0A064500AA0E7B0090187EEAF0AACE
:07064F000F90187FEAF02272
:010656002281
:010657002280
:01065800227F
:01065900227E
:0E065A0090E6007412F090E60174E0F075B1C5
:0E0668001F75B61F9001F4120E3AAAB474BDAD
:060676005A44BDF5B42258
:0A067C00E582FA30E0047B01800201
:020686007B00F7
:0D068800EB24FF92A2EA30E1047B01800226
:020695007B00E8
:0D069700EB24FF92A3EA30E2047B01800215
:0206A4007B00D9
:0D06A600EB24FF92A5EA30E3047B01800203
:0206B3007B00CA
:0D06B500EB24FF92A4EA30E4047B018002F4
:0206C2007B00BB
:0D06C400EB24FF92A0EA30E5047A018002E9
:0206D1007A00AD
:0606D300EA24FF92A722B9
:0E06D90012067CE4A2A63325E0FAE4A2A133C7
:0506E700FB4AF5822230
:0E06EC00E5821392A0D2A213C2A292A0D2A2C3
:0E06FA0013C2A292A0D2A213C2A292A0D2A2B8
:0E07080013C2A292A0D2A213C2A292A0D2A2A9
:0E07160013C2A292A0D2A213C2A292A0D2A29B
:0507240000C2A2222228
:0A072900AA8230A4058A8202073874
:050733008A8202078626
:0E073800E582A2A11392A0D2A2C2A2A2A11396
:0E07460092A0D2A2C2A2A2A11392A0D2A2C2DD
:0E075400A2A2A11392A0D2A2C2A2A2A11392AD
:0E076200A0D2A2C2A2A2A11392A0D2A2C2A2B1
:0E077000A2A11392A0D2A2C2A2A2A11392A093
:08077E00D2A2C2A2F5822222E0
:0E078600E582A2A61392A0D2A2C2A2A2A6133E
:0E07940092A0D2A2C2A2A2A61392A0D2A2C28A
:0E07A200A2A2A61392A0D2A2C2A2A2A6139255
:0E07B000A0D2A2C2A2A2A61392A0D2A2C2A25E
:0E07BE00A2A61392A0D2A2C2A2A2A61392A03B
:0807CC00D2A2C2A2F582222292
:0807D4007880E84400600C7914
:0C07DC0001901800E4F0A3D8FCD9FAD07A
:0E07E80083D082F6D8FDC082C08375820022C5
:0907F60090E6A0E0FA4401F022B3
:0E07FF00AA8274805AFBC423541FFB740F5A45
:0E080D0090E6834BF090E683E0FA4420F02260
:0E081B0090E680E0FA440AF09000FA120E3ADD
:0E08290090E65D74FFF090E65F74FFF053916F
:0A083700EF90E680E0FA54F7F0229B
:060E6300E478FFF6D8FD63
:060E4D0075100075110094
:0A08410090E680E0FA30E719751226
:03084B0000751322
:03084E00E175143D
:0308510012751508
:03085400E1751635
:030857001C7517F6
:03085A00E175182D
:03085D00587519B2
:02086000E12293
:0408620075123C755A
:0308660013E17526
:03086900144E75B5
:03086C0015E1751E
:03086F00165875A3
:0308720017E17516
:03087500181C75D7
:0308780019E12261
:09087B005391EF75A100D2023285
:0E088400C0E0C0F0C082C083C002C003C00448
:0E089200C005C006C007C000C001C0D075D0B0
:0E08A000005391EF75A100120841D0D0D00195
:0E08AE00D000D007D006D005D004D003D00271
:0908BC00D083D082D0F0D0E032EC
:0E08C500C0E0C0F0C082C083C002C003C00407
:0E08D300C005C006C007C000C001C0D075D06F
:0E08E100005391EF75A100120841D0D0D00154
:0E08EF00D000D007D006D005D004D003D00230
:0908FD00D083D082D0F0D0E032AB
:05090600120841751A02
:03090B007B751BDE
:08090E0008758200120CCF7580
:030916001A8475CB
:060919001B08758210129C
:04091F000CCF751A6A
:03092300C5751B7C
:0C09260008758214120CCF90E65C74314E
:02093200F022B1
:0D093400E582547FFA24F7500475820022FA
:07094100BA010475820122D6
:08094800530201E4BA000104AE
:03095000F582220B
:0E095300AA82BA010C90E6A1E0FB7C008B8228
:030961008C832262
:0E096400BA810C90E6A2E0FB7C008B828C83B3
:010972002262
:0E09730053027FEA700C90E6A0E0FB7C008B44
:04098100828C8322BF
:0E09850090E6A3E0FB7C00EAC313FA7D00EAD3
:090993002BFBED3C8B82F5832265
:0C099C00C20290E6B8E0FA530260BA0014
:0309A800028028A2
:0509AB00BA2002800DDE
:0509B000BA4002800EB8
:0509B500BA600280039E
:0309BA00020C63C9
:0609BD001207F6020C63B4
:0A09C3001203DDE5826003020C63FD
:0609CD001207F6020C63A4
:0D09D30090E6B8E0FA530280BA800280037B
:0309E000020B5FA8
:0B09E30090E6B9E0FABA0003020AD661
:0509EE00BA060280358D
:0509F300BA08028008B3
:0509F800BA0A0280179D
:0309FD00020B5991
:0C0A000090E740E510F090E68AE4F090EA
:080A0C00E68B7401F0020C639B
:0C0A140090E740E511F090E68AE4F090D5
:080A2000E68B7401F0020C6387
:0A0A280090E6BBE0FABA0102801765
:050A3200BA0202803849
:050A3700BA0302805922
:050A3C00BA0602801B58
:050A4100BA0702803C31
:030A4600020AD0D1
:0A0A4900AA12AB1390E6B3EBF07BAA
:090A53000090E6B4EAF0020C6325
:0A0A5C00AA14AB1590E6B3EBF07B93
:090A66000090E6B4EAF0020C6312
:0A0A6F00AA16AB1790E6B3EBF07B7C
:090A79000090E6B4EAF0020C63FF
:0A0A8200AA18AB1990E6B3EBF07B65
:090A8C000090E6B4EAF0020C63EC
:0E0A950090E6BAE0FA90E178E0FBC3EA9B40FD
:070AA300061207F6020C63C6
:0C0AAA0090E6BAE0FA75F002A42479F599
:0C0AB6008274E135F0F583E0FAA3E0FB68
:0E0AC20090E6B3F07B0090E6B4EAF0020C631D
:060AD0001207F6020C63A0
:0D0AD60090E6B8E0FA53021FBA0002800A51
:050AE300BA0102801BB6
:050AE800BA0268802C39
:0E0AED0090E740E4F090E741F090E68AF09048
:080AFB00E68B7402F0020C63AB
:0E0B030090E740E4F090E741F090E68AF09031
:080B1100E68B7402F0020C6394
:0E0B190090E6BCE0FAF582120934E58260260F
:0E0B270090E6BCE0FAF582120953E0FA5302A0
:0E0B35000190E740EAF090E741E4F090E68A94
:0A0B4300F090E68B7402F0020C63E0
:060B4D001207F6020C6322
:060B53001207F6020C631C
:060B59001207F6020C6316
:0C0B5F0090E6B9E0FA24F45003020C60A8
:070B6B00EA2A2A900B7273C5
:070B7200020C60020BA80257
:060B79000C26020C07022D
:060B7F000C60020C600294
:060B85000C60020C60028E
:060B8B000C60020B960253
:050B91000C60020B9F47
:090B960090E6BAE0F510020C63D0
:090B9F0090E6BAE0F511020C63C6
:0D0BA80090E6B8E0FA53021FBA0002800583
:050BB500BA024A800AAB
:0A0BBA0090E6BAE01207F6020C63A1
:0E0BC40090E6BAE0703390E6BCE0FAF58212DB
:0E0BD2000934E582602590E6BCE0FAF5821257
:0E0BE0000953AA82AB83E0FC5304FE8A828B89
:0E0BEE0083ECF090E6BCE0FAF5821207FF807F
:010BFC006692
:050BFD001207F6806103
:050C02001207F6805C02
:0E0C070090E6B8E0FA53021FBA005190E6BA28
:070C1500E0FABA01028005BC
:050C1C00BA0202804253
:050C21001207F6803D02
:0E0C260090E6BAE0FA702E90E6BCE0FAF58295
:0E0C3400120934E582601B90E6BCE0FAF582FE
:0E0C4200120953AA82AB83E0FC4304018A82AC
:060C50008B83ECF0800D27
:050C56001207F6800802
:050C5B001207F6800302
:030C60001207F682
:090C630090E6A0E0FA4480F022C2
:050C6C00AA82BA03009A
:070C71004005EA249C50013C
:010C78002259
:090C7900740F5AFBBB0302800753
:070C8200740F5AFBBB0B4588
:0A0C8900A2AF9203C2AFEA2400F507
:0C0C930082E43400F5837402F07B0074EE
:0C0C9F00012AFCE43BFDEC2400F582ED92
:0A0CAB003400F583E51BFCF0740231
:0C0CB5002AFAE43BFBEA2400F582EB3451
:0A0CC10000F583AA1A7B00EAF0A2F6
:030CCB000392AFE2
:010CCE002203
:080CCF00E582FA2483500122A2
:070CD70074035AFB600122C7
:0A0CDE00A2AF9204C2AFEA2400F5B1
:0C0CE80082E43401F5837402F07B007498
:0C0CF400012AFCE43BFDEC2400F582ED3D
:0A0D00003401F583E51BFCF07402DA
:0C0D0A002AFAE43BFBEA2400F582EB34FB
:0A0D160001F583AA1A7B00EAF0A29F
:040D20000492AF2268
:050D2400AA82BA800064
:070D29004005EA244B5001D4
:010D300022A0
:070D310074035AFB6001226C
:0A0D3800A2AF9205C2AFEA2480F5D5
:0C0D420082E43400F5837402F07B00743E
:0C0D4E00012AFCE43BFDEC2480F582ED62
:0A0D5A003400F583E51BFCF0740281
:0C0D64002AFAE43BFBEA2480F582EB3421
:0A0D700000F583AA1A7B00EAF0A246
:040D7A000592AF220D
:080D7E00C2E8C2EA751A007513
:060D86001B0175824312FF
:040D8C000C6C751A5C
:030D900080751B50
:0C0D930000758253120C6C0090E650E4D6
:0E0D9F00F00090E652E4F00090E654E4F0001C
:0E0DAD0090E656E4F00090E65174FFF00090DE
:0E0DBB00E65374FFF00090E65574FFF00090D0
:0E0DC900E65774FFF00090E658E4F090E6590B
:0E0DD70074FFF090E65AE4F090E65B74FFF0D3
:0E0DE50090E65CE4F090E65D74FFF090E65E50
:0E0DF300E4F090E65F74FFF00090E660E4F03C
:0D0E01000090E66174FFF090E662E4F0906E
:0E0E0E00E66374FFF090E665E4F090E6687429
:0A0E1C000BF05391AFD2E8D2EA22A6
:010E260022A9
:020E2700AA829D
:060E2900120E26DAFB2286
:030E2F0090FB50E5
:080E3200A3E582458370F9225B
:040E3A00AA82AB835A
:080E3E00120E2F1ABAFF011B6E
:070E4600BA00F5BB00F22227
:030E560075812083
:0A0E59001207D4E582600302018055
:00000001FF
